{"contracts/Healthcare.sol":{"Healthcare":{"abi":[{"inputs":[],"stateMutability":"nonpayable","type":"constructor"},{"anonymous":false,"inputs":[{"indexed":false,"internalType":"uint256","name":"id","type":"uint256"},{"indexed":false,"internalType":"uint256","name":"patientId","type":"uint256"},{"indexed":false,"internalType":"uint256","name":"doctorId","type":"uint256"},{"indexed":false,"internalType":"uint256","name":"date","type":"uint256"}],"name":"APPOINTMENT_BOOKED","type":"event"},{"anonymous":false,"inputs":[{"indexed":false,"internalType":"uint256","name":"id","type":"uint256"},{"indexed":false,"internalType":"bool","name":"isApproved","type":"bool"}],"name":"APPROVE_DOCTOR_STATUSD","type":"event"},{"anonymous":false,"inputs":[{"indexed":true,"internalType":"uint256","name":"requestId","type":"uint256"},{"indexed":false,"internalType":"uint256","name":"doctorId","type":"uint256"},{"indexed":false,"internalType":"uint256","name":"patientId","type":"uint256"}],"name":"AccessDenied","type":"event"},{"anonymous":false,"inputs":[{"indexed":true,"internalType":"uint256","name":"requestId","type":"uint256"},{"indexed":false,"internalType":"uint256","name":"doctorId","type":"uint256"},{"indexed":false,"internalType":"uint256","name":"patientId","type":"uint256"}],"name":"AccessGranted","type":"event"},{"anonymous":false,"inputs":[{"indexed":true,"internalType":"uint256","name":"requestId","type":"uint256"},{"indexed":false,"internalType":"uint256","name":"doctorId","type":"uint256"},{"indexed":false,"internalType":"uint256","name":"patientId","type":"uint256"},{"indexed":false,"internalType":"uint256","name":"recordId","type":"uint256"}],"name":"AccessRequested","type":"event"},{"anonymous":false,"inputs":[{"indexed":false,"internalType":"uint256","name":"id","type":"uint256"},{"indexed":false,"internalType":"string","name":"IPFS_URL","type":"string"},{"indexed":false,"internalType":"address","name":"accountAddress","type":"address"}],"name":"DOCTOR_REGISTERED","type":"event"},{"anonymous":false,"inputs":[{"indexed":false,"internalType":"uint256","name":"id","type":"uint256"},{"indexed":false,"internalType":"bool","name":"active","type":"bool"}],"name":"MEDICINE_ACTIVE","type":"event"},{"anonymous":false,"inputs":[{"indexed":false,"internalType":"uint256","name":"id","type":"uint256"},{"indexed":false,"internalType":"string","name":"url","type":"string"},{"indexed":false,"internalType":"string","name":"location","type":"string"}],"name":"MEDICINE_ADDED","type":"event"},{"anonymous":false,"inputs":[{"indexed":false,"internalType":"uint256","name":"patientId","type":"uint256"},{"indexed":false,"internalType":"uint256","name":"medicineId","type":"uint256"}],"name":"MEDICINE_BOUGHT","type":"event"},{"anonymous":false,"inputs":[{"indexed":false,"internalType":"uint256","name":"id","type":"uint256"},{"indexed":false,"internalType":"uint256","name":"discount","type":"uint256"}],"name":"MEDICINE_DISCOUNT","type":"event"},{"anonymous":false,"inputs":[{"indexed":false,"internalType":"uint256","name":"id","type":"uint256"},{"indexed":false,"internalType":"string","name":"newLocation","type":"string"}],"name":"MEDICINE_LOCATION","type":"event"},{"anonymous":false,"inputs":[{"indexed":false,"internalType":"uint256","name":"id","type":"uint256"},{"indexed":false,"internalType":"uint256","name":"medicineId","type":"uint256"},{"indexed":false,"internalType":"uint256","name":"patientId","type":"uint256"},{"indexed":false,"internalType":"uint256","name":"doctorId","type":"uint256"},{"indexed":false,"internalType":"uint256","name":"date","type":"uint256"}],"name":"MEDICINE_PRESCRIBED","type":"event"},{"anonymous":false,"inputs":[{"indexed":false,"internalType":"uint256","name":"id","type":"uint256"},{"indexed":false,"internalType":"uint256","name":"price","type":"uint256"}],"name":"MEDICINE_PRICE","type":"event"},{"anonymous":false,"inputs":[{"indexed":false,"internalType":"uint256","name":"id","type":"uint256"},{"indexed":false,"internalType":"uint256","name":"quantity","type":"uint256"}],"name":"MEDICINE_QUANTITY","type":"event"},{"anonymous":false,"inputs":[{"indexed":true,"internalType":"uint256","name":"patientId","type":"uint256"},{"indexed":false,"internalType":"uint256","name":"recordId","type":"uint256"},{"indexed":false,"internalType":"string","name":"ipfsHash","type":"string"}],"name":"MedicalRecordUploaded","type":"event"},{"anonymous":false,"inputs":[{"indexed":true,"internalType":"address","name":"user","type":"address"},{"indexed":false,"internalType":"string","name":"message","type":"string"},{"indexed":false,"internalType":"uint256","name":"timestamp","type":"uint256"}],"name":"NOTIFICATiON_SENT","type":"event"},{"anonymous":false,"inputs":[{"indexed":false,"internalType":"uint256","name":"id","type":"uint256"},{"indexed":false,"internalType":"string","name":"_IPFS_URL","type":"string"},{"indexed":false,"internalType":"string[]","name":"medicalHistory","type":"string[]"}],"name":"PATIENT_ADDED","type":"event"},{"anonymous":false,"inputs":[{"indexed":true,"internalType":"uint256","name":"patientId","type":"uint256"},{"indexed":false,"internalType":"uint256","name":"recordId","type":"uint256"},{"indexed":false,"internalType":"address","name":"updatedBy","type":"address"}],"name":"RecordUpdated","type":"event"},{"inputs":[{"internalType":"string","name":"_IPFS_URL","type":"string"},{"internalType":"address","name":"_address","type":"address"},{"internalType":"string","name":"_name","type":"string"},{"internalType":"string","name":"_type","type":"string"}],"name":"ADD_DOCTOR","outputs":[],"stateMutability":"payable","type":"function"},{"inputs":[{"internalType":"string","name":"_IPFS_URL","type":"string"},{"internalType":"uint256","name":"_price","type":"uint256"},{"internalType":"uint256","name":"_quantity","type":"uint256"},{"internalType":"uint256","name":"_discount","type":"uint256"},{"internalType":"string","name":"_currentLocation","type":"string"}],"name":"ADD_MEDICINE","outputs":[],"stateMutability":"nonpayable","type":"function"},{"inputs":[{"internalType":"string","name":"_IPFS_URL","type":"string"},{"internalType":"string[]","name":"_medicalHistory","type":"string[]"},{"internalType":"address","name":"_accountAddress","type":"address"},{"internalType":"uint256[]","name":"_boughtMedicines","type":"uint256[]"},{"internalType":"string","name":"_name","type":"string"},{"internalType":"address","name":"_doctorAddress","type":"address"},{"internalType":"string","name":"_doctorName","type":"string"},{"internalType":"string","name":"_type","type":"string"}],"name":"ADD_PATIENTS","outputs":[],"stateMutability":"payable","type":"function"},{"inputs":[{"internalType":"uint256","name":"_doctorId","type":"uint256"}],"name":"APPROVE_DOCTOR_STATUS","outputs":[],"stateMutability":"nonpayable","type":"function"},{"inputs":[{"internalType":"uint256","name":"_patientId","type":"uint256"},{"internalType":"uint256","name":"_doctorId","type":"uint256"},{"internalType":"string","name":"_from","type":"string"},{"internalType":"string","name":"_to","type":"string"},{"internalType":"string","name":"_appointmentDate","type":"string"},{"internalType":"string","name":"_condition","type":"string"},{"internalType":"string","name":"_message","type":"string"},{"internalType":"address","name":"_doctorAddress","type":"address"},{"internalType":"string","name":"_name","type":"string"}],"name":"BOOK_APPOINTMENT","outputs":[],"stateMutability":"payable","type":"function"},{"inputs":[{"internalType":"uint256","name":"_patientId","type":"uint256"},{"internalType":"uint256","name":"_medicineId","type":"uint256"},{"internalType":"uint256","name":"_quantity","type":"uint256"}],"name":"BUY_MEDICINE","outputs":[],"stateMutability":"payable","type":"function"},{"inputs":[{"internalType":"address","name":"pubkey","type":"address"}],"name":"CHECK_USER_EXISTS","outputs":[{"internalType":"bool","name":"","type":"bool"}],"stateMutability":"view","type":"function"},{"inputs":[{"internalType":"uint256","name":"_appointmentId","type":"uint256"}],"name":"COMPLETE_APPOINTMENT","outputs":[],"stateMutability":"nonpayable","type":"function"},{"inputs":[],"name":"GET_ALL_APPOINTMENTS","outputs":[{"components":[{"internalType":"uint256","name":"id","type":"uint256"},{"internalType":"uint256","name":"patientId","type":"uint256"},{"internalType":"uint256","name":"doctorId","type":"uint256"},{"internalType":"uint256","name":"date","type":"uint256"},{"internalType":"string","name":"from","type":"string"},{"internalType":"string","name":"to","type":"string"},{"internalType":"string","name":"appointmentDate","type":"string"},{"internalType":"string","name":"condition","type":"string"},{"internalType":"string","name":"message","type":"string"},{"internalType":"bool","name":"isOpen","type":"bool"}],"internalType":"struct Healthcare.Appointment[]","name":"","type":"tuple[]"}],"stateMutability":"view","type":"function"},{"inputs":[],"name":"GET_ALL_APPROVED_DOCTORS","outputs":[{"components":[{"internalType":"uint256","name":"id","type":"uint256"},{"internalType":"string","name":"IPFS_URL","type":"string"},{"internalType":"address","name":"accountAddress","type":"address"},{"internalType":"uint256","name":"appointmentCount","type":"uint256"},{"internalType":"uint256","name":"successfulTreatmentCount","type":"uint256"},{"internalType":"bool","name":"isApproved","type":"bool"}],"internalType":"struct Healthcare.Doctor[]","name":"","type":"tuple[]"}],"stateMutability":"view","type":"function"},{"inputs":[],"name":"GET_ALL_APP_USER","outputs":[{"components":[{"internalType":"string","name":"name","type":"string"},{"internalType":"address","name":"accountAddress","type":"address"}],"internalType":"struct Healthcare.AllUserStruck[]","name":"","type":"tuple[]"}],"stateMutability":"view","type":"function"},{"inputs":[{"internalType":"uint256","name":"patientId","type":"uint256"}],"name":"GET_ALL_PATIENT_ORDERS","outputs":[{"components":[{"internalType":"uint256","name":"medicineId","type":"uint256"},{"internalType":"uint256","name":"price","type":"uint256"},{"internalType":"uint256","name":"payAmount","type":"uint256"},{"internalType":"uint256","name":"quantity","type":"uint256"},{"internalType":"uint256","name":"patientId","type":"uint256"},{"internalType":"uint256","name":"date","type":"uint256"}],"internalType":"struct Healthcare.Order[]","name":"","type":"tuple[]"}],"stateMutability":"view","type":"function"},{"inputs":[],"name":"GET_ALL_PRESCRIBED_MEDICINES","outputs":[{"components":[{"internalType":"uint256","name":"id","type":"uint256"},{"internalType":"uint256","name":"medicineId","type":"uint256"},{"internalType":"uint256","name":"patientId","type":"uint256"},{"internalType":"uint256","name":"doctorId","type":"uint256"},{"internalType":"uint256","name":"date","type":"uint256"}],"internalType":"struct Healthcare.Prescription[]","name":"","type":"tuple[]"}],"stateMutability":"view","type":"function"},{"inputs":[{"internalType":"uint256","name":"patientId","type":"uint256"}],"name":"GET_ALL_PRESCRIBED_MEDICINES_OF_PATIENT","outputs":[{"components":[{"internalType":"uint256","name":"id","type":"uint256"},{"internalType":"uint256","name":"medicineId","type":"uint256"},{"internalType":"uint256","name":"patientId","type":"uint256"},{"internalType":"uint256","name":"doctorId","type":"uint256"},{"internalType":"uint256","name":"date","type":"uint256"}],"internalType":"struct Healthcare.Prescription[]","name":"","type":"tuple[]"}],"stateMutability":"view","type":"function"},{"inputs":[],"name":"GET_ALL_REGISTERED_DOCTORS","outputs":[{"components":[{"internalType":"uint256","name":"id","type":"uint256"},{"internalType":"string","name":"IPFS_URL","type":"string"},{"internalType":"address","name":"accountAddress","type":"address"},{"internalType":"uint256","name":"appointmentCount","type":"uint256"},{"internalType":"uint256","name":"successfulTreatmentCount","type":"uint256"},{"internalType":"bool","name":"isApproved","type":"bool"}],"internalType":"struct Healthcare.Doctor[]","name":"","type":"tuple[]"}],"stateMutability":"view","type":"function"},{"inputs":[],"name":"GET_ALL_REGISTERED_MEDICINES","outputs":[{"components":[{"internalType":"uint256","name":"id","type":"uint256"},{"internalType":"string","name":"IPFS_URL","type":"string"},{"internalType":"uint256","name":"price","type":"uint256"},{"internalType":"uint256","name":"quantity","type":"uint256"},{"internalType":"uint256","name":"discount","type":"uint256"},{"internalType":"string","name":"currentLocation","type":"string"},{"internalType":"bool","name":"active","type":"bool"}],"internalType":"struct Healthcare.Medicine[]","name":"","type":"tuple[]"}],"stateMutability":"view","type":"function"},{"inputs":[],"name":"GET_ALL_REGISTERED_PATIENTS","outputs":[{"components":[{"internalType":"uint256","name":"id","type":"uint256"},{"internalType":"string","name":"IPFS_URL","type":"string"},{"internalType":"string[]","name":"medicalHistory","type":"string[]"},{"internalType":"address","name":"accountAddress","type":"address"},{"internalType":"uint256[]","name":"boughtMedicines","type":"uint256[]"}],"internalType":"struct Healthcare.Patient[]","name":"","type":"tuple[]"}],"stateMutability":"view","type":"function"},{"inputs":[{"internalType":"uint256","name":"_patientId","type":"uint256"}],"name":"GET_BOUGHT_MEDICINE_BY_PAITENT","outputs":[{"internalType":"uint256[]","name":"","type":"uint256[]"}],"stateMutability":"view","type":"function"},{"inputs":[{"internalType":"uint256","name":"_doctorId","type":"uint256"}],"name":"GET_DOCTOR_APPOINTMENTS_HISTORYS","outputs":[{"components":[{"internalType":"uint256","name":"id","type":"uint256"},{"internalType":"uint256","name":"patientId","type":"uint256"},{"internalType":"uint256","name":"doctorId","type":"uint256"},{"internalType":"uint256","name":"date","type":"uint256"},{"internalType":"string","name":"from","type":"string"},{"internalType":"string","name":"to","type":"string"},{"internalType":"string","name":"appointmentDate","type":"string"},{"internalType":"string","name":"condition","type":"string"},{"internalType":"string","name":"message","type":"string"},{"internalType":"bool","name":"isOpen","type":"bool"}],"internalType":"struct Healthcare.Appointment[]","name":"","type":"tuple[]"}],"stateMutability":"view","type":"function"},{"inputs":[{"internalType":"uint256","name":"_doctorId","type":"uint256"}],"name":"GET_DOCTOR_DETAILS","outputs":[{"components":[{"internalType":"uint256","name":"id","type":"uint256"},{"internalType":"string","name":"IPFS_URL","type":"string"},{"internalType":"address","name":"accountAddress","type":"address"},{"internalType":"uint256","name":"appointmentCount","type":"uint256"},{"internalType":"uint256","name":"successfulTreatmentCount","type":"uint256"},{"internalType":"bool","name":"isApproved","type":"bool"}],"internalType":"struct Healthcare.Doctor","name":"","type":"tuple"}],"stateMutability":"view","type":"function"},{"inputs":[{"internalType":"address","name":"_doctorAddress","type":"address"}],"name":"GET_DOCTOR_ID","outputs":[{"internalType":"uint256","name":"","type":"uint256"}],"stateMutability":"view","type":"function"},{"inputs":[{"internalType":"uint256","name":"_doctorId","type":"uint256"}],"name":"GET_DOCTOR_PATIENTS","outputs":[{"components":[{"internalType":"uint256","name":"id","type":"uint256"},{"internalType":"string","name":"IPFS_URL","type":"string"},{"internalType":"string[]","name":"medicalHistory","type":"string[]"},{"internalType":"address","name":"accountAddress","type":"address"},{"internalType":"uint256[]","name":"boughtMedicines","type":"uint256[]"}],"internalType":"struct Healthcare.Patient[]","name":"","type":"tuple[]"}],"stateMutability":"view","type":"function"},{"inputs":[{"internalType":"uint256","name":"_medicineId","type":"uint256"}],"name":"GET_MEDICINE_DETAILS","outputs":[{"components":[{"internalType":"uint256","name":"id","type":"uint256"},{"internalType":"string","name":"IPFS_URL","type":"string"},{"internalType":"uint256","name":"price","type":"uint256"},{"internalType":"uint256","name":"quantity","type":"uint256"},{"internalType":"uint256","name":"discount","type":"uint256"},{"internalType":"string","name":"currentLocation","type":"string"},{"internalType":"bool","name":"active","type":"bool"}],"internalType":"struct Healthcare.Medicine","name":"","type":"tuple"}],"stateMutability":"view","type":"function"},{"inputs":[],"name":"GET_MOST_POPULAR_DOCTOR","outputs":[{"components":[{"internalType":"uint256","name":"id","type":"uint256"},{"internalType":"string","name":"IPFS_URL","type":"string"},{"internalType":"address","name":"accountAddress","type":"address"},{"internalType":"uint256","name":"appointmentCount","type":"uint256"},{"internalType":"uint256","name":"successfulTreatmentCount","type":"uint256"},{"internalType":"bool","name":"isApproved","type":"bool"}],"internalType":"struct Healthcare.Doctor","name":"","type":"tuple"}],"stateMutability":"view","type":"function"},{"inputs":[{"internalType":"address","name":"_address","type":"address"}],"name":"GET_MY_FRIEND_LIST","outputs":[{"components":[{"internalType":"address","name":"pubkey","type":"address"},{"internalType":"string","name":"name","type":"string"}],"internalType":"struct Healthcare.friend[]","name":"","type":"tuple[]"}],"stateMutability":"view","type":"function"},{"inputs":[{"internalType":"address","name":"_userAddress","type":"address"}],"name":"GET_NOTIFICATIONS","outputs":[{"components":[{"internalType":"uint256","name":"id","type":"uint256"},{"internalType":"address","name":"userAddress","type":"address"},{"internalType":"string","name":"message","type":"string"},{"internalType":"uint256","name":"timestamp","type":"uint256"},{"internalType":"string","name":"categoryType","type":"string"}],"internalType":"struct Healthcare.Notification[]","name":"","type":"tuple[]"}],"stateMutability":"view","type":"function"},{"inputs":[{"internalType":"uint256","name":"_appointmentId","type":"uint256"}],"name":"GET_PATIENT_APPOINTMENT","outputs":[{"components":[{"internalType":"uint256","name":"id","type":"uint256"},{"internalType":"uint256","name":"patientId","type":"uint256"},{"internalType":"uint256","name":"doctorId","type":"uint256"},{"internalType":"uint256","name":"date","type":"uint256"},{"internalType":"string","name":"from","type":"string"},{"internalType":"string","name":"to","type":"string"},{"internalType":"string","name":"appointmentDate","type":"string"},{"internalType":"string","name":"condition","type":"string"},{"internalType":"string","name":"message","type":"string"},{"internalType":"bool","name":"isOpen","type":"bool"}],"internalType":"struct Healthcare.Appointment","name":"","type":"tuple"}],"stateMutability":"view","type":"function"},{"inputs":[{"internalType":"uint256","name":"_patientId","type":"uint256"}],"name":"GET_PATIENT_APPOINTMENT_HISTORYS","outputs":[{"components":[{"internalType":"uint256","name":"id","type":"uint256"},{"internalType":"uint256","name":"patientId","type":"uint256"},{"internalType":"uint256","name":"doctorId","type":"uint256"},{"internalType":"uint256","name":"date","type":"uint256"},{"internalType":"string","name":"from","type":"string"},{"internalType":"string","name":"to","type":"string"},{"internalType":"string","name":"appointmentDate","type":"string"},{"internalType":"string","name":"condition","type":"string"},{"internalType":"string","name":"message","type":"string"},{"internalType":"bool","name":"isOpen","type":"bool"}],"internalType":"struct Healthcare.Appointment[]","name":"","type":"tuple[]"}],"stateMutability":"view","type":"function"},{"inputs":[{"internalType":"uint256","name":"_patientId","type":"uint256"}],"name":"GET_PATIENT_DETAILS","outputs":[{"components":[{"internalType":"uint256","name":"id","type":"uint256"},{"internalType":"string","name":"IPFS_URL","type":"string"},{"internalType":"string[]","name":"medicalHistory","type":"string[]"},{"internalType":"address","name":"accountAddress","type":"address"},{"internalType":"uint256[]","name":"boughtMedicines","type":"uint256[]"}],"internalType":"struct Healthcare.Patient","name":"","type":"tuple"}],"stateMutability":"view","type":"function"},{"inputs":[{"internalType":"address","name":"_patientAddress","type":"address"}],"name":"GET_PATIENT_ID","outputs":[{"internalType":"uint256","name":"","type":"uint256"}],"stateMutability":"view","type":"function"},{"inputs":[{"internalType":"uint256","name":"_patientId","type":"uint256"}],"name":"GET_PATIENT_MEDICIAL_HISTORY","outputs":[{"internalType":"string[]","name":"","type":"string[]"}],"stateMutability":"view","type":"function"},{"inputs":[{"internalType":"uint256","name":"_prescriptionId","type":"uint256"}],"name":"GET_PRESCRIPTION_DETAILS","outputs":[{"components":[{"internalType":"uint256","name":"id","type":"uint256"},{"internalType":"uint256","name":"medicineId","type":"uint256"},{"internalType":"uint256","name":"patientId","type":"uint256"},{"internalType":"uint256","name":"doctorId","type":"uint256"},{"internalType":"uint256","name":"date","type":"uint256"}],"internalType":"struct Healthcare.Prescription","name":"","type":"tuple"}],"stateMutability":"view","type":"function"},{"inputs":[{"internalType":"address","name":"friend_key","type":"address"},{"internalType":"address","name":"_myAddress","type":"address"}],"name":"GET_READ_MESSAGE","outputs":[{"components":[{"internalType":"address","name":"sender","type":"address"},{"internalType":"uint256","name":"timestamp","type":"uint256"},{"internalType":"string","name":"msg","type":"string"}],"internalType":"struct Healthcare.message[]","name":"","type":"tuple[]"}],"stateMutability":"view","type":"function"},{"inputs":[{"internalType":"address","name":"pubkey","type":"address"}],"name":"GET_USERNAME_TYPE","outputs":[{"components":[{"internalType":"string","name":"name","type":"string"},{"internalType":"string","name":"userType","type":"string"},{"components":[{"internalType":"address","name":"pubkey","type":"address"},{"internalType":"string","name":"name","type":"string"}],"internalType":"struct Healthcare.friend[]","name":"friendList","type":"tuple[]"}],"internalType":"struct Healthcare.User","name":"","type":"tuple"}],"stateMutability":"view","type":"function"},{"inputs":[{"internalType":"uint256","name":"_medicineId","type":"uint256"},{"internalType":"uint256","name":"_patientId","type":"uint256"}],"name":"PRESCRIBE_MEDICINE","outputs":[],"stateMutability":"nonpayable","type":"function"},{"inputs":[{"internalType":"address payable","name":"_newAddress","type":"address"}],"name":"UPDATE_ADMIN_ADDRESS","outputs":[],"stateMutability":"nonpayable","type":"function"},{"inputs":[{"internalType":"uint256","name":"_newFee","type":"uint256"}],"name":"UPDATE_APPOINTMENT_FEE","outputs":[],"stateMutability":"nonpayable","type":"function"},{"inputs":[{"internalType":"uint256","name":"_medicineId","type":"uint256"}],"name":"UPDATE_MEDICINE_ACTIVE","outputs":[],"stateMutability":"nonpayable","type":"function"},{"inputs":[{"internalType":"uint256","name":"_medicineId","type":"uint256"},{"internalType":"uint256","name":"_discount","type":"uint256"}],"name":"UPDATE_MEDICINE_DISCOUNT","outputs":[],"stateMutability":"nonpayable","type":"function"},{"inputs":[{"internalType":"uint256","name":"_medicineId","type":"uint256"},{"internalType":"string","name":"_newLocation","type":"string"}],"name":"UPDATE_MEDICINE_LOCATION","outputs":[],"stateMutability":"nonpayable","type":"function"},{"inputs":[{"internalType":"uint256","name":"_medicineId","type":"uint256"},{"internalType":"uint256","name":"_price","type":"uint256"}],"name":"UPDATE_MEDICINE_PRICE","outputs":[],"stateMutability":"nonpayable","type":"function"},{"inputs":[{"internalType":"uint256","name":"_medicineId","type":"uint256"},{"internalType":"uint256","name":"_quantity","type":"uint256"}],"name":"UPDATE_MEDICINE_QUANTITY","outputs":[],"stateMutability":"nonpayable","type":"function"},{"inputs":[{"internalType":"uint256","name":"_patientId","type":"uint256"},{"internalType":"string","name":"_newMedicalHistory","type":"string"}],"name":"UPDATE_PATIENT_MEDICAL_HISTORY","outputs":[],"stateMutability":"nonpayable","type":"function"},{"inputs":[{"internalType":"uint256","name":"_newFee","type":"uint256"}],"name":"UPDATE_REGISTRATION_FEE","outputs":[],"stateMutability":"nonpayable","type":"function"},{"inputs":[{"internalType":"uint256","name":"_newFee","type":"uint256"}],"name":"UPDATE_REGISTRATION_PATIENT_FEE","outputs":[],"stateMutability":"nonpayable","type":"function"},{"inputs":[{"internalType":"address","name":"friend_key","type":"address"},{"internalType":"address","name":"_myAddress","type":"address"},{"internalType":"string","name":"_msg","type":"string"}],"name":"_SEND_MESSAGE","outputs":[],"stateMutability":"nonpayable","type":"function"},{"inputs":[],"name":"accessRequestCounter","outputs":[{"internalType":"uint256","name":"","type":"uint256"}],"stateMutability":"view","type":"function"},{"inputs":[],"name":"admin","outputs":[{"internalType":"address payable","name":"","type":"address"}],"stateMutability":"view","type":"function"},{"inputs":[],"name":"appointmentCount","outputs":[{"internalType":"uint256","name":"","type":"uint256"}],"stateMutability":"view","type":"function"},{"inputs":[],"name":"appointmentFee","outputs":[{"internalType":"uint256","name":"","type":"uint256"}],"stateMutability":"view","type":"function"},{"inputs":[{"internalType":"uint256","name":"","type":"uint256"}],"name":"appointments","outputs":[{"internalType":"uint256","name":"id","type":"uint256"},{"internalType":"uint256","name":"patientId","type":"uint256"},{"internalType":"uint256","name":"doctorId","type":"uint256"},{"internalType":"uint256","name":"date","type":"uint256"},{"internalType":"string","name":"from","type":"string"},{"internalType":"string","name":"to","type":"string"},{"internalType":"string","name":"appointmentDate","type":"string"},{"internalType":"string","name":"condition","type":"string"},{"internalType":"string","name":"message","type":"string"},{"internalType":"bool","name":"isOpen","type":"bool"}],"stateMutability":"view","type":"function"},{"inputs":[{"internalType":"uint256","name":"_requestIndex","type":"uint256"}],"name":"approveAccessRequest","outputs":[],"stateMutability":"nonpayable","type":"function"},{"inputs":[{"internalType":"uint256","name":"_patientId","type":"uint256"},{"internalType":"uint256","name":"_recordId","type":"uint256"}],"name":"deactivateMedicalRecord","outputs":[],"stateMutability":"nonpayable","type":"function"},{"inputs":[{"internalType":"uint256","name":"_requestIndex","type":"uint256"}],"name":"denyAccessRequest","outputs":[],"stateMutability":"nonpayable","type":"function"},{"inputs":[{"internalType":"address","name":"","type":"address"}],"name":"doctorAddressToId","outputs":[{"internalType":"uint256","name":"","type":"uint256"}],"stateMutability":"view","type":"function"},{"inputs":[],"name":"doctorCount","outputs":[{"internalType":"uint256","name":"","type":"uint256"}],"stateMutability":"view","type":"function"},{"inputs":[{"internalType":"uint256","name":"","type":"uint256"}],"name":"doctorIdToAddress","outputs":[{"internalType":"address","name":"","type":"address"}],"stateMutability":"view","type":"function"},{"inputs":[{"internalType":"uint256","name":"","type":"uint256"},{"internalType":"uint256","name":"","type":"uint256"}],"name":"doctorRecordAccess","outputs":[{"internalType":"bool","name":"","type":"bool"}],"stateMutability":"view","type":"function"},{"inputs":[{"internalType":"uint256","name":"","type":"uint256"}],"name":"doctors","outputs":[{"internalType":"uint256","name":"id","type":"uint256"},{"internalType":"string","name":"IPFS_URL","type":"string"},{"internalType":"address","name":"accountAddress","type":"address"},{"internalType":"uint256","name":"appointmentCount","type":"uint256"},{"internalType":"uint256","name":"successfulTreatmentCount","type":"uint256"},{"internalType":"bool","name":"isApproved","type":"bool"}],"stateMutability":"view","type":"function"},{"inputs":[{"internalType":"uint256","name":"_patientId","type":"uint256"},{"internalType":"uint256","name":"_recordId","type":"uint256"}],"name":"getEncryptedRecord","outputs":[{"components":[{"internalType":"uint256","name":"id","type":"uint256"},{"internalType":"uint256","name":"patientId","type":"uint256"},{"internalType":"string","name":"ipfsHash","type":"string"},{"internalType":"string","name":"encryptedAESKey","type":"string"},{"internalType":"string","name":"accessPolicy","type":"string"},{"internalType":"uint256","name":"timestamp","type":"uint256"},{"internalType":"address","name":"uploadedBy","type":"address"},{"internalType":"bool","name":"isActive","type":"bool"}],"internalType":"struct Healthcare.EncryptedMedicalRecord","name":"","type":"tuple"}],"stateMutability":"view","type":"function"},{"inputs":[{"internalType":"uint256","name":"_patientId","type":"uint256"}],"name":"getPatientAccessRequests","outputs":[{"components":[{"internalType":"uint256","name":"id","type":"uint256"},{"internalType":"uint256","name":"recordId","type":"uint256"},{"internalType":"uint256","name":"doctorId","type":"uint256"},{"internalType":"uint256","name":"patientId","type":"uint256"},{"internalType":"string","name":"reason","type":"string"},{"internalType":"uint256","name":"timestamp","type":"uint256"},{"internalType":"bool","name":"isPending","type":"bool"},{"internalType":"bool","name":"isApproved","type":"bool"}],"internalType":"struct Healthcare.AccessRequest[]","name":"","type":"tuple[]"}],"stateMutability":"view","type":"function"},{"inputs":[{"internalType":"uint256","name":"_patientId","type":"uint256"}],"name":"getPatientEncryptedRecords","outputs":[{"components":[{"internalType":"uint256","name":"id","type":"uint256"},{"internalType":"uint256","name":"patientId","type":"uint256"},{"internalType":"string","name":"ipfsHash","type":"string"},{"internalType":"string","name":"encryptedAESKey","type":"string"},{"internalType":"string","name":"accessPolicy","type":"string"},{"internalType":"uint256","name":"timestamp","type":"uint256"},{"internalType":"address","name":"uploadedBy","type":"address"},{"internalType":"bool","name":"isActive","type":"bool"}],"internalType":"struct Healthcare.EncryptedMedicalRecord[]","name":"","type":"tuple[]"}],"stateMutability":"view","type":"function"},{"inputs":[{"internalType":"uint256","name":"_patientId","type":"uint256"},{"internalType":"uint256","name":"_doctorId","type":"uint256"}],"name":"hasDoctorAccess","outputs":[{"internalType":"bool","name":"","type":"bool"}],"stateMutability":"view","type":"function"},{"inputs":[],"name":"medicineCount","outputs":[{"internalType":"uint256","name":"","type":"uint256"}],"stateMutability":"view","type":"function"},{"inputs":[{"internalType":"uint256","name":"","type":"uint256"}],"name":"medicines","outputs":[{"internalType":"uint256","name":"id","type":"uint256"},{"internalType":"string","name":"IPFS_URL","type":"string"},{"internalType":"uint256","name":"price","type":"uint256"},{"internalType":"uint256","name":"quantity","type":"uint256"},{"internalType":"uint256","name":"discount","type":"uint256"},{"internalType":"string","name":"currentLocation","type":"string"},{"internalType":"bool","name":"active","type":"bool"}],"stateMutability":"view","type":"function"},{"inputs":[{"internalType":"uint256","name":"","type":"uint256"},{"internalType":"uint256","name":"","type":"uint256"}],"name":"patientAccessRequests","outputs":[{"internalType":"uint256","name":"id","type":"uint256"},{"internalType":"uint256","name":"recordId","type":"uint256"},{"internalType":"uint256","name":"doctorId","type":"uint256"},{"internalType":"uint256","name":"patientId","type":"uint256"},{"internalType":"string","name":"reason","type":"string"},{"internalType":"uint256","name":"timestamp","type":"uint256"},{"internalType":"bool","name":"isPending","type":"bool"},{"internalType":"bool","name":"isApproved","type":"bool"}],"stateMutability":"view","type":"function"},{"inputs":[{"internalType":"address","name":"","type":"address"}],"name":"patientAddressToId","outputs":[{"internalType":"uint256","name":"","type":"uint256"}],"stateMutability":"view","type":"function"},{"inputs":[],"name":"patientCount","outputs":[{"internalType":"uint256","name":"","type":"uint256"}],"stateMutability":"view","type":"function"},{"inputs":[{"internalType":"uint256","name":"","type":"uint256"}],"name":"patientIdToAddress","outputs":[{"internalType":"address","name":"","type":"address"}],"stateMutability":"view","type":"function"},{"inputs":[{"internalType":"uint256","name":"","type":"uint256"},{"internalType":"uint256","name":"","type":"uint256"}],"name":"patientMedicalRecords","outputs":[{"internalType":"uint256","name":"id","type":"uint256"},{"internalType":"uint256","name":"patientId","type":"uint256"},{"internalType":"string","name":"ipfsHash","type":"string"},{"internalType":"string","name":"encryptedAESKey","type":"string"},{"internalType":"string","name":"accessPolicy","type":"string"},{"internalType":"uint256","name":"timestamp","type":"uint256"},{"internalType":"address","name":"uploadedBy","type":"address"},{"internalType":"bool","name":"isActive","type":"bool"}],"stateMutability":"view","type":"function"},{"inputs":[{"internalType":"uint256","name":"","type":"uint256"},{"internalType":"uint256","name":"","type":"uint256"}],"name":"patientOrders","outputs":[{"internalType":"uint256","name":"medicineId","type":"uint256"},{"internalType":"uint256","name":"price","type":"uint256"},{"internalType":"uint256","name":"payAmount","type":"uint256"},{"internalType":"uint256","name":"quantity","type":"uint256"},{"internalType":"uint256","name":"patientId","type":"uint256"},{"internalType":"uint256","name":"date","type":"uint256"}],"stateMutability":"view","type":"function"},{"inputs":[{"internalType":"uint256","name":"","type":"uint256"}],"name":"patients","outputs":[{"internalType":"uint256","name":"id","type":"uint256"},{"internalType":"string","name":"IPFS_URL","type":"string"},{"internalType":"address","name":"accountAddress","type":"address"}],"stateMutability":"view","type":"function"},{"inputs":[],"name":"prescriptionCount","outputs":[{"internalType":"uint256","name":"","type":"uint256"}],"stateMutability":"view","type":"function"},{"inputs":[{"internalType":"uint256","name":"","type":"uint256"}],"name":"prescriptions","outputs":[{"internalType":"uint256","name":"id","type":"uint256"},{"internalType":"uint256","name":"medicineId","type":"uint256"},{"internalType":"uint256","name":"patientId","type":"uint256"},{"internalType":"uint256","name":"doctorId","type":"uint256"},{"internalType":"uint256","name":"date","type":"uint256"}],"stateMutability":"view","type":"function"},{"inputs":[{"internalType":"address","name":"","type":"address"}],"name":"registeredDoctors","outputs":[{"internalType":"bool","name":"","type":"bool"}],"stateMutability":"view","type":"function"},{"inputs":[{"internalType":"address","name":"","type":"address"}],"name":"registeredPatients","outputs":[{"internalType":"bool","name":"","type":"bool"}],"stateMutability":"view","type":"function"},{"inputs":[],"name":"registrationDoctorFee","outputs":[{"internalType":"uint256","name":"","type":"uint256"}],"stateMutability":"view","type":"function"},{"inputs":[],"name":"registrationPatientFee","outputs":[{"internalType":"uint256","name":"","type":"uint256"}],"stateMutability":"view","type":"function"},{"inputs":[{"internalType":"uint256","name":"_patientId","type":"uint256"},{"internalType":"uint256","name":"_recordId","type":"uint256"},{"internalType":"string","name":"_reason","type":"string"}],"name":"requestRecordAccess","outputs":[],"stateMutability":"nonpayable","type":"function"},{"inputs":[{"internalType":"uint256","name":"_doctorId","type":"uint256"}],"name":"revokeAccess","outputs":[],"stateMutability":"nonpayable","type":"function"},{"inputs":[{"internalType":"uint256","name":"_patientId","type":"uint256"},{"internalType":"uint256","name":"_recordId","type":"uint256"},{"internalType":"string","name":"_newIpfsHash","type":"string"},{"internalType":"string","name":"_newEncryptedAESKey","type":"string"}],"name":"updateEncryptedMedicalRecord","outputs":[],"stateMutability":"nonpayable","type":"function"},{"inputs":[{"internalType":"uint256","name":"_patientId","type":"uint256"},{"internalType":"string","name":"_ipfsHash","type":"string"},{"internalType":"string","name":"_encryptedAESKey","type":"string"},{"internalType":"string","name":"_accessPolicy","type":"string"}],"name":"uploadEncryptedMedicalRecord","outputs":[{"internalType":"uint256","name":"","type":"uint256"}],"stateMutability":"nonpayable","type":"function"}],"evm":{"bytecode":{"linkReferences":{},"object":"60808060405234610043576608e1bc9bf04000601a81905565e35fa931a000601b55601c55601980546001600160a01b031916331790556170829081620000498239f35b600080fdfe6080604052600436101561001257600080fd5b60003560e01c806302cce77014615546578063046a07ed146154c057806304c0adb71461549d578063082ed547146154725780630e3e3dd31461543857806312dc90131461533f578063178cb1581461526c5780631b82207e1461523f5780632a42e74c146150d95780632c486bd514615025578063317ee45f14614d4a57806331dfc91b14614ce2578063354b365f14614b5857806337a92da71461493b57806339d519a91461488a5780633c5af33d146147025780633f308cd2146146c35780634dafd490146146a5578063540a661414614687578063559160b81461450e5780635597958e1461436257806356baa64e1461423e5780635970cea414613c8c5780635e6951e314613aff5780635ef2a41414613786578063636d36271461373557806366f697b8146136195780636be381311461349e5780636efb1b841461341557806372de4401146132a757806374cdd5341461322e578063763a32f3146131fa578063770d954d1461314557806378522bc414613127578063791cda0f14612f085780637c0b501a14612dfd578063828b10da14612cdd578063833ffe9414612c375780638366304b1461288e578063842f8dd0146127da57806384e7aa2e1461265f5780638c9e245d146125c957806393119a831461257d57806395027d41146124595780639cdaaad81461241a5780639da8e0db146123fc5780639f0893c2146123645780639fea8c26146121ff578063a0303c41146121e1578063a48f87d01461216f578063a72c162314612082578063aca7a60614610523578063b039ece914611f50578063b27b24f814611e3a578063b3e0c71014611de9578063b655849814611dcb578063b868f72914611cf2578063b884db75146119e3578063bbece2bb14611922578063c0a5999a1461182c578063c2c9a9bc146117f8578063c469c7e6146117be578063c85e766d14611721578063d0da230614611602578063d174ea4114611573578063dabf826a14611555578063dd1bf902146113a1578063e1b97d6914611294578063e40b850e14611276578063e92f0a68146111d6578063ea51cd6c146110cd578063ebd557d914610c30578063ed74e848146109d7578063eebc3fb2146109b9578063f27e44cc1461091e578063f28136a914610897578063f851a4401461086e578063fb5333b714610790578063fd9510d51461055b578063fe2df1c314610523578063fe60efa11461048c5763ff09a64e146103a257600080fd5b3461048757602080600319360112610487576060906103bf6155e2565b82604080516103cd816156ec565b828152828582015201526103e86103e382616983565b616c34565b60018060a01b0316600052600181526104836040600020916040519261040d846156ec565b61041681615728565b845261047261045c61043c600261042f60018601615728565b9486890195865201616c79565b9360408701948552604051978897828952519188015260808701906157ce565b915191601f1992838783030160408801526157ce565b915190848303016060850152615dfb565b0390f35b600080fd5b34610487576020366003190112610487576104a561686f565b506004356000526006602052610483604060002060ff6005604051926104ca8461569b565b805484526104da60018201615728565b602085015260018060a01b0360028201541660408501526003810154606085015260048101546080850152015416151560a0820152604051918291602083526020830190615b5d565b34610487576105313661580e565b906000526012602052604060002090600052602052602060ff604060002054166040519015158152f35b3461048757602080600319360112610487576004359033600052600a815261058a60ff60406000205416616181565b6105986017548311156164e9565b81600052600981526002604060002001546105b2336168f1565b0361072e578161072c9260005260098252600960406000200160ff1981541690556105dc336168f1565b6000526006825260046040600020016105f58154616070565b9055610656604051610606816156ec565b602f81527f596f752068617665207375636365737366756c6c7920636f6d706c6574656420848201526e1d1a1948185c1c1bda5b9d1b595b9d608a1b604082015261064f616426565b90336161e5565b600052600981526001604060002001546000526007815260018060a01b036106d8816003604060002001541660405161068e816156ec565b602a81527f596f7572204170706f696e746d656e74206973207375636365737366756c6c7985820152690818dbdb5c1b195d195960b21b60408201526106d2616426565b916161e5565b60195416907f446f63746f7220636f6d706c65746564206170706f696e746d656e74207375636040519161070b836156ec565b60298352820152686365737366756c6c7960b81b60408201526106d2616426565b005b6084906040519062461bcd60e51b82526004820152603560248201527f4f6e6c79207468652061737369676e656420646f63746f722063616e20636f6d6044820152741c1b195d19481d1a1948185c1c1bda5b9d1b595b9d605a1b6064820152fd5b34610487577f573cca7a8cd583da809cdb83b4ea8dec06c87da579a25478cc69566672e2b5896107bf366158a4565b906107d560018060a01b03601954163314616313565b6107e360135482111561638e565b8060005260056020526107fd826005604060002001615ec5565b61084d60405161080c816156ec565b602681527f4d65646963696e65206c6f636174696f6e2075706461746564207375636365736020820152657366756c6c7960d01b604082015261064f61636a565b61086960405192839283526040602084015260408301906157ce565b0390a1005b34610487576000366003190112610487576019546040516001600160a01b039091168152602090f35b346104875760203660031901126104875760195461072c906001600160a01b03166108c3338214616313565b600435601a556040516108d5816156ec565b602e81527f596f752068617665207375636365737366756c6c79207570646174656420526560208201526d67697374726174696f6e2066656560901b60408201526106d26165aa565b34610487576020366003190112610487576109376165cb565b50600435600052600860205260a0604060002060046040519161095983615648565b80548352600181015460208401526002810154604084015260038101546060840152015460808201526109b7604051809260808091805184526020810151602085015260408101516040850152606081015160608501520151910152565bf35b34610487576000366003190112610487576020601754604051908152f35b34610487576060366003190112610487576109f06155e2565b6109f86155f8565b906044356001600160401b03811161048757610a189036906004016159ee565b929091610a2c610a2783616983565b616cf4565b610a386103e382616983565b610a428183616e60565b15610bdc57610a518183616fb6565b9060405194610a5f866156ec565b60018060a01b03938481168752610a80602096878901934285523691615840565b9360408801948552600052600286526040600020805497600160401b891015610bc65760018901808355891015610bb0576002610b6e96610b3a958961072c9c610af29660005260038d6000209102019451166001600160601b0360a01b855416178455516001840155519101615ec5565b604051610afe816156ec565b602281527f596f752068617665207375636365737366756c6c792073656e74206d657373618782015261676560f01b60408201526106d2616f93565b604051610b46816156b6565b6014815273596f752068617665206e6577206d65737361676560601b858201526106d2616f93565b60195416907f4d6573736167652073656e74207375636365737366756c6c790000000000000060405191610ba1836156b6565b601983528201526106d2616f93565b634e487b7160e01b600052603260045260246000fd5b634e487b7160e01b600052604160045260246000fd5b60405162461bcd60e51b815260206004820152602660248201527f596f7520617265206e6f7420667269656e64207769746820746865206769766560448201526537103ab9b2b960d11b6064820152608490fd5b610120366003190112610487576001600160401b0360443581811161048757610c5d903690600401615886565b60643582811161048757610c75903690600401615886565b9060843583811161048757610c8e903690600401615886565b9060a43584811161048757610ca7903690600401615886565b9260c43585811161048757610cc0903690600401615886565b9460e4356001600160a01b0381169003610487576101043590811161048757610ced9036906004016159ee565b959094610d00601554600435111561648c565b610d106014546024351115616448565b6024356000526006602052610d2f60ff60056040600020015416616535565b6004356000908152600760205260409020600301546001600160a01b0316330361107457601c54340361102f57610d6b600a349081049061659d565b94601754610d7890616070565b938460175560405195610d8a8761567f565b858752602087016004358152604088016024358152606089019142835260808a0193845260a08a0194855260c08a0195865260e08a019687526101008a019788526101208a019860018a526000526009602052604060002099518a555160018a0155516002890155516003880155516004870190610e0791615ec5565b51610e159060058701615ec5565b51610e239060068601615ec5565b51610e319060078501615ec5565b51610e3f9060088401615ec5565b5115159060090190610e5c919060ff801983541691151516179055565b602435600052600660205260406000206003018054610e7a90616070565b905560195460009081908190819081906001600160a01b0316600a340415611025575b600a340491f115611010576000808080936024358252600660205260018060a01b0360026040842001541682821561101c575bf11561101057610ee491339160e435616d40565b610f2e604051610ef3816156b6565b601a81527f596f7520686176652061206e6577206170706f696e746d656e740000000000006020820152610f2561657a565b9060e4356161e5565b610f83604051610f3d816156ec565b602b81527f596f752068617665207375636365737366756c6c7920626f6f6b656420616e2060208201526a185c1c1bda5b9d1b595b9d60aa1b604082015261064f61657a565b601954604051610fcb916001600160a01b031690610fa0816156b6565b601681527513995dc8185c1c1bda5b9d1b595b9d08189bdbdad95960521b60208201526106d261657a565b7f3ac6f9df28ef09d1b346be1f7d771f61872f07de8da7b88f490fe4f61b2b3e2c608060175460405190815260043560208201526024356040820152426060820152a1005b6040513d6000823e3d90fd5b506108fc610ed0565b6108fc9150610e9d565b60405162461bcd60e51b815260206004820152601960248201527f496e636f7272656374206170706f696e746d656e7420666565000000000000006044820152606490fd5b60405162461bcd60e51b815260206004820152602b60248201527f4f6e6c79207468652070617469656e742063616e20626f6f6b2074686569722060448201526a185c1c1bda5b9d1b595b9d60aa1b6064820152608490fd5b34610487576000366003190112610487576017546110ea8161681f565b9060018060005b8383111561110757604051806104838782615975565b6111ca6111d09184600052600960ff60209180835260406000206040519361112e8561567f565b815485528882015490850152600281015460408501526003810154606085015261115a60048201615728565b608085015261116b60058201615728565b60a085015261117c60068201615728565b60c085015261118d60078201615728565b60e085015261119e60088201615728565b61010085015201541615156101208201526111b98289616646565b526111c48188616646565b50616070565b92616070565b916110f1565b34610487576020366003190112610487576111ef61694a565b506004356000526005602052610483604060002060ff600660405192611214846156d1565b8054845261122460018201615728565b602085015260028101546040850152600381015460608501526004810154608085015261125360058201615728565b60a0850152015416151560c0820152604051918291602083526020830190615d2b565b34610487576000366003190112610487576020601a54604051908152f35b34610487576020806003193601126104875761072c9060043533600052600d82526040600020546112c68115156160a9565b600052601282526040600020816000528252604060002060ff1981541690556113396040516112f4816156ec565b602b81527f596f75207265766f6b656420646f63746f7227732061636365737320746f2079848201526a6f7572207265636f72647360a81b604082015261064f61607f565b600052600f815260018060a01b0360406000205416907f50617469656e74207265766f6b656420796f75722061636365737320746f20746040519161137d836156ec565b602c83528201526b68656972207265636f72647360a01b60408201526106d261607f565b346104875760a0366003190112610487576001600160401b03600435818111610487576113d2903690600401615886565b6084359182116104875761140b7f4bd6730197eeaa6a5861ee6770b4a7ea4945e177c1b8f8e196812da34b52b620923690600401615886565b61142060018060a01b03601954163314616313565b6114cb61142e601354616070565b80601355600660405191611441836156d1565b8083526114b5602084018781526040850160243581526060860160443581526080870191606435835261149960a08901948b865260c08a0197600189526000526005602052604060002099518a555160018a01615ec5565b5160028801555160038701555160048601555160058501615ec5565b51151591019060ff801983541691151516179055565b6115246040516114da816156ec565b602f81527f4e6577204d65646963696e6520616464656420746f206d61726b6574706c616360208201526e65207375636365737366756c6c792160881b604082015261064f61636a565b6108696013549161154760405194859485526060602086015260608501906157ce565b9083820360408501526157ce565b34610487576000366003190112610487576020601c54604051908152f35b346104875760203660031901126104875760195461072c906001600160a01b031661159f338214616313565b600435601b556040516115b1816156ec565b603681527f596f752068617665207375636365737366756c6c7920757064617465642050616020820152757469656e7420526567697374726174696f6e2066656560501b60408201526106d26165aa565b34610487576000366003190112610487576014546001906000825b828111156116e4575061162f906168a1565b916000815b8381111561164a57604051806104838782615bae565b80600052602060068152604060002060ff6005820154169081611679575b50505061167490616070565b611634565b9161167493949160046116db94604051936116938561569b565b815485526116a28a8301615728565b9085015260028101546001600160a01b031660408501526003810154606085015201546080830152151560a08201526111b98289616646565b91908680611668565b80600052600660205260ff6005604060002001541661170c575b61170790616070565b61161d565b9061171961170791616070565b9190506116fe565b346104875760203660031901126104875760043560005260056020526040600020805461175060018301615728565b916117b26002820154600383015492600481015460ff600661177460058501615728565b9301541694611795604051988998895260e060208a015260e08901906157ce565b9360408801526060870152608086015284820360a08601526157ce565b90151560c08301520390f35b34610487576020366003190112610487576001600160a01b036117df6155e2565b16600052600c6020526020604060002054604051908152f35b3461048757602036600319011261048757600435600052600e602052602060018060a01b0360406000205416604051908152f35b34610487576020366003190112610487577f954090adef24b59354b88966afb6b169cf1790275cc1c22d9d599cfa745041a560043561187660018060a01b03601954163314616313565b61188460135482111561638e565b6000818152600560205260409020600601805460ff818116151660ff199091161790556118f56040516118b6816156ec565b602481527f4d65646963696e65207374617475732075706461746564207375636365737366602082015263756c6c7960e01b604082015261064f61636a565b60008181526005602090815260409182902060060154825193845260ff1615159083015281908101610869565b34610487577f611a96f8a84b78b34d3917accd31d6e94ffc712cdd95a8ce7b8e2f9c5e093ae960406119533661580e565b61196860018060a01b03601954163314616313565b61197660135483111561638e565b8160005260056020528060048460002001556119d68351611996816156ec565b602681527f4d65646963696e6520646973636f756e742075706461746564207375636365736020820152657366756c6c7960d01b8582015261064f61636a565b82519182526020820152a1005b6080366003190112610487576001600160401b0360043581811161048757611a0f903690600401615886565b611a176155f8565b60443583811161048757611a2f9036906004016159ee565b9060643585811161048757611a48903690600401615886565b91611a56601a5434146163da565b60018060a01b03928385169283600052602093600a855260ff60406000205416611cad57611a85601454616070565b9081601455611b23604051611a998161569b565b8381526005888201948c8652896040840196868852611ae5606086019160008352600660808801946000865260a089019660008852600052526040600020965187555160018701615ec5565b8c60028601985116976001600160601b0360a01b988982541617905551600385015551600484015551151591019060ff801983541691151516179055565b80600052600a86526040600020600160ff19825416179055601454600c875280604060002055600052600f86526040600020918254161790556000808080886019541681903415611ca3575b3491f11561101057611b829286916169c5565b60405191608083019583871090871117610bc657611c33611c90937f8c4e93915e8e9956f3984eef613c813c83672180f22083646e395379663dd76997604052604a81527f596f752068617665207375636365737366756c6c7920636f6d706c6574656420848201527f74686520726567697374726174696f6e2c206e6f772077616974696e6720666f6040820152691c88185c1c1c9bdd985b60b21b6060820152611c2c616426565b90866161e5565b60195416907f4e657720646f63746f7220697320726567697374657265642c206e6f7720776160405191611c66836156ec565b60328352820152711a5d1a5b99c8199bdc88185c1c1c9bdd985b60721b60408201526106d2616426565b6108696014549160405193849384615c80565b6108fc9150611b6f565b60405162461bcd60e51b815260048101869052601c60248201527f446f63746f7220697320616c72656164792072656769737465726564000000006044820152606490fd5b34610487576020806003193601126104875760043560005260108152604060002090815491611d20836159d7565b92611d2e6040519485615707565b8084528284018092600052836000206000915b838310611da85750505050604051918083019381845251809452604083019360408160051b85010192916000955b828710611d7c5785850386f35b909192938280611d98600193603f198a82030186528851615cae565b9601920196019592919092611d6f565b600786600192611dba859a999a615fb6565b815201920192019190959495611d41565b34610487576000366003190112610487576020601654604051908152f35b34610487576020366003190112610487576001600160a01b03611e0a6155e2565b166000526001602052610483611e266002604060002001616c79565b604051918291602083526020830190615dfb565b3461048757600036600319011261048757611e5361686f565b50611e5c61686f565b600090600180601454915b82811115611e85576040516020808252819061048390820187615b5d565b806000526006602081815260406000206003906004828201549101548101809111611f3a57888111611ec4575b50505050611ebf90616070565b611e67565b60ff92939850611ebf949750906005919888600052845260406000209060405194611eee8661569b565b82548652611efd888401615728565b9086015260028201546001600160a01b03166040860152810154606085015260048101546080850152015416151560a08201529390868080611eb2565b634e487b7160e01b600052601160045260246000fd5b3461048757604036600319011261048757611f79611f6c6155e2565b611f746155f8565b616fb6565b6000526002602081815260406000208054611f93816159d7565b93611fa16040519586615707565b81855260009283528383208486019391845b84841061203957604080518881528951818a01819052600092600582901b83018101918a918c9085015b828710611fea5785850386f35b909192938280612029600193603f198a820301865260408951868060a01b038151168352848101518584015201519060609081604082015201906157ce565b9601920196019592919092611fdd565b60038760019260409a999a5161204e816156ec565b848060a01b038754168152848701548382015261206c868801615728565b6040820152815201930193019291969596611fb3565b3461048757602080600319360112610487576004356120a560155482111561648c565b6000818152600783526040902060030154336001600160a01b0391821614908115612161575b50156120fd57600052600781526120e860026040600020016166d6565b90610483604051928284938452830190615da6565b60405162461bcd60e51b815260048101839052603660248201527f4f6e6c79207468652070617469656e74206f722061646d696e2063616e207669604482015275657720746865206d65646963616c20686973746f727960501b6064820152608490fd5b9050601954163314836120cb565b346104875761217d3661580e565b906000526004602052604060002080548210156104875760c0916121a091615d8a565b5080549060018101549060028101546003820154906005600484015493015493604051958652602086015260408501526060840152608083015260a0820152f35b34610487576000366003190112610487576020601554604051908152f35b346104875760003660031901126104875760135461221c816159d7565b6122296040519182615707565b818152601f19612238836159d7565b0160005b81811061234d575060019290508260005b828211156122b8578385604051906020808301818452845180915260408401918060408360051b8701019601926000905b83821061228b5786880387f35b909192939483806122a7839a603f198b82030186528951615d2b565b99970195949391909101910161227e565b61234161234791836000528660ff6006600561231d6020918083526040600020926122f4604051976122e9896156d1565b855489528501615728565b908701526002830154604087015260038301546060870152600483015460808701528201615728565b60a0850152015416151560c08201526123368288616646565b526111c48187616646565b91616070565b9061224d565b60209061235861694a565b8282860101520161223c565b34610487576104836123e86123e261237b3661580e565b90600060e060405161238c81615663565b82815282602082015260606040820152606080820152606060808201528260a08201528260c082015201528060005260106020526123d06040600020548310616031565b60005260106020526040600020615824565b50615fb6565b604051918291602083526020830190615cae565b34610487576000366003190112610487576020601854604051908152f35b34610487576020366003190112610487576001600160a01b0361243b6155e2565b16600052600b602052602060ff604060002054166040519015158152f35b34610487576124673661580e565b9080600052602090601082526124836040600020548410616031565b6000818152600e835260409020546001600160a01b039190821633148015612570575b1561251f5760066124c661072c9583600052601086526040600020615824565b500160ff60a01b198154169055600052600e825260406000205416907f4d65646963616c207265636f726420646561637469766174656400000000000060405191612510836156b6565b601a83528201526106d2615f8c565b60405162461bcd60e51b8152600481018490526024808201527f4f6e6c792070617469656e74206f722061646d696e2063616e206465616374696044820152637661746560e01b6064820152608490fd5b50816019541633146124a6565b34610487576020366003190112610487576004356000526007602052604060002080546104836125af60018401615728565b92600360018060a01b039101541660405193849384615c80565b34610487576000366003190112610487576016546125e6816165f6565b9060018060005b8383111561260357604051806104838782615c10565b6111ca6126599184600052602060088152600460406000206040519261262884615648565b8154845287820154908401526002810154604084015260038101546060840152015460808201526111b98289616646565b916125ed565b34610487576020806003193601126104875760043561267c6167d4565b5061268b6017548211156164e9565b80600052600982526001604060002001546126a53361677a565b1480156127c6575b15612766576000526009815260406000209060ff6009604051936126d08561567f565b8054855260018101548486015260028101546040860152600381015460608601526126fd60048201615728565b608086015261270e60058201615728565b60a086015261271f60068201615728565b60c086015261273060078201615728565b60e086015261274160088201615728565b61010086015201541615156101208301526104836040519282849384528301906158d3565b60405162461bcd60e51b815260048101839052603260248201527f4f6e6c79207468652070617469656e74206f722061646d696e2063616e207669604482015271195dc81d1a1948185c1c1bda5b9d1b595b9d60721b6064820152608490fd5b506019546001600160a01b031633146126ad565b34610487576000366003190112610487576015546127f781616686565b9060018060005b8383111561281457604051806104838782615afb565b6111ca6128889184600052602060078152612879600460406000206040519361283c85615648565b8154855261284b898301615728565b9085015261285b600282016166d6565b604085015260038101546001600160a01b031660608501520161672b565b60808201526111b98289616646565b916127fe565b60603660031901126104875760043560248035906044356128b360155485111561648c565b6128c160135484111561638e565b836000526020916007835260018060a01b039182600360406000200154163303612be3578460005260059081855260ff6006604060002001541615612ba657856000528185528060036040600020015410612b6257856000528185526002604060002001549080820291808304821490151715612b4d5786600052828652600360406000200161295282825461659d565b905587600052600786526004604060002001908154600160401b9283821015612b385790612985916001820181556164d1565b81549060031b908a821b91600019901b19161790558860005260048752604060002092886000528488526002604060002001546040516129c48161569b565b8a8152898101918252604081019283526060810193845260808101948c865260a0820196428852805491821015612b235790612a0591600182018155615d8a565b989098612b0f577f1d62f96054391d98915909b52fc6b2182af4ce3748f5ddd6c0047dd725a969df60408e8e8e612b048f8f8f8f8f8f8f8f8f51875551600187015551600286015551600385015551600484015551910155612aa98651612a6b816156ec565b602581527f596f752068617665207375636365737366756c6c7920626f75676874206d656485820152646963696e6560d81b8882015261064f61657a565b601954168551612ab8816156ec565b603381527f5472616e73616374696f6e20636f6d706c657465642c206d65646963696e65208482015272626f75676874207375636365737366756c6c7960681b878201526106d261657a565b8351928352820152a1005b634e487b7160e01b60005260006004526000fd5b89634e487b7160e01b60005260416004526000fd5b86634e487b7160e01b60005260416004526000fd5b83634e487b7160e01b60005260116004526000fd5b60405162461bcd60e51b815260048101869052601c818501527f4e6f7420656e6f756768206d65646963696e6520696e2073746f636b000000006044820152606490fd5b60405162461bcd60e51b815260048101869052601681850152754d65646963696e65206973206e6f742061637469766560501b6044820152606490fd5b60405162461bcd60e51b8152600481018590526027818401527f4f6e6c79207468652070617469656e742063616e20627579207468656972206d60448201526665646963696e6560c81b6064820152608490fd5b3461048757612c453661580e565b906000526011602052604060002090815481101561048757612c6691615824565b50805460018201549160ff6002820154612cbe6003840154612c8a60048601615728565b90600660058701549601549360405198899889526020890152604088015260608701526101008060808801528601906157ce565b9260a0850152818116151560c085015260081c16151560e08301520390f35b3461048757600036600319011261048757600054612cfa816159d7565b90612d086040519283615707565b8082526000808052602091828401917f290decd9548b62a8d60345a988386fc84ba6bc95484008f6362f93160ef3e563835b838310612dbd5750505050604051918083019381845251809452604083019360408160051b85010192916000955b828710612d755785850386f35b909192938280600192603f1989820301855287519082612d9e83516040845260408401906157ce565b9281878060a01b03910151169101529601920196019592919092612d68565b600286600192604099989951612dd2816156b6565b612ddb86615728565b8152848060a01b03858701541683820152815201920192019190959495612d3a565b3461048757602080600319360112610487576016546001916004356000845b84811115612ecd5750612e2e906165f6565b93600091815b85811115612e4a57604051806104838982615c10565b80600052600885526040600020600281015490838214612e75575b5050612e7090616070565b612e34565b94612ec5916004612e70949760405192612e8e84615648565b81548452888201548b85015260408401526003810154606084015201546080820152612eba828b616646565b526111c4818a616646565b939088612e65565b80600052600884528260026040600020015414612ef3575b612eee90616070565b612e1c565b90612f00612eee91616070565b919050612ee5565b34610487576080366003190112610487576004356024356001600160401b0360443581811161048757612f3f903690600401615886565b9060643590811161048757612f58903690600401615886565b9033600052602091600a8352612f7560ff60406000205416616181565b8460005260108352612f8d6040600020548510616031565b8460005260128352604060002033600052600c8452604060002054600052835260ff60406000205416156130e2579160067fdea2a8c46cb3bffd887bf63059546fb77aa279b81123acfbedbc55a519440e1a9492613013604095886000526010855261300a612fff8789600020615824565b509360028501615ec5565b60038301615ec5565b4260058201550180546001600160a01b031916331790556000858152600e825283902054835161308b916001600160a01b031690613050816156ec565b602281527f446f63746f72207570646174656420796f7572206d65646963616c207265636f84820152611c9960f21b868201526106d2615f8c565b6130d58351613099816156ec565b602381527f4d65646963616c207265636f726420757064617465642073756363657373667583820152626c6c7960e81b8582015261064f615f8c565b82519182523390820152a2005b60405162461bcd60e51b815260048101849052601c60248201527f4e6f2061636365737320746f2070617469656e74207265636f726473000000006044820152606490fd5b34610487576000366003190112610487576020601454604051908152f35b3461048757600036600319011261048757601454613162816168a1565b9060018060005b8383111561317f57604051806104838782615bae565b6111ca6131f4918460005260206006815260ff60056040600020604051936131a68561569b565b815485526131b5898301615728565b9085015260028101546001600160a01b031660408501526003810154606085015260048101546080850152015416151560a08201526111b98289616646565b91613169565b3461048757602036600319011261048757600435600052600f602052602060018060a01b0360406000205416604051908152f35b346104875760203660031901126104875761324761665a565b506004356000526007602052610483604060002061328e60046040519261326d84615648565b8054845261327d60018201615728565b602085015261285b600282016166d6565b6080820152604051918291602083526020830190615a4f565b3461048757602080600319360112610487576004356132ca601454821115616448565b601754906001906000825b848111156133da57506132e79061681f565b93600091835b8581111561330357604051806104838982615975565b806000526009808452604060002090600282015491848314613331575b50505061332c90616070565b6132ed565b9160ff61332c9497926133d1946040519361334b8561567f565b815485528b8201548a86015260408501526003810154606085015261337260048201615728565b608085015261338360058201615728565b60a085015261339460068201615728565b60c08501526133a560078201615728565b60e08501526133b660088201615728565b6101008501520154161515610120820152612eba828b616646565b93908880613320565b80600052600986528260026040600020015414613400575b6133fb90616070565b6132d5565b9061340d6133fb91616070565b9190506133f2565b346104875760203660031901126104875760043560005260066020526040600020805461344460018301615728565b9160018060a01b036002820154169060038101549060ff600560048301549201541691613483604051968796875260c0602088015260c08701906157ce565b93604086015260608501526080840152151560a08301520390f35b3461048757602080600319360112610487577f2faac90f5434aef32f5b0ff5b333f37051f5b671f12a52ebae64f2ef8ac1393960406004359233600052600d815261351b8260002054946134f38615156160a9565b856000526011835261350a846000205482106160f5565b856000526011835283600020615824565b509360068501610100815461353260ff8216616135565b61ffff19161790558060005260128252826000209460028101958654600052835283600020600160ff1982541617905561360a8451613570816156ec565b602481527f596f7520617070726f76656420646f63746f7227732061636365737320726571858201526135b2631d595cdd60e21b91828882015261064f61607f565b8754600052600f855260018060a01b03866000205416908651906135d5826156ec565b602482527f50617469656e7420617070726f76656420796f7572206163636573732072657187830152878201526106d261607f565b549454918351928352820152a2005b3461048757602080600319360112610487577fab68bac660dc4dc217aaf31b805cc6d0805eb6ead55c290a05a5a0adfe707f8e60406004359233600052600d815261366e8260002054946134f38615156160a9565b509360068501805461368260ff8216616135565b61ffff19169055825194613695866156ec565b602286527f596f752064656e69656420646f63746f72277320616363657373207265717565838701526136d5611cdd60f21b96878682015261064f61607f565b61360a60028201968754600052600f855260018060a01b0386600020541690865190613700826156ec565b602282527f50617469656e742064656e69656420796f75722061636365737320726571756587830152878201526106d261607f565b346104875760203660031901126104875760043561375760155482111561648c565b6000526007602052610483613772600460406000200161672b565b604051918291602083526020830190615a1b565b34610487576080366003190112610487576001600160401b03600435602435828111610487576137ba903690600401615886565b90604435838111610487576137d3903690600401615886565b92606435908111610487576137ec903690600401615886565b92825115613ac557805115613a805781600052602093600e855260018060a01b0393846040600020541633148015613a29575b156139be578360005260108652604060002080549560405161384081615663565b878152888101928784526040820196858852606083019081526080830196875260a083019242845260c081019333855260e082019360018552600160401b8d1015610bc6578c61389591600182018155615824565b9190916139a8576138fb61399d9a6138f189966138e77ff7a49fdc3237b4f9f9164500d541961973468edf75064ada7ca5a0a0e46b7adb9f6139849d6006995189555160018901555160028801615ec5565b5160038601615ec5565b5160048401615ec5565b5160058201550192511682549160ff60a01b9051151560a01b16916affffffffffffffffffffff60a81b161717905585600052600e885260406000205416604051613945816156ec565b602581527f4e657720656e63727970746564206d65646963616c207265636f72642075706c89820152641bd859195960da1b60408201526106d2615f8c565b60405191829186835260408884015260408301906157ce565b0390a2604051908152f35b634e487b7160e01b600052600060045260246000fd5b60405162461bcd60e51b815260048101879052603860248201527f556e617574686f72697a65643a204f6e6c792070617469656e74206f7220617060448201527f70726f76656420646f63746f722063616e2075706c6f616400000000000000006064820152608490fd5b5033600052600c86526040600020546000526006865260ff60056040600020015416801561381f57508360005260128652604060002033600052600c8752604060002054600052865260ff6040600020541661381f565b60405162461bcd60e51b815260206004820152601a60248201527f456e6372797074656420414553206b65792072657175697265640000000000006044820152606490fd5b60405162461bcd60e51b815260206004820152601260248201527112541194c81a185cda081c995c5d5a5c995960721b6044820152606490fd5b346104875760208060031936011261048757600435613b22601454821115616448565b60155491613b2f836159d7565b92613b3d6040519485615707565b808452613b4c601f19916159d7565b0136828501376000916001601754905b81811115613bea57505050613b7082616686565b9260005b838110613b8957604051806104838782615afb565b80613b97613be59284616646565b51600052600784526040600020613bd6600460405192613bb684615648565b80548452613bc660018201615728565b8885015261285b600282016166d6565b60808201526123368288616646565b613b74565b8060005260098085528360026040600020015414613c12575b50613c0d90616070565b613b5c565b600160005b878110613c54575b5015613c03578195613c4d91613c0d936000528652600160406000200154613c47828a616646565b52616070565b9490613c03565b613c5e818a616646565b518460005283885260016040600020015414613c8257613c7d90616070565b613c17565b5050600088613c1f565b610100366003190112610487576004356001600160401b03811161048757613cb8903690600401615886565b602435906001600160401b0382116104875736602383011215610487578160040135613ce3816159d7565b92613cf16040519485615707565b8184526024602085019260051b820101903682116104875760248101925b82841061420f5785856044356001600160a01b038116900361048757606435916001600160401b038311610487573660238401121561048757826004013592613d57846159d7565b93613d656040519586615707565b8085526024602086019160051b8301019136831161048757602401905b8282106141ff575050506084356001600160401b03811161048757613dab9036906004016159ee565b60a4356001600160a01b03811690036104875760c4356001600160401b03811161048757613ddd9036906004016159ee565b909160e4356001600160401b03811161048757613dfe903690600401615886565b96613e0c601b5434146163da565b6044356001600160a01b03166000908152600b602052604090205460ff166141ba57613e39601554616070565b908160155560405190613e4b82615648565b8282526020820192898452604083019189835260018060a01b0360443516606085015260808401526000526007602052613e92604060002093835185555160018501615ec5565b51805190600160401b8211610bc6576002840154826002860155808310614141575b506020016002840160005260206000206000915b8383106141245750505060608201516003840180546001600160a01b0319166001600160a01b03929092169190911790555060800151805191906001600160401b038311610bc657600160401b8311610bc6576020600491828401548584860155808610614105575b50019101600052602060002060005b8381106140f157505050506044356001600160a01b039081166000818152600b60209081526040808320805460ff19166001179055601554600d83528184208190558352600e909152812080546001600160a01b031916909217909155601954909182918291829182911634156140e7575b3491f115611010577fc66c47c46a9613cb876ef0205ca8c4597eb05703969f8458f4a762107e865dc296613ff994613fed92604435916169c5565b6044359160a435616d40565b614058604051614008816156ec565b602c81527f596f752068617665207375636365737366756c6c7920636f6d706c657465642060208201526b3932b3b4b9ba3930ba34b7b760a11b604082015261404f61657a565b906044356161e5565b6019546040516140b6916001600160a01b031690614075816156ec565b602681527f4e65772050617469656e742069732072656769737465726564207375636365736020820152657366756c6c7960d01b60408201526106d261657a565b610869601554916140d960405194859485526060602086015260608501906157ce565b908382036040850152615da6565b6108fc9150613fb2565b600190602084519401938184015501613f40565b61411e9084860160005286846000209182019101615e69565b8c613f31565b600160208261413583945186615ec5565b01920192019190613ec8565b600285016000526020600020908382015b8183018110614162575050613eb4565b8061416f6001925461560e565b8061417c575b5001614152565b601f908181118414614195575050600081555b8f614175565b6141b160009284845260208420920160051c8201858301615e69565b8183555561418f565b60405162461bcd60e51b815260206004820152601d60248201527f50617469656e7420697320616c726561647920726567697374657265640000006044820152606490fd5b8135815260209182019101613d82565b83356001600160401b03811161048757602091614233839260243691870101615886565b815201930192613d0f565b34610487576020806003193601126104875760043561426160155482111561648c565b600052600481526040600020908154614279816159d7565b906142876040519283615707565b8082528282018094600052836000206000915b83831061430e5760408051878152865181890181905289928201908960005b8281106142c65784840385f35b855180518552808301518584015260408082015190860152606080820151908601526080808201519086015260a090810151908501529481019460c0909301926001016142b9565b6006866001926040516143208161569b565b855481528486015483820152600286015460408201526003860154606082015260048601546080820152600586015460a082015281520192019201919061429a565b34610487576020806003193601126104875760043560018060a01b0361438d81601954163314616313565b61439b601454831115616448565b816000526006835260ff600560406000200154166144c9577ffb071d6299bd71490cb62d5ce7358d7d43ab700c9b4a8bff1f869d2d52c0f1179261449f60069284600052838352614403600560406000200160ff8154161560ff801983541691151516179055565b614451604051614412816156ec565b602581527f596f75206861766520617070726f76656420446f63746f722072656769737472858201526430ba34b7b760d91b604082015261064f616426565b846000528383526002604060002001541660405161446e816156b6565b601d81527f596f757220726567697374726174696f6e20697320617070726f766564000000848201526106d2616426565b600083815291905260409081902060050154815192835260ff161515602083015281908101610869565b60405162461bcd60e51b815260048101849052601a60248201527f446f63746f7220697320616c726561647920617070726f7665640000000000006044820152606490fd5b34610487576020806003193601126104875760043561453160155482111561648c565b60175490600060015b8381111561464c575061454c9061681f565b9260009060015b8481111561456957604051806104838882615975565b806000526009808352604060002090600182015491868314614597575b50505061459290616070565b614553565b9160ff61459294969261464394604051936145b18561567f565b815485528885015260028101546040850152600381015460608501526145d960048201615728565b60808501526145ea60058201615728565b60a08501526145fb60068201615728565b60c085015261460c60078201615728565b60e085015261461d60088201615728565b6101008501520154161515610120820152614638828a616646565b526111c48189616646565b92908780614586565b80600052600985528260016040600020015414614672575b61466d90616070565b61453a565b9061467f61466d91616070565b919050614664565b34610487576000366003190112610487576020601b54604051908152f35b34610487576000366003190112610487576020601354604051908152f35b34610487576020366003190112610487576001600160a01b036146e46155e2565b16600052600a602052602060ff604060002054166040519015158152f35b34610487576020806003193601126104875760043560005260118152604060002090815491614730836159d7565b9261473e6040519485615707565b8084528284018092600052836000206000915b83831061480c5750505050604051918083019381845251809452604083019360408160051b85010192916000955b82871061478c5785850386f35b909192938280600192603f19898203018552875190815181528282015183820152604082015160408201526060808301519082015260e0806147de6080808601519061010080918701528501906157ce565b9360a0808201519085015260c08082015115159085015201511515910152960192019601959291909261477f565b60078660019260409998995161482181615663565b855481528486015483820152600286015460408201526003860154606082015261484d60048701615728565b6080820152600586015460a0820152600686015460ff90818116151560c084015260081c16151560e0820152815201920192019190959495614751565b34610487577f72c1daf6e13ce6ca90b14e03629096ad6d0db94b6cffdce97e62cf5008ab1fd460406148bb3661580e565b6148d060018060a01b03601954163314616313565b6148de60135483111561638e565b8160005260056020528060028460002001556119d683516148fe816156ec565b602381527f4d65646963696e652070726963652075706461746564207375636365737366756020820152626c6c7960e81b8582015261064f61636a565b346104875761072c61494c3661580e565b336000527f90d667bfa211b72f96ed398bbcfae5988d97e3a4c929a0f5d46888f6899d77a081602093600a855261498a60ff60406000205416616181565b614993336168f1565b600052600685526149ae60ff60056040600020015416616535565b6149b9601654616070565b8060165560046149c8336168f1565b91604051926149d684615648565b818452888401858152604085019087825260608601928352608086019342855260005260088b5260406000209551865551600186015551600285015551600384015551910155614a58601654614a2b336168f1565b6040519485944293869192608093969594919660a084019784526020840152604083015260608201520152565b0390a1614aad604051614a6a816156ec565b602981527f596f752068617665207375636365737366756c6c7920707265736372696265648482015268206d65646963696e6560b81b604082015261064f616426565b6000526007815260018060a01b03614b068160036040600020015416604051614ad5816156b6565b601e81527f446f63746f72207072657363726962656420796f75206d65646963696e650000858201526106d2616426565b60195416907f446f63746f722070726573637269626564206d65646963696e6520737563636560405191614b39836156ec565b6027835282015266737366756c6c7960c81b60408201526106d2616426565b3461048757614b66366158a4565b9033600052602090600a8252614b8360ff60406000205416616181565b614b9160155482111561648c565b806000526007825260026040600020018054600160401b811015610bc657614bbe916001820181556164d1565b6139a85761072c93614bcf91615ec5565b614c2d604051614bde816156ec565b603581527f596f752068617665207375636365737366756c6c79207570646174656420706184820152747469656e74206d65646963616c20686973746f727960581b604082015261064f616426565b6000526007815260018060a01b03614c958160036040600020015416604051614c55816156ec565b602681527f596f7572206d65646963616c20686973746f727920757064617465642062792085820152653237b1ba37b960d11b60408201526106d2616426565b60195416907f50617469656e74206d65646963616c20686973746f727920697320757064617460405191614cc8836156ec565b6022835282015261195960f21b60408201526106d2616426565b34610487576020366003190112610487576004356000526008602052604060002080546104836001830154926002810154906004600382015491015491604051958695869192608093969594919660a084019784526020840152604083015260608201520152565b34610487576060366003190112610487576024356004356044356001600160401b03811161048757614d80903690600401615886565b9033600052602092600c8452604060002054908115614fe057816000526006855260ff6005604060002001541615614fa5578260005260108552614dca6040600020548210616031565b614dd5601854616070565b9283601855806000526011865260406000209360405190614df582615663565b8152868101948386526040820185815260608301968488526080840198895260a084019342855260c08101946001865260e0820194600086528054600160401b811015610bc657614e4b91600182018155615824565b9290926139a8577f36804f996462e89c725c18449c461caf9582cb047122af6c0fb99606597165a69b60609b614ebe96600696614ea1945187555160018701555160028601555160038501555160048401615ec5565b5160058201550192511515839060ff801983541691151516179055565b51815461ff00191690151560081b61ff00161790556000818152600e8752604090819020549051614f44916001600160a01b031690614efc816156ec565b602e81527f446f63746f72207265717565737465642061636365737320746f20796f757220898201526d1b59591a58d85b081c9958dbdc9960921b60408201526106d261607f565b614f90604051614f53816156ec565b602381527f4163636573732072657175657374207375626d697474656420746f20706174698882015262195b9d60ea1b604082015261064f61607f565b601854956040519384528301526040820152a2005b60405162461bcd60e51b8152600481018690526013602482015272111bd8dd1bdc881b9bdd08185c1c1c9bdd9959606a1b6044820152606490fd5b60405162461bcd60e51b815260048101869052601760248201527f4e6f742061207265676973746572656420646f63746f720000000000000000006044820152606490fd5b34610487577f1e689cd9ac52751e42953a5acd30b7eac0cc9804ec5c814b2cb6bff6e8ab852b60406150563661580e565b61506b60018060a01b03601954163314616313565b61507960135483111561638e565b8160005260056020528060038460002001556119d68351615099816156ec565b602681527f4d65646963696e65207175616e746974792075706461746564207375636365736020820152657366756c6c7960d01b8582015261064f61636a565b3461048757602080600319360112610487576001600160a01b0390816150fd6155e2565b166000526003908181526040600020908154615118816159d7565b936151266040519586615707565b81855260009384528284208386019491855b8484106151e0575050505050604051928184019082855251809152604084019160408260051b86010193926000965b8388106151745786860387f35b909192939483806151cf600193603f198b8203018752895180518252868482015116848301526151b2604082015160a08060408601528401906157ce565b9160608083015190820152608080920151918184039101526157ce565b970193019701969093929193615167565b60058660019260409a989a516151f581615648565b865481528c85880154168382015261520f60028801615728565b604082015285870154606082015261522960048801615728565b6080820152815201930193019291969496615138565b3461048757602036600319011261048757602061526261525d6155e2565b616983565b6040519015158152f35b346104875761527a3661580e565b90600052601060205260406000209081548110156104875761529b91615824565b50805460018201549160ff6152b260028301615728565b6153196152c160038501615728565b61530b6152d060048701615728565b916152fd60066005890154980154956040519a8b9a8b5260208b01526101008060408c01528a01906157ce565b9088820360608a01526157ce565b9086820360808801526157ce565b60a0858101949094526001600160a01b03821660c0860152921c16151560e08301520390f35b346104875760203660031901126104875760043560005260096020526040600020805460018201549160028101549060038101546004820161538090615728565b61538c60058401615728565b61539860068501615728565b916153a560078601615728565b936153b260088701615728565b956009015460ff1696604051998a998a5260208a01526040890152606088015261014080608089015287016153e6916157ce565b86810360a08801526153f7916157ce565b85810360c0870152615408916157ce565b84810360e0860152615419916157ce565b83810361010085015261542b916157ce565b9015156101208301520390f35b34610487576020366003190112610487576001600160a01b036154596155e2565b16600052600d6020526020604060002054604051908152f35b346104875760203660031901126104875760206154956154906155e2565b6168f1565b604051908152f35b346104875760203660031901126104875760206154956154bb6155e2565b61677a565b346104875760203660031901126104875760195461072c906001600160a01b03166154ec338214616313565b600435601c556040516154fe816156ec565b602d81527f596f752068617665207375636365737366756c6c79207570646174656420417060208201526c706f696e746d656e742066656560981b60408201526106d26165aa565b34610487576020366003190112610487576001600160a01b0360043581811690819003610487578061072c926155826019549182163314616313565b6001600160a01b0319161760195560405161559c816156ec565b602b81527f596f752068617665207375636365737366756c6c79207570646174656420616460208201526a6d696e206164647265737360a81b60408201526106d26165aa565b600435906001600160a01b038216820361048757565b602435906001600160a01b038216820361048757565b90600182811c9216801561563e575b602083101461562857565b634e487b7160e01b600052602260045260246000fd5b91607f169161561d565b60a081019081106001600160401b03821117610bc657604052565b61010081019081106001600160401b03821117610bc657604052565b61014081019081106001600160401b03821117610bc657604052565b60c081019081106001600160401b03821117610bc657604052565b604081019081106001600160401b03821117610bc657604052565b60e081019081106001600160401b03821117610bc657604052565b606081019081106001600160401b03821117610bc657604052565b90601f801991011681019081106001600160401b03821117610bc657604052565b906040519182600082549261573c8461560e565b9081845260019485811690816000146157ab5750600114615768575b505061576692500383615707565b565b9093915060005260209081600020936000915b81831061579357505061576693508201013880615758565b8554888401850152948501948794509183019161577b565b91505061576694506020925060ff191682840152151560051b8201013880615758565b919082519283825260005b8481106157fa575050826000602080949584010152601f8019910116010190565b6020818301810151848301820152016157d9565b6040906003190112610487576004359060243590565b8054821015610bb0576000526007602060002091020190600090565b9291926001600160401b038211610bc65760405191615869601f8201601f191660200184615707565b829481845281830111610487578281602093846000960137010152565b9080601f83011215610487578160206158a193359101615840565b90565b9060406003198301126104875760043591602435906001600160401b038211610487576158a191600401615886565b908151815260208201516020820152604082015160408201526060820151606082015261596561595161593f61592d61591b60808701516101408060808901528701906157ce565b60a087015186820360a08801526157ce565b60c086015185820360c08701526157ce565b60e085015184820360e08601526157ce565b6101008085015190848303908501526157ce565b9161012080910151151591015290565b602080820190808352835180925260408301928160408460051b8301019501936000915b8483106159a95750505050505090565b90919293949584806159c7600193603f198682030187528a516158d3565b9801930193019194939290615999565b6001600160401b038111610bc65760051b60200190565b9181601f84011215610487578235916001600160401b038311610487576020838186019501011161048757565b90815180825260208080930193019160005b828110615a3b575050505090565b835185529381019392810192600101615a2d565b919082518152602090615a6f8285015160a08484015260a08301906157ce565b60408501519282820360408401528351908183528083019281808460051b8301019601936000915b848310615acd5750505050505060806158a1939460018060a01b0360608201511660608401520151906080818403910152615a1b565b9091929394968480615aeb600193601f198682030187528b516157ce565b9901930193019194939290615a97565b602080820190808352835180925260408301928160408460051b8301019501936000915b848310615b2f5750505050505090565b9091929394958480615b4d600193603f198682030187528a51615a4f565b9801930193019194939290615b1f565b908151815260a080615b7e602085015160c0602086015260c08501906157ce565b93600180831b03604082015116604085015260608101516060850152608081015160808501520151151591015290565b602080820190808352835180925260408301928160408460051b8301019501936000915b848310615be25750505050505090565b9091929394958480615c00600193603f198682030187528a51615b5d565b9801930193019194939290615bd2565b6020908160408183019282815285518094520193019160005b828110615c37575050505090565b909192938260a082615c74600194895160808091805184526020810151602085015260408101516040850152606081015160608501520151910152565b01950193929101615c29565b91615c9e9060409295949584526060602085015260608401906157ce565b6001600160a01b03909416910152565b90815181526020820151602082015260e080615d03615cf1615cdf60408701516101008060408901528701906157ce565b606087015186820360608801526157ce565b608086015185820360808701526157ce565b60a0808601519085015260c0808601516001600160a01b031690850152930151151591015290565b908151815260c080615d7f615d4f602086015160e0602087015260e08601906157ce565b60408601516040860152606086015160608601526080860151608086015260a086015185820360a08701526157ce565b930151151591015290565b8054821015610bb0576000526006602060002091020190600090565b90815180825260208092019182818360051b85019501936000915b848310615dd15750505050505090565b9091929394958480615deb83856001950387528a516157ce565b9801930193019194939290615dc1565b90815180825260208092019182818360051b82019501936000915b848310615e265750505050505090565b9091929394958480615e598385600195038752828b51868060a01b038151168352015190604090818582015201906157ce565b9801930193019194939290615e16565b818110615e74575050565b60008155600101615e69565b9190601f8111615e8f57505050565b615766926000526020600020906020601f840160051c83019310615ebb575b601f0160051c0190615e69565b9091508190615eae565b91909182516001600160401b038111610bc657615eec81615ee6845461560e565b84615e80565b602080601f8311600114615f28575081929394600092615f1d575b50508160011b916000199060031b1c1916179055565b015190503880615f07565b90601f198316958460005282600020926000905b888210615f7457505083600195969710615f5b575b505050811b019055565b015160001960f88460031b161c19169055388080615f51565b80600185968294968601518155019501930190615f3c565b60405190615f99826156b6565b600e82526d1359591a58d85b08149958dbdc9960921b6020830152565b90604051615fc381615663565b60e060ff600683958054855260018101546020860152615fe560028201615728565b6040860152615ff660038201615728565b606086015261600760048201615728565b6080860152600581015460a0860152015460018060a01b03811660c085015260a01c161515910152565b1561603857565b60405162461bcd60e51b815260206004820152601060248201526f149958dbdc99081b9bdd08199bdd5b9960821b6044820152606490fd5b6000198114611f3a5760010190565b6040519061608c826156b6565b600e82526d1058d8d95cdcc814995c5d595cdd60921b6020830152565b156160b057565b60405162461bcd60e51b815260206004820152601860248201527f4e6f74206120726567697374657265642070617469656e7400000000000000006044820152606490fd5b156160fc57565b60405162461bcd60e51b815260206004820152601160248201527014995c5d595cdd081b9bdd08199bdd5b99607a1b6044820152606490fd5b1561613c57565b60405162461bcd60e51b815260206004820152601960248201527f5265717565737420616c72656164792070726f636573736564000000000000006044820152606490fd5b1561618857565b60405162461bcd60e51b815260206004820152602f60248201527f4f6e6c79207265676973746572656420646f63746f72732063616e207065726660448201526e37b936903a3434b99030b1ba34b7b760891b6064820152608490fd5b6001600160a01b03908116600081815260036020526040808220548151939691949192919061621385615648565b84526020840187815285850191878352606086019342855260808701958652898152600360205287812090815491600160401b8310156162ff57600183018082558310156162eb57937f9c26059514ab57d9b1c23a991546f58e9339e76427bf2909f3eb15feb61cd5719a999896936162bf9360056020856162cd9c9960049b97522091020197518855600188019151166001600160601b0360a01b8254161790555160028601615ec5565b516003840155519101615ec5565b6162e081519282849384528301906157ce565b4260208301520390a2565b634e487b7160e01b82526032600452602482fd5b634e487b7160e01b82526041600452602482fd5b1561631a57565b60405162461bcd60e51b815260206004820152602260248201527f4f6e6c792061646d696e2063616e20706572666f726d2074686973206163746960448201526137b760f11b6064820152608490fd5b60405190616377826156b6565b60088252674d65646963696e6560c01b6020830152565b1561639557565b60405162461bcd60e51b815260206004820152601760248201527f4d65646963696e6520646f6573206e6f742065786973740000000000000000006044820152606490fd5b156163e157565b60405162461bcd60e51b815260206004820152601a60248201527f496e636f727265637420726567697374726174696f6e206665650000000000006044820152606490fd5b60405190616433826156b6565b60068252652237b1ba37b960d11b6020830152565b1561644f57565b60405162461bcd60e51b8152602060048201526015602482015274111bd8dd1bdc88191bd95cc81b9bdd08195e1a5cdd605a1b6044820152606490fd5b1561649357565b60405162461bcd60e51b815260206004820152601660248201527514185d1a595b9d08191bd95cc81b9bdd08195e1a5cdd60521b6044820152606490fd5b8054821015610bb05760005260206000200190600090565b156164f057565b60405162461bcd60e51b815260206004820152601a60248201527f4170706f696e746d656e7420646f6573206e6f742065786973740000000000006044820152606490fd5b1561653c57565b60405162461bcd60e51b8152602060048201526016602482015275111bd8dd1bdc881a5cc81b9bdd08185c1c1c9bdd995960521b6044820152606490fd5b60405190616587826156b6565b600782526614185d1a595b9d60ca1b6020830152565b91908203918211611f3a57565b604051906165b7826156b6565b600582526420b236b4b760d91b6020830152565b604051906165d882615648565b60006080838281528260208201528260408201528260608201520152565b90616600826159d7565b61660d6040519182615707565b828152809261661e601f19916159d7565b019060005b82811061662f57505050565b60209061663a6165cb565b82828501015201616623565b8051821015610bb05760209160051b010190565b6040519061666782615648565b6060608083600081528260208201528260408201526000838201520152565b90616690826159d7565b61669d6040519182615707565b82815280926166ae601f19916159d7565b019060005b8281106166bf57505050565b6020906166ca61665a565b828285010152016166b3565b9081546166e2816159d7565b926166f06040519485615707565b818452600090815260208082208186015b84841061670f575050505050565b600183819261671d85615728565b815201920193019290616701565b9060405191828154918282526020928383019160005283600020936000905b8282106167605750505061576692500383615707565b85548452600195860195889550938101939091019061674a565b6001600160a01b03166000908152600d6020526040902054801561679b5790565b60405162461bcd60e51b815260206004820152601160248201527014185d1a595b9d081b9bdd08199bdd5b99607a1b6044820152606490fd5b604051906167e18261567f565b600061012083828152826020820152826040820152606083818301528060808301528060a08301528060c08301528060e08301526101008201520152565b90616829826159d7565b6168366040519182615707565b8281528092616847601f19916159d7565b019060005b82811061685857505050565b6020906168636167d4565b8282850101520161684c565b6040519061687c8261569b565b600060a083828152606060208201528260408201528260608201528260808201520152565b906168ab826159d7565b6168b86040519182615707565b82815280926168c9601f19916159d7565b019060005b8281106168da57505050565b6020906168e561686f565b828285010152016168ce565b6001600160a01b03166000908152600c602052604090205480156169125790565b60405162461bcd60e51b815260206004820152601060248201526f111bd8dd1bdc881b9bdd08199bdd5b9960821b6044820152606490fd5b60405190616957826156d1565b600060c08382815260606020820152826040820152826060820152826080820152606060a08201520152565b6001600160a01b03166000908152600160205260409020546169a49061560e565b151590565b8054821015610bb05760005260206000209060011b0190600090565b926169cf83616983565b616bf9578115616bb45760018060a01b0380931693600091858352600191602091838352604085206001600160401b038711616ba057616a1987616a13835461560e565b83615e80565b8686601f8211600114616b325791616a70949391616a5c938991616b27575b5060001960038b901b1c191689881b1790555b898752858552856040882001615ec5565b60405195616a69876156b6565b3691615840565b84528301948552815491600160401b831015616b1357818301808255831015616aff5791616ae891837f290decd9548b62a8d60345a988386fc84ba6bc95484008f6362f93160ef3e5649594521b9151827f290decd9548b62a8d60345a988386fc84ba6bc95484008f6362f93160ef3e56301615ec5565b019151166001600160601b0360a01b825416179055565b634e487b7160e01b81526032600452602490fd5b634e487b7160e01b81526041600452602490fd5b905084013538616a38565b828852858820915088601f198116895b888a838310616b895750505091616a7096959391616a5c959310616b6f575b50508689811b019055616a4b565b85013560001960038c901b60f8161c191690553880616b61565b858a0135875590950194938401938c935001616b42565b634e487b7160e01b86526041600452602486fd5b60405162461bcd60e51b815260206004820152601860248201527f557365726e616d652063616e6e6f7420626520656d70747900000000000000006044820152606490fd5b60405162461bcd60e51b81526020600482015260136024820152725573657220616c72656164792065786973747360681b6044820152606490fd5b15616c3b57565b60405162461bcd60e51b8152602060048201526016602482015275155cd95c881a5cc81b9bdd081c9959da5cdd195c995960521b6044820152606490fd5b908154616c85816159d7565b92604093616c9585519182615707565b828152809460208092019260005281600020906000935b858510616cbb57505050505050565b6002846001928451616ccc816156b6565b848060a01b038754168152616ce2858801615728565b83820152815201930194019391616cac565b15616cfb57565b60405162461bcd60e51b815260206004820152601760248201527f43726561746520616e206163636f756e742066697273740000000000000000006044820152606490fd5b919290616d4f610a2783616983565b616d5883616983565b15616e1b576001600160a01b03828116919084168214616dc757616d7c8484616e60565b15616d89575b5050505050565b616d9b616da291616dbd963691615840565b8484616f02565b6000526001602052616db76040600020615728565b91616f02565b3880808080616d82565b60405162461bcd60e51b815260206004820152602660248201527f55736572732063616e6e6f7420616464207468656d73656c76657320617320666044820152657269656e647360d01b6064820152608490fd5b60405162461bcd60e51b815260206004820152601760248201527f55736572206973206e6f742072656769737465726564210000000000000000006044820152606490fd5b60018060a01b03906000928282168452600192839260209084825260029160409183838a2001548587168a5284848b20015410616efc575b88975b616eac575b50505050505050905090565b8481168852868252838389200180548a1015616ef657616ecd8a87926169a9565b50541685871614616eea57616ee3879899616070565b9897616e9b565b50505050505091505090565b50616ea0565b94616e98565b9190604051616f10816156b6565b6001600160a01b03918216815260208082019384529382166000908152600190945260408420600201805490600160401b821015616ba05790616f58916001820181556169a9565b949094616f7f57505183546001600160a01b03191691161782555161576691600101615ec5565b634e487b7160e01b81526004819052602490fd5b60405190616fa0826156b6565b60078252664d65737361676560c81b6020830152565b906001600160a01b0380821690831610156170145761700e61700091604051928391602083019586906028926001600160601b0319809260601b16835260601b1660148201520190565b03601f198101835282615707565b51902090565b6040516bffffffffffffffffffffffff19606092831b8116602083019081529390921b909116603482015261700e816048810161700056fea26469706673582212205761da3095f83120f5970aa19d7a26ce5e3409ad613d7ce8f62b3cff3765fdb864736f6c63430008130033","opcodes":"PUSH1 0x80 DUP1 PUSH1 0x40 MSTORE CALLVALUE PUSH2 0x43 JUMPI PUSH7 0x8E1BC9BF04000 PUSH1 0x1A DUP2 SWAP1 SSTORE PUSH6 0xE35FA931A000 PUSH1 0x1B SSTORE PUSH1 0x1C SSTORE PUSH1 0x19 DUP1 SLOAD PUSH1 0x1 PUSH1 0x1 PUSH1 0xA0 SHL SUB NOT AND CALLER OR SWAP1 SSTORE PUSH2 0x7082 SWAP1 DUP2 PUSH3 0x49 DUP3 CODECOPY RETURN JUMPDEST PUSH1 0x0 DUP1 REVERT INVALID PUSH1 0x80 PUSH1 0x40 MSTORE PUSH1 0x4 CALLDATASIZE LT ISZERO PUSH2 0x12 JUMPI PUSH1 0x0 DUP1 REVERT JUMPDEST PUSH1 0x0 CALLDATALOAD PUSH1 0xE0 SHR DUP1 PUSH4 0x2CCE770 EQ PUSH2 0x5546 JUMPI DUP1 PUSH4 0x46A07ED EQ PUSH2 0x54C0 JUMPI DUP1 PUSH4 0x4C0ADB7 EQ PUSH2 0x549D JUMPI DUP1 PUSH4 0x82ED547 EQ PUSH2 0x5472 JUMPI DUP1 PUSH4 0xE3E3DD3 EQ PUSH2 0x5438 JUMPI DUP1 PUSH4 0x12DC9013 EQ PUSH2 0x533F JUMPI DUP1 PUSH4 0x178CB158 EQ PUSH2 0x526C JUMPI DUP1 PUSH4 0x1B82207E EQ PUSH2 0x523F JUMPI DUP1 PUSH4 0x2A42E74C EQ PUSH2 0x50D9 JUMPI DUP1 PUSH4 0x2C486BD5 EQ PUSH2 0x5025 JUMPI DUP1 PUSH4 0x317EE45F EQ PUSH2 0x4D4A JUMPI DUP1 PUSH4 0x31DFC91B EQ PUSH2 0x4CE2 JUMPI DUP1 PUSH4 0x354B365F EQ PUSH2 0x4B58 JUMPI DUP1 PUSH4 0x37A92DA7 EQ PUSH2 0x493B JUMPI DUP1 PUSH4 0x39D519A9 EQ PUSH2 0x488A JUMPI DUP1 PUSH4 0x3C5AF33D EQ PUSH2 0x4702 JUMPI DUP1 PUSH4 0x3F308CD2 EQ PUSH2 0x46C3 JUMPI DUP1 PUSH4 0x4DAFD490 EQ PUSH2 0x46A5 JUMPI DUP1 PUSH4 0x540A6614 EQ PUSH2 0x4687 JUMPI DUP1 PUSH4 0x559160B8 EQ PUSH2 0x450E JUMPI DUP1 PUSH4 0x5597958E EQ PUSH2 0x4362 JUMPI DUP1 PUSH4 0x56BAA64E EQ PUSH2 0x423E JUMPI DUP1 PUSH4 0x5970CEA4 EQ PUSH2 0x3C8C JUMPI DUP1 PUSH4 0x5E6951E3 EQ PUSH2 0x3AFF JUMPI DUP1 PUSH4 0x5EF2A414 EQ PUSH2 0x3786 JUMPI DUP1 PUSH4 0x636D3627 EQ PUSH2 0x3735 JUMPI DUP1 PUSH4 0x66F697B8 EQ PUSH2 0x3619 JUMPI DUP1 PUSH4 0x6BE38131 EQ PUSH2 0x349E JUMPI DUP1 PUSH4 0x6EFB1B84 EQ PUSH2 0x3415 JUMPI DUP1 PUSH4 0x72DE4401 EQ PUSH2 0x32A7 JUMPI DUP1 PUSH4 0x74CDD534 EQ PUSH2 0x322E JUMPI DUP1 PUSH4 0x763A32F3 EQ PUSH2 0x31FA JUMPI DUP1 PUSH4 0x770D954D EQ PUSH2 0x3145 JUMPI DUP1 PUSH4 0x78522BC4 EQ PUSH2 0x3127 JUMPI DUP1 PUSH4 0x791CDA0F EQ PUSH2 0x2F08 JUMPI DUP1 PUSH4 0x7C0B501A EQ PUSH2 0x2DFD JUMPI DUP1 PUSH4 0x828B10DA EQ PUSH2 0x2CDD JUMPI DUP1 PUSH4 0x833FFE94 EQ PUSH2 0x2C37 JUMPI DUP1 PUSH4 0x8366304B EQ PUSH2 0x288E JUMPI DUP1 PUSH4 0x842F8DD0 EQ PUSH2 0x27DA JUMPI DUP1 PUSH4 0x84E7AA2E EQ PUSH2 0x265F JUMPI DUP1 PUSH4 0x8C9E245D EQ PUSH2 0x25C9 JUMPI DUP1 PUSH4 0x93119A83 EQ PUSH2 0x257D JUMPI DUP1 PUSH4 0x95027D41 EQ PUSH2 0x2459 JUMPI DUP1 PUSH4 0x9CDAAAD8 EQ PUSH2 0x241A JUMPI DUP1 PUSH4 0x9DA8E0DB EQ PUSH2 0x23FC JUMPI DUP1 PUSH4 0x9F0893C2 EQ PUSH2 0x2364 JUMPI DUP1 PUSH4 0x9FEA8C26 EQ PUSH2 0x21FF JUMPI DUP1 PUSH4 0xA0303C41 EQ PUSH2 0x21E1 JUMPI DUP1 PUSH4 0xA48F87D0 EQ PUSH2 0x216F JUMPI DUP1 PUSH4 0xA72C1623 EQ PUSH2 0x2082 JUMPI DUP1 PUSH4 0xACA7A606 EQ PUSH2 0x523 JUMPI DUP1 PUSH4 0xB039ECE9 EQ PUSH2 0x1F50 JUMPI DUP1 PUSH4 0xB27B24F8 EQ PUSH2 0x1E3A JUMPI DUP1 PUSH4 0xB3E0C710 EQ PUSH2 0x1DE9 JUMPI DUP1 PUSH4 0xB6558498 EQ PUSH2 0x1DCB JUMPI DUP1 PUSH4 0xB868F729 EQ PUSH2 0x1CF2 JUMPI DUP1 PUSH4 0xB884DB75 EQ PUSH2 0x19E3 JUMPI DUP1 PUSH4 0xBBECE2BB EQ PUSH2 0x1922 JUMPI DUP1 PUSH4 0xC0A5999A EQ PUSH2 0x182C JUMPI DUP1 PUSH4 0xC2C9A9BC EQ PUSH2 0x17F8 JUMPI DUP1 PUSH4 0xC469C7E6 EQ PUSH2 0x17BE JUMPI DUP1 PUSH4 0xC85E766D EQ PUSH2 0x1721 JUMPI DUP1 PUSH4 0xD0DA2306 EQ PUSH2 0x1602 JUMPI DUP1 PUSH4 0xD174EA41 EQ PUSH2 0x1573 JUMPI DUP1 PUSH4 0xDABF826A EQ PUSH2 0x1555 JUMPI DUP1 PUSH4 0xDD1BF902 EQ PUSH2 0x13A1 JUMPI DUP1 PUSH4 0xE1B97D69 EQ PUSH2 0x1294 JUMPI DUP1 PUSH4 0xE40B850E EQ PUSH2 0x1276 JUMPI DUP1 PUSH4 0xE92F0A68 EQ PUSH2 0x11D6 JUMPI DUP1 PUSH4 0xEA51CD6C EQ PUSH2 0x10CD JUMPI DUP1 PUSH4 0xEBD557D9 EQ PUSH2 0xC30 JUMPI DUP1 PUSH4 0xED74E848 EQ PUSH2 0x9D7 JUMPI DUP1 PUSH4 0xEEBC3FB2 EQ PUSH2 0x9B9 JUMPI DUP1 PUSH4 0xF27E44CC EQ PUSH2 0x91E JUMPI DUP1 PUSH4 0xF28136A9 EQ PUSH2 0x897 JUMPI DUP1 PUSH4 0xF851A440 EQ PUSH2 0x86E JUMPI DUP1 PUSH4 0xFB5333B7 EQ PUSH2 0x790 JUMPI DUP1 PUSH4 0xFD9510D5 EQ PUSH2 0x55B JUMPI DUP1 PUSH4 0xFE2DF1C3 EQ PUSH2 0x523 JUMPI DUP1 PUSH4 0xFE60EFA1 EQ PUSH2 0x48C JUMPI PUSH4 0xFF09A64E EQ PUSH2 0x3A2 JUMPI PUSH1 0x0 DUP1 REVERT JUMPDEST CALLVALUE PUSH2 0x487 JUMPI PUSH1 0x20 DUP1 PUSH1 0x3 NOT CALLDATASIZE ADD SLT PUSH2 0x487 JUMPI PUSH1 0x60 SWAP1 PUSH2 0x3BF PUSH2 0x55E2 JUMP JUMPDEST DUP3 PUSH1 0x40 DUP1 MLOAD PUSH2 0x3CD DUP2 PUSH2 0x56EC JUMP JUMPDEST DUP3 DUP2 MSTORE DUP3 DUP6 DUP3 ADD MSTORE ADD MSTORE PUSH2 0x3E8 PUSH2 0x3E3 DUP3 PUSH2 0x6983 JUMP JUMPDEST PUSH2 0x6C34 JUMP JUMPDEST PUSH1 0x1 DUP1 PUSH1 0xA0 SHL SUB AND PUSH1 0x0 MSTORE PUSH1 0x1 DUP2 MSTORE PUSH2 0x483 PUSH1 0x40 PUSH1 0x0 KECCAK256 SWAP2 PUSH1 0x40 MLOAD SWAP3 PUSH2 0x40D DUP5 PUSH2 0x56EC JUMP JUMPDEST PUSH2 0x416 DUP2 PUSH2 0x5728 JUMP JUMPDEST DUP5 MSTORE PUSH2 0x472 PUSH2 0x45C PUSH2 0x43C PUSH1 0x2 PUSH2 0x42F PUSH1 0x1 DUP7 ADD PUSH2 0x5728 JUMP JUMPDEST SWAP5 DUP7 DUP10 ADD SWAP6 DUP7 MSTORE ADD PUSH2 0x6C79 JUMP JUMPDEST SWAP4 PUSH1 0x40 DUP8 ADD SWAP5 DUP6 MSTORE PUSH1 0x40 MLOAD SWAP8 DUP9 SWAP8 DUP3 DUP10 MSTORE MLOAD SWAP2 DUP9 ADD MSTORE PUSH1 0x80 DUP8 ADD SWAP1 PUSH2 0x57CE JUMP JUMPDEST SWAP2 MLOAD SWAP2 PUSH1 0x1F NOT SWAP3 DUP4 DUP8 DUP4 SUB ADD PUSH1 0x40 DUP9 ADD MSTORE PUSH2 0x57CE JUMP JUMPDEST SWAP2 MLOAD SWAP1 DUP5 DUP4 SUB ADD PUSH1 0x60 DUP6 ADD MSTORE PUSH2 0x5DFB JUMP JUMPDEST SUB SWAP1 RETURN JUMPDEST PUSH1 0x0 DUP1 REVERT JUMPDEST CALLVALUE PUSH2 0x487 JUMPI PUSH1 0x20 CALLDATASIZE PUSH1 0x3 NOT ADD SLT PUSH2 0x487 JUMPI PUSH2 0x4A5 PUSH2 0x686F JUMP JUMPDEST POP PUSH1 0x4 CALLDATALOAD PUSH1 0x0 MSTORE PUSH1 0x6 PUSH1 0x20 MSTORE PUSH2 0x483 PUSH1 0x40 PUSH1 0x0 KECCAK256 PUSH1 0xFF PUSH1 0x5 PUSH1 0x40 MLOAD SWAP3 PUSH2 0x4CA DUP5 PUSH2 0x569B JUMP JUMPDEST DUP1 SLOAD DUP5 MSTORE PUSH2 0x4DA PUSH1 0x1 DUP3 ADD PUSH2 0x5728 JUMP JUMPDEST PUSH1 0x20 DUP6 ADD MSTORE PUSH1 0x1 DUP1 PUSH1 0xA0 SHL SUB PUSH1 0x2 DUP3 ADD SLOAD AND PUSH1 0x40 DUP6 ADD MSTORE PUSH1 0x3 DUP2 ADD SLOAD PUSH1 0x60 DUP6 ADD MSTORE PUSH1 0x4 DUP2 ADD SLOAD PUSH1 0x80 DUP6 ADD MSTORE ADD SLOAD AND ISZERO ISZERO PUSH1 0xA0 DUP3 ADD MSTORE PUSH1 0x40 MLOAD SWAP2 DUP3 SWAP2 PUSH1 0x20 DUP4 MSTORE PUSH1 0x20 DUP4 ADD SWAP1 PUSH2 0x5B5D JUMP JUMPDEST CALLVALUE PUSH2 0x487 JUMPI PUSH2 0x531 CALLDATASIZE PUSH2 0x580E JUMP JUMPDEST SWAP1 PUSH1 0x0 MSTORE PUSH1 0x12 PUSH1 0x20 MSTORE PUSH1 0x40 PUSH1 0x0 KECCAK256 SWAP1 PUSH1 0x0 MSTORE PUSH1 0x20 MSTORE PUSH1 0x20 PUSH1 0xFF PUSH1 0x40 PUSH1 0x0 KECCAK256 SLOAD AND PUSH1 0x40 MLOAD SWAP1 ISZERO ISZERO DUP2 MSTORE RETURN JUMPDEST CALLVALUE PUSH2 0x487 JUMPI PUSH1 0x20 DUP1 PUSH1 0x3 NOT CALLDATASIZE ADD SLT PUSH2 0x487 JUMPI PUSH1 0x4 CALLDATALOAD SWAP1 CALLER PUSH1 0x0 MSTORE PUSH1 0xA DUP2 MSTORE PUSH2 0x58A PUSH1 0xFF PUSH1 0x40 PUSH1 0x0 KECCAK256 SLOAD AND PUSH2 0x6181 JUMP JUMPDEST PUSH2 0x598 PUSH1 0x17 SLOAD DUP4 GT ISZERO PUSH2 0x64E9 JUMP JUMPDEST DUP2 PUSH1 0x0 MSTORE PUSH1 0x9 DUP2 MSTORE PUSH1 0x2 PUSH1 0x40 PUSH1 0x0 KECCAK256 ADD SLOAD PUSH2 0x5B2 CALLER PUSH2 0x68F1 JUMP JUMPDEST SUB PUSH2 0x72E JUMPI DUP2 PUSH2 0x72C SWAP3 PUSH1 0x0 MSTORE PUSH1 0x9 DUP3 MSTORE PUSH1 0x9 PUSH1 0x40 PUSH1 0x0 KECCAK256 ADD PUSH1 0xFF NOT DUP2 SLOAD AND SWAP1 SSTORE PUSH2 0x5DC CALLER PUSH2 0x68F1 JUMP JUMPDEST PUSH1 0x0 MSTORE PUSH1 0x6 DUP3 MSTORE PUSH1 0x4 PUSH1 0x40 PUSH1 0x0 KECCAK256 ADD PUSH2 0x5F5 DUP2 SLOAD PUSH2 0x6070 JUMP JUMPDEST SWAP1 SSTORE PUSH2 0x656 PUSH1 0x40 MLOAD PUSH2 0x606 DUP2 PUSH2 0x56EC JUMP JUMPDEST PUSH1 0x2F DUP2 MSTORE PUSH32 0x596F752068617665207375636365737366756C6C7920636F6D706C6574656420 DUP5 DUP3 ADD MSTORE PUSH15 0x1D1A1948185C1C1BDA5B9D1B595B9D PUSH1 0x8A SHL PUSH1 0x40 DUP3 ADD MSTORE PUSH2 0x64F PUSH2 0x6426 JUMP JUMPDEST SWAP1 CALLER PUSH2 0x61E5 JUMP JUMPDEST PUSH1 0x0 MSTORE PUSH1 0x9 DUP2 MSTORE PUSH1 0x1 PUSH1 0x40 PUSH1 0x0 KECCAK256 ADD SLOAD PUSH1 0x0 MSTORE PUSH1 0x7 DUP2 MSTORE PUSH1 0x1 DUP1 PUSH1 0xA0 SHL SUB PUSH2 0x6D8 DUP2 PUSH1 0x3 PUSH1 0x40 PUSH1 0x0 KECCAK256 ADD SLOAD AND PUSH1 0x40 MLOAD PUSH2 0x68E DUP2 PUSH2 0x56EC JUMP JUMPDEST PUSH1 0x2A DUP2 MSTORE PUSH32 0x596F7572204170706F696E746D656E74206973207375636365737366756C6C79 DUP6 DUP3 ADD MSTORE PUSH10 0x818DBDB5C1B195D1959 PUSH1 0xB2 SHL PUSH1 0x40 DUP3 ADD MSTORE PUSH2 0x6D2 PUSH2 0x6426 JUMP JUMPDEST SWAP2 PUSH2 0x61E5 JUMP JUMPDEST PUSH1 0x19 SLOAD AND SWAP1 PUSH32 0x446F63746F7220636F6D706C65746564206170706F696E746D656E7420737563 PUSH1 0x40 MLOAD SWAP2 PUSH2 0x70B DUP4 PUSH2 0x56EC JUMP JUMPDEST PUSH1 0x29 DUP4 MSTORE DUP3 ADD MSTORE PUSH9 0x6365737366756C6C79 PUSH1 0xB8 SHL PUSH1 0x40 DUP3 ADD MSTORE PUSH2 0x6D2 PUSH2 0x6426 JUMP JUMPDEST STOP JUMPDEST PUSH1 0x84 SWAP1 PUSH1 0x40 MLOAD SWAP1 PUSH3 0x461BCD PUSH1 0xE5 SHL DUP3 MSTORE PUSH1 0x4 DUP3 ADD MSTORE PUSH1 0x35 PUSH1 0x24 DUP3 ADD MSTORE PUSH32 0x4F6E6C79207468652061737369676E656420646F63746F722063616E20636F6D PUSH1 0x44 DUP3 ADD MSTORE PUSH21 0x1C1B195D19481D1A1948185C1C1BDA5B9D1B595B9D PUSH1 0x5A SHL PUSH1 0x64 DUP3 ADD MSTORE REVERT JUMPDEST CALLVALUE PUSH2 0x487 JUMPI PUSH32 0x573CCA7A8CD583DA809CDB83B4EA8DEC06C87DA579A25478CC69566672E2B589 PUSH2 0x7BF CALLDATASIZE PUSH2 0x58A4 JUMP JUMPDEST SWAP1 PUSH2 0x7D5 PUSH1 0x1 DUP1 PUSH1 0xA0 SHL SUB PUSH1 0x19 SLOAD AND CALLER EQ PUSH2 0x6313 JUMP JUMPDEST PUSH2 0x7E3 PUSH1 0x13 SLOAD DUP3 GT ISZERO PUSH2 0x638E JUMP JUMPDEST DUP1 PUSH1 0x0 MSTORE PUSH1 0x5 PUSH1 0x20 MSTORE PUSH2 0x7FD DUP3 PUSH1 0x5 PUSH1 0x40 PUSH1 0x0 KECCAK256 ADD PUSH2 0x5EC5 JUMP JUMPDEST PUSH2 0x84D PUSH1 0x40 MLOAD PUSH2 0x80C DUP2 PUSH2 0x56EC JUMP JUMPDEST PUSH1 0x26 DUP2 MSTORE PUSH32 0x4D65646963696E65206C6F636174696F6E207570646174656420737563636573 PUSH1 0x20 DUP3 ADD MSTORE PUSH6 0x7366756C6C79 PUSH1 0xD0 SHL PUSH1 0x40 DUP3 ADD MSTORE PUSH2 0x64F PUSH2 0x636A JUMP JUMPDEST PUSH2 0x869 PUSH1 0x40 MLOAD SWAP3 DUP4 SWAP3 DUP4 MSTORE PUSH1 0x40 PUSH1 0x20 DUP5 ADD MSTORE PUSH1 0x40 DUP4 ADD SWAP1 PUSH2 0x57CE JUMP JUMPDEST SUB SWAP1 LOG1 STOP JUMPDEST CALLVALUE PUSH2 0x487 JUMPI PUSH1 0x0 CALLDATASIZE PUSH1 0x3 NOT ADD SLT PUSH2 0x487 JUMPI PUSH1 0x19 SLOAD PUSH1 0x40 MLOAD PUSH1 0x1 PUSH1 0x1 PUSH1 0xA0 SHL SUB SWAP1 SWAP2 AND DUP2 MSTORE PUSH1 0x20 SWAP1 RETURN JUMPDEST CALLVALUE PUSH2 0x487 JUMPI PUSH1 0x20 CALLDATASIZE PUSH1 0x3 NOT ADD SLT PUSH2 0x487 JUMPI PUSH1 0x19 SLOAD PUSH2 0x72C SWAP1 PUSH1 0x1 PUSH1 0x1 PUSH1 0xA0 SHL SUB AND PUSH2 0x8C3 CALLER DUP3 EQ PUSH2 0x6313 JUMP JUMPDEST PUSH1 0x4 CALLDATALOAD PUSH1 0x1A SSTORE PUSH1 0x40 MLOAD PUSH2 0x8D5 DUP2 PUSH2 0x56EC JUMP JUMPDEST PUSH1 0x2E DUP2 MSTORE PUSH32 0x596F752068617665207375636365737366756C6C792075706461746564205265 PUSH1 0x20 DUP3 ADD MSTORE PUSH14 0x67697374726174696F6E20666565 PUSH1 0x90 SHL PUSH1 0x40 DUP3 ADD MSTORE PUSH2 0x6D2 PUSH2 0x65AA JUMP JUMPDEST CALLVALUE PUSH2 0x487 JUMPI PUSH1 0x20 CALLDATASIZE PUSH1 0x3 NOT ADD SLT PUSH2 0x487 JUMPI PUSH2 0x937 PUSH2 0x65CB JUMP JUMPDEST POP PUSH1 0x4 CALLDATALOAD PUSH1 0x0 MSTORE PUSH1 0x8 PUSH1 0x20 MSTORE PUSH1 0xA0 PUSH1 0x40 PUSH1 0x0 KECCAK256 PUSH1 0x4 PUSH1 0x40 MLOAD SWAP2 PUSH2 0x959 DUP4 PUSH2 0x5648 JUMP JUMPDEST DUP1 SLOAD DUP4 MSTORE PUSH1 0x1 DUP2 ADD SLOAD PUSH1 0x20 DUP5 ADD MSTORE PUSH1 0x2 DUP2 ADD SLOAD PUSH1 0x40 DUP5 ADD MSTORE PUSH1 0x3 DUP2 ADD SLOAD PUSH1 0x60 DUP5 ADD MSTORE ADD SLOAD PUSH1 0x80 DUP3 ADD MSTORE PUSH2 0x9B7 PUSH1 0x40 MLOAD DUP1 SWAP3 PUSH1 0x80 DUP1 SWAP2 DUP1 MLOAD DUP5 MSTORE PUSH1 0x20 DUP2 ADD MLOAD PUSH1 0x20 DUP6 ADD MSTORE PUSH1 0x40 DUP2 ADD MLOAD PUSH1 0x40 DUP6 ADD MSTORE PUSH1 0x60 DUP2 ADD MLOAD PUSH1 0x60 DUP6 ADD MSTORE ADD MLOAD SWAP2 ADD MSTORE JUMP JUMPDEST RETURN JUMPDEST CALLVALUE PUSH2 0x487 JUMPI PUSH1 0x0 CALLDATASIZE PUSH1 0x3 NOT ADD SLT PUSH2 0x487 JUMPI PUSH1 0x20 PUSH1 0x17 SLOAD PUSH1 0x40 MLOAD SWAP1 DUP2 MSTORE RETURN JUMPDEST CALLVALUE PUSH2 0x487 JUMPI PUSH1 0x60 CALLDATASIZE PUSH1 0x3 NOT ADD SLT PUSH2 0x487 JUMPI PUSH2 0x9F0 PUSH2 0x55E2 JUMP JUMPDEST PUSH2 0x9F8 PUSH2 0x55F8 JUMP JUMPDEST SWAP1 PUSH1 0x44 CALLDATALOAD PUSH1 0x1 PUSH1 0x1 PUSH1 0x40 SHL SUB DUP2 GT PUSH2 0x487 JUMPI PUSH2 0xA18 SWAP1 CALLDATASIZE SWAP1 PUSH1 0x4 ADD PUSH2 0x59EE JUMP JUMPDEST SWAP3 SWAP1 SWAP2 PUSH2 0xA2C PUSH2 0xA27 DUP4 PUSH2 0x6983 JUMP JUMPDEST PUSH2 0x6CF4 JUMP JUMPDEST PUSH2 0xA38 PUSH2 0x3E3 DUP3 PUSH2 0x6983 JUMP JUMPDEST PUSH2 0xA42 DUP2 DUP4 PUSH2 0x6E60 JUMP JUMPDEST ISZERO PUSH2 0xBDC JUMPI PUSH2 0xA51 DUP2 DUP4 PUSH2 0x6FB6 JUMP JUMPDEST SWAP1 PUSH1 0x40 MLOAD SWAP5 PUSH2 0xA5F DUP7 PUSH2 0x56EC JUMP JUMPDEST PUSH1 0x1 DUP1 PUSH1 0xA0 SHL SUB SWAP4 DUP5 DUP2 AND DUP8 MSTORE PUSH2 0xA80 PUSH1 0x20 SWAP7 DUP8 DUP10 ADD SWAP4 TIMESTAMP DUP6 MSTORE CALLDATASIZE SWAP2 PUSH2 0x5840 JUMP JUMPDEST SWAP4 PUSH1 0x40 DUP9 ADD SWAP5 DUP6 MSTORE PUSH1 0x0 MSTORE PUSH1 0x2 DUP7 MSTORE PUSH1 0x40 PUSH1 0x0 KECCAK256 DUP1 SLOAD SWAP8 PUSH1 0x1 PUSH1 0x40 SHL DUP10 LT ISZERO PUSH2 0xBC6 JUMPI PUSH1 0x1 DUP10 ADD DUP1 DUP4 SSTORE DUP10 LT ISZERO PUSH2 0xBB0 JUMPI PUSH1 0x2 PUSH2 0xB6E SWAP7 PUSH2 0xB3A SWAP6 DUP10 PUSH2 0x72C SWAP13 PUSH2 0xAF2 SWAP7 PUSH1 0x0 MSTORE PUSH1 0x3 DUP14 PUSH1 0x0 KECCAK256 SWAP2 MUL ADD SWAP5 MLOAD AND PUSH1 0x1 PUSH1 0x1 PUSH1 0x60 SHL SUB PUSH1 0xA0 SHL DUP6 SLOAD AND OR DUP5 SSTORE MLOAD PUSH1 0x1 DUP5 ADD SSTORE MLOAD SWAP2 ADD PUSH2 0x5EC5 JUMP JUMPDEST PUSH1 0x40 MLOAD PUSH2 0xAFE DUP2 PUSH2 0x56EC JUMP JUMPDEST PUSH1 0x22 DUP2 MSTORE PUSH32 0x596F752068617665207375636365737366756C6C792073656E74206D65737361 DUP8 DUP3 ADD MSTORE PUSH2 0x6765 PUSH1 0xF0 SHL PUSH1 0x40 DUP3 ADD MSTORE PUSH2 0x6D2 PUSH2 0x6F93 JUMP JUMPDEST PUSH1 0x40 MLOAD PUSH2 0xB46 DUP2 PUSH2 0x56B6 JUMP JUMPDEST PUSH1 0x14 DUP2 MSTORE PUSH20 0x596F752068617665206E6577206D657373616765 PUSH1 0x60 SHL DUP6 DUP3 ADD MSTORE PUSH2 0x6D2 PUSH2 0x6F93 JUMP JUMPDEST PUSH1 0x19 SLOAD AND SWAP1 PUSH32 0x4D6573736167652073656E74207375636365737366756C6C7900000000000000 PUSH1 0x40 MLOAD SWAP2 PUSH2 0xBA1 DUP4 PUSH2 0x56B6 JUMP JUMPDEST PUSH1 0x19 DUP4 MSTORE DUP3 ADD MSTORE PUSH2 0x6D2 PUSH2 0x6F93 JUMP JUMPDEST PUSH4 0x4E487B71 PUSH1 0xE0 SHL PUSH1 0x0 MSTORE PUSH1 0x32 PUSH1 0x4 MSTORE PUSH1 0x24 PUSH1 0x0 REVERT JUMPDEST PUSH4 0x4E487B71 PUSH1 0xE0 SHL PUSH1 0x0 MSTORE PUSH1 0x41 PUSH1 0x4 MSTORE PUSH1 0x24 PUSH1 0x0 REVERT JUMPDEST PUSH1 0x40 MLOAD PUSH3 0x461BCD PUSH1 0xE5 SHL DUP2 MSTORE PUSH1 0x20 PUSH1 0x4 DUP3 ADD MSTORE PUSH1 0x26 PUSH1 0x24 DUP3 ADD MSTORE PUSH32 0x596F7520617265206E6F7420667269656E642077697468207468652067697665 PUSH1 0x44 DUP3 ADD MSTORE PUSH6 0x37103AB9B2B9 PUSH1 0xD1 SHL PUSH1 0x64 DUP3 ADD MSTORE PUSH1 0x84 SWAP1 REVERT JUMPDEST PUSH2 0x120 CALLDATASIZE PUSH1 0x3 NOT ADD SLT PUSH2 0x487 JUMPI PUSH1 0x1 PUSH1 0x1 PUSH1 0x40 SHL SUB PUSH1 0x44 CALLDATALOAD DUP2 DUP2 GT PUSH2 0x487 JUMPI PUSH2 0xC5D SWAP1 CALLDATASIZE SWAP1 PUSH1 0x4 ADD PUSH2 0x5886 JUMP JUMPDEST PUSH1 0x64 CALLDATALOAD DUP3 DUP2 GT PUSH2 0x487 JUMPI PUSH2 0xC75 SWAP1 CALLDATASIZE SWAP1 PUSH1 0x4 ADD PUSH2 0x5886 JUMP JUMPDEST SWAP1 PUSH1 0x84 CALLDATALOAD DUP4 DUP2 GT PUSH2 0x487 JUMPI PUSH2 0xC8E SWAP1 CALLDATASIZE SWAP1 PUSH1 0x4 ADD PUSH2 0x5886 JUMP JUMPDEST SWAP1 PUSH1 0xA4 CALLDATALOAD DUP5 DUP2 GT PUSH2 0x487 JUMPI PUSH2 0xCA7 SWAP1 CALLDATASIZE SWAP1 PUSH1 0x4 ADD PUSH2 0x5886 JUMP JUMPDEST SWAP3 PUSH1 0xC4 CALLDATALOAD DUP6 DUP2 GT PUSH2 0x487 JUMPI PUSH2 0xCC0 SWAP1 CALLDATASIZE SWAP1 PUSH1 0x4 ADD PUSH2 0x5886 JUMP JUMPDEST SWAP5 PUSH1 0xE4 CALLDATALOAD PUSH1 0x1 PUSH1 0x1 PUSH1 0xA0 SHL SUB DUP2 AND SWAP1 SUB PUSH2 0x487 JUMPI PUSH2 0x104 CALLDATALOAD SWAP1 DUP2 GT PUSH2 0x487 JUMPI PUSH2 0xCED SWAP1 CALLDATASIZE SWAP1 PUSH1 0x4 ADD PUSH2 0x59EE JUMP JUMPDEST SWAP6 SWAP1 SWAP5 PUSH2 0xD00 PUSH1 0x15 SLOAD PUSH1 0x4 CALLDATALOAD GT ISZERO PUSH2 0x648C JUMP JUMPDEST PUSH2 0xD10 PUSH1 0x14 SLOAD PUSH1 0x24 CALLDATALOAD GT ISZERO PUSH2 0x6448 JUMP JUMPDEST PUSH1 0x24 CALLDATALOAD PUSH1 0x0 MSTORE PUSH1 0x6 PUSH1 0x20 MSTORE PUSH2 0xD2F PUSH1 0xFF PUSH1 0x5 PUSH1 0x40 PUSH1 0x0 KECCAK256 ADD SLOAD AND PUSH2 0x6535 JUMP JUMPDEST PUSH1 0x4 CALLDATALOAD PUSH1 0x0 SWAP1 DUP2 MSTORE PUSH1 0x7 PUSH1 0x20 MSTORE PUSH1 0x40 SWAP1 KECCAK256 PUSH1 0x3 ADD SLOAD PUSH1 0x1 PUSH1 0x1 PUSH1 0xA0 SHL SUB AND CALLER SUB PUSH2 0x1074 JUMPI PUSH1 0x1C SLOAD CALLVALUE SUB PUSH2 0x102F JUMPI PUSH2 0xD6B PUSH1 0xA CALLVALUE SWAP1 DUP2 DIV SWAP1 PUSH2 0x659D JUMP JUMPDEST SWAP5 PUSH1 0x17 SLOAD PUSH2 0xD78 SWAP1 PUSH2 0x6070 JUMP JUMPDEST SWAP4 DUP5 PUSH1 0x17 SSTORE PUSH1 0x40 MLOAD SWAP6 PUSH2 0xD8A DUP8 PUSH2 0x567F JUMP JUMPDEST DUP6 DUP8 MSTORE PUSH1 0x20 DUP8 ADD PUSH1 0x4 CALLDATALOAD DUP2 MSTORE PUSH1 0x40 DUP9 ADD PUSH1 0x24 CALLDATALOAD DUP2 MSTORE PUSH1 0x60 DUP10 ADD SWAP2 TIMESTAMP DUP4 MSTORE PUSH1 0x80 DUP11 ADD SWAP4 DUP5 MSTORE PUSH1 0xA0 DUP11 ADD SWAP5 DUP6 MSTORE PUSH1 0xC0 DUP11 ADD SWAP6 DUP7 MSTORE PUSH1 0xE0 DUP11 ADD SWAP7 DUP8 MSTORE PUSH2 0x100 DUP11 ADD SWAP8 DUP9 MSTORE PUSH2 0x120 DUP11 ADD SWAP9 PUSH1 0x1 DUP11 MSTORE PUSH1 0x0 MSTORE PUSH1 0x9 PUSH1 0x20 MSTORE PUSH1 0x40 PUSH1 0x0 KECCAK256 SWAP10 MLOAD DUP11 SSTORE MLOAD PUSH1 0x1 DUP11 ADD SSTORE MLOAD PUSH1 0x2 DUP10 ADD SSTORE MLOAD PUSH1 0x3 DUP9 ADD SSTORE MLOAD PUSH1 0x4 DUP8 ADD SWAP1 PUSH2 0xE07 SWAP2 PUSH2 0x5EC5 JUMP JUMPDEST MLOAD PUSH2 0xE15 SWAP1 PUSH1 0x5 DUP8 ADD PUSH2 0x5EC5 JUMP JUMPDEST MLOAD PUSH2 0xE23 SWAP1 PUSH1 0x6 DUP7 ADD PUSH2 0x5EC5 JUMP JUMPDEST MLOAD PUSH2 0xE31 SWAP1 PUSH1 0x7 DUP6 ADD PUSH2 0x5EC5 JUMP JUMPDEST MLOAD PUSH2 0xE3F SWAP1 PUSH1 0x8 DUP5 ADD PUSH2 0x5EC5 JUMP JUMPDEST MLOAD ISZERO ISZERO SWAP1 PUSH1 0x9 ADD SWAP1 PUSH2 0xE5C SWAP2 SWAP1 PUSH1 0xFF DUP1 NOT DUP4 SLOAD AND SWAP2 ISZERO ISZERO AND OR SWAP1 SSTORE JUMP JUMPDEST PUSH1 0x24 CALLDATALOAD PUSH1 0x0 MSTORE PUSH1 0x6 PUSH1 0x20 MSTORE PUSH1 0x40 PUSH1 0x0 KECCAK256 PUSH1 0x3 ADD DUP1 SLOAD PUSH2 0xE7A SWAP1 PUSH2 0x6070 JUMP JUMPDEST SWAP1 SSTORE PUSH1 0x19 SLOAD PUSH1 0x0 SWAP1 DUP2 SWAP1 DUP2 SWAP1 DUP2 SWAP1 DUP2 SWAP1 PUSH1 0x1 PUSH1 0x1 PUSH1 0xA0 SHL SUB AND PUSH1 0xA CALLVALUE DIV ISZERO PUSH2 0x1025 JUMPI JUMPDEST PUSH1 0xA CALLVALUE DIV SWAP2 CALL ISZERO PUSH2 0x1010 JUMPI PUSH1 0x0 DUP1 DUP1 DUP1 SWAP4 PUSH1 0x24 CALLDATALOAD DUP3 MSTORE PUSH1 0x6 PUSH1 0x20 MSTORE PUSH1 0x1 DUP1 PUSH1 0xA0 SHL SUB PUSH1 0x2 PUSH1 0x40 DUP5 KECCAK256 ADD SLOAD AND DUP3 DUP3 ISZERO PUSH2 0x101C JUMPI JUMPDEST CALL ISZERO PUSH2 0x1010 JUMPI PUSH2 0xEE4 SWAP2 CALLER SWAP2 PUSH1 0xE4 CALLDATALOAD PUSH2 0x6D40 JUMP JUMPDEST PUSH2 0xF2E PUSH1 0x40 MLOAD PUSH2 0xEF3 DUP2 PUSH2 0x56B6 JUMP JUMPDEST PUSH1 0x1A DUP2 MSTORE PUSH32 0x596F7520686176652061206E6577206170706F696E746D656E74000000000000 PUSH1 0x20 DUP3 ADD MSTORE PUSH2 0xF25 PUSH2 0x657A JUMP JUMPDEST SWAP1 PUSH1 0xE4 CALLDATALOAD PUSH2 0x61E5 JUMP JUMPDEST PUSH2 0xF83 PUSH1 0x40 MLOAD PUSH2 0xF3D DUP2 PUSH2 0x56EC JUMP JUMPDEST PUSH1 0x2B DUP2 MSTORE PUSH32 0x596F752068617665207375636365737366756C6C7920626F6F6B656420616E20 PUSH1 0x20 DUP3 ADD MSTORE PUSH11 0x185C1C1BDA5B9D1B595B9D PUSH1 0xAA SHL PUSH1 0x40 DUP3 ADD MSTORE PUSH2 0x64F PUSH2 0x657A JUMP JUMPDEST PUSH1 0x19 SLOAD PUSH1 0x40 MLOAD PUSH2 0xFCB SWAP2 PUSH1 0x1 PUSH1 0x1 PUSH1 0xA0 SHL SUB AND SWAP1 PUSH2 0xFA0 DUP2 PUSH2 0x56B6 JUMP JUMPDEST PUSH1 0x16 DUP2 MSTORE PUSH22 0x13995DC8185C1C1BDA5B9D1B595B9D08189BDBDAD959 PUSH1 0x52 SHL PUSH1 0x20 DUP3 ADD MSTORE PUSH2 0x6D2 PUSH2 0x657A JUMP JUMPDEST PUSH32 0x3AC6F9DF28EF09D1B346BE1F7D771F61872F07DE8DA7B88F490FE4F61B2B3E2C PUSH1 0x80 PUSH1 0x17 SLOAD PUSH1 0x40 MLOAD SWAP1 DUP2 MSTORE PUSH1 0x4 CALLDATALOAD PUSH1 0x20 DUP3 ADD MSTORE PUSH1 0x24 CALLDATALOAD PUSH1 0x40 DUP3 ADD MSTORE TIMESTAMP PUSH1 0x60 DUP3 ADD MSTORE LOG1 STOP JUMPDEST PUSH1 0x40 MLOAD RETURNDATASIZE PUSH1 0x0 DUP3 RETURNDATACOPY RETURNDATASIZE SWAP1 REVERT JUMPDEST POP PUSH2 0x8FC PUSH2 0xED0 JUMP JUMPDEST PUSH2 0x8FC SWAP2 POP PUSH2 0xE9D JUMP JUMPDEST PUSH1 0x40 MLOAD PUSH3 0x461BCD PUSH1 0xE5 SHL DUP2 MSTORE PUSH1 0x20 PUSH1 0x4 DUP3 ADD MSTORE PUSH1 0x19 PUSH1 0x24 DUP3 ADD MSTORE PUSH32 0x496E636F7272656374206170706F696E746D656E742066656500000000000000 PUSH1 0x44 DUP3 ADD MSTORE PUSH1 0x64 SWAP1 REVERT JUMPDEST PUSH1 0x40 MLOAD PUSH3 0x461BCD PUSH1 0xE5 SHL DUP2 MSTORE PUSH1 0x20 PUSH1 0x4 DUP3 ADD MSTORE PUSH1 0x2B PUSH1 0x24 DUP3 ADD MSTORE PUSH32 0x4F6E6C79207468652070617469656E742063616E20626F6F6B20746865697220 PUSH1 0x44 DUP3 ADD MSTORE PUSH11 0x185C1C1BDA5B9D1B595B9D PUSH1 0xAA SHL PUSH1 0x64 DUP3 ADD MSTORE PUSH1 0x84 SWAP1 REVERT JUMPDEST CALLVALUE PUSH2 0x487 JUMPI PUSH1 0x0 CALLDATASIZE PUSH1 0x3 NOT ADD SLT PUSH2 0x487 JUMPI PUSH1 0x17 SLOAD PUSH2 0x10EA DUP2 PUSH2 0x681F JUMP JUMPDEST SWAP1 PUSH1 0x1 DUP1 PUSH1 0x0 JUMPDEST DUP4 DUP4 GT ISZERO PUSH2 0x1107 JUMPI PUSH1 0x40 MLOAD DUP1 PUSH2 0x483 DUP8 DUP3 PUSH2 0x5975 JUMP JUMPDEST PUSH2 0x11CA PUSH2 0x11D0 SWAP2 DUP5 PUSH1 0x0 MSTORE PUSH1 0x9 PUSH1 0xFF PUSH1 0x20 SWAP2 DUP1 DUP4 MSTORE PUSH1 0x40 PUSH1 0x0 KECCAK256 PUSH1 0x40 MLOAD SWAP4 PUSH2 0x112E DUP6 PUSH2 0x567F JUMP JUMPDEST DUP2 SLOAD DUP6 MSTORE DUP9 DUP3 ADD SLOAD SWAP1 DUP6 ADD MSTORE PUSH1 0x2 DUP2 ADD SLOAD PUSH1 0x40 DUP6 ADD MSTORE PUSH1 0x3 DUP2 ADD SLOAD PUSH1 0x60 DUP6 ADD MSTORE PUSH2 0x115A PUSH1 0x4 DUP3 ADD PUSH2 0x5728 JUMP JUMPDEST PUSH1 0x80 DUP6 ADD MSTORE PUSH2 0x116B PUSH1 0x5 DUP3 ADD PUSH2 0x5728 JUMP JUMPDEST PUSH1 0xA0 DUP6 ADD MSTORE PUSH2 0x117C PUSH1 0x6 DUP3 ADD PUSH2 0x5728 JUMP JUMPDEST PUSH1 0xC0 DUP6 ADD MSTORE PUSH2 0x118D PUSH1 0x7 DUP3 ADD PUSH2 0x5728 JUMP JUMPDEST PUSH1 0xE0 DUP6 ADD MSTORE PUSH2 0x119E PUSH1 0x8 DUP3 ADD PUSH2 0x5728 JUMP JUMPDEST PUSH2 0x100 DUP6 ADD MSTORE ADD SLOAD AND ISZERO ISZERO PUSH2 0x120 DUP3 ADD MSTORE PUSH2 0x11B9 DUP3 DUP10 PUSH2 0x6646 JUMP JUMPDEST MSTORE PUSH2 0x11C4 DUP2 DUP9 PUSH2 0x6646 JUMP JUMPDEST POP PUSH2 0x6070 JUMP JUMPDEST SWAP3 PUSH2 0x6070 JUMP JUMPDEST SWAP2 PUSH2 0x10F1 JUMP JUMPDEST CALLVALUE PUSH2 0x487 JUMPI PUSH1 0x20 CALLDATASIZE PUSH1 0x3 NOT ADD SLT PUSH2 0x487 JUMPI PUSH2 0x11EF PUSH2 0x694A JUMP JUMPDEST POP PUSH1 0x4 CALLDATALOAD PUSH1 0x0 MSTORE PUSH1 0x5 PUSH1 0x20 MSTORE PUSH2 0x483 PUSH1 0x40 PUSH1 0x0 KECCAK256 PUSH1 0xFF PUSH1 0x6 PUSH1 0x40 MLOAD SWAP3 PUSH2 0x1214 DUP5 PUSH2 0x56D1 JUMP JUMPDEST DUP1 SLOAD DUP5 MSTORE PUSH2 0x1224 PUSH1 0x1 DUP3 ADD PUSH2 0x5728 JUMP JUMPDEST PUSH1 0x20 DUP6 ADD MSTORE PUSH1 0x2 DUP2 ADD SLOAD PUSH1 0x40 DUP6 ADD MSTORE PUSH1 0x3 DUP2 ADD SLOAD PUSH1 0x60 DUP6 ADD MSTORE PUSH1 0x4 DUP2 ADD SLOAD PUSH1 0x80 DUP6 ADD MSTORE PUSH2 0x1253 PUSH1 0x5 DUP3 ADD PUSH2 0x5728 JUMP JUMPDEST PUSH1 0xA0 DUP6 ADD MSTORE ADD SLOAD AND ISZERO ISZERO PUSH1 0xC0 DUP3 ADD MSTORE PUSH1 0x40 MLOAD SWAP2 DUP3 SWAP2 PUSH1 0x20 DUP4 MSTORE PUSH1 0x20 DUP4 ADD SWAP1 PUSH2 0x5D2B JUMP JUMPDEST CALLVALUE PUSH2 0x487 JUMPI PUSH1 0x0 CALLDATASIZE PUSH1 0x3 NOT ADD SLT PUSH2 0x487 JUMPI PUSH1 0x20 PUSH1 0x1A SLOAD PUSH1 0x40 MLOAD SWAP1 DUP2 MSTORE RETURN JUMPDEST CALLVALUE PUSH2 0x487 JUMPI PUSH1 0x20 DUP1 PUSH1 0x3 NOT CALLDATASIZE ADD SLT PUSH2 0x487 JUMPI PUSH2 0x72C SWAP1 PUSH1 0x4 CALLDATALOAD CALLER PUSH1 0x0 MSTORE PUSH1 0xD DUP3 MSTORE PUSH1 0x40 PUSH1 0x0 KECCAK256 SLOAD PUSH2 0x12C6 DUP2 ISZERO ISZERO PUSH2 0x60A9 JUMP JUMPDEST PUSH1 0x0 MSTORE PUSH1 0x12 DUP3 MSTORE PUSH1 0x40 PUSH1 0x0 KECCAK256 DUP2 PUSH1 0x0 MSTORE DUP3 MSTORE PUSH1 0x40 PUSH1 0x0 KECCAK256 PUSH1 0xFF NOT DUP2 SLOAD AND SWAP1 SSTORE PUSH2 0x1339 PUSH1 0x40 MLOAD PUSH2 0x12F4 DUP2 PUSH2 0x56EC JUMP JUMPDEST PUSH1 0x2B DUP2 MSTORE PUSH32 0x596F75207265766F6B656420646F63746F7227732061636365737320746F2079 DUP5 DUP3 ADD MSTORE PUSH11 0x6F7572207265636F726473 PUSH1 0xA8 SHL PUSH1 0x40 DUP3 ADD MSTORE PUSH2 0x64F PUSH2 0x607F JUMP JUMPDEST PUSH1 0x0 MSTORE PUSH1 0xF DUP2 MSTORE PUSH1 0x1 DUP1 PUSH1 0xA0 SHL SUB PUSH1 0x40 PUSH1 0x0 KECCAK256 SLOAD AND SWAP1 PUSH32 0x50617469656E74207265766F6B656420796F75722061636365737320746F2074 PUSH1 0x40 MLOAD SWAP2 PUSH2 0x137D DUP4 PUSH2 0x56EC JUMP JUMPDEST PUSH1 0x2C DUP4 MSTORE DUP3 ADD MSTORE PUSH12 0x68656972207265636F726473 PUSH1 0xA0 SHL PUSH1 0x40 DUP3 ADD MSTORE PUSH2 0x6D2 PUSH2 0x607F JUMP JUMPDEST CALLVALUE PUSH2 0x487 JUMPI PUSH1 0xA0 CALLDATASIZE PUSH1 0x3 NOT ADD SLT PUSH2 0x487 JUMPI PUSH1 0x1 PUSH1 0x1 PUSH1 0x40 SHL SUB PUSH1 0x4 CALLDATALOAD DUP2 DUP2 GT PUSH2 0x487 JUMPI PUSH2 0x13D2 SWAP1 CALLDATASIZE SWAP1 PUSH1 0x4 ADD PUSH2 0x5886 JUMP JUMPDEST PUSH1 0x84 CALLDATALOAD SWAP2 DUP3 GT PUSH2 0x487 JUMPI PUSH2 0x140B PUSH32 0x4BD6730197EEAA6A5861EE6770B4A7EA4945E177C1B8F8E196812DA34B52B620 SWAP3 CALLDATASIZE SWAP1 PUSH1 0x4 ADD PUSH2 0x5886 JUMP JUMPDEST PUSH2 0x1420 PUSH1 0x1 DUP1 PUSH1 0xA0 SHL SUB PUSH1 0x19 SLOAD AND CALLER EQ PUSH2 0x6313 JUMP JUMPDEST PUSH2 0x14CB PUSH2 0x142E PUSH1 0x13 SLOAD PUSH2 0x6070 JUMP JUMPDEST DUP1 PUSH1 0x13 SSTORE PUSH1 0x6 PUSH1 0x40 MLOAD SWAP2 PUSH2 0x1441 DUP4 PUSH2 0x56D1 JUMP JUMPDEST DUP1 DUP4 MSTORE PUSH2 0x14B5 PUSH1 0x20 DUP5 ADD DUP8 DUP2 MSTORE PUSH1 0x40 DUP6 ADD PUSH1 0x24 CALLDATALOAD DUP2 MSTORE PUSH1 0x60 DUP7 ADD PUSH1 0x44 CALLDATALOAD DUP2 MSTORE PUSH1 0x80 DUP8 ADD SWAP2 PUSH1 0x64 CALLDATALOAD DUP4 MSTORE PUSH2 0x1499 PUSH1 0xA0 DUP10 ADD SWAP5 DUP12 DUP7 MSTORE PUSH1 0xC0 DUP11 ADD SWAP8 PUSH1 0x1 DUP10 MSTORE PUSH1 0x0 MSTORE PUSH1 0x5 PUSH1 0x20 MSTORE PUSH1 0x40 PUSH1 0x0 KECCAK256 SWAP10 MLOAD DUP11 SSTORE MLOAD PUSH1 0x1 DUP11 ADD PUSH2 0x5EC5 JUMP JUMPDEST MLOAD PUSH1 0x2 DUP9 ADD SSTORE MLOAD PUSH1 0x3 DUP8 ADD SSTORE MLOAD PUSH1 0x4 DUP7 ADD SSTORE MLOAD PUSH1 0x5 DUP6 ADD PUSH2 0x5EC5 JUMP JUMPDEST MLOAD ISZERO ISZERO SWAP2 ADD SWAP1 PUSH1 0xFF DUP1 NOT DUP4 SLOAD AND SWAP2 ISZERO ISZERO AND OR SWAP1 SSTORE JUMP JUMPDEST PUSH2 0x1524 PUSH1 0x40 MLOAD PUSH2 0x14DA DUP2 PUSH2 0x56EC JUMP JUMPDEST PUSH1 0x2F DUP2 MSTORE PUSH32 0x4E6577204D65646963696E6520616464656420746F206D61726B6574706C6163 PUSH1 0x20 DUP3 ADD MSTORE PUSH15 0x65207375636365737366756C6C7921 PUSH1 0x88 SHL PUSH1 0x40 DUP3 ADD MSTORE PUSH2 0x64F PUSH2 0x636A JUMP JUMPDEST PUSH2 0x869 PUSH1 0x13 SLOAD SWAP2 PUSH2 0x1547 PUSH1 0x40 MLOAD SWAP5 DUP6 SWAP5 DUP6 MSTORE PUSH1 0x60 PUSH1 0x20 DUP7 ADD MSTORE PUSH1 0x60 DUP6 ADD SWAP1 PUSH2 0x57CE JUMP JUMPDEST SWAP1 DUP4 DUP3 SUB PUSH1 0x40 DUP6 ADD MSTORE PUSH2 0x57CE JUMP JUMPDEST CALLVALUE PUSH2 0x487 JUMPI PUSH1 0x0 CALLDATASIZE PUSH1 0x3 NOT ADD SLT PUSH2 0x487 JUMPI PUSH1 0x20 PUSH1 0x1C SLOAD PUSH1 0x40 MLOAD SWAP1 DUP2 MSTORE RETURN JUMPDEST CALLVALUE PUSH2 0x487 JUMPI PUSH1 0x20 CALLDATASIZE PUSH1 0x3 NOT ADD SLT PUSH2 0x487 JUMPI PUSH1 0x19 SLOAD PUSH2 0x72C SWAP1 PUSH1 0x1 PUSH1 0x1 PUSH1 0xA0 SHL SUB AND PUSH2 0x159F CALLER DUP3 EQ PUSH2 0x6313 JUMP JUMPDEST PUSH1 0x4 CALLDATALOAD PUSH1 0x1B SSTORE PUSH1 0x40 MLOAD PUSH2 0x15B1 DUP2 PUSH2 0x56EC JUMP JUMPDEST PUSH1 0x36 DUP2 MSTORE PUSH32 0x596F752068617665207375636365737366756C6C792075706461746564205061 PUSH1 0x20 DUP3 ADD MSTORE PUSH22 0x7469656E7420526567697374726174696F6E20666565 PUSH1 0x50 SHL PUSH1 0x40 DUP3 ADD MSTORE PUSH2 0x6D2 PUSH2 0x65AA JUMP JUMPDEST CALLVALUE PUSH2 0x487 JUMPI PUSH1 0x0 CALLDATASIZE PUSH1 0x3 NOT ADD SLT PUSH2 0x487 JUMPI PUSH1 0x14 SLOAD PUSH1 0x1 SWAP1 PUSH1 0x0 DUP3 JUMPDEST DUP3 DUP2 GT ISZERO PUSH2 0x16E4 JUMPI POP PUSH2 0x162F SWAP1 PUSH2 0x68A1 JUMP JUMPDEST SWAP2 PUSH1 0x0 DUP2 JUMPDEST DUP4 DUP2 GT ISZERO PUSH2 0x164A JUMPI PUSH1 0x40 MLOAD DUP1 PUSH2 0x483 DUP8 DUP3 PUSH2 0x5BAE JUMP JUMPDEST DUP1 PUSH1 0x0 MSTORE PUSH1 0x20 PUSH1 0x6 DUP2 MSTORE PUSH1 0x40 PUSH1 0x0 KECCAK256 PUSH1 0xFF PUSH1 0x5 DUP3 ADD SLOAD AND SWAP1 DUP2 PUSH2 0x1679 JUMPI JUMPDEST POP POP POP PUSH2 0x1674 SWAP1 PUSH2 0x6070 JUMP JUMPDEST PUSH2 0x1634 JUMP JUMPDEST SWAP2 PUSH2 0x1674 SWAP4 SWAP5 SWAP2 PUSH1 0x4 PUSH2 0x16DB SWAP5 PUSH1 0x40 MLOAD SWAP4 PUSH2 0x1693 DUP6 PUSH2 0x569B JUMP JUMPDEST DUP2 SLOAD DUP6 MSTORE PUSH2 0x16A2 DUP11 DUP4 ADD PUSH2 0x5728 JUMP JUMPDEST SWAP1 DUP6 ADD MSTORE PUSH1 0x2 DUP2 ADD SLOAD PUSH1 0x1 PUSH1 0x1 PUSH1 0xA0 SHL SUB AND PUSH1 0x40 DUP6 ADD MSTORE PUSH1 0x3 DUP2 ADD SLOAD PUSH1 0x60 DUP6 ADD MSTORE ADD SLOAD PUSH1 0x80 DUP4 ADD MSTORE ISZERO ISZERO PUSH1 0xA0 DUP3 ADD MSTORE PUSH2 0x11B9 DUP3 DUP10 PUSH2 0x6646 JUMP JUMPDEST SWAP2 SWAP1 DUP7 DUP1 PUSH2 0x1668 JUMP JUMPDEST DUP1 PUSH1 0x0 MSTORE PUSH1 0x6 PUSH1 0x20 MSTORE PUSH1 0xFF PUSH1 0x5 PUSH1 0x40 PUSH1 0x0 KECCAK256 ADD SLOAD AND PUSH2 0x170C JUMPI JUMPDEST PUSH2 0x1707 SWAP1 PUSH2 0x6070 JUMP JUMPDEST PUSH2 0x161D JUMP JUMPDEST SWAP1 PUSH2 0x1719 PUSH2 0x1707 SWAP2 PUSH2 0x6070 JUMP JUMPDEST SWAP2 SWAP1 POP PUSH2 0x16FE JUMP JUMPDEST CALLVALUE PUSH2 0x487 JUMPI PUSH1 0x20 CALLDATASIZE PUSH1 0x3 NOT ADD SLT PUSH2 0x487 JUMPI PUSH1 0x4 CALLDATALOAD PUSH1 0x0 MSTORE PUSH1 0x5 PUSH1 0x20 MSTORE PUSH1 0x40 PUSH1 0x0 KECCAK256 DUP1 SLOAD PUSH2 0x1750 PUSH1 0x1 DUP4 ADD PUSH2 0x5728 JUMP JUMPDEST SWAP2 PUSH2 0x17B2 PUSH1 0x2 DUP3 ADD SLOAD PUSH1 0x3 DUP4 ADD SLOAD SWAP3 PUSH1 0x4 DUP2 ADD SLOAD PUSH1 0xFF PUSH1 0x6 PUSH2 0x1774 PUSH1 0x5 DUP6 ADD PUSH2 0x5728 JUMP JUMPDEST SWAP4 ADD SLOAD AND SWAP5 PUSH2 0x1795 PUSH1 0x40 MLOAD SWAP9 DUP10 SWAP9 DUP10 MSTORE PUSH1 0xE0 PUSH1 0x20 DUP11 ADD MSTORE PUSH1 0xE0 DUP10 ADD SWAP1 PUSH2 0x57CE JUMP JUMPDEST SWAP4 PUSH1 0x40 DUP9 ADD MSTORE PUSH1 0x60 DUP8 ADD MSTORE PUSH1 0x80 DUP7 ADD MSTORE DUP5 DUP3 SUB PUSH1 0xA0 DUP7 ADD MSTORE PUSH2 0x57CE JUMP JUMPDEST SWAP1 ISZERO ISZERO PUSH1 0xC0 DUP4 ADD MSTORE SUB SWAP1 RETURN JUMPDEST CALLVALUE PUSH2 0x487 JUMPI PUSH1 0x20 CALLDATASIZE PUSH1 0x3 NOT ADD SLT PUSH2 0x487 JUMPI PUSH1 0x1 PUSH1 0x1 PUSH1 0xA0 SHL SUB PUSH2 0x17DF PUSH2 0x55E2 JUMP JUMPDEST AND PUSH1 0x0 MSTORE PUSH1 0xC PUSH1 0x20 MSTORE PUSH1 0x20 PUSH1 0x40 PUSH1 0x0 KECCAK256 SLOAD PUSH1 0x40 MLOAD SWAP1 DUP2 MSTORE RETURN JUMPDEST CALLVALUE PUSH2 0x487 JUMPI PUSH1 0x20 CALLDATASIZE PUSH1 0x3 NOT ADD SLT PUSH2 0x487 JUMPI PUSH1 0x4 CALLDATALOAD PUSH1 0x0 MSTORE PUSH1 0xE PUSH1 0x20 MSTORE PUSH1 0x20 PUSH1 0x1 DUP1 PUSH1 0xA0 SHL SUB PUSH1 0x40 PUSH1 0x0 KECCAK256 SLOAD AND PUSH1 0x40 MLOAD SWAP1 DUP2 MSTORE RETURN JUMPDEST CALLVALUE PUSH2 0x487 JUMPI PUSH1 0x20 CALLDATASIZE PUSH1 0x3 NOT ADD SLT PUSH2 0x487 JUMPI PUSH32 0x954090ADEF24B59354B88966AFB6B169CF1790275CC1C22D9D599CFA745041A5 PUSH1 0x4 CALLDATALOAD PUSH2 0x1876 PUSH1 0x1 DUP1 PUSH1 0xA0 SHL SUB PUSH1 0x19 SLOAD AND CALLER EQ PUSH2 0x6313 JUMP JUMPDEST PUSH2 0x1884 PUSH1 0x13 SLOAD DUP3 GT ISZERO PUSH2 0x638E JUMP JUMPDEST PUSH1 0x0 DUP2 DUP2 MSTORE PUSH1 0x5 PUSH1 0x20 MSTORE PUSH1 0x40 SWAP1 KECCAK256 PUSH1 0x6 ADD DUP1 SLOAD PUSH1 0xFF DUP2 DUP2 AND ISZERO AND PUSH1 0xFF NOT SWAP1 SWAP2 AND OR SWAP1 SSTORE PUSH2 0x18F5 PUSH1 0x40 MLOAD PUSH2 0x18B6 DUP2 PUSH2 0x56EC JUMP JUMPDEST PUSH1 0x24 DUP2 MSTORE PUSH32 0x4D65646963696E65207374617475732075706461746564207375636365737366 PUSH1 0x20 DUP3 ADD MSTORE PUSH4 0x756C6C79 PUSH1 0xE0 SHL PUSH1 0x40 DUP3 ADD MSTORE PUSH2 0x64F PUSH2 0x636A JUMP JUMPDEST PUSH1 0x0 DUP2 DUP2 MSTORE PUSH1 0x5 PUSH1 0x20 SWAP1 DUP2 MSTORE PUSH1 0x40 SWAP2 DUP3 SWAP1 KECCAK256 PUSH1 0x6 ADD SLOAD DUP3 MLOAD SWAP4 DUP5 MSTORE PUSH1 0xFF AND ISZERO ISZERO SWAP1 DUP4 ADD MSTORE DUP2 SWAP1 DUP2 ADD PUSH2 0x869 JUMP JUMPDEST CALLVALUE PUSH2 0x487 JUMPI PUSH32 0x611A96F8A84B78B34D3917ACCD31D6E94FFC712CDD95A8CE7B8E2F9C5E093AE9 PUSH1 0x40 PUSH2 0x1953 CALLDATASIZE PUSH2 0x580E JUMP JUMPDEST PUSH2 0x1968 PUSH1 0x1 DUP1 PUSH1 0xA0 SHL SUB PUSH1 0x19 SLOAD AND CALLER EQ PUSH2 0x6313 JUMP JUMPDEST PUSH2 0x1976 PUSH1 0x13 SLOAD DUP4 GT ISZERO PUSH2 0x638E JUMP JUMPDEST DUP2 PUSH1 0x0 MSTORE PUSH1 0x5 PUSH1 0x20 MSTORE DUP1 PUSH1 0x4 DUP5 PUSH1 0x0 KECCAK256 ADD SSTORE PUSH2 0x19D6 DUP4 MLOAD PUSH2 0x1996 DUP2 PUSH2 0x56EC JUMP JUMPDEST PUSH1 0x26 DUP2 MSTORE PUSH32 0x4D65646963696E6520646973636F756E74207570646174656420737563636573 PUSH1 0x20 DUP3 ADD MSTORE PUSH6 0x7366756C6C79 PUSH1 0xD0 SHL DUP6 DUP3 ADD MSTORE PUSH2 0x64F PUSH2 0x636A JUMP JUMPDEST DUP3 MLOAD SWAP2 DUP3 MSTORE PUSH1 0x20 DUP3 ADD MSTORE LOG1 STOP JUMPDEST PUSH1 0x80 CALLDATASIZE PUSH1 0x3 NOT ADD SLT PUSH2 0x487 JUMPI PUSH1 0x1 PUSH1 0x1 PUSH1 0x40 SHL SUB PUSH1 0x4 CALLDATALOAD DUP2 DUP2 GT PUSH2 0x487 JUMPI PUSH2 0x1A0F SWAP1 CALLDATASIZE SWAP1 PUSH1 0x4 ADD PUSH2 0x5886 JUMP JUMPDEST PUSH2 0x1A17 PUSH2 0x55F8 JUMP JUMPDEST PUSH1 0x44 CALLDATALOAD DUP4 DUP2 GT PUSH2 0x487 JUMPI PUSH2 0x1A2F SWAP1 CALLDATASIZE SWAP1 PUSH1 0x4 ADD PUSH2 0x59EE JUMP JUMPDEST SWAP1 PUSH1 0x64 CALLDATALOAD DUP6 DUP2 GT PUSH2 0x487 JUMPI PUSH2 0x1A48 SWAP1 CALLDATASIZE SWAP1 PUSH1 0x4 ADD PUSH2 0x5886 JUMP JUMPDEST SWAP2 PUSH2 0x1A56 PUSH1 0x1A SLOAD CALLVALUE EQ PUSH2 0x63DA JUMP JUMPDEST PUSH1 0x1 DUP1 PUSH1 0xA0 SHL SUB SWAP3 DUP4 DUP6 AND SWAP3 DUP4 PUSH1 0x0 MSTORE PUSH1 0x20 SWAP4 PUSH1 0xA DUP6 MSTORE PUSH1 0xFF PUSH1 0x40 PUSH1 0x0 KECCAK256 SLOAD AND PUSH2 0x1CAD JUMPI PUSH2 0x1A85 PUSH1 0x14 SLOAD PUSH2 0x6070 JUMP JUMPDEST SWAP1 DUP2 PUSH1 0x14 SSTORE PUSH2 0x1B23 PUSH1 0x40 MLOAD PUSH2 0x1A99 DUP2 PUSH2 0x569B JUMP JUMPDEST DUP4 DUP2 MSTORE PUSH1 0x5 DUP9 DUP3 ADD SWAP5 DUP13 DUP7 MSTORE DUP10 PUSH1 0x40 DUP5 ADD SWAP7 DUP7 DUP9 MSTORE PUSH2 0x1AE5 PUSH1 0x60 DUP7 ADD SWAP2 PUSH1 0x0 DUP4 MSTORE PUSH1 0x6 PUSH1 0x80 DUP9 ADD SWAP5 PUSH1 0x0 DUP7 MSTORE PUSH1 0xA0 DUP10 ADD SWAP7 PUSH1 0x0 DUP9 MSTORE PUSH1 0x0 MSTORE MSTORE PUSH1 0x40 PUSH1 0x0 KECCAK256 SWAP7 MLOAD DUP8 SSTORE MLOAD PUSH1 0x1 DUP8 ADD PUSH2 0x5EC5 JUMP JUMPDEST DUP13 PUSH1 0x2 DUP7 ADD SWAP9 MLOAD AND SWAP8 PUSH1 0x1 PUSH1 0x1 PUSH1 0x60 SHL SUB PUSH1 0xA0 SHL SWAP9 DUP10 DUP3 SLOAD AND OR SWAP1 SSTORE MLOAD PUSH1 0x3 DUP6 ADD SSTORE MLOAD PUSH1 0x4 DUP5 ADD SSTORE MLOAD ISZERO ISZERO SWAP2 ADD SWAP1 PUSH1 0xFF DUP1 NOT DUP4 SLOAD AND SWAP2 ISZERO ISZERO AND OR SWAP1 SSTORE JUMP JUMPDEST DUP1 PUSH1 0x0 MSTORE PUSH1 0xA DUP7 MSTORE PUSH1 0x40 PUSH1 0x0 KECCAK256 PUSH1 0x1 PUSH1 0xFF NOT DUP3 SLOAD AND OR SWAP1 SSTORE PUSH1 0x14 SLOAD PUSH1 0xC DUP8 MSTORE DUP1 PUSH1 0x40 PUSH1 0x0 KECCAK256 SSTORE PUSH1 0x0 MSTORE PUSH1 0xF DUP7 MSTORE PUSH1 0x40 PUSH1 0x0 KECCAK256 SWAP2 DUP3 SLOAD AND OR SWAP1 SSTORE PUSH1 0x0 DUP1 DUP1 DUP1 DUP9 PUSH1 0x19 SLOAD AND DUP2 SWAP1 CALLVALUE ISZERO PUSH2 0x1CA3 JUMPI JUMPDEST CALLVALUE SWAP2 CALL ISZERO PUSH2 0x1010 JUMPI PUSH2 0x1B82 SWAP3 DUP7 SWAP2 PUSH2 0x69C5 JUMP JUMPDEST PUSH1 0x40 MLOAD SWAP2 PUSH1 0x80 DUP4 ADD SWAP6 DUP4 DUP8 LT SWAP1 DUP8 GT OR PUSH2 0xBC6 JUMPI PUSH2 0x1C33 PUSH2 0x1C90 SWAP4 PUSH32 0x8C4E93915E8E9956F3984EEF613C813C83672180F22083646E395379663DD769 SWAP8 PUSH1 0x40 MSTORE PUSH1 0x4A DUP2 MSTORE PUSH32 0x596F752068617665207375636365737366756C6C7920636F6D706C6574656420 DUP5 DUP3 ADD MSTORE PUSH32 0x74686520726567697374726174696F6E2C206E6F772077616974696E6720666F PUSH1 0x40 DUP3 ADD MSTORE PUSH10 0x1C88185C1C1C9BDD985B PUSH1 0xB2 SHL PUSH1 0x60 DUP3 ADD MSTORE PUSH2 0x1C2C PUSH2 0x6426 JUMP JUMPDEST SWAP1 DUP7 PUSH2 0x61E5 JUMP JUMPDEST PUSH1 0x19 SLOAD AND SWAP1 PUSH32 0x4E657720646F63746F7220697320726567697374657265642C206E6F77207761 PUSH1 0x40 MLOAD SWAP2 PUSH2 0x1C66 DUP4 PUSH2 0x56EC JUMP JUMPDEST PUSH1 0x32 DUP4 MSTORE DUP3 ADD MSTORE PUSH18 0x1A5D1A5B99C8199BDC88185C1C1C9BDD985B PUSH1 0x72 SHL PUSH1 0x40 DUP3 ADD MSTORE PUSH2 0x6D2 PUSH2 0x6426 JUMP JUMPDEST PUSH2 0x869 PUSH1 0x14 SLOAD SWAP2 PUSH1 0x40 MLOAD SWAP4 DUP5 SWAP4 DUP5 PUSH2 0x5C80 JUMP JUMPDEST PUSH2 0x8FC SWAP2 POP PUSH2 0x1B6F JUMP JUMPDEST PUSH1 0x40 MLOAD PUSH3 0x461BCD PUSH1 0xE5 SHL DUP2 MSTORE PUSH1 0x4 DUP2 ADD DUP7 SWAP1 MSTORE PUSH1 0x1C PUSH1 0x24 DUP3 ADD MSTORE PUSH32 0x446F63746F7220697320616C7265616479207265676973746572656400000000 PUSH1 0x44 DUP3 ADD MSTORE PUSH1 0x64 SWAP1 REVERT JUMPDEST CALLVALUE PUSH2 0x487 JUMPI PUSH1 0x20 DUP1 PUSH1 0x3 NOT CALLDATASIZE ADD SLT PUSH2 0x487 JUMPI PUSH1 0x4 CALLDATALOAD PUSH1 0x0 MSTORE PUSH1 0x10 DUP2 MSTORE PUSH1 0x40 PUSH1 0x0 KECCAK256 SWAP1 DUP2 SLOAD SWAP2 PUSH2 0x1D20 DUP4 PUSH2 0x59D7 JUMP JUMPDEST SWAP3 PUSH2 0x1D2E PUSH1 0x40 MLOAD SWAP5 DUP6 PUSH2 0x5707 JUMP JUMPDEST DUP1 DUP5 MSTORE DUP3 DUP5 ADD DUP1 SWAP3 PUSH1 0x0 MSTORE DUP4 PUSH1 0x0 KECCAK256 PUSH1 0x0 SWAP2 JUMPDEST DUP4 DUP4 LT PUSH2 0x1DA8 JUMPI POP POP POP POP PUSH1 0x40 MLOAD SWAP2 DUP1 DUP4 ADD SWAP4 DUP2 DUP5 MSTORE MLOAD DUP1 SWAP5 MSTORE PUSH1 0x40 DUP4 ADD SWAP4 PUSH1 0x40 DUP2 PUSH1 0x5 SHL DUP6 ADD ADD SWAP3 SWAP2 PUSH1 0x0 SWAP6 JUMPDEST DUP3 DUP8 LT PUSH2 0x1D7C JUMPI DUP6 DUP6 SUB DUP7 RETURN JUMPDEST SWAP1 SWAP2 SWAP3 SWAP4 DUP3 DUP1 PUSH2 0x1D98 PUSH1 0x1 SWAP4 PUSH1 0x3F NOT DUP11 DUP3 SUB ADD DUP7 MSTORE DUP9 MLOAD PUSH2 0x5CAE JUMP JUMPDEST SWAP7 ADD SWAP3 ADD SWAP7 ADD SWAP6 SWAP3 SWAP2 SWAP1 SWAP3 PUSH2 0x1D6F JUMP JUMPDEST PUSH1 0x7 DUP7 PUSH1 0x1 SWAP3 PUSH2 0x1DBA DUP6 SWAP11 SWAP10 SWAP11 PUSH2 0x5FB6 JUMP JUMPDEST DUP2 MSTORE ADD SWAP3 ADD SWAP3 ADD SWAP2 SWAP1 SWAP6 SWAP5 SWAP6 PUSH2 0x1D41 JUMP JUMPDEST CALLVALUE PUSH2 0x487 JUMPI PUSH1 0x0 CALLDATASIZE PUSH1 0x3 NOT ADD SLT PUSH2 0x487 JUMPI PUSH1 0x20 PUSH1 0x16 SLOAD PUSH1 0x40 MLOAD SWAP1 DUP2 MSTORE RETURN JUMPDEST CALLVALUE PUSH2 0x487 JUMPI PUSH1 0x20 CALLDATASIZE PUSH1 0x3 NOT ADD SLT PUSH2 0x487 JUMPI PUSH1 0x1 PUSH1 0x1 PUSH1 0xA0 SHL SUB PUSH2 0x1E0A PUSH2 0x55E2 JUMP JUMPDEST AND PUSH1 0x0 MSTORE PUSH1 0x1 PUSH1 0x20 MSTORE PUSH2 0x483 PUSH2 0x1E26 PUSH1 0x2 PUSH1 0x40 PUSH1 0x0 KECCAK256 ADD PUSH2 0x6C79 JUMP JUMPDEST PUSH1 0x40 MLOAD SWAP2 DUP3 SWAP2 PUSH1 0x20 DUP4 MSTORE PUSH1 0x20 DUP4 ADD SWAP1 PUSH2 0x5DFB JUMP JUMPDEST CALLVALUE PUSH2 0x487 JUMPI PUSH1 0x0 CALLDATASIZE PUSH1 0x3 NOT ADD SLT PUSH2 0x487 JUMPI PUSH2 0x1E53 PUSH2 0x686F JUMP JUMPDEST POP PUSH2 0x1E5C PUSH2 0x686F JUMP JUMPDEST PUSH1 0x0 SWAP1 PUSH1 0x1 DUP1 PUSH1 0x14 SLOAD SWAP2 JUMPDEST DUP3 DUP2 GT ISZERO PUSH2 0x1E85 JUMPI PUSH1 0x40 MLOAD PUSH1 0x20 DUP1 DUP3 MSTORE DUP2 SWAP1 PUSH2 0x483 SWAP1 DUP3 ADD DUP8 PUSH2 0x5B5D JUMP JUMPDEST DUP1 PUSH1 0x0 MSTORE PUSH1 0x6 PUSH1 0x20 DUP2 DUP2 MSTORE PUSH1 0x40 PUSH1 0x0 KECCAK256 PUSH1 0x3 SWAP1 PUSH1 0x4 DUP3 DUP3 ADD SLOAD SWAP2 ADD SLOAD DUP2 ADD DUP1 SWAP2 GT PUSH2 0x1F3A JUMPI DUP9 DUP2 GT PUSH2 0x1EC4 JUMPI JUMPDEST POP POP POP POP PUSH2 0x1EBF SWAP1 PUSH2 0x6070 JUMP JUMPDEST PUSH2 0x1E67 JUMP JUMPDEST PUSH1 0xFF SWAP3 SWAP4 SWAP9 POP PUSH2 0x1EBF SWAP5 SWAP8 POP SWAP1 PUSH1 0x5 SWAP2 SWAP9 DUP9 PUSH1 0x0 MSTORE DUP5 MSTORE PUSH1 0x40 PUSH1 0x0 KECCAK256 SWAP1 PUSH1 0x40 MLOAD SWAP5 PUSH2 0x1EEE DUP7 PUSH2 0x569B JUMP JUMPDEST DUP3 SLOAD DUP7 MSTORE PUSH2 0x1EFD DUP9 DUP5 ADD PUSH2 0x5728 JUMP JUMPDEST SWAP1 DUP7 ADD MSTORE PUSH1 0x2 DUP3 ADD SLOAD PUSH1 0x1 PUSH1 0x1 PUSH1 0xA0 SHL SUB AND PUSH1 0x40 DUP7 ADD MSTORE DUP2 ADD SLOAD PUSH1 0x60 DUP6 ADD MSTORE PUSH1 0x4 DUP2 ADD SLOAD PUSH1 0x80 DUP6 ADD MSTORE ADD SLOAD AND ISZERO ISZERO PUSH1 0xA0 DUP3 ADD MSTORE SWAP4 SWAP1 DUP7 DUP1 DUP1 PUSH2 0x1EB2 JUMP JUMPDEST PUSH4 0x4E487B71 PUSH1 0xE0 SHL PUSH1 0x0 MSTORE PUSH1 0x11 PUSH1 0x4 MSTORE PUSH1 0x24 PUSH1 0x0 REVERT JUMPDEST CALLVALUE PUSH2 0x487 JUMPI PUSH1 0x40 CALLDATASIZE PUSH1 0x3 NOT ADD SLT PUSH2 0x487 JUMPI PUSH2 0x1F79 PUSH2 0x1F6C PUSH2 0x55E2 JUMP JUMPDEST PUSH2 0x1F74 PUSH2 0x55F8 JUMP JUMPDEST PUSH2 0x6FB6 JUMP JUMPDEST PUSH1 0x0 MSTORE PUSH1 0x2 PUSH1 0x20 DUP2 DUP2 MSTORE PUSH1 0x40 PUSH1 0x0 KECCAK256 DUP1 SLOAD PUSH2 0x1F93 DUP2 PUSH2 0x59D7 JUMP JUMPDEST SWAP4 PUSH2 0x1FA1 PUSH1 0x40 MLOAD SWAP6 DUP7 PUSH2 0x5707 JUMP JUMPDEST DUP2 DUP6 MSTORE PUSH1 0x0 SWAP3 DUP4 MSTORE DUP4 DUP4 KECCAK256 DUP5 DUP7 ADD SWAP4 SWAP2 DUP5 JUMPDEST DUP5 DUP5 LT PUSH2 0x2039 JUMPI PUSH1 0x40 DUP1 MLOAD DUP9 DUP2 MSTORE DUP10 MLOAD DUP2 DUP11 ADD DUP2 SWAP1 MSTORE PUSH1 0x0 SWAP3 PUSH1 0x5 DUP3 SWAP1 SHL DUP4 ADD DUP2 ADD SWAP2 DUP11 SWAP2 DUP13 SWAP1 DUP6 ADD JUMPDEST DUP3 DUP8 LT PUSH2 0x1FEA JUMPI DUP6 DUP6 SUB DUP7 RETURN JUMPDEST SWAP1 SWAP2 SWAP3 SWAP4 DUP3 DUP1 PUSH2 0x2029 PUSH1 0x1 SWAP4 PUSH1 0x3F NOT DUP11 DUP3 SUB ADD DUP7 MSTORE PUSH1 0x40 DUP10 MLOAD DUP7 DUP1 PUSH1 0xA0 SHL SUB DUP2 MLOAD AND DUP4 MSTORE DUP5 DUP2 ADD MLOAD DUP6 DUP5 ADD MSTORE ADD MLOAD SWAP1 PUSH1 0x60 SWAP1 DUP2 PUSH1 0x40 DUP3 ADD MSTORE ADD SWAP1 PUSH2 0x57CE JUMP JUMPDEST SWAP7 ADD SWAP3 ADD SWAP7 ADD SWAP6 SWAP3 SWAP2 SWAP1 SWAP3 PUSH2 0x1FDD JUMP JUMPDEST PUSH1 0x3 DUP8 PUSH1 0x1 SWAP3 PUSH1 0x40 SWAP11 SWAP10 SWAP11 MLOAD PUSH2 0x204E DUP2 PUSH2 0x56EC JUMP JUMPDEST DUP5 DUP1 PUSH1 0xA0 SHL SUB DUP8 SLOAD AND DUP2 MSTORE DUP5 DUP8 ADD SLOAD DUP4 DUP3 ADD MSTORE PUSH2 0x206C DUP7 DUP9 ADD PUSH2 0x5728 JUMP JUMPDEST PUSH1 0x40 DUP3 ADD MSTORE DUP2 MSTORE ADD SWAP4 ADD SWAP4 ADD SWAP3 SWAP2 SWAP7 SWAP6 SWAP7 PUSH2 0x1FB3 JUMP JUMPDEST CALLVALUE PUSH2 0x487 JUMPI PUSH1 0x20 DUP1 PUSH1 0x3 NOT CALLDATASIZE ADD SLT PUSH2 0x487 JUMPI PUSH1 0x4 CALLDATALOAD PUSH2 0x20A5 PUSH1 0x15 SLOAD DUP3 GT ISZERO PUSH2 0x648C JUMP JUMPDEST PUSH1 0x0 DUP2 DUP2 MSTORE PUSH1 0x7 DUP4 MSTORE PUSH1 0x40 SWAP1 KECCAK256 PUSH1 0x3 ADD SLOAD CALLER PUSH1 0x1 PUSH1 0x1 PUSH1 0xA0 SHL SUB SWAP2 DUP3 AND EQ SWAP1 DUP2 ISZERO PUSH2 0x2161 JUMPI JUMPDEST POP ISZERO PUSH2 0x20FD JUMPI PUSH1 0x0 MSTORE PUSH1 0x7 DUP2 MSTORE PUSH2 0x20E8 PUSH1 0x2 PUSH1 0x40 PUSH1 0x0 KECCAK256 ADD PUSH2 0x66D6 JUMP JUMPDEST SWAP1 PUSH2 0x483 PUSH1 0x40 MLOAD SWAP3 DUP3 DUP5 SWAP4 DUP5 MSTORE DUP4 ADD SWAP1 PUSH2 0x5DA6 JUMP JUMPDEST PUSH1 0x40 MLOAD PUSH3 0x461BCD PUSH1 0xE5 SHL DUP2 MSTORE PUSH1 0x4 DUP2 ADD DUP4 SWAP1 MSTORE PUSH1 0x36 PUSH1 0x24 DUP3 ADD MSTORE PUSH32 0x4F6E6C79207468652070617469656E74206F722061646D696E2063616E207669 PUSH1 0x44 DUP3 ADD MSTORE PUSH22 0x657720746865206D65646963616C20686973746F7279 PUSH1 0x50 SHL PUSH1 0x64 DUP3 ADD MSTORE PUSH1 0x84 SWAP1 REVERT JUMPDEST SWAP1 POP PUSH1 0x19 SLOAD AND CALLER EQ DUP4 PUSH2 0x20CB JUMP JUMPDEST CALLVALUE PUSH2 0x487 JUMPI PUSH2 0x217D CALLDATASIZE PUSH2 0x580E JUMP JUMPDEST SWAP1 PUSH1 0x0 MSTORE PUSH1 0x4 PUSH1 0x20 MSTORE PUSH1 0x40 PUSH1 0x0 KECCAK256 DUP1 SLOAD DUP3 LT ISZERO PUSH2 0x487 JUMPI PUSH1 0xC0 SWAP2 PUSH2 0x21A0 SWAP2 PUSH2 0x5D8A JUMP JUMPDEST POP DUP1 SLOAD SWAP1 PUSH1 0x1 DUP2 ADD SLOAD SWAP1 PUSH1 0x2 DUP2 ADD SLOAD PUSH1 0x3 DUP3 ADD SLOAD SWAP1 PUSH1 0x5 PUSH1 0x4 DUP5 ADD SLOAD SWAP4 ADD SLOAD SWAP4 PUSH1 0x40 MLOAD SWAP6 DUP7 MSTORE PUSH1 0x20 DUP7 ADD MSTORE PUSH1 0x40 DUP6 ADD MSTORE PUSH1 0x60 DUP5 ADD MSTORE PUSH1 0x80 DUP4 ADD MSTORE PUSH1 0xA0 DUP3 ADD MSTORE RETURN JUMPDEST CALLVALUE PUSH2 0x487 JUMPI PUSH1 0x0 CALLDATASIZE PUSH1 0x3 NOT ADD SLT PUSH2 0x487 JUMPI PUSH1 0x20 PUSH1 0x15 SLOAD PUSH1 0x40 MLOAD SWAP1 DUP2 MSTORE RETURN JUMPDEST CALLVALUE PUSH2 0x487 JUMPI PUSH1 0x0 CALLDATASIZE PUSH1 0x3 NOT ADD SLT PUSH2 0x487 JUMPI PUSH1 0x13 SLOAD PUSH2 0x221C DUP2 PUSH2 0x59D7 JUMP JUMPDEST PUSH2 0x2229 PUSH1 0x40 MLOAD SWAP2 DUP3 PUSH2 0x5707 JUMP JUMPDEST DUP2 DUP2 MSTORE PUSH1 0x1F NOT PUSH2 0x2238 DUP4 PUSH2 0x59D7 JUMP JUMPDEST ADD PUSH1 0x0 JUMPDEST DUP2 DUP2 LT PUSH2 0x234D JUMPI POP PUSH1 0x1 SWAP3 SWAP1 POP DUP3 PUSH1 0x0 JUMPDEST DUP3 DUP3 GT ISZERO PUSH2 0x22B8 JUMPI DUP4 DUP6 PUSH1 0x40 MLOAD SWAP1 PUSH1 0x20 DUP1 DUP4 ADD DUP2 DUP5 MSTORE DUP5 MLOAD DUP1 SWAP2 MSTORE PUSH1 0x40 DUP5 ADD SWAP2 DUP1 PUSH1 0x40 DUP4 PUSH1 0x5 SHL DUP8 ADD ADD SWAP7 ADD SWAP3 PUSH1 0x0 SWAP1 JUMPDEST DUP4 DUP3 LT PUSH2 0x228B JUMPI DUP7 DUP9 SUB DUP8 RETURN JUMPDEST SWAP1 SWAP2 SWAP3 SWAP4 SWAP5 DUP4 DUP1 PUSH2 0x22A7 DUP4 SWAP11 PUSH1 0x3F NOT DUP12 DUP3 SUB ADD DUP7 MSTORE DUP10 MLOAD PUSH2 0x5D2B JUMP JUMPDEST SWAP10 SWAP8 ADD SWAP6 SWAP5 SWAP4 SWAP2 SWAP1 SWAP2 ADD SWAP2 ADD PUSH2 0x227E JUMP JUMPDEST PUSH2 0x2341 PUSH2 0x2347 SWAP2 DUP4 PUSH1 0x0 MSTORE DUP7 PUSH1 0xFF PUSH1 0x6 PUSH1 0x5 PUSH2 0x231D PUSH1 0x20 SWAP2 DUP1 DUP4 MSTORE PUSH1 0x40 PUSH1 0x0 KECCAK256 SWAP3 PUSH2 0x22F4 PUSH1 0x40 MLOAD SWAP8 PUSH2 0x22E9 DUP10 PUSH2 0x56D1 JUMP JUMPDEST DUP6 SLOAD DUP10 MSTORE DUP6 ADD PUSH2 0x5728 JUMP JUMPDEST SWAP1 DUP8 ADD MSTORE PUSH1 0x2 DUP4 ADD SLOAD PUSH1 0x40 DUP8 ADD MSTORE PUSH1 0x3 DUP4 ADD SLOAD PUSH1 0x60 DUP8 ADD MSTORE PUSH1 0x4 DUP4 ADD SLOAD PUSH1 0x80 DUP8 ADD MSTORE DUP3 ADD PUSH2 0x5728 JUMP JUMPDEST PUSH1 0xA0 DUP6 ADD MSTORE ADD SLOAD AND ISZERO ISZERO PUSH1 0xC0 DUP3 ADD MSTORE PUSH2 0x2336 DUP3 DUP9 PUSH2 0x6646 JUMP JUMPDEST MSTORE PUSH2 0x11C4 DUP2 DUP8 PUSH2 0x6646 JUMP JUMPDEST SWAP2 PUSH2 0x6070 JUMP JUMPDEST SWAP1 PUSH2 0x224D JUMP JUMPDEST PUSH1 0x20 SWAP1 PUSH2 0x2358 PUSH2 0x694A JUMP JUMPDEST DUP3 DUP3 DUP7 ADD ADD MSTORE ADD PUSH2 0x223C JUMP JUMPDEST CALLVALUE PUSH2 0x487 JUMPI PUSH2 0x483 PUSH2 0x23E8 PUSH2 0x23E2 PUSH2 0x237B CALLDATASIZE PUSH2 0x580E JUMP JUMPDEST SWAP1 PUSH1 0x0 PUSH1 0xE0 PUSH1 0x40 MLOAD PUSH2 0x238C DUP2 PUSH2 0x5663 JUMP JUMPDEST DUP3 DUP2 MSTORE DUP3 PUSH1 0x20 DUP3 ADD MSTORE PUSH1 0x60 PUSH1 0x40 DUP3 ADD MSTORE PUSH1 0x60 DUP1 DUP3 ADD MSTORE PUSH1 0x60 PUSH1 0x80 DUP3 ADD MSTORE DUP3 PUSH1 0xA0 DUP3 ADD MSTORE DUP3 PUSH1 0xC0 DUP3 ADD MSTORE ADD MSTORE DUP1 PUSH1 0x0 MSTORE PUSH1 0x10 PUSH1 0x20 MSTORE PUSH2 0x23D0 PUSH1 0x40 PUSH1 0x0 KECCAK256 SLOAD DUP4 LT PUSH2 0x6031 JUMP JUMPDEST PUSH1 0x0 MSTORE PUSH1 0x10 PUSH1 0x20 MSTORE PUSH1 0x40 PUSH1 0x0 KECCAK256 PUSH2 0x5824 JUMP JUMPDEST POP PUSH2 0x5FB6 JUMP JUMPDEST PUSH1 0x40 MLOAD SWAP2 DUP3 SWAP2 PUSH1 0x20 DUP4 MSTORE PUSH1 0x20 DUP4 ADD SWAP1 PUSH2 0x5CAE JUMP JUMPDEST CALLVALUE PUSH2 0x487 JUMPI PUSH1 0x0 CALLDATASIZE PUSH1 0x3 NOT ADD SLT PUSH2 0x487 JUMPI PUSH1 0x20 PUSH1 0x18 SLOAD PUSH1 0x40 MLOAD SWAP1 DUP2 MSTORE RETURN JUMPDEST CALLVALUE PUSH2 0x487 JUMPI PUSH1 0x20 CALLDATASIZE PUSH1 0x3 NOT ADD SLT PUSH2 0x487 JUMPI PUSH1 0x1 PUSH1 0x1 PUSH1 0xA0 SHL SUB PUSH2 0x243B PUSH2 0x55E2 JUMP JUMPDEST AND PUSH1 0x0 MSTORE PUSH1 0xB PUSH1 0x20 MSTORE PUSH1 0x20 PUSH1 0xFF PUSH1 0x40 PUSH1 0x0 KECCAK256 SLOAD AND PUSH1 0x40 MLOAD SWAP1 ISZERO ISZERO DUP2 MSTORE RETURN JUMPDEST CALLVALUE PUSH2 0x487 JUMPI PUSH2 0x2467 CALLDATASIZE PUSH2 0x580E JUMP JUMPDEST SWAP1 DUP1 PUSH1 0x0 MSTORE PUSH1 0x20 SWAP1 PUSH1 0x10 DUP3 MSTORE PUSH2 0x2483 PUSH1 0x40 PUSH1 0x0 KECCAK256 SLOAD DUP5 LT PUSH2 0x6031 JUMP JUMPDEST PUSH1 0x0 DUP2 DUP2 MSTORE PUSH1 0xE DUP4 MSTORE PUSH1 0x40 SWAP1 KECCAK256 SLOAD PUSH1 0x1 PUSH1 0x1 PUSH1 0xA0 SHL SUB SWAP2 SWAP1 DUP3 AND CALLER EQ DUP1 ISZERO PUSH2 0x2570 JUMPI JUMPDEST ISZERO PUSH2 0x251F JUMPI PUSH1 0x6 PUSH2 0x24C6 PUSH2 0x72C SWAP6 DUP4 PUSH1 0x0 MSTORE PUSH1 0x10 DUP7 MSTORE PUSH1 0x40 PUSH1 0x0 KECCAK256 PUSH2 0x5824 JUMP JUMPDEST POP ADD PUSH1 0xFF PUSH1 0xA0 SHL NOT DUP2 SLOAD AND SWAP1 SSTORE PUSH1 0x0 MSTORE PUSH1 0xE DUP3 MSTORE PUSH1 0x40 PUSH1 0x0 KECCAK256 SLOAD AND SWAP1 PUSH32 0x4D65646963616C207265636F7264206465616374697661746564000000000000 PUSH1 0x40 MLOAD SWAP2 PUSH2 0x2510 DUP4 PUSH2 0x56B6 JUMP JUMPDEST PUSH1 0x1A DUP4 MSTORE DUP3 ADD MSTORE PUSH2 0x6D2 PUSH2 0x5F8C JUMP JUMPDEST PUSH1 0x40 MLOAD PUSH3 0x461BCD PUSH1 0xE5 SHL DUP2 MSTORE PUSH1 0x4 DUP2 ADD DUP5 SWAP1 MSTORE PUSH1 0x24 DUP1 DUP3 ADD MSTORE PUSH32 0x4F6E6C792070617469656E74206F722061646D696E2063616E20646561637469 PUSH1 0x44 DUP3 ADD MSTORE PUSH4 0x76617465 PUSH1 0xE0 SHL PUSH1 0x64 DUP3 ADD MSTORE PUSH1 0x84 SWAP1 REVERT JUMPDEST POP DUP2 PUSH1 0x19 SLOAD AND CALLER EQ PUSH2 0x24A6 JUMP JUMPDEST CALLVALUE PUSH2 0x487 JUMPI PUSH1 0x20 CALLDATASIZE PUSH1 0x3 NOT ADD SLT PUSH2 0x487 JUMPI PUSH1 0x4 CALLDATALOAD PUSH1 0x0 MSTORE PUSH1 0x7 PUSH1 0x20 MSTORE PUSH1 0x40 PUSH1 0x0 KECCAK256 DUP1 SLOAD PUSH2 0x483 PUSH2 0x25AF PUSH1 0x1 DUP5 ADD PUSH2 0x5728 JUMP JUMPDEST SWAP3 PUSH1 0x3 PUSH1 0x1 DUP1 PUSH1 0xA0 SHL SUB SWAP2 ADD SLOAD AND PUSH1 0x40 MLOAD SWAP4 DUP5 SWAP4 DUP5 PUSH2 0x5C80 JUMP JUMPDEST CALLVALUE PUSH2 0x487 JUMPI PUSH1 0x0 CALLDATASIZE PUSH1 0x3 NOT ADD SLT PUSH2 0x487 JUMPI PUSH1 0x16 SLOAD PUSH2 0x25E6 DUP2 PUSH2 0x65F6 JUMP JUMPDEST SWAP1 PUSH1 0x1 DUP1 PUSH1 0x0 JUMPDEST DUP4 DUP4 GT ISZERO PUSH2 0x2603 JUMPI PUSH1 0x40 MLOAD DUP1 PUSH2 0x483 DUP8 DUP3 PUSH2 0x5C10 JUMP JUMPDEST PUSH2 0x11CA PUSH2 0x2659 SWAP2 DUP5 PUSH1 0x0 MSTORE PUSH1 0x20 PUSH1 0x8 DUP2 MSTORE PUSH1 0x4 PUSH1 0x40 PUSH1 0x0 KECCAK256 PUSH1 0x40 MLOAD SWAP3 PUSH2 0x2628 DUP5 PUSH2 0x5648 JUMP JUMPDEST DUP2 SLOAD DUP5 MSTORE DUP8 DUP3 ADD SLOAD SWAP1 DUP5 ADD MSTORE PUSH1 0x2 DUP2 ADD SLOAD PUSH1 0x40 DUP5 ADD MSTORE PUSH1 0x3 DUP2 ADD SLOAD PUSH1 0x60 DUP5 ADD MSTORE ADD SLOAD PUSH1 0x80 DUP3 ADD MSTORE PUSH2 0x11B9 DUP3 DUP10 PUSH2 0x6646 JUMP JUMPDEST SWAP2 PUSH2 0x25ED JUMP JUMPDEST CALLVALUE PUSH2 0x487 JUMPI PUSH1 0x20 DUP1 PUSH1 0x3 NOT CALLDATASIZE ADD SLT PUSH2 0x487 JUMPI PUSH1 0x4 CALLDATALOAD PUSH2 0x267C PUSH2 0x67D4 JUMP JUMPDEST POP PUSH2 0x268B PUSH1 0x17 SLOAD DUP3 GT ISZERO PUSH2 0x64E9 JUMP JUMPDEST DUP1 PUSH1 0x0 MSTORE PUSH1 0x9 DUP3 MSTORE PUSH1 0x1 PUSH1 0x40 PUSH1 0x0 KECCAK256 ADD SLOAD PUSH2 0x26A5 CALLER PUSH2 0x677A JUMP JUMPDEST EQ DUP1 ISZERO PUSH2 0x27C6 JUMPI JUMPDEST ISZERO PUSH2 0x2766 JUMPI PUSH1 0x0 MSTORE PUSH1 0x9 DUP2 MSTORE PUSH1 0x40 PUSH1 0x0 KECCAK256 SWAP1 PUSH1 0xFF PUSH1 0x9 PUSH1 0x40 MLOAD SWAP4 PUSH2 0x26D0 DUP6 PUSH2 0x567F JUMP JUMPDEST DUP1 SLOAD DUP6 MSTORE PUSH1 0x1 DUP2 ADD SLOAD DUP5 DUP7 ADD MSTORE PUSH1 0x2 DUP2 ADD SLOAD PUSH1 0x40 DUP7 ADD MSTORE PUSH1 0x3 DUP2 ADD SLOAD PUSH1 0x60 DUP7 ADD MSTORE PUSH2 0x26FD PUSH1 0x4 DUP3 ADD PUSH2 0x5728 JUMP JUMPDEST PUSH1 0x80 DUP7 ADD MSTORE PUSH2 0x270E PUSH1 0x5 DUP3 ADD PUSH2 0x5728 JUMP JUMPDEST PUSH1 0xA0 DUP7 ADD MSTORE PUSH2 0x271F PUSH1 0x6 DUP3 ADD PUSH2 0x5728 JUMP JUMPDEST PUSH1 0xC0 DUP7 ADD MSTORE PUSH2 0x2730 PUSH1 0x7 DUP3 ADD PUSH2 0x5728 JUMP JUMPDEST PUSH1 0xE0 DUP7 ADD MSTORE PUSH2 0x2741 PUSH1 0x8 DUP3 ADD PUSH2 0x5728 JUMP JUMPDEST PUSH2 0x100 DUP7 ADD MSTORE ADD SLOAD AND ISZERO ISZERO PUSH2 0x120 DUP4 ADD MSTORE PUSH2 0x483 PUSH1 0x40 MLOAD SWAP3 DUP3 DUP5 SWAP4 DUP5 MSTORE DUP4 ADD SWAP1 PUSH2 0x58D3 JUMP JUMPDEST PUSH1 0x40 MLOAD PUSH3 0x461BCD PUSH1 0xE5 SHL DUP2 MSTORE PUSH1 0x4 DUP2 ADD DUP4 SWAP1 MSTORE PUSH1 0x32 PUSH1 0x24 DUP3 ADD MSTORE PUSH32 0x4F6E6C79207468652070617469656E74206F722061646D696E2063616E207669 PUSH1 0x44 DUP3 ADD MSTORE PUSH18 0x195DC81D1A1948185C1C1BDA5B9D1B595B9D PUSH1 0x72 SHL PUSH1 0x64 DUP3 ADD MSTORE PUSH1 0x84 SWAP1 REVERT JUMPDEST POP PUSH1 0x19 SLOAD PUSH1 0x1 PUSH1 0x1 PUSH1 0xA0 SHL SUB AND CALLER EQ PUSH2 0x26AD JUMP JUMPDEST CALLVALUE PUSH2 0x487 JUMPI PUSH1 0x0 CALLDATASIZE PUSH1 0x3 NOT ADD SLT PUSH2 0x487 JUMPI PUSH1 0x15 SLOAD PUSH2 0x27F7 DUP2 PUSH2 0x6686 JUMP JUMPDEST SWAP1 PUSH1 0x1 DUP1 PUSH1 0x0 JUMPDEST DUP4 DUP4 GT ISZERO PUSH2 0x2814 JUMPI PUSH1 0x40 MLOAD DUP1 PUSH2 0x483 DUP8 DUP3 PUSH2 0x5AFB JUMP JUMPDEST PUSH2 0x11CA PUSH2 0x2888 SWAP2 DUP5 PUSH1 0x0 MSTORE PUSH1 0x20 PUSH1 0x7 DUP2 MSTORE PUSH2 0x2879 PUSH1 0x4 PUSH1 0x40 PUSH1 0x0 KECCAK256 PUSH1 0x40 MLOAD SWAP4 PUSH2 0x283C DUP6 PUSH2 0x5648 JUMP JUMPDEST DUP2 SLOAD DUP6 MSTORE PUSH2 0x284B DUP10 DUP4 ADD PUSH2 0x5728 JUMP JUMPDEST SWAP1 DUP6 ADD MSTORE PUSH2 0x285B PUSH1 0x2 DUP3 ADD PUSH2 0x66D6 JUMP JUMPDEST PUSH1 0x40 DUP6 ADD MSTORE PUSH1 0x3 DUP2 ADD SLOAD PUSH1 0x1 PUSH1 0x1 PUSH1 0xA0 SHL SUB AND PUSH1 0x60 DUP6 ADD MSTORE ADD PUSH2 0x672B JUMP JUMPDEST PUSH1 0x80 DUP3 ADD MSTORE PUSH2 0x11B9 DUP3 DUP10 PUSH2 0x6646 JUMP JUMPDEST SWAP2 PUSH2 0x27FE JUMP JUMPDEST PUSH1 0x60 CALLDATASIZE PUSH1 0x3 NOT ADD SLT PUSH2 0x487 JUMPI PUSH1 0x4 CALLDATALOAD PUSH1 0x24 DUP1 CALLDATALOAD SWAP1 PUSH1 0x44 CALLDATALOAD PUSH2 0x28B3 PUSH1 0x15 SLOAD DUP6 GT ISZERO PUSH2 0x648C JUMP JUMPDEST PUSH2 0x28C1 PUSH1 0x13 SLOAD DUP5 GT ISZERO PUSH2 0x638E JUMP JUMPDEST DUP4 PUSH1 0x0 MSTORE PUSH1 0x20 SWAP2 PUSH1 0x7 DUP4 MSTORE PUSH1 0x1 DUP1 PUSH1 0xA0 SHL SUB SWAP2 DUP3 PUSH1 0x3 PUSH1 0x40 PUSH1 0x0 KECCAK256 ADD SLOAD AND CALLER SUB PUSH2 0x2BE3 JUMPI DUP5 PUSH1 0x0 MSTORE PUSH1 0x5 SWAP1 DUP2 DUP6 MSTORE PUSH1 0xFF PUSH1 0x6 PUSH1 0x40 PUSH1 0x0 KECCAK256 ADD SLOAD AND ISZERO PUSH2 0x2BA6 JUMPI DUP6 PUSH1 0x0 MSTORE DUP2 DUP6 MSTORE DUP1 PUSH1 0x3 PUSH1 0x40 PUSH1 0x0 KECCAK256 ADD SLOAD LT PUSH2 0x2B62 JUMPI DUP6 PUSH1 0x0 MSTORE DUP2 DUP6 MSTORE PUSH1 0x2 PUSH1 0x40 PUSH1 0x0 KECCAK256 ADD SLOAD SWAP1 DUP1 DUP3 MUL SWAP2 DUP1 DUP4 DIV DUP3 EQ SWAP1 ISZERO OR ISZERO PUSH2 0x2B4D JUMPI DUP7 PUSH1 0x0 MSTORE DUP3 DUP7 MSTORE PUSH1 0x3 PUSH1 0x40 PUSH1 0x0 KECCAK256 ADD PUSH2 0x2952 DUP3 DUP3 SLOAD PUSH2 0x659D JUMP JUMPDEST SWAP1 SSTORE DUP8 PUSH1 0x0 MSTORE PUSH1 0x7 DUP7 MSTORE PUSH1 0x4 PUSH1 0x40 PUSH1 0x0 KECCAK256 ADD SWAP1 DUP2 SLOAD PUSH1 0x1 PUSH1 0x40 SHL SWAP3 DUP4 DUP3 LT ISZERO PUSH2 0x2B38 JUMPI SWAP1 PUSH2 0x2985 SWAP2 PUSH1 0x1 DUP3 ADD DUP2 SSTORE PUSH2 0x64D1 JUMP JUMPDEST DUP2 SLOAD SWAP1 PUSH1 0x3 SHL SWAP1 DUP11 DUP3 SHL SWAP2 PUSH1 0x0 NOT SWAP1 SHL NOT AND OR SWAP1 SSTORE DUP9 PUSH1 0x0 MSTORE PUSH1 0x4 DUP8 MSTORE PUSH1 0x40 PUSH1 0x0 KECCAK256 SWAP3 DUP9 PUSH1 0x0 MSTORE DUP5 DUP9 MSTORE PUSH1 0x2 PUSH1 0x40 PUSH1 0x0 KECCAK256 ADD SLOAD PUSH1 0x40 MLOAD PUSH2 0x29C4 DUP2 PUSH2 0x569B JUMP JUMPDEST DUP11 DUP2 MSTORE DUP10 DUP2 ADD SWAP2 DUP3 MSTORE PUSH1 0x40 DUP2 ADD SWAP3 DUP4 MSTORE PUSH1 0x60 DUP2 ADD SWAP4 DUP5 MSTORE PUSH1 0x80 DUP2 ADD SWAP5 DUP13 DUP7 MSTORE PUSH1 0xA0 DUP3 ADD SWAP7 TIMESTAMP DUP9 MSTORE DUP1 SLOAD SWAP2 DUP3 LT ISZERO PUSH2 0x2B23 JUMPI SWAP1 PUSH2 0x2A05 SWAP2 PUSH1 0x1 DUP3 ADD DUP2 SSTORE PUSH2 0x5D8A JUMP JUMPDEST SWAP9 SWAP1 SWAP9 PUSH2 0x2B0F JUMPI PUSH32 0x1D62F96054391D98915909B52FC6B2182AF4CE3748F5DDD6C0047DD725A969DF PUSH1 0x40 DUP15 DUP15 DUP15 PUSH2 0x2B04 DUP16 DUP16 DUP16 DUP16 DUP16 DUP16 DUP16 DUP16 DUP16 MLOAD DUP8 SSTORE MLOAD PUSH1 0x1 DUP8 ADD SSTORE MLOAD PUSH1 0x2 DUP7 ADD SSTORE MLOAD PUSH1 0x3 DUP6 ADD SSTORE MLOAD PUSH1 0x4 DUP5 ADD SSTORE MLOAD SWAP2 ADD SSTORE PUSH2 0x2AA9 DUP7 MLOAD PUSH2 0x2A6B DUP2 PUSH2 0x56EC JUMP JUMPDEST PUSH1 0x25 DUP2 MSTORE PUSH32 0x596F752068617665207375636365737366756C6C7920626F75676874206D6564 DUP6 DUP3 ADD MSTORE PUSH5 0x6963696E65 PUSH1 0xD8 SHL DUP9 DUP3 ADD MSTORE PUSH2 0x64F PUSH2 0x657A JUMP JUMPDEST PUSH1 0x19 SLOAD AND DUP6 MLOAD PUSH2 0x2AB8 DUP2 PUSH2 0x56EC JUMP JUMPDEST PUSH1 0x33 DUP2 MSTORE PUSH32 0x5472616E73616374696F6E20636F6D706C657465642C206D65646963696E6520 DUP5 DUP3 ADD MSTORE PUSH19 0x626F75676874207375636365737366756C6C79 PUSH1 0x68 SHL DUP8 DUP3 ADD MSTORE PUSH2 0x6D2 PUSH2 0x657A JUMP JUMPDEST DUP4 MLOAD SWAP3 DUP4 MSTORE DUP3 ADD MSTORE LOG1 STOP JUMPDEST PUSH4 0x4E487B71 PUSH1 0xE0 SHL PUSH1 0x0 MSTORE PUSH1 0x0 PUSH1 0x4 MSTORE PUSH1 0x0 REVERT JUMPDEST DUP10 PUSH4 0x4E487B71 PUSH1 0xE0 SHL PUSH1 0x0 MSTORE PUSH1 0x41 PUSH1 0x4 MSTORE PUSH1 0x0 REVERT JUMPDEST DUP7 PUSH4 0x4E487B71 PUSH1 0xE0 SHL PUSH1 0x0 MSTORE PUSH1 0x41 PUSH1 0x4 MSTORE PUSH1 0x0 REVERT JUMPDEST DUP4 PUSH4 0x4E487B71 PUSH1 0xE0 SHL PUSH1 0x0 MSTORE PUSH1 0x11 PUSH1 0x4 MSTORE PUSH1 0x0 REVERT JUMPDEST PUSH1 0x40 MLOAD PUSH3 0x461BCD PUSH1 0xE5 SHL DUP2 MSTORE PUSH1 0x4 DUP2 ADD DUP7 SWAP1 MSTORE PUSH1 0x1C DUP2 DUP6 ADD MSTORE PUSH32 0x4E6F7420656E6F756768206D65646963696E6520696E2073746F636B00000000 PUSH1 0x44 DUP3 ADD MSTORE PUSH1 0x64 SWAP1 REVERT JUMPDEST PUSH1 0x40 MLOAD PUSH3 0x461BCD PUSH1 0xE5 SHL DUP2 MSTORE PUSH1 0x4 DUP2 ADD DUP7 SWAP1 MSTORE PUSH1 0x16 DUP2 DUP6 ADD MSTORE PUSH22 0x4D65646963696E65206973206E6F7420616374697665 PUSH1 0x50 SHL PUSH1 0x44 DUP3 ADD MSTORE PUSH1 0x64 SWAP1 REVERT JUMPDEST PUSH1 0x40 MLOAD PUSH3 0x461BCD PUSH1 0xE5 SHL DUP2 MSTORE PUSH1 0x4 DUP2 ADD DUP6 SWAP1 MSTORE PUSH1 0x27 DUP2 DUP5 ADD MSTORE PUSH32 0x4F6E6C79207468652070617469656E742063616E20627579207468656972206D PUSH1 0x44 DUP3 ADD MSTORE PUSH7 0x65646963696E65 PUSH1 0xC8 SHL PUSH1 0x64 DUP3 ADD MSTORE PUSH1 0x84 SWAP1 REVERT JUMPDEST CALLVALUE PUSH2 0x487 JUMPI PUSH2 0x2C45 CALLDATASIZE PUSH2 0x580E JUMP JUMPDEST SWAP1 PUSH1 0x0 MSTORE PUSH1 0x11 PUSH1 0x20 MSTORE PUSH1 0x40 PUSH1 0x0 KECCAK256 SWAP1 DUP2 SLOAD DUP2 LT ISZERO PUSH2 0x487 JUMPI PUSH2 0x2C66 SWAP2 PUSH2 0x5824 JUMP JUMPDEST POP DUP1 SLOAD PUSH1 0x1 DUP3 ADD SLOAD SWAP2 PUSH1 0xFF PUSH1 0x2 DUP3 ADD SLOAD PUSH2 0x2CBE PUSH1 0x3 DUP5 ADD SLOAD PUSH2 0x2C8A PUSH1 0x4 DUP7 ADD PUSH2 0x5728 JUMP JUMPDEST SWAP1 PUSH1 0x6 PUSH1 0x5 DUP8 ADD SLOAD SWAP7 ADD SLOAD SWAP4 PUSH1 0x40 MLOAD SWAP9 DUP10 SWAP9 DUP10 MSTORE PUSH1 0x20 DUP10 ADD MSTORE PUSH1 0x40 DUP9 ADD MSTORE PUSH1 0x60 DUP8 ADD MSTORE PUSH2 0x100 DUP1 PUSH1 0x80 DUP9 ADD MSTORE DUP7 ADD SWAP1 PUSH2 0x57CE JUMP JUMPDEST SWAP3 PUSH1 0xA0 DUP6 ADD MSTORE DUP2 DUP2 AND ISZERO ISZERO PUSH1 0xC0 DUP6 ADD MSTORE PUSH1 0x8 SHR AND ISZERO ISZERO PUSH1 0xE0 DUP4 ADD MSTORE SUB SWAP1 RETURN JUMPDEST CALLVALUE PUSH2 0x487 JUMPI PUSH1 0x0 CALLDATASIZE PUSH1 0x3 NOT ADD SLT PUSH2 0x487 JUMPI PUSH1 0x0 SLOAD PUSH2 0x2CFA DUP2 PUSH2 0x59D7 JUMP JUMPDEST SWAP1 PUSH2 0x2D08 PUSH1 0x40 MLOAD SWAP3 DUP4 PUSH2 0x5707 JUMP JUMPDEST DUP1 DUP3 MSTORE PUSH1 0x0 DUP1 DUP1 MSTORE PUSH1 0x20 SWAP2 DUP3 DUP5 ADD SWAP2 PUSH32 0x290DECD9548B62A8D60345A988386FC84BA6BC95484008F6362F93160EF3E563 DUP4 JUMPDEST DUP4 DUP4 LT PUSH2 0x2DBD JUMPI POP POP POP POP PUSH1 0x40 MLOAD SWAP2 DUP1 DUP4 ADD SWAP4 DUP2 DUP5 MSTORE MLOAD DUP1 SWAP5 MSTORE PUSH1 0x40 DUP4 ADD SWAP4 PUSH1 0x40 DUP2 PUSH1 0x5 SHL DUP6 ADD ADD SWAP3 SWAP2 PUSH1 0x0 SWAP6 JUMPDEST DUP3 DUP8 LT PUSH2 0x2D75 JUMPI DUP6 DUP6 SUB DUP7 RETURN JUMPDEST SWAP1 SWAP2 SWAP3 SWAP4 DUP3 DUP1 PUSH1 0x1 SWAP3 PUSH1 0x3F NOT DUP10 DUP3 SUB ADD DUP6 MSTORE DUP8 MLOAD SWAP1 DUP3 PUSH2 0x2D9E DUP4 MLOAD PUSH1 0x40 DUP5 MSTORE PUSH1 0x40 DUP5 ADD SWAP1 PUSH2 0x57CE JUMP JUMPDEST SWAP3 DUP2 DUP8 DUP1 PUSH1 0xA0 SHL SUB SWAP2 ADD MLOAD AND SWAP2 ADD MSTORE SWAP7 ADD SWAP3 ADD SWAP7 ADD SWAP6 SWAP3 SWAP2 SWAP1 SWAP3 PUSH2 0x2D68 JUMP JUMPDEST PUSH1 0x2 DUP7 PUSH1 0x1 SWAP3 PUSH1 0x40 SWAP10 SWAP9 SWAP10 MLOAD PUSH2 0x2DD2 DUP2 PUSH2 0x56B6 JUMP JUMPDEST PUSH2 0x2DDB DUP7 PUSH2 0x5728 JUMP JUMPDEST DUP2 MSTORE DUP5 DUP1 PUSH1 0xA0 SHL SUB DUP6 DUP8 ADD SLOAD AND DUP4 DUP3 ADD MSTORE DUP2 MSTORE ADD SWAP3 ADD SWAP3 ADD SWAP2 SWAP1 SWAP6 SWAP5 SWAP6 PUSH2 0x2D3A JUMP JUMPDEST CALLVALUE PUSH2 0x487 JUMPI PUSH1 0x20 DUP1 PUSH1 0x3 NOT CALLDATASIZE ADD SLT PUSH2 0x487 JUMPI PUSH1 0x16 SLOAD PUSH1 0x1 SWAP2 PUSH1 0x4 CALLDATALOAD PUSH1 0x0 DUP5 JUMPDEST DUP5 DUP2 GT ISZERO PUSH2 0x2ECD JUMPI POP PUSH2 0x2E2E SWAP1 PUSH2 0x65F6 JUMP JUMPDEST SWAP4 PUSH1 0x0 SWAP2 DUP2 JUMPDEST DUP6 DUP2 GT ISZERO PUSH2 0x2E4A JUMPI PUSH1 0x40 MLOAD DUP1 PUSH2 0x483 DUP10 DUP3 PUSH2 0x5C10 JUMP JUMPDEST DUP1 PUSH1 0x0 MSTORE PUSH1 0x8 DUP6 MSTORE PUSH1 0x40 PUSH1 0x0 KECCAK256 PUSH1 0x2 DUP2 ADD SLOAD SWAP1 DUP4 DUP3 EQ PUSH2 0x2E75 JUMPI JUMPDEST POP POP PUSH2 0x2E70 SWAP1 PUSH2 0x6070 JUMP JUMPDEST PUSH2 0x2E34 JUMP JUMPDEST SWAP5 PUSH2 0x2EC5 SWAP2 PUSH1 0x4 PUSH2 0x2E70 SWAP5 SWAP8 PUSH1 0x40 MLOAD SWAP3 PUSH2 0x2E8E DUP5 PUSH2 0x5648 JUMP JUMPDEST DUP2 SLOAD DUP5 MSTORE DUP9 DUP3 ADD SLOAD DUP12 DUP6 ADD MSTORE PUSH1 0x40 DUP5 ADD MSTORE PUSH1 0x3 DUP2 ADD SLOAD PUSH1 0x60 DUP5 ADD MSTORE ADD SLOAD PUSH1 0x80 DUP3 ADD MSTORE PUSH2 0x2EBA DUP3 DUP12 PUSH2 0x6646 JUMP JUMPDEST MSTORE PUSH2 0x11C4 DUP2 DUP11 PUSH2 0x6646 JUMP JUMPDEST SWAP4 SWAP1 DUP9 PUSH2 0x2E65 JUMP JUMPDEST DUP1 PUSH1 0x0 MSTORE PUSH1 0x8 DUP5 MSTORE DUP3 PUSH1 0x2 PUSH1 0x40 PUSH1 0x0 KECCAK256 ADD SLOAD EQ PUSH2 0x2EF3 JUMPI JUMPDEST PUSH2 0x2EEE SWAP1 PUSH2 0x6070 JUMP JUMPDEST PUSH2 0x2E1C JUMP JUMPDEST SWAP1 PUSH2 0x2F00 PUSH2 0x2EEE SWAP2 PUSH2 0x6070 JUMP JUMPDEST SWAP2 SWAP1 POP PUSH2 0x2EE5 JUMP JUMPDEST CALLVALUE PUSH2 0x487 JUMPI PUSH1 0x80 CALLDATASIZE PUSH1 0x3 NOT ADD SLT PUSH2 0x487 JUMPI PUSH1 0x4 CALLDATALOAD PUSH1 0x24 CALLDATALOAD PUSH1 0x1 PUSH1 0x1 PUSH1 0x40 SHL SUB PUSH1 0x44 CALLDATALOAD DUP2 DUP2 GT PUSH2 0x487 JUMPI PUSH2 0x2F3F SWAP1 CALLDATASIZE SWAP1 PUSH1 0x4 ADD PUSH2 0x5886 JUMP JUMPDEST SWAP1 PUSH1 0x64 CALLDATALOAD SWAP1 DUP2 GT PUSH2 0x487 JUMPI PUSH2 0x2F58 SWAP1 CALLDATASIZE SWAP1 PUSH1 0x4 ADD PUSH2 0x5886 JUMP JUMPDEST SWAP1 CALLER PUSH1 0x0 MSTORE PUSH1 0x20 SWAP2 PUSH1 0xA DUP4 MSTORE PUSH2 0x2F75 PUSH1 0xFF PUSH1 0x40 PUSH1 0x0 KECCAK256 SLOAD AND PUSH2 0x6181 JUMP JUMPDEST DUP5 PUSH1 0x0 MSTORE PUSH1 0x10 DUP4 MSTORE PUSH2 0x2F8D PUSH1 0x40 PUSH1 0x0 KECCAK256 SLOAD DUP6 LT PUSH2 0x6031 JUMP JUMPDEST DUP5 PUSH1 0x0 MSTORE PUSH1 0x12 DUP4 MSTORE PUSH1 0x40 PUSH1 0x0 KECCAK256 CALLER PUSH1 0x0 MSTORE PUSH1 0xC DUP5 MSTORE PUSH1 0x40 PUSH1 0x0 KECCAK256 SLOAD PUSH1 0x0 MSTORE DUP4 MSTORE PUSH1 0xFF PUSH1 0x40 PUSH1 0x0 KECCAK256 SLOAD AND ISZERO PUSH2 0x30E2 JUMPI SWAP2 PUSH1 0x6 PUSH32 0xDEA2A8C46CB3BFFD887BF63059546FB77AA279B81123ACFBEDBC55A519440E1A SWAP5 SWAP3 PUSH2 0x3013 PUSH1 0x40 SWAP6 DUP9 PUSH1 0x0 MSTORE PUSH1 0x10 DUP6 MSTORE PUSH2 0x300A PUSH2 0x2FFF DUP8 DUP10 PUSH1 0x0 KECCAK256 PUSH2 0x5824 JUMP JUMPDEST POP SWAP4 PUSH1 0x2 DUP6 ADD PUSH2 0x5EC5 JUMP JUMPDEST PUSH1 0x3 DUP4 ADD PUSH2 0x5EC5 JUMP JUMPDEST TIMESTAMP PUSH1 0x5 DUP3 ADD SSTORE ADD DUP1 SLOAD PUSH1 0x1 PUSH1 0x1 PUSH1 0xA0 SHL SUB NOT AND CALLER OR SWAP1 SSTORE PUSH1 0x0 DUP6 DUP2 MSTORE PUSH1 0xE DUP3 MSTORE DUP4 SWAP1 KECCAK256 SLOAD DUP4 MLOAD PUSH2 0x308B SWAP2 PUSH1 0x1 PUSH1 0x1 PUSH1 0xA0 SHL SUB AND SWAP1 PUSH2 0x3050 DUP2 PUSH2 0x56EC JUMP JUMPDEST PUSH1 0x22 DUP2 MSTORE PUSH32 0x446F63746F72207570646174656420796F7572206D65646963616C207265636F DUP5 DUP3 ADD MSTORE PUSH2 0x1C99 PUSH1 0xF2 SHL DUP7 DUP3 ADD MSTORE PUSH2 0x6D2 PUSH2 0x5F8C JUMP JUMPDEST PUSH2 0x30D5 DUP4 MLOAD PUSH2 0x3099 DUP2 PUSH2 0x56EC JUMP JUMPDEST PUSH1 0x23 DUP2 MSTORE PUSH32 0x4D65646963616C207265636F7264207570646174656420737563636573736675 DUP4 DUP3 ADD MSTORE PUSH3 0x6C6C79 PUSH1 0xE8 SHL DUP6 DUP3 ADD MSTORE PUSH2 0x64F PUSH2 0x5F8C JUMP JUMPDEST DUP3 MLOAD SWAP2 DUP3 MSTORE CALLER SWAP1 DUP3 ADD MSTORE LOG2 STOP JUMPDEST PUSH1 0x40 MLOAD PUSH3 0x461BCD PUSH1 0xE5 SHL DUP2 MSTORE PUSH1 0x4 DUP2 ADD DUP5 SWAP1 MSTORE PUSH1 0x1C PUSH1 0x24 DUP3 ADD MSTORE PUSH32 0x4E6F2061636365737320746F2070617469656E74207265636F72647300000000 PUSH1 0x44 DUP3 ADD MSTORE PUSH1 0x64 SWAP1 REVERT JUMPDEST CALLVALUE PUSH2 0x487 JUMPI PUSH1 0x0 CALLDATASIZE PUSH1 0x3 NOT ADD SLT PUSH2 0x487 JUMPI PUSH1 0x20 PUSH1 0x14 SLOAD PUSH1 0x40 MLOAD SWAP1 DUP2 MSTORE RETURN JUMPDEST CALLVALUE PUSH2 0x487 JUMPI PUSH1 0x0 CALLDATASIZE PUSH1 0x3 NOT ADD SLT PUSH2 0x487 JUMPI PUSH1 0x14 SLOAD PUSH2 0x3162 DUP2 PUSH2 0x68A1 JUMP JUMPDEST SWAP1 PUSH1 0x1 DUP1 PUSH1 0x0 JUMPDEST DUP4 DUP4 GT ISZERO PUSH2 0x317F JUMPI PUSH1 0x40 MLOAD DUP1 PUSH2 0x483 DUP8 DUP3 PUSH2 0x5BAE JUMP JUMPDEST PUSH2 0x11CA PUSH2 0x31F4 SWAP2 DUP5 PUSH1 0x0 MSTORE PUSH1 0x20 PUSH1 0x6 DUP2 MSTORE PUSH1 0xFF PUSH1 0x5 PUSH1 0x40 PUSH1 0x0 KECCAK256 PUSH1 0x40 MLOAD SWAP4 PUSH2 0x31A6 DUP6 PUSH2 0x569B JUMP JUMPDEST DUP2 SLOAD DUP6 MSTORE PUSH2 0x31B5 DUP10 DUP4 ADD PUSH2 0x5728 JUMP JUMPDEST SWAP1 DUP6 ADD MSTORE PUSH1 0x2 DUP2 ADD SLOAD PUSH1 0x1 PUSH1 0x1 PUSH1 0xA0 SHL SUB AND PUSH1 0x40 DUP6 ADD MSTORE PUSH1 0x3 DUP2 ADD SLOAD PUSH1 0x60 DUP6 ADD MSTORE PUSH1 0x4 DUP2 ADD SLOAD PUSH1 0x80 DUP6 ADD MSTORE ADD SLOAD AND ISZERO ISZERO PUSH1 0xA0 DUP3 ADD MSTORE PUSH2 0x11B9 DUP3 DUP10 PUSH2 0x6646 JUMP JUMPDEST SWAP2 PUSH2 0x3169 JUMP JUMPDEST CALLVALUE PUSH2 0x487 JUMPI PUSH1 0x20 CALLDATASIZE PUSH1 0x3 NOT ADD SLT PUSH2 0x487 JUMPI PUSH1 0x4 CALLDATALOAD PUSH1 0x0 MSTORE PUSH1 0xF PUSH1 0x20 MSTORE PUSH1 0x20 PUSH1 0x1 DUP1 PUSH1 0xA0 SHL SUB PUSH1 0x40 PUSH1 0x0 KECCAK256 SLOAD AND PUSH1 0x40 MLOAD SWAP1 DUP2 MSTORE RETURN JUMPDEST CALLVALUE PUSH2 0x487 JUMPI PUSH1 0x20 CALLDATASIZE PUSH1 0x3 NOT ADD SLT PUSH2 0x487 JUMPI PUSH2 0x3247 PUSH2 0x665A JUMP JUMPDEST POP PUSH1 0x4 CALLDATALOAD PUSH1 0x0 MSTORE PUSH1 0x7 PUSH1 0x20 MSTORE PUSH2 0x483 PUSH1 0x40 PUSH1 0x0 KECCAK256 PUSH2 0x328E PUSH1 0x4 PUSH1 0x40 MLOAD SWAP3 PUSH2 0x326D DUP5 PUSH2 0x5648 JUMP JUMPDEST DUP1 SLOAD DUP5 MSTORE PUSH2 0x327D PUSH1 0x1 DUP3 ADD PUSH2 0x5728 JUMP JUMPDEST PUSH1 0x20 DUP6 ADD MSTORE PUSH2 0x285B PUSH1 0x2 DUP3 ADD PUSH2 0x66D6 JUMP JUMPDEST PUSH1 0x80 DUP3 ADD MSTORE PUSH1 0x40 MLOAD SWAP2 DUP3 SWAP2 PUSH1 0x20 DUP4 MSTORE PUSH1 0x20 DUP4 ADD SWAP1 PUSH2 0x5A4F JUMP JUMPDEST CALLVALUE PUSH2 0x487 JUMPI PUSH1 0x20 DUP1 PUSH1 0x3 NOT CALLDATASIZE ADD SLT PUSH2 0x487 JUMPI PUSH1 0x4 CALLDATALOAD PUSH2 0x32CA PUSH1 0x14 SLOAD DUP3 GT ISZERO PUSH2 0x6448 JUMP JUMPDEST PUSH1 0x17 SLOAD SWAP1 PUSH1 0x1 SWAP1 PUSH1 0x0 DUP3 JUMPDEST DUP5 DUP2 GT ISZERO PUSH2 0x33DA JUMPI POP PUSH2 0x32E7 SWAP1 PUSH2 0x681F JUMP JUMPDEST SWAP4 PUSH1 0x0 SWAP2 DUP4 JUMPDEST DUP6 DUP2 GT ISZERO PUSH2 0x3303 JUMPI PUSH1 0x40 MLOAD DUP1 PUSH2 0x483 DUP10 DUP3 PUSH2 0x5975 JUMP JUMPDEST DUP1 PUSH1 0x0 MSTORE PUSH1 0x9 DUP1 DUP5 MSTORE PUSH1 0x40 PUSH1 0x0 KECCAK256 SWAP1 PUSH1 0x2 DUP3 ADD SLOAD SWAP2 DUP5 DUP4 EQ PUSH2 0x3331 JUMPI JUMPDEST POP POP POP PUSH2 0x332C SWAP1 PUSH2 0x6070 JUMP JUMPDEST PUSH2 0x32ED JUMP JUMPDEST SWAP2 PUSH1 0xFF PUSH2 0x332C SWAP5 SWAP8 SWAP3 PUSH2 0x33D1 SWAP5 PUSH1 0x40 MLOAD SWAP4 PUSH2 0x334B DUP6 PUSH2 0x567F JUMP JUMPDEST DUP2 SLOAD DUP6 MSTORE DUP12 DUP3 ADD SLOAD DUP11 DUP7 ADD MSTORE PUSH1 0x40 DUP6 ADD MSTORE PUSH1 0x3 DUP2 ADD SLOAD PUSH1 0x60 DUP6 ADD MSTORE PUSH2 0x3372 PUSH1 0x4 DUP3 ADD PUSH2 0x5728 JUMP JUMPDEST PUSH1 0x80 DUP6 ADD MSTORE PUSH2 0x3383 PUSH1 0x5 DUP3 ADD PUSH2 0x5728 JUMP JUMPDEST PUSH1 0xA0 DUP6 ADD MSTORE PUSH2 0x3394 PUSH1 0x6 DUP3 ADD PUSH2 0x5728 JUMP JUMPDEST PUSH1 0xC0 DUP6 ADD MSTORE PUSH2 0x33A5 PUSH1 0x7 DUP3 ADD PUSH2 0x5728 JUMP JUMPDEST PUSH1 0xE0 DUP6 ADD MSTORE PUSH2 0x33B6 PUSH1 0x8 DUP3 ADD PUSH2 0x5728 JUMP JUMPDEST PUSH2 0x100 DUP6 ADD MSTORE ADD SLOAD AND ISZERO ISZERO PUSH2 0x120 DUP3 ADD MSTORE PUSH2 0x2EBA DUP3 DUP12 PUSH2 0x6646 JUMP JUMPDEST SWAP4 SWAP1 DUP9 DUP1 PUSH2 0x3320 JUMP JUMPDEST DUP1 PUSH1 0x0 MSTORE PUSH1 0x9 DUP7 MSTORE DUP3 PUSH1 0x2 PUSH1 0x40 PUSH1 0x0 KECCAK256 ADD SLOAD EQ PUSH2 0x3400 JUMPI JUMPDEST PUSH2 0x33FB SWAP1 PUSH2 0x6070 JUMP JUMPDEST PUSH2 0x32D5 JUMP JUMPDEST SWAP1 PUSH2 0x340D PUSH2 0x33FB SWAP2 PUSH2 0x6070 JUMP JUMPDEST SWAP2 SWAP1 POP PUSH2 0x33F2 JUMP JUMPDEST CALLVALUE PUSH2 0x487 JUMPI PUSH1 0x20 CALLDATASIZE PUSH1 0x3 NOT ADD SLT PUSH2 0x487 JUMPI PUSH1 0x4 CALLDATALOAD PUSH1 0x0 MSTORE PUSH1 0x6 PUSH1 0x20 MSTORE PUSH1 0x40 PUSH1 0x0 KECCAK256 DUP1 SLOAD PUSH2 0x3444 PUSH1 0x1 DUP4 ADD PUSH2 0x5728 JUMP JUMPDEST SWAP2 PUSH1 0x1 DUP1 PUSH1 0xA0 SHL SUB PUSH1 0x2 DUP3 ADD SLOAD AND SWAP1 PUSH1 0x3 DUP2 ADD SLOAD SWAP1 PUSH1 0xFF PUSH1 0x5 PUSH1 0x4 DUP4 ADD SLOAD SWAP3 ADD SLOAD AND SWAP2 PUSH2 0x3483 PUSH1 0x40 MLOAD SWAP7 DUP8 SWAP7 DUP8 MSTORE PUSH1 0xC0 PUSH1 0x20 DUP9 ADD MSTORE PUSH1 0xC0 DUP8 ADD SWAP1 PUSH2 0x57CE JUMP JUMPDEST SWAP4 PUSH1 0x40 DUP7 ADD MSTORE PUSH1 0x60 DUP6 ADD MSTORE PUSH1 0x80 DUP5 ADD MSTORE ISZERO ISZERO PUSH1 0xA0 DUP4 ADD MSTORE SUB SWAP1 RETURN JUMPDEST CALLVALUE PUSH2 0x487 JUMPI PUSH1 0x20 DUP1 PUSH1 0x3 NOT CALLDATASIZE ADD SLT PUSH2 0x487 JUMPI PUSH32 0x2FAAC90F5434AEF32F5B0FF5B333F37051F5B671F12A52EBAE64F2EF8AC13939 PUSH1 0x40 PUSH1 0x4 CALLDATALOAD SWAP3 CALLER PUSH1 0x0 MSTORE PUSH1 0xD DUP2 MSTORE PUSH2 0x351B DUP3 PUSH1 0x0 KECCAK256 SLOAD SWAP5 PUSH2 0x34F3 DUP7 ISZERO ISZERO PUSH2 0x60A9 JUMP JUMPDEST DUP6 PUSH1 0x0 MSTORE PUSH1 0x11 DUP4 MSTORE PUSH2 0x350A DUP5 PUSH1 0x0 KECCAK256 SLOAD DUP3 LT PUSH2 0x60F5 JUMP JUMPDEST DUP6 PUSH1 0x0 MSTORE PUSH1 0x11 DUP4 MSTORE DUP4 PUSH1 0x0 KECCAK256 PUSH2 0x5824 JUMP JUMPDEST POP SWAP4 PUSH1 0x6 DUP6 ADD PUSH2 0x100 DUP2 SLOAD PUSH2 0x3532 PUSH1 0xFF DUP3 AND PUSH2 0x6135 JUMP JUMPDEST PUSH2 0xFFFF NOT AND OR SWAP1 SSTORE DUP1 PUSH1 0x0 MSTORE PUSH1 0x12 DUP3 MSTORE DUP3 PUSH1 0x0 KECCAK256 SWAP5 PUSH1 0x2 DUP2 ADD SWAP6 DUP7 SLOAD PUSH1 0x0 MSTORE DUP4 MSTORE DUP4 PUSH1 0x0 KECCAK256 PUSH1 0x1 PUSH1 0xFF NOT DUP3 SLOAD AND OR SWAP1 SSTORE PUSH2 0x360A DUP5 MLOAD PUSH2 0x3570 DUP2 PUSH2 0x56EC JUMP JUMPDEST PUSH1 0x24 DUP2 MSTORE PUSH32 0x596F7520617070726F76656420646F63746F7227732061636365737320726571 DUP6 DUP3 ADD MSTORE PUSH2 0x35B2 PUSH4 0x1D595CDD PUSH1 0xE2 SHL SWAP2 DUP3 DUP9 DUP3 ADD MSTORE PUSH2 0x64F PUSH2 0x607F JUMP JUMPDEST DUP8 SLOAD PUSH1 0x0 MSTORE PUSH1 0xF DUP6 MSTORE PUSH1 0x1 DUP1 PUSH1 0xA0 SHL SUB DUP7 PUSH1 0x0 KECCAK256 SLOAD AND SWAP1 DUP7 MLOAD SWAP1 PUSH2 0x35D5 DUP3 PUSH2 0x56EC JUMP JUMPDEST PUSH1 0x24 DUP3 MSTORE PUSH32 0x50617469656E7420617070726F76656420796F75722061636365737320726571 DUP8 DUP4 ADD MSTORE DUP8 DUP3 ADD MSTORE PUSH2 0x6D2 PUSH2 0x607F JUMP JUMPDEST SLOAD SWAP5 SLOAD SWAP2 DUP4 MLOAD SWAP3 DUP4 MSTORE DUP3 ADD MSTORE LOG2 STOP JUMPDEST CALLVALUE PUSH2 0x487 JUMPI PUSH1 0x20 DUP1 PUSH1 0x3 NOT CALLDATASIZE ADD SLT PUSH2 0x487 JUMPI PUSH32 0xAB68BAC660DC4DC217AAF31B805CC6D0805EB6EAD55C290A05A5A0ADFE707F8E PUSH1 0x40 PUSH1 0x4 CALLDATALOAD SWAP3 CALLER PUSH1 0x0 MSTORE PUSH1 0xD DUP2 MSTORE PUSH2 0x366E DUP3 PUSH1 0x0 KECCAK256 SLOAD SWAP5 PUSH2 0x34F3 DUP7 ISZERO ISZERO PUSH2 0x60A9 JUMP JUMPDEST POP SWAP4 PUSH1 0x6 DUP6 ADD DUP1 SLOAD PUSH2 0x3682 PUSH1 0xFF DUP3 AND PUSH2 0x6135 JUMP JUMPDEST PUSH2 0xFFFF NOT AND SWAP1 SSTORE DUP3 MLOAD SWAP5 PUSH2 0x3695 DUP7 PUSH2 0x56EC JUMP JUMPDEST PUSH1 0x22 DUP7 MSTORE PUSH32 0x596F752064656E69656420646F63746F72277320616363657373207265717565 DUP4 DUP8 ADD MSTORE PUSH2 0x36D5 PUSH2 0x1CDD PUSH1 0xF2 SHL SWAP7 DUP8 DUP7 DUP3 ADD MSTORE PUSH2 0x64F PUSH2 0x607F JUMP JUMPDEST PUSH2 0x360A PUSH1 0x2 DUP3 ADD SWAP7 DUP8 SLOAD PUSH1 0x0 MSTORE PUSH1 0xF DUP6 MSTORE PUSH1 0x1 DUP1 PUSH1 0xA0 SHL SUB DUP7 PUSH1 0x0 KECCAK256 SLOAD AND SWAP1 DUP7 MLOAD SWAP1 PUSH2 0x3700 DUP3 PUSH2 0x56EC JUMP JUMPDEST PUSH1 0x22 DUP3 MSTORE PUSH32 0x50617469656E742064656E69656420796F757220616363657373207265717565 DUP8 DUP4 ADD MSTORE DUP8 DUP3 ADD MSTORE PUSH2 0x6D2 PUSH2 0x607F JUMP JUMPDEST CALLVALUE PUSH2 0x487 JUMPI PUSH1 0x20 CALLDATASIZE PUSH1 0x3 NOT ADD SLT PUSH2 0x487 JUMPI PUSH1 0x4 CALLDATALOAD PUSH2 0x3757 PUSH1 0x15 SLOAD DUP3 GT ISZERO PUSH2 0x648C JUMP JUMPDEST PUSH1 0x0 MSTORE PUSH1 0x7 PUSH1 0x20 MSTORE PUSH2 0x483 PUSH2 0x3772 PUSH1 0x4 PUSH1 0x40 PUSH1 0x0 KECCAK256 ADD PUSH2 0x672B JUMP JUMPDEST PUSH1 0x40 MLOAD SWAP2 DUP3 SWAP2 PUSH1 0x20 DUP4 MSTORE PUSH1 0x20 DUP4 ADD SWAP1 PUSH2 0x5A1B JUMP JUMPDEST CALLVALUE PUSH2 0x487 JUMPI PUSH1 0x80 CALLDATASIZE PUSH1 0x3 NOT ADD SLT PUSH2 0x487 JUMPI PUSH1 0x1 PUSH1 0x1 PUSH1 0x40 SHL SUB PUSH1 0x4 CALLDATALOAD PUSH1 0x24 CALLDATALOAD DUP3 DUP2 GT PUSH2 0x487 JUMPI PUSH2 0x37BA SWAP1 CALLDATASIZE SWAP1 PUSH1 0x4 ADD PUSH2 0x5886 JUMP JUMPDEST SWAP1 PUSH1 0x44 CALLDATALOAD DUP4 DUP2 GT PUSH2 0x487 JUMPI PUSH2 0x37D3 SWAP1 CALLDATASIZE SWAP1 PUSH1 0x4 ADD PUSH2 0x5886 JUMP JUMPDEST SWAP3 PUSH1 0x64 CALLDATALOAD SWAP1 DUP2 GT PUSH2 0x487 JUMPI PUSH2 0x37EC SWAP1 CALLDATASIZE SWAP1 PUSH1 0x4 ADD PUSH2 0x5886 JUMP JUMPDEST SWAP3 DUP3 MLOAD ISZERO PUSH2 0x3AC5 JUMPI DUP1 MLOAD ISZERO PUSH2 0x3A80 JUMPI DUP2 PUSH1 0x0 MSTORE PUSH1 0x20 SWAP4 PUSH1 0xE DUP6 MSTORE PUSH1 0x1 DUP1 PUSH1 0xA0 SHL SUB SWAP4 DUP5 PUSH1 0x40 PUSH1 0x0 KECCAK256 SLOAD AND CALLER EQ DUP1 ISZERO PUSH2 0x3A29 JUMPI JUMPDEST ISZERO PUSH2 0x39BE JUMPI DUP4 PUSH1 0x0 MSTORE PUSH1 0x10 DUP7 MSTORE PUSH1 0x40 PUSH1 0x0 KECCAK256 DUP1 SLOAD SWAP6 PUSH1 0x40 MLOAD PUSH2 0x3840 DUP2 PUSH2 0x5663 JUMP JUMPDEST DUP8 DUP2 MSTORE DUP9 DUP2 ADD SWAP3 DUP8 DUP5 MSTORE PUSH1 0x40 DUP3 ADD SWAP7 DUP6 DUP9 MSTORE PUSH1 0x60 DUP4 ADD SWAP1 DUP2 MSTORE PUSH1 0x80 DUP4 ADD SWAP7 DUP8 MSTORE PUSH1 0xA0 DUP4 ADD SWAP3 TIMESTAMP DUP5 MSTORE PUSH1 0xC0 DUP2 ADD SWAP4 CALLER DUP6 MSTORE PUSH1 0xE0 DUP3 ADD SWAP4 PUSH1 0x1 DUP6 MSTORE PUSH1 0x1 PUSH1 0x40 SHL DUP14 LT ISZERO PUSH2 0xBC6 JUMPI DUP13 PUSH2 0x3895 SWAP2 PUSH1 0x1 DUP3 ADD DUP2 SSTORE PUSH2 0x5824 JUMP JUMPDEST SWAP2 SWAP1 SWAP2 PUSH2 0x39A8 JUMPI PUSH2 0x38FB PUSH2 0x399D SWAP11 PUSH2 0x38F1 DUP10 SWAP7 PUSH2 0x38E7 PUSH32 0xF7A49FDC3237B4F9F9164500D541961973468EDF75064ADA7CA5A0A0E46B7ADB SWAP16 PUSH2 0x3984 SWAP14 PUSH1 0x6 SWAP10 MLOAD DUP10 SSTORE MLOAD PUSH1 0x1 DUP10 ADD SSTORE MLOAD PUSH1 0x2 DUP9 ADD PUSH2 0x5EC5 JUMP JUMPDEST MLOAD PUSH1 0x3 DUP7 ADD PUSH2 0x5EC5 JUMP JUMPDEST MLOAD PUSH1 0x4 DUP5 ADD PUSH2 0x5EC5 JUMP JUMPDEST MLOAD PUSH1 0x5 DUP3 ADD SSTORE ADD SWAP3 MLOAD AND DUP3 SLOAD SWAP2 PUSH1 0xFF PUSH1 0xA0 SHL SWAP1 MLOAD ISZERO ISZERO PUSH1 0xA0 SHL AND SWAP2 PUSH11 0xFFFFFFFFFFFFFFFFFFFFFF PUSH1 0xA8 SHL AND OR OR SWAP1 SSTORE DUP6 PUSH1 0x0 MSTORE PUSH1 0xE DUP9 MSTORE PUSH1 0x40 PUSH1 0x0 KECCAK256 SLOAD AND PUSH1 0x40 MLOAD PUSH2 0x3945 DUP2 PUSH2 0x56EC JUMP JUMPDEST PUSH1 0x25 DUP2 MSTORE PUSH32 0x4E657720656E63727970746564206D65646963616C207265636F72642075706C DUP10 DUP3 ADD MSTORE PUSH5 0x1BD8591959 PUSH1 0xDA SHL PUSH1 0x40 DUP3 ADD MSTORE PUSH2 0x6D2 PUSH2 0x5F8C JUMP JUMPDEST PUSH1 0x40 MLOAD SWAP2 DUP3 SWAP2 DUP7 DUP4 MSTORE PUSH1 0x40 DUP9 DUP5 ADD MSTORE PUSH1 0x40 DUP4 ADD SWAP1 PUSH2 0x57CE JUMP JUMPDEST SUB SWAP1 LOG2 PUSH1 0x40 MLOAD SWAP1 DUP2 MSTORE RETURN JUMPDEST PUSH4 0x4E487B71 PUSH1 0xE0 SHL PUSH1 0x0 MSTORE PUSH1 0x0 PUSH1 0x4 MSTORE PUSH1 0x24 PUSH1 0x0 REVERT JUMPDEST PUSH1 0x40 MLOAD PUSH3 0x461BCD PUSH1 0xE5 SHL DUP2 MSTORE PUSH1 0x4 DUP2 ADD DUP8 SWAP1 MSTORE PUSH1 0x38 PUSH1 0x24 DUP3 ADD MSTORE PUSH32 0x556E617574686F72697A65643A204F6E6C792070617469656E74206F72206170 PUSH1 0x44 DUP3 ADD MSTORE PUSH32 0x70726F76656420646F63746F722063616E2075706C6F61640000000000000000 PUSH1 0x64 DUP3 ADD MSTORE PUSH1 0x84 SWAP1 REVERT JUMPDEST POP CALLER PUSH1 0x0 MSTORE PUSH1 0xC DUP7 MSTORE PUSH1 0x40 PUSH1 0x0 KECCAK256 SLOAD PUSH1 0x0 MSTORE PUSH1 0x6 DUP7 MSTORE PUSH1 0xFF PUSH1 0x5 PUSH1 0x40 PUSH1 0x0 KECCAK256 ADD SLOAD AND DUP1 ISZERO PUSH2 0x381F JUMPI POP DUP4 PUSH1 0x0 MSTORE PUSH1 0x12 DUP7 MSTORE PUSH1 0x40 PUSH1 0x0 KECCAK256 CALLER PUSH1 0x0 MSTORE PUSH1 0xC DUP8 MSTORE PUSH1 0x40 PUSH1 0x0 KECCAK256 SLOAD PUSH1 0x0 MSTORE DUP7 MSTORE PUSH1 0xFF PUSH1 0x40 PUSH1 0x0 KECCAK256 SLOAD AND PUSH2 0x381F JUMP JUMPDEST PUSH1 0x40 MLOAD PUSH3 0x461BCD PUSH1 0xE5 SHL DUP2 MSTORE PUSH1 0x20 PUSH1 0x4 DUP3 ADD MSTORE PUSH1 0x1A PUSH1 0x24 DUP3 ADD MSTORE PUSH32 0x456E6372797074656420414553206B6579207265717569726564000000000000 PUSH1 0x44 DUP3 ADD MSTORE PUSH1 0x64 SWAP1 REVERT JUMPDEST PUSH1 0x40 MLOAD PUSH3 0x461BCD PUSH1 0xE5 SHL DUP2 MSTORE PUSH1 0x20 PUSH1 0x4 DUP3 ADD MSTORE PUSH1 0x12 PUSH1 0x24 DUP3 ADD MSTORE PUSH18 0x12541194C81A185CDA081C995C5D5A5C9959 PUSH1 0x72 SHL PUSH1 0x44 DUP3 ADD MSTORE PUSH1 0x64 SWAP1 REVERT JUMPDEST CALLVALUE PUSH2 0x487 JUMPI PUSH1 0x20 DUP1 PUSH1 0x3 NOT CALLDATASIZE ADD SLT PUSH2 0x487 JUMPI PUSH1 0x4 CALLDATALOAD PUSH2 0x3B22 PUSH1 0x14 SLOAD DUP3 GT ISZERO PUSH2 0x6448 JUMP JUMPDEST PUSH1 0x15 SLOAD SWAP2 PUSH2 0x3B2F DUP4 PUSH2 0x59D7 JUMP JUMPDEST SWAP3 PUSH2 0x3B3D PUSH1 0x40 MLOAD SWAP5 DUP6 PUSH2 0x5707 JUMP JUMPDEST DUP1 DUP5 MSTORE PUSH2 0x3B4C PUSH1 0x1F NOT SWAP2 PUSH2 0x59D7 JUMP JUMPDEST ADD CALLDATASIZE DUP3 DUP6 ADD CALLDATACOPY PUSH1 0x0 SWAP2 PUSH1 0x1 PUSH1 0x17 SLOAD SWAP1 JUMPDEST DUP2 DUP2 GT ISZERO PUSH2 0x3BEA JUMPI POP POP POP PUSH2 0x3B70 DUP3 PUSH2 0x6686 JUMP JUMPDEST SWAP3 PUSH1 0x0 JUMPDEST DUP4 DUP2 LT PUSH2 0x3B89 JUMPI PUSH1 0x40 MLOAD DUP1 PUSH2 0x483 DUP8 DUP3 PUSH2 0x5AFB JUMP JUMPDEST DUP1 PUSH2 0x3B97 PUSH2 0x3BE5 SWAP3 DUP5 PUSH2 0x6646 JUMP JUMPDEST MLOAD PUSH1 0x0 MSTORE PUSH1 0x7 DUP5 MSTORE PUSH1 0x40 PUSH1 0x0 KECCAK256 PUSH2 0x3BD6 PUSH1 0x4 PUSH1 0x40 MLOAD SWAP3 PUSH2 0x3BB6 DUP5 PUSH2 0x5648 JUMP JUMPDEST DUP1 SLOAD DUP5 MSTORE PUSH2 0x3BC6 PUSH1 0x1 DUP3 ADD PUSH2 0x5728 JUMP JUMPDEST DUP9 DUP6 ADD MSTORE PUSH2 0x285B PUSH1 0x2 DUP3 ADD PUSH2 0x66D6 JUMP JUMPDEST PUSH1 0x80 DUP3 ADD MSTORE PUSH2 0x2336 DUP3 DUP9 PUSH2 0x6646 JUMP JUMPDEST PUSH2 0x3B74 JUMP JUMPDEST DUP1 PUSH1 0x0 MSTORE PUSH1 0x9 DUP1 DUP6 MSTORE DUP4 PUSH1 0x2 PUSH1 0x40 PUSH1 0x0 KECCAK256 ADD SLOAD EQ PUSH2 0x3C12 JUMPI JUMPDEST POP PUSH2 0x3C0D SWAP1 PUSH2 0x6070 JUMP JUMPDEST PUSH2 0x3B5C JUMP JUMPDEST PUSH1 0x1 PUSH1 0x0 JUMPDEST DUP8 DUP2 LT PUSH2 0x3C54 JUMPI JUMPDEST POP ISZERO PUSH2 0x3C03 JUMPI DUP2 SWAP6 PUSH2 0x3C4D SWAP2 PUSH2 0x3C0D SWAP4 PUSH1 0x0 MSTORE DUP7 MSTORE PUSH1 0x1 PUSH1 0x40 PUSH1 0x0 KECCAK256 ADD SLOAD PUSH2 0x3C47 DUP3 DUP11 PUSH2 0x6646 JUMP JUMPDEST MSTORE PUSH2 0x6070 JUMP JUMPDEST SWAP5 SWAP1 PUSH2 0x3C03 JUMP JUMPDEST PUSH2 0x3C5E DUP2 DUP11 PUSH2 0x6646 JUMP JUMPDEST MLOAD DUP5 PUSH1 0x0 MSTORE DUP4 DUP9 MSTORE PUSH1 0x1 PUSH1 0x40 PUSH1 0x0 KECCAK256 ADD SLOAD EQ PUSH2 0x3C82 JUMPI PUSH2 0x3C7D SWAP1 PUSH2 0x6070 JUMP JUMPDEST PUSH2 0x3C17 JUMP JUMPDEST POP POP PUSH1 0x0 DUP9 PUSH2 0x3C1F JUMP JUMPDEST PUSH2 0x100 CALLDATASIZE PUSH1 0x3 NOT ADD SLT PUSH2 0x487 JUMPI PUSH1 0x4 CALLDATALOAD PUSH1 0x1 PUSH1 0x1 PUSH1 0x40 SHL SUB DUP2 GT PUSH2 0x487 JUMPI PUSH2 0x3CB8 SWAP1 CALLDATASIZE SWAP1 PUSH1 0x4 ADD PUSH2 0x5886 JUMP JUMPDEST PUSH1 0x24 CALLDATALOAD SWAP1 PUSH1 0x1 PUSH1 0x1 PUSH1 0x40 SHL SUB DUP3 GT PUSH2 0x487 JUMPI CALLDATASIZE PUSH1 0x23 DUP4 ADD SLT ISZERO PUSH2 0x487 JUMPI DUP2 PUSH1 0x4 ADD CALLDATALOAD PUSH2 0x3CE3 DUP2 PUSH2 0x59D7 JUMP JUMPDEST SWAP3 PUSH2 0x3CF1 PUSH1 0x40 MLOAD SWAP5 DUP6 PUSH2 0x5707 JUMP JUMPDEST DUP2 DUP5 MSTORE PUSH1 0x24 PUSH1 0x20 DUP6 ADD SWAP3 PUSH1 0x5 SHL DUP3 ADD ADD SWAP1 CALLDATASIZE DUP3 GT PUSH2 0x487 JUMPI PUSH1 0x24 DUP2 ADD SWAP3 JUMPDEST DUP3 DUP5 LT PUSH2 0x420F JUMPI DUP6 DUP6 PUSH1 0x44 CALLDATALOAD PUSH1 0x1 PUSH1 0x1 PUSH1 0xA0 SHL SUB DUP2 AND SWAP1 SUB PUSH2 0x487 JUMPI PUSH1 0x64 CALLDATALOAD SWAP2 PUSH1 0x1 PUSH1 0x1 PUSH1 0x40 SHL SUB DUP4 GT PUSH2 0x487 JUMPI CALLDATASIZE PUSH1 0x23 DUP5 ADD SLT ISZERO PUSH2 0x487 JUMPI DUP3 PUSH1 0x4 ADD CALLDATALOAD SWAP3 PUSH2 0x3D57 DUP5 PUSH2 0x59D7 JUMP JUMPDEST SWAP4 PUSH2 0x3D65 PUSH1 0x40 MLOAD SWAP6 DUP7 PUSH2 0x5707 JUMP JUMPDEST DUP1 DUP6 MSTORE PUSH1 0x24 PUSH1 0x20 DUP7 ADD SWAP2 PUSH1 0x5 SHL DUP4 ADD ADD SWAP2 CALLDATASIZE DUP4 GT PUSH2 0x487 JUMPI PUSH1 0x24 ADD SWAP1 JUMPDEST DUP3 DUP3 LT PUSH2 0x41FF JUMPI POP POP POP PUSH1 0x84 CALLDATALOAD PUSH1 0x1 PUSH1 0x1 PUSH1 0x40 SHL SUB DUP2 GT PUSH2 0x487 JUMPI PUSH2 0x3DAB SWAP1 CALLDATASIZE SWAP1 PUSH1 0x4 ADD PUSH2 0x59EE JUMP JUMPDEST PUSH1 0xA4 CALLDATALOAD PUSH1 0x1 PUSH1 0x1 PUSH1 0xA0 SHL SUB DUP2 AND SWAP1 SUB PUSH2 0x487 JUMPI PUSH1 0xC4 CALLDATALOAD PUSH1 0x1 PUSH1 0x1 PUSH1 0x40 SHL SUB DUP2 GT PUSH2 0x487 JUMPI PUSH2 0x3DDD SWAP1 CALLDATASIZE SWAP1 PUSH1 0x4 ADD PUSH2 0x59EE JUMP JUMPDEST SWAP1 SWAP2 PUSH1 0xE4 CALLDATALOAD PUSH1 0x1 PUSH1 0x1 PUSH1 0x40 SHL SUB DUP2 GT PUSH2 0x487 JUMPI PUSH2 0x3DFE SWAP1 CALLDATASIZE SWAP1 PUSH1 0x4 ADD PUSH2 0x5886 JUMP JUMPDEST SWAP7 PUSH2 0x3E0C PUSH1 0x1B SLOAD CALLVALUE EQ PUSH2 0x63DA JUMP JUMPDEST PUSH1 0x44 CALLDATALOAD PUSH1 0x1 PUSH1 0x1 PUSH1 0xA0 SHL SUB AND PUSH1 0x0 SWAP1 DUP2 MSTORE PUSH1 0xB PUSH1 0x20 MSTORE PUSH1 0x40 SWAP1 KECCAK256 SLOAD PUSH1 0xFF AND PUSH2 0x41BA JUMPI PUSH2 0x3E39 PUSH1 0x15 SLOAD PUSH2 0x6070 JUMP JUMPDEST SWAP1 DUP2 PUSH1 0x15 SSTORE PUSH1 0x40 MLOAD SWAP1 PUSH2 0x3E4B DUP3 PUSH2 0x5648 JUMP JUMPDEST DUP3 DUP3 MSTORE PUSH1 0x20 DUP3 ADD SWAP3 DUP10 DUP5 MSTORE PUSH1 0x40 DUP4 ADD SWAP2 DUP10 DUP4 MSTORE PUSH1 0x1 DUP1 PUSH1 0xA0 SHL SUB PUSH1 0x44 CALLDATALOAD AND PUSH1 0x60 DUP6 ADD MSTORE PUSH1 0x80 DUP5 ADD MSTORE PUSH1 0x0 MSTORE PUSH1 0x7 PUSH1 0x20 MSTORE PUSH2 0x3E92 PUSH1 0x40 PUSH1 0x0 KECCAK256 SWAP4 DUP4 MLOAD DUP6 SSTORE MLOAD PUSH1 0x1 DUP6 ADD PUSH2 0x5EC5 JUMP JUMPDEST MLOAD DUP1 MLOAD SWAP1 PUSH1 0x1 PUSH1 0x40 SHL DUP3 GT PUSH2 0xBC6 JUMPI PUSH1 0x2 DUP5 ADD SLOAD DUP3 PUSH1 0x2 DUP7 ADD SSTORE DUP1 DUP4 LT PUSH2 0x4141 JUMPI JUMPDEST POP PUSH1 0x20 ADD PUSH1 0x2 DUP5 ADD PUSH1 0x0 MSTORE PUSH1 0x20 PUSH1 0x0 KECCAK256 PUSH1 0x0 SWAP2 JUMPDEST DUP4 DUP4 LT PUSH2 0x4124 JUMPI POP POP POP PUSH1 0x60 DUP3 ADD MLOAD PUSH1 0x3 DUP5 ADD DUP1 SLOAD PUSH1 0x1 PUSH1 0x1 PUSH1 0xA0 SHL SUB NOT AND PUSH1 0x1 PUSH1 0x1 PUSH1 0xA0 SHL SUB SWAP3 SWAP1 SWAP3 AND SWAP2 SWAP1 SWAP2 OR SWAP1 SSTORE POP PUSH1 0x80 ADD MLOAD DUP1 MLOAD SWAP2 SWAP1 PUSH1 0x1 PUSH1 0x1 PUSH1 0x40 SHL SUB DUP4 GT PUSH2 0xBC6 JUMPI PUSH1 0x1 PUSH1 0x40 SHL DUP4 GT PUSH2 0xBC6 JUMPI PUSH1 0x20 PUSH1 0x4 SWAP2 DUP3 DUP5 ADD SLOAD DUP6 DUP5 DUP7 ADD SSTORE DUP1 DUP7 LT PUSH2 0x4105 JUMPI JUMPDEST POP ADD SWAP2 ADD PUSH1 0x0 MSTORE PUSH1 0x20 PUSH1 0x0 KECCAK256 PUSH1 0x0 JUMPDEST DUP4 DUP2 LT PUSH2 0x40F1 JUMPI POP POP POP POP PUSH1 0x44 CALLDATALOAD PUSH1 0x1 PUSH1 0x1 PUSH1 0xA0 SHL SUB SWAP1 DUP2 AND PUSH1 0x0 DUP2 DUP2 MSTORE PUSH1 0xB PUSH1 0x20 SWAP1 DUP2 MSTORE PUSH1 0x40 DUP1 DUP4 KECCAK256 DUP1 SLOAD PUSH1 0xFF NOT AND PUSH1 0x1 OR SWAP1 SSTORE PUSH1 0x15 SLOAD PUSH1 0xD DUP4 MSTORE DUP2 DUP5 KECCAK256 DUP2 SWAP1 SSTORE DUP4 MSTORE PUSH1 0xE SWAP1 SWAP2 MSTORE DUP2 KECCAK256 DUP1 SLOAD PUSH1 0x1 PUSH1 0x1 PUSH1 0xA0 SHL SUB NOT AND SWAP1 SWAP3 OR SWAP1 SWAP2 SSTORE PUSH1 0x19 SLOAD SWAP1 SWAP2 DUP3 SWAP2 DUP3 SWAP2 DUP3 SWAP2 DUP3 SWAP2 AND CALLVALUE ISZERO PUSH2 0x40E7 JUMPI JUMPDEST CALLVALUE SWAP2 CALL ISZERO PUSH2 0x1010 JUMPI PUSH32 0xC66C47C46A9613CB876EF0205CA8C4597EB05703969F8458F4A762107E865DC2 SWAP7 PUSH2 0x3FF9 SWAP5 PUSH2 0x3FED SWAP3 PUSH1 0x44 CALLDATALOAD SWAP2 PUSH2 0x69C5 JUMP JUMPDEST PUSH1 0x44 CALLDATALOAD SWAP2 PUSH1 0xA4 CALLDATALOAD PUSH2 0x6D40 JUMP JUMPDEST PUSH2 0x4058 PUSH1 0x40 MLOAD PUSH2 0x4008 DUP2 PUSH2 0x56EC JUMP JUMPDEST PUSH1 0x2C DUP2 MSTORE PUSH32 0x596F752068617665207375636365737366756C6C7920636F6D706C6574656420 PUSH1 0x20 DUP3 ADD MSTORE PUSH12 0x3932B3B4B9BA3930BA34B7B7 PUSH1 0xA1 SHL PUSH1 0x40 DUP3 ADD MSTORE PUSH2 0x404F PUSH2 0x657A JUMP JUMPDEST SWAP1 PUSH1 0x44 CALLDATALOAD PUSH2 0x61E5 JUMP JUMPDEST PUSH1 0x19 SLOAD PUSH1 0x40 MLOAD PUSH2 0x40B6 SWAP2 PUSH1 0x1 PUSH1 0x1 PUSH1 0xA0 SHL SUB AND SWAP1 PUSH2 0x4075 DUP2 PUSH2 0x56EC JUMP JUMPDEST PUSH1 0x26 DUP2 MSTORE PUSH32 0x4E65772050617469656E74206973207265676973746572656420737563636573 PUSH1 0x20 DUP3 ADD MSTORE PUSH6 0x7366756C6C79 PUSH1 0xD0 SHL PUSH1 0x40 DUP3 ADD MSTORE PUSH2 0x6D2 PUSH2 0x657A JUMP JUMPDEST PUSH2 0x869 PUSH1 0x15 SLOAD SWAP2 PUSH2 0x40D9 PUSH1 0x40 MLOAD SWAP5 DUP6 SWAP5 DUP6 MSTORE PUSH1 0x60 PUSH1 0x20 DUP7 ADD MSTORE PUSH1 0x60 DUP6 ADD SWAP1 PUSH2 0x57CE JUMP JUMPDEST SWAP1 DUP4 DUP3 SUB PUSH1 0x40 DUP6 ADD MSTORE PUSH2 0x5DA6 JUMP JUMPDEST PUSH2 0x8FC SWAP2 POP PUSH2 0x3FB2 JUMP JUMPDEST PUSH1 0x1 SWAP1 PUSH1 0x20 DUP5 MLOAD SWAP5 ADD SWAP4 DUP2 DUP5 ADD SSTORE ADD PUSH2 0x3F40 JUMP JUMPDEST PUSH2 0x411E SWAP1 DUP5 DUP7 ADD PUSH1 0x0 MSTORE DUP7 DUP5 PUSH1 0x0 KECCAK256 SWAP2 DUP3 ADD SWAP2 ADD PUSH2 0x5E69 JUMP JUMPDEST DUP13 PUSH2 0x3F31 JUMP JUMPDEST PUSH1 0x1 PUSH1 0x20 DUP3 PUSH2 0x4135 DUP4 SWAP5 MLOAD DUP7 PUSH2 0x5EC5 JUMP JUMPDEST ADD SWAP3 ADD SWAP3 ADD SWAP2 SWAP1 PUSH2 0x3EC8 JUMP JUMPDEST PUSH1 0x2 DUP6 ADD PUSH1 0x0 MSTORE PUSH1 0x20 PUSH1 0x0 KECCAK256 SWAP1 DUP4 DUP3 ADD JUMPDEST DUP2 DUP4 ADD DUP2 LT PUSH2 0x4162 JUMPI POP POP PUSH2 0x3EB4 JUMP JUMPDEST DUP1 PUSH2 0x416F PUSH1 0x1 SWAP3 SLOAD PUSH2 0x560E JUMP JUMPDEST DUP1 PUSH2 0x417C JUMPI JUMPDEST POP ADD PUSH2 0x4152 JUMP JUMPDEST PUSH1 0x1F SWAP1 DUP2 DUP2 GT DUP5 EQ PUSH2 0x4195 JUMPI POP POP PUSH1 0x0 DUP2 SSTORE JUMPDEST DUP16 PUSH2 0x4175 JUMP JUMPDEST PUSH2 0x41B1 PUSH1 0x0 SWAP3 DUP5 DUP5 MSTORE PUSH1 0x20 DUP5 KECCAK256 SWAP3 ADD PUSH1 0x5 SHR DUP3 ADD DUP6 DUP4 ADD PUSH2 0x5E69 JUMP JUMPDEST DUP2 DUP4 SSTORE SSTORE PUSH2 0x418F JUMP JUMPDEST PUSH1 0x40 MLOAD PUSH3 0x461BCD PUSH1 0xE5 SHL DUP2 MSTORE PUSH1 0x20 PUSH1 0x4 DUP3 ADD MSTORE PUSH1 0x1D PUSH1 0x24 DUP3 ADD MSTORE PUSH32 0x50617469656E7420697320616C72656164792072656769737465726564000000 PUSH1 0x44 DUP3 ADD MSTORE PUSH1 0x64 SWAP1 REVERT JUMPDEST DUP2 CALLDATALOAD DUP2 MSTORE PUSH1 0x20 SWAP2 DUP3 ADD SWAP2 ADD PUSH2 0x3D82 JUMP JUMPDEST DUP4 CALLDATALOAD PUSH1 0x1 PUSH1 0x1 PUSH1 0x40 SHL SUB DUP2 GT PUSH2 0x487 JUMPI PUSH1 0x20 SWAP2 PUSH2 0x4233 DUP4 SWAP3 PUSH1 0x24 CALLDATASIZE SWAP2 DUP8 ADD ADD PUSH2 0x5886 JUMP JUMPDEST DUP2 MSTORE ADD SWAP4 ADD SWAP3 PUSH2 0x3D0F JUMP JUMPDEST CALLVALUE PUSH2 0x487 JUMPI PUSH1 0x20 DUP1 PUSH1 0x3 NOT CALLDATASIZE ADD SLT PUSH2 0x487 JUMPI PUSH1 0x4 CALLDATALOAD PUSH2 0x4261 PUSH1 0x15 SLOAD DUP3 GT ISZERO PUSH2 0x648C JUMP JUMPDEST PUSH1 0x0 MSTORE PUSH1 0x4 DUP2 MSTORE PUSH1 0x40 PUSH1 0x0 KECCAK256 SWAP1 DUP2 SLOAD PUSH2 0x4279 DUP2 PUSH2 0x59D7 JUMP JUMPDEST SWAP1 PUSH2 0x4287 PUSH1 0x40 MLOAD SWAP3 DUP4 PUSH2 0x5707 JUMP JUMPDEST DUP1 DUP3 MSTORE DUP3 DUP3 ADD DUP1 SWAP5 PUSH1 0x0 MSTORE DUP4 PUSH1 0x0 KECCAK256 PUSH1 0x0 SWAP2 JUMPDEST DUP4 DUP4 LT PUSH2 0x430E JUMPI PUSH1 0x40 DUP1 MLOAD DUP8 DUP2 MSTORE DUP7 MLOAD DUP2 DUP10 ADD DUP2 SWAP1 MSTORE DUP10 SWAP3 DUP3 ADD SWAP1 DUP10 PUSH1 0x0 JUMPDEST DUP3 DUP2 LT PUSH2 0x42C6 JUMPI DUP5 DUP5 SUB DUP6 RETURN JUMPDEST DUP6 MLOAD DUP1 MLOAD DUP6 MSTORE DUP1 DUP4 ADD MLOAD DUP6 DUP5 ADD MSTORE PUSH1 0x40 DUP1 DUP3 ADD MLOAD SWAP1 DUP7 ADD MSTORE PUSH1 0x60 DUP1 DUP3 ADD MLOAD SWAP1 DUP7 ADD MSTORE PUSH1 0x80 DUP1 DUP3 ADD MLOAD SWAP1 DUP7 ADD MSTORE PUSH1 0xA0 SWAP1 DUP2 ADD MLOAD SWAP1 DUP6 ADD MSTORE SWAP5 DUP2 ADD SWAP5 PUSH1 0xC0 SWAP1 SWAP4 ADD SWAP3 PUSH1 0x1 ADD PUSH2 0x42B9 JUMP JUMPDEST PUSH1 0x6 DUP7 PUSH1 0x1 SWAP3 PUSH1 0x40 MLOAD PUSH2 0x4320 DUP2 PUSH2 0x569B JUMP JUMPDEST DUP6 SLOAD DUP2 MSTORE DUP5 DUP7 ADD SLOAD DUP4 DUP3 ADD MSTORE PUSH1 0x2 DUP7 ADD SLOAD PUSH1 0x40 DUP3 ADD MSTORE PUSH1 0x3 DUP7 ADD SLOAD PUSH1 0x60 DUP3 ADD MSTORE PUSH1 0x4 DUP7 ADD SLOAD PUSH1 0x80 DUP3 ADD MSTORE PUSH1 0x5 DUP7 ADD SLOAD PUSH1 0xA0 DUP3 ADD MSTORE DUP2 MSTORE ADD SWAP3 ADD SWAP3 ADD SWAP2 SWAP1 PUSH2 0x429A JUMP JUMPDEST CALLVALUE PUSH2 0x487 JUMPI PUSH1 0x20 DUP1 PUSH1 0x3 NOT CALLDATASIZE ADD SLT PUSH2 0x487 JUMPI PUSH1 0x4 CALLDATALOAD PUSH1 0x1 DUP1 PUSH1 0xA0 SHL SUB PUSH2 0x438D DUP2 PUSH1 0x19 SLOAD AND CALLER EQ PUSH2 0x6313 JUMP JUMPDEST PUSH2 0x439B PUSH1 0x14 SLOAD DUP4 GT ISZERO PUSH2 0x6448 JUMP JUMPDEST DUP2 PUSH1 0x0 MSTORE PUSH1 0x6 DUP4 MSTORE PUSH1 0xFF PUSH1 0x5 PUSH1 0x40 PUSH1 0x0 KECCAK256 ADD SLOAD AND PUSH2 0x44C9 JUMPI PUSH32 0xFB071D6299BD71490CB62D5CE7358D7D43AB700C9B4A8BFF1F869D2D52C0F117 SWAP3 PUSH2 0x449F PUSH1 0x6 SWAP3 DUP5 PUSH1 0x0 MSTORE DUP4 DUP4 MSTORE PUSH2 0x4403 PUSH1 0x5 PUSH1 0x40 PUSH1 0x0 KECCAK256 ADD PUSH1 0xFF DUP2 SLOAD AND ISZERO PUSH1 0xFF DUP1 NOT DUP4 SLOAD AND SWAP2 ISZERO ISZERO AND OR SWAP1 SSTORE JUMP JUMPDEST PUSH2 0x4451 PUSH1 0x40 MLOAD PUSH2 0x4412 DUP2 PUSH2 0x56EC JUMP JUMPDEST PUSH1 0x25 DUP2 MSTORE PUSH32 0x596F75206861766520617070726F76656420446F63746F722072656769737472 DUP6 DUP3 ADD MSTORE PUSH5 0x30BA34B7B7 PUSH1 0xD9 SHL PUSH1 0x40 DUP3 ADD MSTORE PUSH2 0x64F PUSH2 0x6426 JUMP JUMPDEST DUP5 PUSH1 0x0 MSTORE DUP4 DUP4 MSTORE PUSH1 0x2 PUSH1 0x40 PUSH1 0x0 KECCAK256 ADD SLOAD AND PUSH1 0x40 MLOAD PUSH2 0x446E DUP2 PUSH2 0x56B6 JUMP JUMPDEST PUSH1 0x1D DUP2 MSTORE PUSH32 0x596F757220726567697374726174696F6E20697320617070726F766564000000 DUP5 DUP3 ADD MSTORE PUSH2 0x6D2 PUSH2 0x6426 JUMP JUMPDEST PUSH1 0x0 DUP4 DUP2 MSTORE SWAP2 SWAP1 MSTORE PUSH1 0x40 SWAP1 DUP2 SWAP1 KECCAK256 PUSH1 0x5 ADD SLOAD DUP2 MLOAD SWAP3 DUP4 MSTORE PUSH1 0xFF AND ISZERO ISZERO PUSH1 0x20 DUP4 ADD MSTORE DUP2 SWAP1 DUP2 ADD PUSH2 0x869 JUMP JUMPDEST PUSH1 0x40 MLOAD PUSH3 0x461BCD PUSH1 0xE5 SHL DUP2 MSTORE PUSH1 0x4 DUP2 ADD DUP5 SWAP1 MSTORE PUSH1 0x1A PUSH1 0x24 DUP3 ADD MSTORE PUSH32 0x446F63746F7220697320616C726561647920617070726F766564000000000000 PUSH1 0x44 DUP3 ADD MSTORE PUSH1 0x64 SWAP1 REVERT JUMPDEST CALLVALUE PUSH2 0x487 JUMPI PUSH1 0x20 DUP1 PUSH1 0x3 NOT CALLDATASIZE ADD SLT PUSH2 0x487 JUMPI PUSH1 0x4 CALLDATALOAD PUSH2 0x4531 PUSH1 0x15 SLOAD DUP3 GT ISZERO PUSH2 0x648C JUMP JUMPDEST PUSH1 0x17 SLOAD SWAP1 PUSH1 0x0 PUSH1 0x1 JUMPDEST DUP4 DUP2 GT ISZERO PUSH2 0x464C JUMPI POP PUSH2 0x454C SWAP1 PUSH2 0x681F JUMP JUMPDEST SWAP3 PUSH1 0x0 SWAP1 PUSH1 0x1 JUMPDEST DUP5 DUP2 GT ISZERO PUSH2 0x4569 JUMPI PUSH1 0x40 MLOAD DUP1 PUSH2 0x483 DUP9 DUP3 PUSH2 0x5975 JUMP JUMPDEST DUP1 PUSH1 0x0 MSTORE PUSH1 0x9 DUP1 DUP4 MSTORE PUSH1 0x40 PUSH1 0x0 KECCAK256 SWAP1 PUSH1 0x1 DUP3 ADD SLOAD SWAP2 DUP7 DUP4 EQ PUSH2 0x4597 JUMPI JUMPDEST POP POP POP PUSH2 0x4592 SWAP1 PUSH2 0x6070 JUMP JUMPDEST PUSH2 0x4553 JUMP JUMPDEST SWAP2 PUSH1 0xFF PUSH2 0x4592 SWAP5 SWAP7 SWAP3 PUSH2 0x4643 SWAP5 PUSH1 0x40 MLOAD SWAP4 PUSH2 0x45B1 DUP6 PUSH2 0x567F JUMP JUMPDEST DUP2 SLOAD DUP6 MSTORE DUP9 DUP6 ADD MSTORE PUSH1 0x2 DUP2 ADD SLOAD PUSH1 0x40 DUP6 ADD MSTORE PUSH1 0x3 DUP2 ADD SLOAD PUSH1 0x60 DUP6 ADD MSTORE PUSH2 0x45D9 PUSH1 0x4 DUP3 ADD PUSH2 0x5728 JUMP JUMPDEST PUSH1 0x80 DUP6 ADD MSTORE PUSH2 0x45EA PUSH1 0x5 DUP3 ADD PUSH2 0x5728 JUMP JUMPDEST PUSH1 0xA0 DUP6 ADD MSTORE PUSH2 0x45FB PUSH1 0x6 DUP3 ADD PUSH2 0x5728 JUMP JUMPDEST PUSH1 0xC0 DUP6 ADD MSTORE PUSH2 0x460C PUSH1 0x7 DUP3 ADD PUSH2 0x5728 JUMP JUMPDEST PUSH1 0xE0 DUP6 ADD MSTORE PUSH2 0x461D PUSH1 0x8 DUP3 ADD PUSH2 0x5728 JUMP JUMPDEST PUSH2 0x100 DUP6 ADD MSTORE ADD SLOAD AND ISZERO ISZERO PUSH2 0x120 DUP3 ADD MSTORE PUSH2 0x4638 DUP3 DUP11 PUSH2 0x6646 JUMP JUMPDEST MSTORE PUSH2 0x11C4 DUP2 DUP10 PUSH2 0x6646 JUMP JUMPDEST SWAP3 SWAP1 DUP8 DUP1 PUSH2 0x4586 JUMP JUMPDEST DUP1 PUSH1 0x0 MSTORE PUSH1 0x9 DUP6 MSTORE DUP3 PUSH1 0x1 PUSH1 0x40 PUSH1 0x0 KECCAK256 ADD SLOAD EQ PUSH2 0x4672 JUMPI JUMPDEST PUSH2 0x466D SWAP1 PUSH2 0x6070 JUMP JUMPDEST PUSH2 0x453A JUMP JUMPDEST SWAP1 PUSH2 0x467F PUSH2 0x466D SWAP2 PUSH2 0x6070 JUMP JUMPDEST SWAP2 SWAP1 POP PUSH2 0x4664 JUMP JUMPDEST CALLVALUE PUSH2 0x487 JUMPI PUSH1 0x0 CALLDATASIZE PUSH1 0x3 NOT ADD SLT PUSH2 0x487 JUMPI PUSH1 0x20 PUSH1 0x1B SLOAD PUSH1 0x40 MLOAD SWAP1 DUP2 MSTORE RETURN JUMPDEST CALLVALUE PUSH2 0x487 JUMPI PUSH1 0x0 CALLDATASIZE PUSH1 0x3 NOT ADD SLT PUSH2 0x487 JUMPI PUSH1 0x20 PUSH1 0x13 SLOAD PUSH1 0x40 MLOAD SWAP1 DUP2 MSTORE RETURN JUMPDEST CALLVALUE PUSH2 0x487 JUMPI PUSH1 0x20 CALLDATASIZE PUSH1 0x3 NOT ADD SLT PUSH2 0x487 JUMPI PUSH1 0x1 PUSH1 0x1 PUSH1 0xA0 SHL SUB PUSH2 0x46E4 PUSH2 0x55E2 JUMP JUMPDEST AND PUSH1 0x0 MSTORE PUSH1 0xA PUSH1 0x20 MSTORE PUSH1 0x20 PUSH1 0xFF PUSH1 0x40 PUSH1 0x0 KECCAK256 SLOAD AND PUSH1 0x40 MLOAD SWAP1 ISZERO ISZERO DUP2 MSTORE RETURN JUMPDEST CALLVALUE PUSH2 0x487 JUMPI PUSH1 0x20 DUP1 PUSH1 0x3 NOT CALLDATASIZE ADD SLT PUSH2 0x487 JUMPI PUSH1 0x4 CALLDATALOAD PUSH1 0x0 MSTORE PUSH1 0x11 DUP2 MSTORE PUSH1 0x40 PUSH1 0x0 KECCAK256 SWAP1 DUP2 SLOAD SWAP2 PUSH2 0x4730 DUP4 PUSH2 0x59D7 JUMP JUMPDEST SWAP3 PUSH2 0x473E PUSH1 0x40 MLOAD SWAP5 DUP6 PUSH2 0x5707 JUMP JUMPDEST DUP1 DUP5 MSTORE DUP3 DUP5 ADD DUP1 SWAP3 PUSH1 0x0 MSTORE DUP4 PUSH1 0x0 KECCAK256 PUSH1 0x0 SWAP2 JUMPDEST DUP4 DUP4 LT PUSH2 0x480C JUMPI POP POP POP POP PUSH1 0x40 MLOAD SWAP2 DUP1 DUP4 ADD SWAP4 DUP2 DUP5 MSTORE MLOAD DUP1 SWAP5 MSTORE PUSH1 0x40 DUP4 ADD SWAP4 PUSH1 0x40 DUP2 PUSH1 0x5 SHL DUP6 ADD ADD SWAP3 SWAP2 PUSH1 0x0 SWAP6 JUMPDEST DUP3 DUP8 LT PUSH2 0x478C JUMPI DUP6 DUP6 SUB DUP7 RETURN JUMPDEST SWAP1 SWAP2 SWAP3 SWAP4 DUP3 DUP1 PUSH1 0x1 SWAP3 PUSH1 0x3F NOT DUP10 DUP3 SUB ADD DUP6 MSTORE DUP8 MLOAD SWAP1 DUP2 MLOAD DUP2 MSTORE DUP3 DUP3 ADD MLOAD DUP4 DUP3 ADD MSTORE PUSH1 0x40 DUP3 ADD MLOAD PUSH1 0x40 DUP3 ADD MSTORE PUSH1 0x60 DUP1 DUP4 ADD MLOAD SWAP1 DUP3 ADD MSTORE PUSH1 0xE0 DUP1 PUSH2 0x47DE PUSH1 0x80 DUP1 DUP7 ADD MLOAD SWAP1 PUSH2 0x100 DUP1 SWAP2 DUP8 ADD MSTORE DUP6 ADD SWAP1 PUSH2 0x57CE JUMP JUMPDEST SWAP4 PUSH1 0xA0 DUP1 DUP3 ADD MLOAD SWAP1 DUP6 ADD MSTORE PUSH1 0xC0 DUP1 DUP3 ADD MLOAD ISZERO ISZERO SWAP1 DUP6 ADD MSTORE ADD MLOAD ISZERO ISZERO SWAP2 ADD MSTORE SWAP7 ADD SWAP3 ADD SWAP7 ADD SWAP6 SWAP3 SWAP2 SWAP1 SWAP3 PUSH2 0x477F JUMP JUMPDEST PUSH1 0x7 DUP7 PUSH1 0x1 SWAP3 PUSH1 0x40 SWAP10 SWAP9 SWAP10 MLOAD PUSH2 0x4821 DUP2 PUSH2 0x5663 JUMP JUMPDEST DUP6 SLOAD DUP2 MSTORE DUP5 DUP7 ADD SLOAD DUP4 DUP3 ADD MSTORE PUSH1 0x2 DUP7 ADD SLOAD PUSH1 0x40 DUP3 ADD MSTORE PUSH1 0x3 DUP7 ADD SLOAD PUSH1 0x60 DUP3 ADD MSTORE PUSH2 0x484D PUSH1 0x4 DUP8 ADD PUSH2 0x5728 JUMP JUMPDEST PUSH1 0x80 DUP3 ADD MSTORE PUSH1 0x5 DUP7 ADD SLOAD PUSH1 0xA0 DUP3 ADD MSTORE PUSH1 0x6 DUP7 ADD SLOAD PUSH1 0xFF SWAP1 DUP2 DUP2 AND ISZERO ISZERO PUSH1 0xC0 DUP5 ADD MSTORE PUSH1 0x8 SHR AND ISZERO ISZERO PUSH1 0xE0 DUP3 ADD MSTORE DUP2 MSTORE ADD SWAP3 ADD SWAP3 ADD SWAP2 SWAP1 SWAP6 SWAP5 SWAP6 PUSH2 0x4751 JUMP JUMPDEST CALLVALUE PUSH2 0x487 JUMPI PUSH32 0x72C1DAF6E13CE6CA90B14E03629096AD6D0DB94B6CFFDCE97E62CF5008AB1FD4 PUSH1 0x40 PUSH2 0x48BB CALLDATASIZE PUSH2 0x580E JUMP JUMPDEST PUSH2 0x48D0 PUSH1 0x1 DUP1 PUSH1 0xA0 SHL SUB PUSH1 0x19 SLOAD AND CALLER EQ PUSH2 0x6313 JUMP JUMPDEST PUSH2 0x48DE PUSH1 0x13 SLOAD DUP4 GT ISZERO PUSH2 0x638E JUMP JUMPDEST DUP2 PUSH1 0x0 MSTORE PUSH1 0x5 PUSH1 0x20 MSTORE DUP1 PUSH1 0x2 DUP5 PUSH1 0x0 KECCAK256 ADD SSTORE PUSH2 0x19D6 DUP4 MLOAD PUSH2 0x48FE DUP2 PUSH2 0x56EC JUMP JUMPDEST PUSH1 0x23 DUP2 MSTORE PUSH32 0x4D65646963696E65207072696365207570646174656420737563636573736675 PUSH1 0x20 DUP3 ADD MSTORE PUSH3 0x6C6C79 PUSH1 0xE8 SHL DUP6 DUP3 ADD MSTORE PUSH2 0x64F PUSH2 0x636A JUMP JUMPDEST CALLVALUE PUSH2 0x487 JUMPI PUSH2 0x72C PUSH2 0x494C CALLDATASIZE PUSH2 0x580E JUMP JUMPDEST CALLER PUSH1 0x0 MSTORE PUSH32 0x90D667BFA211B72F96ED398BBCFAE5988D97E3A4C929A0F5D46888F6899D77A0 DUP2 PUSH1 0x20 SWAP4 PUSH1 0xA DUP6 MSTORE PUSH2 0x498A PUSH1 0xFF PUSH1 0x40 PUSH1 0x0 KECCAK256 SLOAD AND PUSH2 0x6181 JUMP JUMPDEST PUSH2 0x4993 CALLER PUSH2 0x68F1 JUMP JUMPDEST PUSH1 0x0 MSTORE PUSH1 0x6 DUP6 MSTORE PUSH2 0x49AE PUSH1 0xFF PUSH1 0x5 PUSH1 0x40 PUSH1 0x0 KECCAK256 ADD SLOAD AND PUSH2 0x6535 JUMP JUMPDEST PUSH2 0x49B9 PUSH1 0x16 SLOAD PUSH2 0x6070 JUMP JUMPDEST DUP1 PUSH1 0x16 SSTORE PUSH1 0x4 PUSH2 0x49C8 CALLER PUSH2 0x68F1 JUMP JUMPDEST SWAP2 PUSH1 0x40 MLOAD SWAP3 PUSH2 0x49D6 DUP5 PUSH2 0x5648 JUMP JUMPDEST DUP2 DUP5 MSTORE DUP9 DUP5 ADD DUP6 DUP2 MSTORE PUSH1 0x40 DUP6 ADD SWAP1 DUP8 DUP3 MSTORE PUSH1 0x60 DUP7 ADD SWAP3 DUP4 MSTORE PUSH1 0x80 DUP7 ADD SWAP4 TIMESTAMP DUP6 MSTORE PUSH1 0x0 MSTORE PUSH1 0x8 DUP12 MSTORE PUSH1 0x40 PUSH1 0x0 KECCAK256 SWAP6 MLOAD DUP7 SSTORE MLOAD PUSH1 0x1 DUP7 ADD SSTORE MLOAD PUSH1 0x2 DUP6 ADD SSTORE MLOAD PUSH1 0x3 DUP5 ADD SSTORE MLOAD SWAP2 ADD SSTORE PUSH2 0x4A58 PUSH1 0x16 SLOAD PUSH2 0x4A2B CALLER PUSH2 0x68F1 JUMP JUMPDEST PUSH1 0x40 MLOAD SWAP5 DUP6 SWAP5 TIMESTAMP SWAP4 DUP7 SWAP2 SWAP3 PUSH1 0x80 SWAP4 SWAP7 SWAP6 SWAP5 SWAP2 SWAP7 PUSH1 0xA0 DUP5 ADD SWAP8 DUP5 MSTORE PUSH1 0x20 DUP5 ADD MSTORE PUSH1 0x40 DUP4 ADD MSTORE PUSH1 0x60 DUP3 ADD MSTORE ADD MSTORE JUMP JUMPDEST SUB SWAP1 LOG1 PUSH2 0x4AAD PUSH1 0x40 MLOAD PUSH2 0x4A6A DUP2 PUSH2 0x56EC JUMP JUMPDEST PUSH1 0x29 DUP2 MSTORE PUSH32 0x596F752068617665207375636365737366756C6C792070726573637269626564 DUP5 DUP3 ADD MSTORE PUSH9 0x206D65646963696E65 PUSH1 0xB8 SHL PUSH1 0x40 DUP3 ADD MSTORE PUSH2 0x64F PUSH2 0x6426 JUMP JUMPDEST PUSH1 0x0 MSTORE PUSH1 0x7 DUP2 MSTORE PUSH1 0x1 DUP1 PUSH1 0xA0 SHL SUB PUSH2 0x4B06 DUP2 PUSH1 0x3 PUSH1 0x40 PUSH1 0x0 KECCAK256 ADD SLOAD AND PUSH1 0x40 MLOAD PUSH2 0x4AD5 DUP2 PUSH2 0x56B6 JUMP JUMPDEST PUSH1 0x1E DUP2 MSTORE PUSH32 0x446F63746F72207072657363726962656420796F75206D65646963696E650000 DUP6 DUP3 ADD MSTORE PUSH2 0x6D2 PUSH2 0x6426 JUMP JUMPDEST PUSH1 0x19 SLOAD AND SWAP1 PUSH32 0x446F63746F722070726573637269626564206D65646963696E65207375636365 PUSH1 0x40 MLOAD SWAP2 PUSH2 0x4B39 DUP4 PUSH2 0x56EC JUMP JUMPDEST PUSH1 0x27 DUP4 MSTORE DUP3 ADD MSTORE PUSH7 0x737366756C6C79 PUSH1 0xC8 SHL PUSH1 0x40 DUP3 ADD MSTORE PUSH2 0x6D2 PUSH2 0x6426 JUMP JUMPDEST CALLVALUE PUSH2 0x487 JUMPI PUSH2 0x4B66 CALLDATASIZE PUSH2 0x58A4 JUMP JUMPDEST SWAP1 CALLER PUSH1 0x0 MSTORE PUSH1 0x20 SWAP1 PUSH1 0xA DUP3 MSTORE PUSH2 0x4B83 PUSH1 0xFF PUSH1 0x40 PUSH1 0x0 KECCAK256 SLOAD AND PUSH2 0x6181 JUMP JUMPDEST PUSH2 0x4B91 PUSH1 0x15 SLOAD DUP3 GT ISZERO PUSH2 0x648C JUMP JUMPDEST DUP1 PUSH1 0x0 MSTORE PUSH1 0x7 DUP3 MSTORE PUSH1 0x2 PUSH1 0x40 PUSH1 0x0 KECCAK256 ADD DUP1 SLOAD PUSH1 0x1 PUSH1 0x40 SHL DUP2 LT ISZERO PUSH2 0xBC6 JUMPI PUSH2 0x4BBE SWAP2 PUSH1 0x1 DUP3 ADD DUP2 SSTORE PUSH2 0x64D1 JUMP JUMPDEST PUSH2 0x39A8 JUMPI PUSH2 0x72C SWAP4 PUSH2 0x4BCF SWAP2 PUSH2 0x5EC5 JUMP JUMPDEST PUSH2 0x4C2D PUSH1 0x40 MLOAD PUSH2 0x4BDE DUP2 PUSH2 0x56EC JUMP JUMPDEST PUSH1 0x35 DUP2 MSTORE PUSH32 0x596F752068617665207375636365737366756C6C792075706461746564207061 DUP5 DUP3 ADD MSTORE PUSH21 0x7469656E74206D65646963616C20686973746F7279 PUSH1 0x58 SHL PUSH1 0x40 DUP3 ADD MSTORE PUSH2 0x64F PUSH2 0x6426 JUMP JUMPDEST PUSH1 0x0 MSTORE PUSH1 0x7 DUP2 MSTORE PUSH1 0x1 DUP1 PUSH1 0xA0 SHL SUB PUSH2 0x4C95 DUP2 PUSH1 0x3 PUSH1 0x40 PUSH1 0x0 KECCAK256 ADD SLOAD AND PUSH1 0x40 MLOAD PUSH2 0x4C55 DUP2 PUSH2 0x56EC JUMP JUMPDEST PUSH1 0x26 DUP2 MSTORE PUSH32 0x596F7572206D65646963616C20686973746F7279207570646174656420627920 DUP6 DUP3 ADD MSTORE PUSH6 0x3237B1BA37B9 PUSH1 0xD1 SHL PUSH1 0x40 DUP3 ADD MSTORE PUSH2 0x6D2 PUSH2 0x6426 JUMP JUMPDEST PUSH1 0x19 SLOAD AND SWAP1 PUSH32 0x50617469656E74206D65646963616C20686973746F7279206973207570646174 PUSH1 0x40 MLOAD SWAP2 PUSH2 0x4CC8 DUP4 PUSH2 0x56EC JUMP JUMPDEST PUSH1 0x22 DUP4 MSTORE DUP3 ADD MSTORE PUSH2 0x1959 PUSH1 0xF2 SHL PUSH1 0x40 DUP3 ADD MSTORE PUSH2 0x6D2 PUSH2 0x6426 JUMP JUMPDEST CALLVALUE PUSH2 0x487 JUMPI PUSH1 0x20 CALLDATASIZE PUSH1 0x3 NOT ADD SLT PUSH2 0x487 JUMPI PUSH1 0x4 CALLDATALOAD PUSH1 0x0 MSTORE PUSH1 0x8 PUSH1 0x20 MSTORE PUSH1 0x40 PUSH1 0x0 KECCAK256 DUP1 SLOAD PUSH2 0x483 PUSH1 0x1 DUP4 ADD SLOAD SWAP3 PUSH1 0x2 DUP2 ADD SLOAD SWAP1 PUSH1 0x4 PUSH1 0x3 DUP3 ADD SLOAD SWAP2 ADD SLOAD SWAP2 PUSH1 0x40 MLOAD SWAP6 DUP7 SWAP6 DUP7 SWAP2 SWAP3 PUSH1 0x80 SWAP4 SWAP7 SWAP6 SWAP5 SWAP2 SWAP7 PUSH1 0xA0 DUP5 ADD SWAP8 DUP5 MSTORE PUSH1 0x20 DUP5 ADD MSTORE PUSH1 0x40 DUP4 ADD MSTORE PUSH1 0x60 DUP3 ADD MSTORE ADD MSTORE JUMP JUMPDEST CALLVALUE PUSH2 0x487 JUMPI PUSH1 0x60 CALLDATASIZE PUSH1 0x3 NOT ADD SLT PUSH2 0x487 JUMPI PUSH1 0x24 CALLDATALOAD PUSH1 0x4 CALLDATALOAD PUSH1 0x44 CALLDATALOAD PUSH1 0x1 PUSH1 0x1 PUSH1 0x40 SHL SUB DUP2 GT PUSH2 0x487 JUMPI PUSH2 0x4D80 SWAP1 CALLDATASIZE SWAP1 PUSH1 0x4 ADD PUSH2 0x5886 JUMP JUMPDEST SWAP1 CALLER PUSH1 0x0 MSTORE PUSH1 0x20 SWAP3 PUSH1 0xC DUP5 MSTORE PUSH1 0x40 PUSH1 0x0 KECCAK256 SLOAD SWAP1 DUP2 ISZERO PUSH2 0x4FE0 JUMPI DUP2 PUSH1 0x0 MSTORE PUSH1 0x6 DUP6 MSTORE PUSH1 0xFF PUSH1 0x5 PUSH1 0x40 PUSH1 0x0 KECCAK256 ADD SLOAD AND ISZERO PUSH2 0x4FA5 JUMPI DUP3 PUSH1 0x0 MSTORE PUSH1 0x10 DUP6 MSTORE PUSH2 0x4DCA PUSH1 0x40 PUSH1 0x0 KECCAK256 SLOAD DUP3 LT PUSH2 0x6031 JUMP JUMPDEST PUSH2 0x4DD5 PUSH1 0x18 SLOAD PUSH2 0x6070 JUMP JUMPDEST SWAP3 DUP4 PUSH1 0x18 SSTORE DUP1 PUSH1 0x0 MSTORE PUSH1 0x11 DUP7 MSTORE PUSH1 0x40 PUSH1 0x0 KECCAK256 SWAP4 PUSH1 0x40 MLOAD SWAP1 PUSH2 0x4DF5 DUP3 PUSH2 0x5663 JUMP JUMPDEST DUP2 MSTORE DUP7 DUP2 ADD SWAP5 DUP4 DUP7 MSTORE PUSH1 0x40 DUP3 ADD DUP6 DUP2 MSTORE PUSH1 0x60 DUP4 ADD SWAP7 DUP5 DUP9 MSTORE PUSH1 0x80 DUP5 ADD SWAP9 DUP10 MSTORE PUSH1 0xA0 DUP5 ADD SWAP4 TIMESTAMP DUP6 MSTORE PUSH1 0xC0 DUP2 ADD SWAP5 PUSH1 0x1 DUP7 MSTORE PUSH1 0xE0 DUP3 ADD SWAP5 PUSH1 0x0 DUP7 MSTORE DUP1 SLOAD PUSH1 0x1 PUSH1 0x40 SHL DUP2 LT ISZERO PUSH2 0xBC6 JUMPI PUSH2 0x4E4B SWAP2 PUSH1 0x1 DUP3 ADD DUP2 SSTORE PUSH2 0x5824 JUMP JUMPDEST SWAP3 SWAP1 SWAP3 PUSH2 0x39A8 JUMPI PUSH32 0x36804F996462E89C725C18449C461CAF9582CB047122AF6C0FB99606597165A6 SWAP12 PUSH1 0x60 SWAP12 PUSH2 0x4EBE SWAP7 PUSH1 0x6 SWAP7 PUSH2 0x4EA1 SWAP5 MLOAD DUP8 SSTORE MLOAD PUSH1 0x1 DUP8 ADD SSTORE MLOAD PUSH1 0x2 DUP7 ADD SSTORE MLOAD PUSH1 0x3 DUP6 ADD SSTORE MLOAD PUSH1 0x4 DUP5 ADD PUSH2 0x5EC5 JUMP JUMPDEST MLOAD PUSH1 0x5 DUP3 ADD SSTORE ADD SWAP3 MLOAD ISZERO ISZERO DUP4 SWAP1 PUSH1 0xFF DUP1 NOT DUP4 SLOAD AND SWAP2 ISZERO ISZERO AND OR SWAP1 SSTORE JUMP JUMPDEST MLOAD DUP2 SLOAD PUSH2 0xFF00 NOT AND SWAP1 ISZERO ISZERO PUSH1 0x8 SHL PUSH2 0xFF00 AND OR SWAP1 SSTORE PUSH1 0x0 DUP2 DUP2 MSTORE PUSH1 0xE DUP8 MSTORE PUSH1 0x40 SWAP1 DUP2 SWAP1 KECCAK256 SLOAD SWAP1 MLOAD PUSH2 0x4F44 SWAP2 PUSH1 0x1 PUSH1 0x1 PUSH1 0xA0 SHL SUB AND SWAP1 PUSH2 0x4EFC DUP2 PUSH2 0x56EC JUMP JUMPDEST PUSH1 0x2E DUP2 MSTORE PUSH32 0x446F63746F72207265717565737465642061636365737320746F20796F757220 DUP10 DUP3 ADD MSTORE PUSH14 0x1B59591A58D85B081C9958DBDC99 PUSH1 0x92 SHL PUSH1 0x40 DUP3 ADD MSTORE PUSH2 0x6D2 PUSH2 0x607F JUMP JUMPDEST PUSH2 0x4F90 PUSH1 0x40 MLOAD PUSH2 0x4F53 DUP2 PUSH2 0x56EC JUMP JUMPDEST PUSH1 0x23 DUP2 MSTORE PUSH32 0x4163636573732072657175657374207375626D697474656420746F2070617469 DUP9 DUP3 ADD MSTORE PUSH3 0x195B9D PUSH1 0xEA SHL PUSH1 0x40 DUP3 ADD MSTORE PUSH2 0x64F PUSH2 0x607F JUMP JUMPDEST PUSH1 0x18 SLOAD SWAP6 PUSH1 0x40 MLOAD SWAP4 DUP5 MSTORE DUP4 ADD MSTORE PUSH1 0x40 DUP3 ADD MSTORE LOG2 STOP JUMPDEST PUSH1 0x40 MLOAD PUSH3 0x461BCD PUSH1 0xE5 SHL DUP2 MSTORE PUSH1 0x4 DUP2 ADD DUP7 SWAP1 MSTORE PUSH1 0x13 PUSH1 0x24 DUP3 ADD MSTORE PUSH19 0x111BD8DD1BDC881B9BDD08185C1C1C9BDD9959 PUSH1 0x6A SHL PUSH1 0x44 DUP3 ADD MSTORE PUSH1 0x64 SWAP1 REVERT JUMPDEST PUSH1 0x40 MLOAD PUSH3 0x461BCD PUSH1 0xE5 SHL DUP2 MSTORE PUSH1 0x4 DUP2 ADD DUP7 SWAP1 MSTORE PUSH1 0x17 PUSH1 0x24 DUP3 ADD MSTORE PUSH32 0x4E6F742061207265676973746572656420646F63746F72000000000000000000 PUSH1 0x44 DUP3 ADD MSTORE PUSH1 0x64 SWAP1 REVERT JUMPDEST CALLVALUE PUSH2 0x487 JUMPI PUSH32 0x1E689CD9AC52751E42953A5ACD30B7EAC0CC9804EC5C814B2CB6BFF6E8AB852B PUSH1 0x40 PUSH2 0x5056 CALLDATASIZE PUSH2 0x580E JUMP JUMPDEST PUSH2 0x506B PUSH1 0x1 DUP1 PUSH1 0xA0 SHL SUB PUSH1 0x19 SLOAD AND CALLER EQ PUSH2 0x6313 JUMP JUMPDEST PUSH2 0x5079 PUSH1 0x13 SLOAD DUP4 GT ISZERO PUSH2 0x638E JUMP JUMPDEST DUP2 PUSH1 0x0 MSTORE PUSH1 0x5 PUSH1 0x20 MSTORE DUP1 PUSH1 0x3 DUP5 PUSH1 0x0 KECCAK256 ADD SSTORE PUSH2 0x19D6 DUP4 MLOAD PUSH2 0x5099 DUP2 PUSH2 0x56EC JUMP JUMPDEST PUSH1 0x26 DUP2 MSTORE PUSH32 0x4D65646963696E65207175616E74697479207570646174656420737563636573 PUSH1 0x20 DUP3 ADD MSTORE PUSH6 0x7366756C6C79 PUSH1 0xD0 SHL DUP6 DUP3 ADD MSTORE PUSH2 0x64F PUSH2 0x636A JUMP JUMPDEST CALLVALUE PUSH2 0x487 JUMPI PUSH1 0x20 DUP1 PUSH1 0x3 NOT CALLDATASIZE ADD SLT PUSH2 0x487 JUMPI PUSH1 0x1 PUSH1 0x1 PUSH1 0xA0 SHL SUB SWAP1 DUP2 PUSH2 0x50FD PUSH2 0x55E2 JUMP JUMPDEST AND PUSH1 0x0 MSTORE PUSH1 0x3 SWAP1 DUP2 DUP2 MSTORE PUSH1 0x40 PUSH1 0x0 KECCAK256 SWAP1 DUP2 SLOAD PUSH2 0x5118 DUP2 PUSH2 0x59D7 JUMP JUMPDEST SWAP4 PUSH2 0x5126 PUSH1 0x40 MLOAD SWAP6 DUP7 PUSH2 0x5707 JUMP JUMPDEST DUP2 DUP6 MSTORE PUSH1 0x0 SWAP4 DUP5 MSTORE DUP3 DUP5 KECCAK256 DUP4 DUP7 ADD SWAP5 SWAP2 DUP6 JUMPDEST DUP5 DUP5 LT PUSH2 0x51E0 JUMPI POP POP POP POP POP PUSH1 0x40 MLOAD SWAP3 DUP2 DUP5 ADD SWAP1 DUP3 DUP6 MSTORE MLOAD DUP1 SWAP2 MSTORE PUSH1 0x40 DUP5 ADD SWAP2 PUSH1 0x40 DUP3 PUSH1 0x5 SHL DUP7 ADD ADD SWAP4 SWAP3 PUSH1 0x0 SWAP7 JUMPDEST DUP4 DUP9 LT PUSH2 0x5174 JUMPI DUP7 DUP7 SUB DUP8 RETURN JUMPDEST SWAP1 SWAP2 SWAP3 SWAP4 SWAP5 DUP4 DUP1 PUSH2 0x51CF PUSH1 0x1 SWAP4 PUSH1 0x3F NOT DUP12 DUP3 SUB ADD DUP8 MSTORE DUP10 MLOAD DUP1 MLOAD DUP3 MSTORE DUP7 DUP5 DUP3 ADD MLOAD AND DUP5 DUP4 ADD MSTORE PUSH2 0x51B2 PUSH1 0x40 DUP3 ADD MLOAD PUSH1 0xA0 DUP1 PUSH1 0x40 DUP7 ADD MSTORE DUP5 ADD SWAP1 PUSH2 0x57CE JUMP JUMPDEST SWAP2 PUSH1 0x60 DUP1 DUP4 ADD MLOAD SWAP1 DUP3 ADD MSTORE PUSH1 0x80 DUP1 SWAP3 ADD MLOAD SWAP2 DUP2 DUP5 SUB SWAP2 ADD MSTORE PUSH2 0x57CE JUMP JUMPDEST SWAP8 ADD SWAP4 ADD SWAP8 ADD SWAP7 SWAP1 SWAP4 SWAP3 SWAP2 SWAP4 PUSH2 0x5167 JUMP JUMPDEST PUSH1 0x5 DUP7 PUSH1 0x1 SWAP3 PUSH1 0x40 SWAP11 SWAP9 SWAP11 MLOAD PUSH2 0x51F5 DUP2 PUSH2 0x5648 JUMP JUMPDEST DUP7 SLOAD DUP2 MSTORE DUP13 DUP6 DUP9 ADD SLOAD AND DUP4 DUP3 ADD MSTORE PUSH2 0x520F PUSH1 0x2 DUP9 ADD PUSH2 0x5728 JUMP JUMPDEST PUSH1 0x40 DUP3 ADD MSTORE DUP6 DUP8 ADD SLOAD PUSH1 0x60 DUP3 ADD MSTORE PUSH2 0x5229 PUSH1 0x4 DUP9 ADD PUSH2 0x5728 JUMP JUMPDEST PUSH1 0x80 DUP3 ADD MSTORE DUP2 MSTORE ADD SWAP4 ADD SWAP4 ADD SWAP3 SWAP2 SWAP7 SWAP5 SWAP7 PUSH2 0x5138 JUMP JUMPDEST CALLVALUE PUSH2 0x487 JUMPI PUSH1 0x20 CALLDATASIZE PUSH1 0x3 NOT ADD SLT PUSH2 0x487 JUMPI PUSH1 0x20 PUSH2 0x5262 PUSH2 0x525D PUSH2 0x55E2 JUMP JUMPDEST PUSH2 0x6983 JUMP JUMPDEST PUSH1 0x40 MLOAD SWAP1 ISZERO ISZERO DUP2 MSTORE RETURN JUMPDEST CALLVALUE PUSH2 0x487 JUMPI PUSH2 0x527A CALLDATASIZE PUSH2 0x580E JUMP JUMPDEST SWAP1 PUSH1 0x0 MSTORE PUSH1 0x10 PUSH1 0x20 MSTORE PUSH1 0x40 PUSH1 0x0 KECCAK256 SWAP1 DUP2 SLOAD DUP2 LT ISZERO PUSH2 0x487 JUMPI PUSH2 0x529B SWAP2 PUSH2 0x5824 JUMP JUMPDEST POP DUP1 SLOAD PUSH1 0x1 DUP3 ADD SLOAD SWAP2 PUSH1 0xFF PUSH2 0x52B2 PUSH1 0x2 DUP4 ADD PUSH2 0x5728 JUMP JUMPDEST PUSH2 0x5319 PUSH2 0x52C1 PUSH1 0x3 DUP6 ADD PUSH2 0x5728 JUMP JUMPDEST PUSH2 0x530B PUSH2 0x52D0 PUSH1 0x4 DUP8 ADD PUSH2 0x5728 JUMP JUMPDEST SWAP2 PUSH2 0x52FD PUSH1 0x6 PUSH1 0x5 DUP10 ADD SLOAD SWAP9 ADD SLOAD SWAP6 PUSH1 0x40 MLOAD SWAP11 DUP12 SWAP11 DUP12 MSTORE PUSH1 0x20 DUP12 ADD MSTORE PUSH2 0x100 DUP1 PUSH1 0x40 DUP13 ADD MSTORE DUP11 ADD SWAP1 PUSH2 0x57CE JUMP JUMPDEST SWAP1 DUP9 DUP3 SUB PUSH1 0x60 DUP11 ADD MSTORE PUSH2 0x57CE JUMP JUMPDEST SWAP1 DUP7 DUP3 SUB PUSH1 0x80 DUP9 ADD MSTORE PUSH2 0x57CE JUMP JUMPDEST PUSH1 0xA0 DUP6 DUP2 ADD SWAP5 SWAP1 SWAP5 MSTORE PUSH1 0x1 PUSH1 0x1 PUSH1 0xA0 SHL SUB DUP3 AND PUSH1 0xC0 DUP7 ADD MSTORE SWAP3 SHR AND ISZERO ISZERO PUSH1 0xE0 DUP4 ADD MSTORE SUB SWAP1 RETURN JUMPDEST CALLVALUE PUSH2 0x487 JUMPI PUSH1 0x20 CALLDATASIZE PUSH1 0x3 NOT ADD SLT PUSH2 0x487 JUMPI PUSH1 0x4 CALLDATALOAD PUSH1 0x0 MSTORE PUSH1 0x9 PUSH1 0x20 MSTORE PUSH1 0x40 PUSH1 0x0 KECCAK256 DUP1 SLOAD PUSH1 0x1 DUP3 ADD SLOAD SWAP2 PUSH1 0x2 DUP2 ADD SLOAD SWAP1 PUSH1 0x3 DUP2 ADD SLOAD PUSH1 0x4 DUP3 ADD PUSH2 0x5380 SWAP1 PUSH2 0x5728 JUMP JUMPDEST PUSH2 0x538C PUSH1 0x5 DUP5 ADD PUSH2 0x5728 JUMP JUMPDEST PUSH2 0x5398 PUSH1 0x6 DUP6 ADD PUSH2 0x5728 JUMP JUMPDEST SWAP2 PUSH2 0x53A5 PUSH1 0x7 DUP7 ADD PUSH2 0x5728 JUMP JUMPDEST SWAP4 PUSH2 0x53B2 PUSH1 0x8 DUP8 ADD PUSH2 0x5728 JUMP JUMPDEST SWAP6 PUSH1 0x9 ADD SLOAD PUSH1 0xFF AND SWAP7 PUSH1 0x40 MLOAD SWAP10 DUP11 SWAP10 DUP11 MSTORE PUSH1 0x20 DUP11 ADD MSTORE PUSH1 0x40 DUP10 ADD MSTORE PUSH1 0x60 DUP9 ADD MSTORE PUSH2 0x140 DUP1 PUSH1 0x80 DUP10 ADD MSTORE DUP8 ADD PUSH2 0x53E6 SWAP2 PUSH2 0x57CE JUMP JUMPDEST DUP7 DUP2 SUB PUSH1 0xA0 DUP9 ADD MSTORE PUSH2 0x53F7 SWAP2 PUSH2 0x57CE JUMP JUMPDEST DUP6 DUP2 SUB PUSH1 0xC0 DUP8 ADD MSTORE PUSH2 0x5408 SWAP2 PUSH2 0x57CE JUMP JUMPDEST DUP5 DUP2 SUB PUSH1 0xE0 DUP7 ADD MSTORE PUSH2 0x5419 SWAP2 PUSH2 0x57CE JUMP JUMPDEST DUP4 DUP2 SUB PUSH2 0x100 DUP6 ADD MSTORE PUSH2 0x542B SWAP2 PUSH2 0x57CE JUMP JUMPDEST SWAP1 ISZERO ISZERO PUSH2 0x120 DUP4 ADD MSTORE SUB SWAP1 RETURN JUMPDEST CALLVALUE PUSH2 0x487 JUMPI PUSH1 0x20 CALLDATASIZE PUSH1 0x3 NOT ADD SLT PUSH2 0x487 JUMPI PUSH1 0x1 PUSH1 0x1 PUSH1 0xA0 SHL SUB PUSH2 0x5459 PUSH2 0x55E2 JUMP JUMPDEST AND PUSH1 0x0 MSTORE PUSH1 0xD PUSH1 0x20 MSTORE PUSH1 0x20 PUSH1 0x40 PUSH1 0x0 KECCAK256 SLOAD PUSH1 0x40 MLOAD SWAP1 DUP2 MSTORE RETURN JUMPDEST CALLVALUE PUSH2 0x487 JUMPI PUSH1 0x20 CALLDATASIZE PUSH1 0x3 NOT ADD SLT PUSH2 0x487 JUMPI PUSH1 0x20 PUSH2 0x5495 PUSH2 0x5490 PUSH2 0x55E2 JUMP JUMPDEST PUSH2 0x68F1 JUMP JUMPDEST PUSH1 0x40 MLOAD SWAP1 DUP2 MSTORE RETURN JUMPDEST CALLVALUE PUSH2 0x487 JUMPI PUSH1 0x20 CALLDATASIZE PUSH1 0x3 NOT ADD SLT PUSH2 0x487 JUMPI PUSH1 0x20 PUSH2 0x5495 PUSH2 0x54BB PUSH2 0x55E2 JUMP JUMPDEST PUSH2 0x677A JUMP JUMPDEST CALLVALUE PUSH2 0x487 JUMPI PUSH1 0x20 CALLDATASIZE PUSH1 0x3 NOT ADD SLT PUSH2 0x487 JUMPI PUSH1 0x19 SLOAD PUSH2 0x72C SWAP1 PUSH1 0x1 PUSH1 0x1 PUSH1 0xA0 SHL SUB AND PUSH2 0x54EC CALLER DUP3 EQ PUSH2 0x6313 JUMP JUMPDEST PUSH1 0x4 CALLDATALOAD PUSH1 0x1C SSTORE PUSH1 0x40 MLOAD PUSH2 0x54FE DUP2 PUSH2 0x56EC JUMP JUMPDEST PUSH1 0x2D DUP2 MSTORE PUSH32 0x596F752068617665207375636365737366756C6C792075706461746564204170 PUSH1 0x20 DUP3 ADD MSTORE PUSH13 0x706F696E746D656E7420666565 PUSH1 0x98 SHL PUSH1 0x40 DUP3 ADD MSTORE PUSH2 0x6D2 PUSH2 0x65AA JUMP JUMPDEST CALLVALUE PUSH2 0x487 JUMPI PUSH1 0x20 CALLDATASIZE PUSH1 0x3 NOT ADD SLT PUSH2 0x487 JUMPI PUSH1 0x1 PUSH1 0x1 PUSH1 0xA0 SHL SUB PUSH1 0x4 CALLDATALOAD DUP2 DUP2 AND SWAP1 DUP2 SWAP1 SUB PUSH2 0x487 JUMPI DUP1 PUSH2 0x72C SWAP3 PUSH2 0x5582 PUSH1 0x19 SLOAD SWAP2 DUP3 AND CALLER EQ PUSH2 0x6313 JUMP JUMPDEST PUSH1 0x1 PUSH1 0x1 PUSH1 0xA0 SHL SUB NOT AND OR PUSH1 0x19 SSTORE PUSH1 0x40 MLOAD PUSH2 0x559C DUP2 PUSH2 0x56EC JUMP JUMPDEST PUSH1 0x2B DUP2 MSTORE PUSH32 0x596F752068617665207375636365737366756C6C792075706461746564206164 PUSH1 0x20 DUP3 ADD MSTORE PUSH11 0x6D696E2061646472657373 PUSH1 0xA8 SHL PUSH1 0x40 DUP3 ADD MSTORE PUSH2 0x6D2 PUSH2 0x65AA JUMP JUMPDEST PUSH1 0x4 CALLDATALOAD SWAP1 PUSH1 0x1 PUSH1 0x1 PUSH1 0xA0 SHL SUB DUP3 AND DUP3 SUB PUSH2 0x487 JUMPI JUMP JUMPDEST PUSH1 0x24 CALLDATALOAD SWAP1 PUSH1 0x1 PUSH1 0x1 PUSH1 0xA0 SHL SUB DUP3 AND DUP3 SUB PUSH2 0x487 JUMPI JUMP JUMPDEST SWAP1 PUSH1 0x1 DUP3 DUP2 SHR SWAP3 AND DUP1 ISZERO PUSH2 0x563E JUMPI JUMPDEST PUSH1 0x20 DUP4 LT EQ PUSH2 0x5628 JUMPI JUMP JUMPDEST PUSH4 0x4E487B71 PUSH1 0xE0 SHL PUSH1 0x0 MSTORE PUSH1 0x22 PUSH1 0x4 MSTORE PUSH1 0x24 PUSH1 0x0 REVERT JUMPDEST SWAP2 PUSH1 0x7F AND SWAP2 PUSH2 0x561D JUMP JUMPDEST PUSH1 0xA0 DUP2 ADD SWAP1 DUP2 LT PUSH1 0x1 PUSH1 0x1 PUSH1 0x40 SHL SUB DUP3 GT OR PUSH2 0xBC6 JUMPI PUSH1 0x40 MSTORE JUMP JUMPDEST PUSH2 0x100 DUP2 ADD SWAP1 DUP2 LT PUSH1 0x1 PUSH1 0x1 PUSH1 0x40 SHL SUB DUP3 GT OR PUSH2 0xBC6 JUMPI PUSH1 0x40 MSTORE JUMP JUMPDEST PUSH2 0x140 DUP2 ADD SWAP1 DUP2 LT PUSH1 0x1 PUSH1 0x1 PUSH1 0x40 SHL SUB DUP3 GT OR PUSH2 0xBC6 JUMPI PUSH1 0x40 MSTORE JUMP JUMPDEST PUSH1 0xC0 DUP2 ADD SWAP1 DUP2 LT PUSH1 0x1 PUSH1 0x1 PUSH1 0x40 SHL SUB DUP3 GT OR PUSH2 0xBC6 JUMPI PUSH1 0x40 MSTORE JUMP JUMPDEST PUSH1 0x40 DUP2 ADD SWAP1 DUP2 LT PUSH1 0x1 PUSH1 0x1 PUSH1 0x40 SHL SUB DUP3 GT OR PUSH2 0xBC6 JUMPI PUSH1 0x40 MSTORE JUMP JUMPDEST PUSH1 0xE0 DUP2 ADD SWAP1 DUP2 LT PUSH1 0x1 PUSH1 0x1 PUSH1 0x40 SHL SUB DUP3 GT OR PUSH2 0xBC6 JUMPI PUSH1 0x40 MSTORE JUMP JUMPDEST PUSH1 0x60 DUP2 ADD SWAP1 DUP2 LT PUSH1 0x1 PUSH1 0x1 PUSH1 0x40 SHL SUB DUP3 GT OR PUSH2 0xBC6 JUMPI PUSH1 0x40 MSTORE JUMP JUMPDEST SWAP1 PUSH1 0x1F DUP1 NOT SWAP2 ADD AND DUP2 ADD SWAP1 DUP2 LT PUSH1 0x1 PUSH1 0x1 PUSH1 0x40 SHL SUB DUP3 GT OR PUSH2 0xBC6 JUMPI PUSH1 0x40 MSTORE JUMP JUMPDEST SWAP1 PUSH1 0x40 MLOAD SWAP2 DUP3 PUSH1 0x0 DUP3 SLOAD SWAP3 PUSH2 0x573C DUP5 PUSH2 0x560E JUMP JUMPDEST SWAP1 DUP2 DUP5 MSTORE PUSH1 0x1 SWAP5 DUP6 DUP2 AND SWAP1 DUP2 PUSH1 0x0 EQ PUSH2 0x57AB JUMPI POP PUSH1 0x1 EQ PUSH2 0x5768 JUMPI JUMPDEST POP POP PUSH2 0x5766 SWAP3 POP SUB DUP4 PUSH2 0x5707 JUMP JUMPDEST JUMP JUMPDEST SWAP1 SWAP4 SWAP2 POP PUSH1 0x0 MSTORE PUSH1 0x20 SWAP1 DUP2 PUSH1 0x0 KECCAK256 SWAP4 PUSH1 0x0 SWAP2 JUMPDEST DUP2 DUP4 LT PUSH2 0x5793 JUMPI POP POP PUSH2 0x5766 SWAP4 POP DUP3 ADD ADD CODESIZE DUP1 PUSH2 0x5758 JUMP JUMPDEST DUP6 SLOAD DUP9 DUP5 ADD DUP6 ADD MSTORE SWAP5 DUP6 ADD SWAP5 DUP8 SWAP5 POP SWAP2 DUP4 ADD SWAP2 PUSH2 0x577B JUMP JUMPDEST SWAP2 POP POP PUSH2 0x5766 SWAP5 POP PUSH1 0x20 SWAP3 POP PUSH1 0xFF NOT AND DUP3 DUP5 ADD MSTORE ISZERO ISZERO PUSH1 0x5 SHL DUP3 ADD ADD CODESIZE DUP1 PUSH2 0x5758 JUMP JUMPDEST SWAP2 SWAP1 DUP3 MLOAD SWAP3 DUP4 DUP3 MSTORE PUSH1 0x0 JUMPDEST DUP5 DUP2 LT PUSH2 0x57FA JUMPI POP POP DUP3 PUSH1 0x0 PUSH1 0x20 DUP1 SWAP5 SWAP6 DUP5 ADD ADD MSTORE PUSH1 0x1F DUP1 NOT SWAP2 ADD AND ADD ADD SWAP1 JUMP JUMPDEST PUSH1 0x20 DUP2 DUP4 ADD DUP2 ADD MLOAD DUP5 DUP4 ADD DUP3 ADD MSTORE ADD PUSH2 0x57D9 JUMP JUMPDEST PUSH1 0x40 SWAP1 PUSH1 0x3 NOT ADD SLT PUSH2 0x487 JUMPI PUSH1 0x4 CALLDATALOAD SWAP1 PUSH1 0x24 CALLDATALOAD SWAP1 JUMP JUMPDEST DUP1 SLOAD DUP3 LT ISZERO PUSH2 0xBB0 JUMPI PUSH1 0x0 MSTORE PUSH1 0x7 PUSH1 0x20 PUSH1 0x0 KECCAK256 SWAP2 MUL ADD SWAP1 PUSH1 0x0 SWAP1 JUMP JUMPDEST SWAP3 SWAP2 SWAP3 PUSH1 0x1 PUSH1 0x1 PUSH1 0x40 SHL SUB DUP3 GT PUSH2 0xBC6 JUMPI PUSH1 0x40 MLOAD SWAP2 PUSH2 0x5869 PUSH1 0x1F DUP3 ADD PUSH1 0x1F NOT AND PUSH1 0x20 ADD DUP5 PUSH2 0x5707 JUMP JUMPDEST DUP3 SWAP5 DUP2 DUP5 MSTORE DUP2 DUP4 ADD GT PUSH2 0x487 JUMPI DUP3 DUP2 PUSH1 0x20 SWAP4 DUP5 PUSH1 0x0 SWAP7 ADD CALLDATACOPY ADD ADD MSTORE JUMP JUMPDEST SWAP1 DUP1 PUSH1 0x1F DUP4 ADD SLT ISZERO PUSH2 0x487 JUMPI DUP2 PUSH1 0x20 PUSH2 0x58A1 SWAP4 CALLDATALOAD SWAP2 ADD PUSH2 0x5840 JUMP JUMPDEST SWAP1 JUMP JUMPDEST SWAP1 PUSH1 0x40 PUSH1 0x3 NOT DUP4 ADD SLT PUSH2 0x487 JUMPI PUSH1 0x4 CALLDATALOAD SWAP2 PUSH1 0x24 CALLDATALOAD SWAP1 PUSH1 0x1 PUSH1 0x1 PUSH1 0x40 SHL SUB DUP3 GT PUSH2 0x487 JUMPI PUSH2 0x58A1 SWAP2 PUSH1 0x4 ADD PUSH2 0x5886 JUMP JUMPDEST SWAP1 DUP2 MLOAD DUP2 MSTORE PUSH1 0x20 DUP3 ADD MLOAD PUSH1 0x20 DUP3 ADD MSTORE PUSH1 0x40 DUP3 ADD MLOAD PUSH1 0x40 DUP3 ADD MSTORE PUSH1 0x60 DUP3 ADD MLOAD PUSH1 0x60 DUP3 ADD MSTORE PUSH2 0x5965 PUSH2 0x5951 PUSH2 0x593F PUSH2 0x592D PUSH2 0x591B PUSH1 0x80 DUP8 ADD MLOAD PUSH2 0x140 DUP1 PUSH1 0x80 DUP10 ADD MSTORE DUP8 ADD SWAP1 PUSH2 0x57CE JUMP JUMPDEST PUSH1 0xA0 DUP8 ADD MLOAD DUP7 DUP3 SUB PUSH1 0xA0 DUP9 ADD MSTORE PUSH2 0x57CE JUMP JUMPDEST PUSH1 0xC0 DUP7 ADD MLOAD DUP6 DUP3 SUB PUSH1 0xC0 DUP8 ADD MSTORE PUSH2 0x57CE JUMP JUMPDEST PUSH1 0xE0 DUP6 ADD MLOAD DUP5 DUP3 SUB PUSH1 0xE0 DUP7 ADD MSTORE PUSH2 0x57CE JUMP JUMPDEST PUSH2 0x100 DUP1 DUP6 ADD MLOAD SWAP1 DUP5 DUP4 SUB SWAP1 DUP6 ADD MSTORE PUSH2 0x57CE JUMP JUMPDEST SWAP2 PUSH2 0x120 DUP1 SWAP2 ADD MLOAD ISZERO ISZERO SWAP2 ADD MSTORE SWAP1 JUMP JUMPDEST PUSH1 0x20 DUP1 DUP3 ADD SWAP1 DUP1 DUP4 MSTORE DUP4 MLOAD DUP1 SWAP3 MSTORE PUSH1 0x40 DUP4 ADD SWAP3 DUP2 PUSH1 0x40 DUP5 PUSH1 0x5 SHL DUP4 ADD ADD SWAP6 ADD SWAP4 PUSH1 0x0 SWAP2 JUMPDEST DUP5 DUP4 LT PUSH2 0x59A9 JUMPI POP POP POP POP POP POP SWAP1 JUMP JUMPDEST SWAP1 SWAP2 SWAP3 SWAP4 SWAP5 SWAP6 DUP5 DUP1 PUSH2 0x59C7 PUSH1 0x1 SWAP4 PUSH1 0x3F NOT DUP7 DUP3 SUB ADD DUP8 MSTORE DUP11 MLOAD PUSH2 0x58D3 JUMP JUMPDEST SWAP9 ADD SWAP4 ADD SWAP4 ADD SWAP2 SWAP5 SWAP4 SWAP3 SWAP1 PUSH2 0x5999 JUMP JUMPDEST PUSH1 0x1 PUSH1 0x1 PUSH1 0x40 SHL SUB DUP2 GT PUSH2 0xBC6 JUMPI PUSH1 0x5 SHL PUSH1 0x20 ADD SWAP1 JUMP JUMPDEST SWAP2 DUP2 PUSH1 0x1F DUP5 ADD SLT ISZERO PUSH2 0x487 JUMPI DUP3 CALLDATALOAD SWAP2 PUSH1 0x1 PUSH1 0x1 PUSH1 0x40 SHL SUB DUP4 GT PUSH2 0x487 JUMPI PUSH1 0x20 DUP4 DUP2 DUP7 ADD SWAP6 ADD ADD GT PUSH2 0x487 JUMPI JUMP JUMPDEST SWAP1 DUP2 MLOAD DUP1 DUP3 MSTORE PUSH1 0x20 DUP1 DUP1 SWAP4 ADD SWAP4 ADD SWAP2 PUSH1 0x0 JUMPDEST DUP3 DUP2 LT PUSH2 0x5A3B JUMPI POP POP POP POP SWAP1 JUMP JUMPDEST DUP4 MLOAD DUP6 MSTORE SWAP4 DUP2 ADD SWAP4 SWAP3 DUP2 ADD SWAP3 PUSH1 0x1 ADD PUSH2 0x5A2D JUMP JUMPDEST SWAP2 SWAP1 DUP3 MLOAD DUP2 MSTORE PUSH1 0x20 SWAP1 PUSH2 0x5A6F DUP3 DUP6 ADD MLOAD PUSH1 0xA0 DUP5 DUP5 ADD MSTORE PUSH1 0xA0 DUP4 ADD SWAP1 PUSH2 0x57CE JUMP JUMPDEST PUSH1 0x40 DUP6 ADD MLOAD SWAP3 DUP3 DUP3 SUB PUSH1 0x40 DUP5 ADD MSTORE DUP4 MLOAD SWAP1 DUP2 DUP4 MSTORE DUP1 DUP4 ADD SWAP3 DUP2 DUP1 DUP5 PUSH1 0x5 SHL DUP4 ADD ADD SWAP7 ADD SWAP4 PUSH1 0x0 SWAP2 JUMPDEST DUP5 DUP4 LT PUSH2 0x5ACD JUMPI POP POP POP POP POP POP PUSH1 0x80 PUSH2 0x58A1 SWAP4 SWAP5 PUSH1 0x1 DUP1 PUSH1 0xA0 SHL SUB PUSH1 0x60 DUP3 ADD MLOAD AND PUSH1 0x60 DUP5 ADD MSTORE ADD MLOAD SWAP1 PUSH1 0x80 DUP2 DUP5 SUB SWAP2 ADD MSTORE PUSH2 0x5A1B JUMP JUMPDEST SWAP1 SWAP2 SWAP3 SWAP4 SWAP5 SWAP7 DUP5 DUP1 PUSH2 0x5AEB PUSH1 0x1 SWAP4 PUSH1 0x1F NOT DUP7 DUP3 SUB ADD DUP8 MSTORE DUP12 MLOAD PUSH2 0x57CE JUMP JUMPDEST SWAP10 ADD SWAP4 ADD SWAP4 ADD SWAP2 SWAP5 SWAP4 SWAP3 SWAP1 PUSH2 0x5A97 JUMP JUMPDEST PUSH1 0x20 DUP1 DUP3 ADD SWAP1 DUP1 DUP4 MSTORE DUP4 MLOAD DUP1 SWAP3 MSTORE PUSH1 0x40 DUP4 ADD SWAP3 DUP2 PUSH1 0x40 DUP5 PUSH1 0x5 SHL DUP4 ADD ADD SWAP6 ADD SWAP4 PUSH1 0x0 SWAP2 JUMPDEST DUP5 DUP4 LT PUSH2 0x5B2F JUMPI POP POP POP POP POP POP SWAP1 JUMP JUMPDEST SWAP1 SWAP2 SWAP3 SWAP4 SWAP5 SWAP6 DUP5 DUP1 PUSH2 0x5B4D PUSH1 0x1 SWAP4 PUSH1 0x3F NOT DUP7 DUP3 SUB ADD DUP8 MSTORE DUP11 MLOAD PUSH2 0x5A4F JUMP JUMPDEST SWAP9 ADD SWAP4 ADD SWAP4 ADD SWAP2 SWAP5 SWAP4 SWAP3 SWAP1 PUSH2 0x5B1F JUMP JUMPDEST SWAP1 DUP2 MLOAD DUP2 MSTORE PUSH1 0xA0 DUP1 PUSH2 0x5B7E PUSH1 0x20 DUP6 ADD MLOAD PUSH1 0xC0 PUSH1 0x20 DUP7 ADD MSTORE PUSH1 0xC0 DUP6 ADD SWAP1 PUSH2 0x57CE JUMP JUMPDEST SWAP4 PUSH1 0x1 DUP1 DUP4 SHL SUB PUSH1 0x40 DUP3 ADD MLOAD AND PUSH1 0x40 DUP6 ADD MSTORE PUSH1 0x60 DUP2 ADD MLOAD PUSH1 0x60 DUP6 ADD MSTORE PUSH1 0x80 DUP2 ADD MLOAD PUSH1 0x80 DUP6 ADD MSTORE ADD MLOAD ISZERO ISZERO SWAP2 ADD MSTORE SWAP1 JUMP JUMPDEST PUSH1 0x20 DUP1 DUP3 ADD SWAP1 DUP1 DUP4 MSTORE DUP4 MLOAD DUP1 SWAP3 MSTORE PUSH1 0x40 DUP4 ADD SWAP3 DUP2 PUSH1 0x40 DUP5 PUSH1 0x5 SHL DUP4 ADD ADD SWAP6 ADD SWAP4 PUSH1 0x0 SWAP2 JUMPDEST DUP5 DUP4 LT PUSH2 0x5BE2 JUMPI POP POP POP POP POP POP SWAP1 JUMP JUMPDEST SWAP1 SWAP2 SWAP3 SWAP4 SWAP5 SWAP6 DUP5 DUP1 PUSH2 0x5C00 PUSH1 0x1 SWAP4 PUSH1 0x3F NOT DUP7 DUP3 SUB ADD DUP8 MSTORE DUP11 MLOAD PUSH2 0x5B5D JUMP JUMPDEST SWAP9 ADD SWAP4 ADD SWAP4 ADD SWAP2 SWAP5 SWAP4 SWAP3 SWAP1 PUSH2 0x5BD2 JUMP JUMPDEST PUSH1 0x20 SWAP1 DUP2 PUSH1 0x40 DUP2 DUP4 ADD SWAP3 DUP3 DUP2 MSTORE DUP6 MLOAD DUP1 SWAP5 MSTORE ADD SWAP4 ADD SWAP2 PUSH1 0x0 JUMPDEST DUP3 DUP2 LT PUSH2 0x5C37 JUMPI POP POP POP POP SWAP1 JUMP JUMPDEST SWAP1 SWAP2 SWAP3 SWAP4 DUP3 PUSH1 0xA0 DUP3 PUSH2 0x5C74 PUSH1 0x1 SWAP5 DUP10 MLOAD PUSH1 0x80 DUP1 SWAP2 DUP1 MLOAD DUP5 MSTORE PUSH1 0x20 DUP2 ADD MLOAD PUSH1 0x20 DUP6 ADD MSTORE PUSH1 0x40 DUP2 ADD MLOAD PUSH1 0x40 DUP6 ADD MSTORE PUSH1 0x60 DUP2 ADD MLOAD PUSH1 0x60 DUP6 ADD MSTORE ADD MLOAD SWAP2 ADD MSTORE JUMP JUMPDEST ADD SWAP6 ADD SWAP4 SWAP3 SWAP2 ADD PUSH2 0x5C29 JUMP JUMPDEST SWAP2 PUSH2 0x5C9E SWAP1 PUSH1 0x40 SWAP3 SWAP6 SWAP5 SWAP6 DUP5 MSTORE PUSH1 0x60 PUSH1 0x20 DUP6 ADD MSTORE PUSH1 0x60 DUP5 ADD SWAP1 PUSH2 0x57CE JUMP JUMPDEST PUSH1 0x1 PUSH1 0x1 PUSH1 0xA0 SHL SUB SWAP1 SWAP5 AND SWAP2 ADD MSTORE JUMP JUMPDEST SWAP1 DUP2 MLOAD DUP2 MSTORE PUSH1 0x20 DUP3 ADD MLOAD PUSH1 0x20 DUP3 ADD MSTORE PUSH1 0xE0 DUP1 PUSH2 0x5D03 PUSH2 0x5CF1 PUSH2 0x5CDF PUSH1 0x40 DUP8 ADD MLOAD PUSH2 0x100 DUP1 PUSH1 0x40 DUP10 ADD MSTORE DUP8 ADD SWAP1 PUSH2 0x57CE JUMP JUMPDEST PUSH1 0x60 DUP8 ADD MLOAD DUP7 DUP3 SUB PUSH1 0x60 DUP9 ADD MSTORE PUSH2 0x57CE JUMP JUMPDEST PUSH1 0x80 DUP7 ADD MLOAD DUP6 DUP3 SUB PUSH1 0x80 DUP8 ADD MSTORE PUSH2 0x57CE JUMP JUMPDEST PUSH1 0xA0 DUP1 DUP7 ADD MLOAD SWAP1 DUP6 ADD MSTORE PUSH1 0xC0 DUP1 DUP7 ADD MLOAD PUSH1 0x1 PUSH1 0x1 PUSH1 0xA0 SHL SUB AND SWAP1 DUP6 ADD MSTORE SWAP4 ADD MLOAD ISZERO ISZERO SWAP2 ADD MSTORE SWAP1 JUMP JUMPDEST SWAP1 DUP2 MLOAD DUP2 MSTORE PUSH1 0xC0 DUP1 PUSH2 0x5D7F PUSH2 0x5D4F PUSH1 0x20 DUP7 ADD MLOAD PUSH1 0xE0 PUSH1 0x20 DUP8 ADD MSTORE PUSH1 0xE0 DUP7 ADD SWAP1 PUSH2 0x57CE JUMP JUMPDEST PUSH1 0x40 DUP7 ADD MLOAD PUSH1 0x40 DUP7 ADD MSTORE PUSH1 0x60 DUP7 ADD MLOAD PUSH1 0x60 DUP7 ADD MSTORE PUSH1 0x80 DUP7 ADD MLOAD PUSH1 0x80 DUP7 ADD MSTORE PUSH1 0xA0 DUP7 ADD MLOAD DUP6 DUP3 SUB PUSH1 0xA0 DUP8 ADD MSTORE PUSH2 0x57CE JUMP JUMPDEST SWAP4 ADD MLOAD ISZERO ISZERO SWAP2 ADD MSTORE SWAP1 JUMP JUMPDEST DUP1 SLOAD DUP3 LT ISZERO PUSH2 0xBB0 JUMPI PUSH1 0x0 MSTORE PUSH1 0x6 PUSH1 0x20 PUSH1 0x0 KECCAK256 SWAP2 MUL ADD SWAP1 PUSH1 0x0 SWAP1 JUMP JUMPDEST SWAP1 DUP2 MLOAD DUP1 DUP3 MSTORE PUSH1 0x20 DUP1 SWAP3 ADD SWAP2 DUP3 DUP2 DUP4 PUSH1 0x5 SHL DUP6 ADD SWAP6 ADD SWAP4 PUSH1 0x0 SWAP2 JUMPDEST DUP5 DUP4 LT PUSH2 0x5DD1 JUMPI POP POP POP POP POP POP SWAP1 JUMP JUMPDEST SWAP1 SWAP2 SWAP3 SWAP4 SWAP5 SWAP6 DUP5 DUP1 PUSH2 0x5DEB DUP4 DUP6 PUSH1 0x1 SWAP6 SUB DUP8 MSTORE DUP11 MLOAD PUSH2 0x57CE JUMP JUMPDEST SWAP9 ADD SWAP4 ADD SWAP4 ADD SWAP2 SWAP5 SWAP4 SWAP3 SWAP1 PUSH2 0x5DC1 JUMP JUMPDEST SWAP1 DUP2 MLOAD DUP1 DUP3 MSTORE PUSH1 0x20 DUP1 SWAP3 ADD SWAP2 DUP3 DUP2 DUP4 PUSH1 0x5 SHL DUP3 ADD SWAP6 ADD SWAP4 PUSH1 0x0 SWAP2 JUMPDEST DUP5 DUP4 LT PUSH2 0x5E26 JUMPI POP POP POP POP POP POP SWAP1 JUMP JUMPDEST SWAP1 SWAP2 SWAP3 SWAP4 SWAP5 SWAP6 DUP5 DUP1 PUSH2 0x5E59 DUP4 DUP6 PUSH1 0x1 SWAP6 SUB DUP8 MSTORE DUP3 DUP12 MLOAD DUP7 DUP1 PUSH1 0xA0 SHL SUB DUP2 MLOAD AND DUP4 MSTORE ADD MLOAD SWAP1 PUSH1 0x40 SWAP1 DUP2 DUP6 DUP3 ADD MSTORE ADD SWAP1 PUSH2 0x57CE JUMP JUMPDEST SWAP9 ADD SWAP4 ADD SWAP4 ADD SWAP2 SWAP5 SWAP4 SWAP3 SWAP1 PUSH2 0x5E16 JUMP JUMPDEST DUP2 DUP2 LT PUSH2 0x5E74 JUMPI POP POP JUMP JUMPDEST PUSH1 0x0 DUP2 SSTORE PUSH1 0x1 ADD PUSH2 0x5E69 JUMP JUMPDEST SWAP2 SWAP1 PUSH1 0x1F DUP2 GT PUSH2 0x5E8F JUMPI POP POP POP JUMP JUMPDEST PUSH2 0x5766 SWAP3 PUSH1 0x0 MSTORE PUSH1 0x20 PUSH1 0x0 KECCAK256 SWAP1 PUSH1 0x20 PUSH1 0x1F DUP5 ADD PUSH1 0x5 SHR DUP4 ADD SWAP4 LT PUSH2 0x5EBB JUMPI JUMPDEST PUSH1 0x1F ADD PUSH1 0x5 SHR ADD SWAP1 PUSH2 0x5E69 JUMP JUMPDEST SWAP1 SWAP2 POP DUP2 SWAP1 PUSH2 0x5EAE JUMP JUMPDEST SWAP2 SWAP1 SWAP2 DUP3 MLOAD PUSH1 0x1 PUSH1 0x1 PUSH1 0x40 SHL SUB DUP2 GT PUSH2 0xBC6 JUMPI PUSH2 0x5EEC DUP2 PUSH2 0x5EE6 DUP5 SLOAD PUSH2 0x560E JUMP JUMPDEST DUP5 PUSH2 0x5E80 JUMP JUMPDEST PUSH1 0x20 DUP1 PUSH1 0x1F DUP4 GT PUSH1 0x1 EQ PUSH2 0x5F28 JUMPI POP DUP2 SWAP3 SWAP4 SWAP5 PUSH1 0x0 SWAP3 PUSH2 0x5F1D JUMPI JUMPDEST POP POP DUP2 PUSH1 0x1 SHL SWAP2 PUSH1 0x0 NOT SWAP1 PUSH1 0x3 SHL SHR NOT AND OR SWAP1 SSTORE JUMP JUMPDEST ADD MLOAD SWAP1 POP CODESIZE DUP1 PUSH2 0x5F07 JUMP JUMPDEST SWAP1 PUSH1 0x1F NOT DUP4 AND SWAP6 DUP5 PUSH1 0x0 MSTORE DUP3 PUSH1 0x0 KECCAK256 SWAP3 PUSH1 0x0 SWAP1 JUMPDEST DUP9 DUP3 LT PUSH2 0x5F74 JUMPI POP POP DUP4 PUSH1 0x1 SWAP6 SWAP7 SWAP8 LT PUSH2 0x5F5B JUMPI JUMPDEST POP POP POP DUP2 SHL ADD SWAP1 SSTORE JUMP JUMPDEST ADD MLOAD PUSH1 0x0 NOT PUSH1 0xF8 DUP5 PUSH1 0x3 SHL AND SHR NOT AND SWAP1 SSTORE CODESIZE DUP1 DUP1 PUSH2 0x5F51 JUMP JUMPDEST DUP1 PUSH1 0x1 DUP6 SWAP7 DUP3 SWAP5 SWAP7 DUP7 ADD MLOAD DUP2 SSTORE ADD SWAP6 ADD SWAP4 ADD SWAP1 PUSH2 0x5F3C JUMP JUMPDEST PUSH1 0x40 MLOAD SWAP1 PUSH2 0x5F99 DUP3 PUSH2 0x56B6 JUMP JUMPDEST PUSH1 0xE DUP3 MSTORE PUSH14 0x1359591A58D85B08149958DBDC99 PUSH1 0x92 SHL PUSH1 0x20 DUP4 ADD MSTORE JUMP JUMPDEST SWAP1 PUSH1 0x40 MLOAD PUSH2 0x5FC3 DUP2 PUSH2 0x5663 JUMP JUMPDEST PUSH1 0xE0 PUSH1 0xFF PUSH1 0x6 DUP4 SWAP6 DUP1 SLOAD DUP6 MSTORE PUSH1 0x1 DUP2 ADD SLOAD PUSH1 0x20 DUP7 ADD MSTORE PUSH2 0x5FE5 PUSH1 0x2 DUP3 ADD PUSH2 0x5728 JUMP JUMPDEST PUSH1 0x40 DUP7 ADD MSTORE PUSH2 0x5FF6 PUSH1 0x3 DUP3 ADD PUSH2 0x5728 JUMP JUMPDEST PUSH1 0x60 DUP7 ADD MSTORE PUSH2 0x6007 PUSH1 0x4 DUP3 ADD PUSH2 0x5728 JUMP JUMPDEST PUSH1 0x80 DUP7 ADD MSTORE PUSH1 0x5 DUP2 ADD SLOAD PUSH1 0xA0 DUP7 ADD MSTORE ADD SLOAD PUSH1 0x1 DUP1 PUSH1 0xA0 SHL SUB DUP2 AND PUSH1 0xC0 DUP6 ADD MSTORE PUSH1 0xA0 SHR AND ISZERO ISZERO SWAP2 ADD MSTORE JUMP JUMPDEST ISZERO PUSH2 0x6038 JUMPI JUMP JUMPDEST PUSH1 0x40 MLOAD PUSH3 0x461BCD PUSH1 0xE5 SHL DUP2 MSTORE PUSH1 0x20 PUSH1 0x4 DUP3 ADD MSTORE PUSH1 0x10 PUSH1 0x24 DUP3 ADD MSTORE PUSH16 0x149958DBDC99081B9BDD08199BDD5B99 PUSH1 0x82 SHL PUSH1 0x44 DUP3 ADD MSTORE PUSH1 0x64 SWAP1 REVERT JUMPDEST PUSH1 0x0 NOT DUP2 EQ PUSH2 0x1F3A JUMPI PUSH1 0x1 ADD SWAP1 JUMP JUMPDEST PUSH1 0x40 MLOAD SWAP1 PUSH2 0x608C DUP3 PUSH2 0x56B6 JUMP JUMPDEST PUSH1 0xE DUP3 MSTORE PUSH14 0x1058D8D95CDCC814995C5D595CDD PUSH1 0x92 SHL PUSH1 0x20 DUP4 ADD MSTORE JUMP JUMPDEST ISZERO PUSH2 0x60B0 JUMPI JUMP JUMPDEST PUSH1 0x40 MLOAD PUSH3 0x461BCD PUSH1 0xE5 SHL DUP2 MSTORE PUSH1 0x20 PUSH1 0x4 DUP3 ADD MSTORE PUSH1 0x18 PUSH1 0x24 DUP3 ADD MSTORE PUSH32 0x4E6F74206120726567697374657265642070617469656E740000000000000000 PUSH1 0x44 DUP3 ADD MSTORE PUSH1 0x64 SWAP1 REVERT JUMPDEST ISZERO PUSH2 0x60FC JUMPI JUMP JUMPDEST PUSH1 0x40 MLOAD PUSH3 0x461BCD PUSH1 0xE5 SHL DUP2 MSTORE PUSH1 0x20 PUSH1 0x4 DUP3 ADD MSTORE PUSH1 0x11 PUSH1 0x24 DUP3 ADD MSTORE PUSH17 0x14995C5D595CDD081B9BDD08199BDD5B99 PUSH1 0x7A SHL PUSH1 0x44 DUP3 ADD MSTORE PUSH1 0x64 SWAP1 REVERT JUMPDEST ISZERO PUSH2 0x613C JUMPI JUMP JUMPDEST PUSH1 0x40 MLOAD PUSH3 0x461BCD PUSH1 0xE5 SHL DUP2 MSTORE PUSH1 0x20 PUSH1 0x4 DUP3 ADD MSTORE PUSH1 0x19 PUSH1 0x24 DUP3 ADD MSTORE PUSH32 0x5265717565737420616C72656164792070726F63657373656400000000000000 PUSH1 0x44 DUP3 ADD MSTORE PUSH1 0x64 SWAP1 REVERT JUMPDEST ISZERO PUSH2 0x6188 JUMPI JUMP JUMPDEST PUSH1 0x40 MLOAD PUSH3 0x461BCD PUSH1 0xE5 SHL DUP2 MSTORE PUSH1 0x20 PUSH1 0x4 DUP3 ADD MSTORE PUSH1 0x2F PUSH1 0x24 DUP3 ADD MSTORE PUSH32 0x4F6E6C79207265676973746572656420646F63746F72732063616E2070657266 PUSH1 0x44 DUP3 ADD MSTORE PUSH15 0x37B936903A3434B99030B1BA34B7B7 PUSH1 0x89 SHL PUSH1 0x64 DUP3 ADD MSTORE PUSH1 0x84 SWAP1 REVERT JUMPDEST PUSH1 0x1 PUSH1 0x1 PUSH1 0xA0 SHL SUB SWAP1 DUP2 AND PUSH1 0x0 DUP2 DUP2 MSTORE PUSH1 0x3 PUSH1 0x20 MSTORE PUSH1 0x40 DUP1 DUP3 KECCAK256 SLOAD DUP2 MLOAD SWAP4 SWAP7 SWAP2 SWAP5 SWAP2 SWAP3 SWAP2 SWAP1 PUSH2 0x6213 DUP6 PUSH2 0x5648 JUMP JUMPDEST DUP5 MSTORE PUSH1 0x20 DUP5 ADD DUP8 DUP2 MSTORE DUP6 DUP6 ADD SWAP2 DUP8 DUP4 MSTORE PUSH1 0x60 DUP7 ADD SWAP4 TIMESTAMP DUP6 MSTORE PUSH1 0x80 DUP8 ADD SWAP6 DUP7 MSTORE DUP10 DUP2 MSTORE PUSH1 0x3 PUSH1 0x20 MSTORE DUP8 DUP2 KECCAK256 SWAP1 DUP2 SLOAD SWAP2 PUSH1 0x1 PUSH1 0x40 SHL DUP4 LT ISZERO PUSH2 0x62FF JUMPI PUSH1 0x1 DUP4 ADD DUP1 DUP3 SSTORE DUP4 LT ISZERO PUSH2 0x62EB JUMPI SWAP4 PUSH32 0x9C26059514AB57D9B1C23A991546F58E9339E76427BF2909F3EB15FEB61CD571 SWAP11 SWAP10 SWAP9 SWAP7 SWAP4 PUSH2 0x62BF SWAP4 PUSH1 0x5 PUSH1 0x20 DUP6 PUSH2 0x62CD SWAP13 SWAP10 PUSH1 0x4 SWAP12 SWAP8 MSTORE KECCAK256 SWAP2 MUL ADD SWAP8 MLOAD DUP9 SSTORE PUSH1 0x1 DUP9 ADD SWAP2 MLOAD AND PUSH1 0x1 PUSH1 0x1 PUSH1 0x60 SHL SUB PUSH1 0xA0 SHL DUP3 SLOAD AND OR SWAP1 SSTORE MLOAD PUSH1 0x2 DUP7 ADD PUSH2 0x5EC5 JUMP JUMPDEST MLOAD PUSH1 0x3 DUP5 ADD SSTORE MLOAD SWAP2 ADD PUSH2 0x5EC5 JUMP JUMPDEST PUSH2 0x62E0 DUP2 MLOAD SWAP3 DUP3 DUP5 SWAP4 DUP5 MSTORE DUP4 ADD SWAP1 PUSH2 0x57CE JUMP JUMPDEST TIMESTAMP PUSH1 0x20 DUP4 ADD MSTORE SUB SWAP1 LOG2 JUMP JUMPDEST PUSH4 0x4E487B71 PUSH1 0xE0 SHL DUP3 MSTORE PUSH1 0x32 PUSH1 0x4 MSTORE PUSH1 0x24 DUP3 REVERT JUMPDEST PUSH4 0x4E487B71 PUSH1 0xE0 SHL DUP3 MSTORE PUSH1 0x41 PUSH1 0x4 MSTORE PUSH1 0x24 DUP3 REVERT JUMPDEST ISZERO PUSH2 0x631A JUMPI JUMP JUMPDEST PUSH1 0x40 MLOAD PUSH3 0x461BCD PUSH1 0xE5 SHL DUP2 MSTORE PUSH1 0x20 PUSH1 0x4 DUP3 ADD MSTORE PUSH1 0x22 PUSH1 0x24 DUP3 ADD MSTORE PUSH32 0x4F6E6C792061646D696E2063616E20706572666F726D20746869732061637469 PUSH1 0x44 DUP3 ADD MSTORE PUSH2 0x37B7 PUSH1 0xF1 SHL PUSH1 0x64 DUP3 ADD MSTORE PUSH1 0x84 SWAP1 REVERT JUMPDEST PUSH1 0x40 MLOAD SWAP1 PUSH2 0x6377 DUP3 PUSH2 0x56B6 JUMP JUMPDEST PUSH1 0x8 DUP3 MSTORE PUSH8 0x4D65646963696E65 PUSH1 0xC0 SHL PUSH1 0x20 DUP4 ADD MSTORE JUMP JUMPDEST ISZERO PUSH2 0x6395 JUMPI JUMP JUMPDEST PUSH1 0x40 MLOAD PUSH3 0x461BCD PUSH1 0xE5 SHL DUP2 MSTORE PUSH1 0x20 PUSH1 0x4 DUP3 ADD MSTORE PUSH1 0x17 PUSH1 0x24 DUP3 ADD MSTORE PUSH32 0x4D65646963696E6520646F6573206E6F74206578697374000000000000000000 PUSH1 0x44 DUP3 ADD MSTORE PUSH1 0x64 SWAP1 REVERT JUMPDEST ISZERO PUSH2 0x63E1 JUMPI JUMP JUMPDEST PUSH1 0x40 MLOAD PUSH3 0x461BCD PUSH1 0xE5 SHL DUP2 MSTORE PUSH1 0x20 PUSH1 0x4 DUP3 ADD MSTORE PUSH1 0x1A PUSH1 0x24 DUP3 ADD MSTORE PUSH32 0x496E636F727265637420726567697374726174696F6E20666565000000000000 PUSH1 0x44 DUP3 ADD MSTORE PUSH1 0x64 SWAP1 REVERT JUMPDEST PUSH1 0x40 MLOAD SWAP1 PUSH2 0x6433 DUP3 PUSH2 0x56B6 JUMP JUMPDEST PUSH1 0x6 DUP3 MSTORE PUSH6 0x2237B1BA37B9 PUSH1 0xD1 SHL PUSH1 0x20 DUP4 ADD MSTORE JUMP JUMPDEST ISZERO PUSH2 0x644F JUMPI JUMP JUMPDEST PUSH1 0x40 MLOAD PUSH3 0x461BCD PUSH1 0xE5 SHL DUP2 MSTORE PUSH1 0x20 PUSH1 0x4 DUP3 ADD MSTORE PUSH1 0x15 PUSH1 0x24 DUP3 ADD MSTORE PUSH21 0x111BD8DD1BDC88191BD95CC81B9BDD08195E1A5CDD PUSH1 0x5A SHL PUSH1 0x44 DUP3 ADD MSTORE PUSH1 0x64 SWAP1 REVERT JUMPDEST ISZERO PUSH2 0x6493 JUMPI JUMP JUMPDEST PUSH1 0x40 MLOAD PUSH3 0x461BCD PUSH1 0xE5 SHL DUP2 MSTORE PUSH1 0x20 PUSH1 0x4 DUP3 ADD MSTORE PUSH1 0x16 PUSH1 0x24 DUP3 ADD MSTORE PUSH22 0x14185D1A595B9D08191BD95CC81B9BDD08195E1A5CDD PUSH1 0x52 SHL PUSH1 0x44 DUP3 ADD MSTORE PUSH1 0x64 SWAP1 REVERT JUMPDEST DUP1 SLOAD DUP3 LT ISZERO PUSH2 0xBB0 JUMPI PUSH1 0x0 MSTORE PUSH1 0x20 PUSH1 0x0 KECCAK256 ADD SWAP1 PUSH1 0x0 SWAP1 JUMP JUMPDEST ISZERO PUSH2 0x64F0 JUMPI JUMP JUMPDEST PUSH1 0x40 MLOAD PUSH3 0x461BCD PUSH1 0xE5 SHL DUP2 MSTORE PUSH1 0x20 PUSH1 0x4 DUP3 ADD MSTORE PUSH1 0x1A PUSH1 0x24 DUP3 ADD MSTORE PUSH32 0x4170706F696E746D656E7420646F6573206E6F74206578697374000000000000 PUSH1 0x44 DUP3 ADD MSTORE PUSH1 0x64 SWAP1 REVERT JUMPDEST ISZERO PUSH2 0x653C JUMPI JUMP JUMPDEST PUSH1 0x40 MLOAD PUSH3 0x461BCD PUSH1 0xE5 SHL DUP2 MSTORE PUSH1 0x20 PUSH1 0x4 DUP3 ADD MSTORE PUSH1 0x16 PUSH1 0x24 DUP3 ADD MSTORE PUSH22 0x111BD8DD1BDC881A5CC81B9BDD08185C1C1C9BDD9959 PUSH1 0x52 SHL PUSH1 0x44 DUP3 ADD MSTORE PUSH1 0x64 SWAP1 REVERT JUMPDEST PUSH1 0x40 MLOAD SWAP1 PUSH2 0x6587 DUP3 PUSH2 0x56B6 JUMP JUMPDEST PUSH1 0x7 DUP3 MSTORE PUSH7 0x14185D1A595B9D PUSH1 0xCA SHL PUSH1 0x20 DUP4 ADD MSTORE JUMP JUMPDEST SWAP2 SWAP1 DUP3 SUB SWAP2 DUP3 GT PUSH2 0x1F3A JUMPI JUMP JUMPDEST PUSH1 0x40 MLOAD SWAP1 PUSH2 0x65B7 DUP3 PUSH2 0x56B6 JUMP JUMPDEST PUSH1 0x5 DUP3 MSTORE PUSH5 0x20B236B4B7 PUSH1 0xD9 SHL PUSH1 0x20 DUP4 ADD MSTORE JUMP JUMPDEST PUSH1 0x40 MLOAD SWAP1 PUSH2 0x65D8 DUP3 PUSH2 0x5648 JUMP JUMPDEST PUSH1 0x0 PUSH1 0x80 DUP4 DUP3 DUP2 MSTORE DUP3 PUSH1 0x20 DUP3 ADD MSTORE DUP3 PUSH1 0x40 DUP3 ADD MSTORE DUP3 PUSH1 0x60 DUP3 ADD MSTORE ADD MSTORE JUMP JUMPDEST SWAP1 PUSH2 0x6600 DUP3 PUSH2 0x59D7 JUMP JUMPDEST PUSH2 0x660D PUSH1 0x40 MLOAD SWAP2 DUP3 PUSH2 0x5707 JUMP JUMPDEST DUP3 DUP2 MSTORE DUP1 SWAP3 PUSH2 0x661E PUSH1 0x1F NOT SWAP2 PUSH2 0x59D7 JUMP JUMPDEST ADD SWAP1 PUSH1 0x0 JUMPDEST DUP3 DUP2 LT PUSH2 0x662F JUMPI POP POP POP JUMP JUMPDEST PUSH1 0x20 SWAP1 PUSH2 0x663A PUSH2 0x65CB JUMP JUMPDEST DUP3 DUP3 DUP6 ADD ADD MSTORE ADD PUSH2 0x6623 JUMP JUMPDEST DUP1 MLOAD DUP3 LT ISZERO PUSH2 0xBB0 JUMPI PUSH1 0x20 SWAP2 PUSH1 0x5 SHL ADD ADD SWAP1 JUMP JUMPDEST PUSH1 0x40 MLOAD SWAP1 PUSH2 0x6667 DUP3 PUSH2 0x5648 JUMP JUMPDEST PUSH1 0x60 PUSH1 0x80 DUP4 PUSH1 0x0 DUP2 MSTORE DUP3 PUSH1 0x20 DUP3 ADD MSTORE DUP3 PUSH1 0x40 DUP3 ADD MSTORE PUSH1 0x0 DUP4 DUP3 ADD MSTORE ADD MSTORE JUMP JUMPDEST SWAP1 PUSH2 0x6690 DUP3 PUSH2 0x59D7 JUMP JUMPDEST PUSH2 0x669D PUSH1 0x40 MLOAD SWAP2 DUP3 PUSH2 0x5707 JUMP JUMPDEST DUP3 DUP2 MSTORE DUP1 SWAP3 PUSH2 0x66AE PUSH1 0x1F NOT SWAP2 PUSH2 0x59D7 JUMP JUMPDEST ADD SWAP1 PUSH1 0x0 JUMPDEST DUP3 DUP2 LT PUSH2 0x66BF JUMPI POP POP POP JUMP JUMPDEST PUSH1 0x20 SWAP1 PUSH2 0x66CA PUSH2 0x665A JUMP JUMPDEST DUP3 DUP3 DUP6 ADD ADD MSTORE ADD PUSH2 0x66B3 JUMP JUMPDEST SWAP1 DUP2 SLOAD PUSH2 0x66E2 DUP2 PUSH2 0x59D7 JUMP JUMPDEST SWAP3 PUSH2 0x66F0 PUSH1 0x40 MLOAD SWAP5 DUP6 PUSH2 0x5707 JUMP JUMPDEST DUP2 DUP5 MSTORE PUSH1 0x0 SWAP1 DUP2 MSTORE PUSH1 0x20 DUP1 DUP3 KECCAK256 DUP2 DUP7 ADD JUMPDEST DUP5 DUP5 LT PUSH2 0x670F JUMPI POP POP POP POP POP JUMP JUMPDEST PUSH1 0x1 DUP4 DUP2 SWAP3 PUSH2 0x671D DUP6 PUSH2 0x5728 JUMP JUMPDEST DUP2 MSTORE ADD SWAP3 ADD SWAP4 ADD SWAP3 SWAP1 PUSH2 0x6701 JUMP JUMPDEST SWAP1 PUSH1 0x40 MLOAD SWAP2 DUP3 DUP2 SLOAD SWAP2 DUP3 DUP3 MSTORE PUSH1 0x20 SWAP3 DUP4 DUP4 ADD SWAP2 PUSH1 0x0 MSTORE DUP4 PUSH1 0x0 KECCAK256 SWAP4 PUSH1 0x0 SWAP1 JUMPDEST DUP3 DUP3 LT PUSH2 0x6760 JUMPI POP POP POP PUSH2 0x5766 SWAP3 POP SUB DUP4 PUSH2 0x5707 JUMP JUMPDEST DUP6 SLOAD DUP5 MSTORE PUSH1 0x1 SWAP6 DUP7 ADD SWAP6 DUP9 SWAP6 POP SWAP4 DUP2 ADD SWAP4 SWAP1 SWAP2 ADD SWAP1 PUSH2 0x674A JUMP JUMPDEST PUSH1 0x1 PUSH1 0x1 PUSH1 0xA0 SHL SUB AND PUSH1 0x0 SWAP1 DUP2 MSTORE PUSH1 0xD PUSH1 0x20 MSTORE PUSH1 0x40 SWAP1 KECCAK256 SLOAD DUP1 ISZERO PUSH2 0x679B JUMPI SWAP1 JUMP JUMPDEST PUSH1 0x40 MLOAD PUSH3 0x461BCD PUSH1 0xE5 SHL DUP2 MSTORE PUSH1 0x20 PUSH1 0x4 DUP3 ADD MSTORE PUSH1 0x11 PUSH1 0x24 DUP3 ADD MSTORE PUSH17 0x14185D1A595B9D081B9BDD08199BDD5B99 PUSH1 0x7A SHL PUSH1 0x44 DUP3 ADD MSTORE PUSH1 0x64 SWAP1 REVERT JUMPDEST PUSH1 0x40 MLOAD SWAP1 PUSH2 0x67E1 DUP3 PUSH2 0x567F JUMP JUMPDEST PUSH1 0x0 PUSH2 0x120 DUP4 DUP3 DUP2 MSTORE DUP3 PUSH1 0x20 DUP3 ADD MSTORE DUP3 PUSH1 0x40 DUP3 ADD MSTORE PUSH1 0x60 DUP4 DUP2 DUP4 ADD MSTORE DUP1 PUSH1 0x80 DUP4 ADD MSTORE DUP1 PUSH1 0xA0 DUP4 ADD MSTORE DUP1 PUSH1 0xC0 DUP4 ADD MSTORE DUP1 PUSH1 0xE0 DUP4 ADD MSTORE PUSH2 0x100 DUP3 ADD MSTORE ADD MSTORE JUMP JUMPDEST SWAP1 PUSH2 0x6829 DUP3 PUSH2 0x59D7 JUMP JUMPDEST PUSH2 0x6836 PUSH1 0x40 MLOAD SWAP2 DUP3 PUSH2 0x5707 JUMP JUMPDEST DUP3 DUP2 MSTORE DUP1 SWAP3 PUSH2 0x6847 PUSH1 0x1F NOT SWAP2 PUSH2 0x59D7 JUMP JUMPDEST ADD SWAP1 PUSH1 0x0 JUMPDEST DUP3 DUP2 LT PUSH2 0x6858 JUMPI POP POP POP JUMP JUMPDEST PUSH1 0x20 SWAP1 PUSH2 0x6863 PUSH2 0x67D4 JUMP JUMPDEST DUP3 DUP3 DUP6 ADD ADD MSTORE ADD PUSH2 0x684C JUMP JUMPDEST PUSH1 0x40 MLOAD SWAP1 PUSH2 0x687C DUP3 PUSH2 0x569B JUMP JUMPDEST PUSH1 0x0 PUSH1 0xA0 DUP4 DUP3 DUP2 MSTORE PUSH1 0x60 PUSH1 0x20 DUP3 ADD MSTORE DUP3 PUSH1 0x40 DUP3 ADD MSTORE DUP3 PUSH1 0x60 DUP3 ADD MSTORE DUP3 PUSH1 0x80 DUP3 ADD MSTORE ADD MSTORE JUMP JUMPDEST SWAP1 PUSH2 0x68AB DUP3 PUSH2 0x59D7 JUMP JUMPDEST PUSH2 0x68B8 PUSH1 0x40 MLOAD SWAP2 DUP3 PUSH2 0x5707 JUMP JUMPDEST DUP3 DUP2 MSTORE DUP1 SWAP3 PUSH2 0x68C9 PUSH1 0x1F NOT SWAP2 PUSH2 0x59D7 JUMP JUMPDEST ADD SWAP1 PUSH1 0x0 JUMPDEST DUP3 DUP2 LT PUSH2 0x68DA JUMPI POP POP POP JUMP JUMPDEST PUSH1 0x20 SWAP1 PUSH2 0x68E5 PUSH2 0x686F JUMP JUMPDEST DUP3 DUP3 DUP6 ADD ADD MSTORE ADD PUSH2 0x68CE JUMP JUMPDEST PUSH1 0x1 PUSH1 0x1 PUSH1 0xA0 SHL SUB AND PUSH1 0x0 SWAP1 DUP2 MSTORE PUSH1 0xC PUSH1 0x20 MSTORE PUSH1 0x40 SWAP1 KECCAK256 SLOAD DUP1 ISZERO PUSH2 0x6912 JUMPI SWAP1 JUMP JUMPDEST PUSH1 0x40 MLOAD PUSH3 0x461BCD PUSH1 0xE5 SHL DUP2 MSTORE PUSH1 0x20 PUSH1 0x4 DUP3 ADD MSTORE PUSH1 0x10 PUSH1 0x24 DUP3 ADD MSTORE PUSH16 0x111BD8DD1BDC881B9BDD08199BDD5B99 PUSH1 0x82 SHL PUSH1 0x44 DUP3 ADD MSTORE PUSH1 0x64 SWAP1 REVERT JUMPDEST PUSH1 0x40 MLOAD SWAP1 PUSH2 0x6957 DUP3 PUSH2 0x56D1 JUMP JUMPDEST PUSH1 0x0 PUSH1 0xC0 DUP4 DUP3 DUP2 MSTORE PUSH1 0x60 PUSH1 0x20 DUP3 ADD MSTORE DUP3 PUSH1 0x40 DUP3 ADD MSTORE DUP3 PUSH1 0x60 DUP3 ADD MSTORE DUP3 PUSH1 0x80 DUP3 ADD MSTORE PUSH1 0x60 PUSH1 0xA0 DUP3 ADD MSTORE ADD MSTORE JUMP JUMPDEST PUSH1 0x1 PUSH1 0x1 PUSH1 0xA0 SHL SUB AND PUSH1 0x0 SWAP1 DUP2 MSTORE PUSH1 0x1 PUSH1 0x20 MSTORE PUSH1 0x40 SWAP1 KECCAK256 SLOAD PUSH2 0x69A4 SWAP1 PUSH2 0x560E JUMP JUMPDEST ISZERO ISZERO SWAP1 JUMP JUMPDEST DUP1 SLOAD DUP3 LT ISZERO PUSH2 0xBB0 JUMPI PUSH1 0x0 MSTORE PUSH1 0x20 PUSH1 0x0 KECCAK256 SWAP1 PUSH1 0x1 SHL ADD SWAP1 PUSH1 0x0 SWAP1 JUMP JUMPDEST SWAP3 PUSH2 0x69CF DUP4 PUSH2 0x6983 JUMP JUMPDEST PUSH2 0x6BF9 JUMPI DUP2 ISZERO PUSH2 0x6BB4 JUMPI PUSH1 0x1 DUP1 PUSH1 0xA0 SHL SUB DUP1 SWAP4 AND SWAP4 PUSH1 0x0 SWAP2 DUP6 DUP4 MSTORE PUSH1 0x1 SWAP2 PUSH1 0x20 SWAP2 DUP4 DUP4 MSTORE PUSH1 0x40 DUP6 KECCAK256 PUSH1 0x1 PUSH1 0x1 PUSH1 0x40 SHL SUB DUP8 GT PUSH2 0x6BA0 JUMPI PUSH2 0x6A19 DUP8 PUSH2 0x6A13 DUP4 SLOAD PUSH2 0x560E JUMP JUMPDEST DUP4 PUSH2 0x5E80 JUMP JUMPDEST DUP7 DUP7 PUSH1 0x1F DUP3 GT PUSH1 0x1 EQ PUSH2 0x6B32 JUMPI SWAP2 PUSH2 0x6A70 SWAP5 SWAP4 SWAP2 PUSH2 0x6A5C SWAP4 DUP10 SWAP2 PUSH2 0x6B27 JUMPI JUMPDEST POP PUSH1 0x0 NOT PUSH1 0x3 DUP12 SWAP1 SHL SHR NOT AND DUP10 DUP9 SHL OR SWAP1 SSTORE JUMPDEST DUP10 DUP8 MSTORE DUP6 DUP6 MSTORE DUP6 PUSH1 0x40 DUP9 KECCAK256 ADD PUSH2 0x5EC5 JUMP JUMPDEST PUSH1 0x40 MLOAD SWAP6 PUSH2 0x6A69 DUP8 PUSH2 0x56B6 JUMP JUMPDEST CALLDATASIZE SWAP2 PUSH2 0x5840 JUMP JUMPDEST DUP5 MSTORE DUP4 ADD SWAP5 DUP6 MSTORE DUP2 SLOAD SWAP2 PUSH1 0x1 PUSH1 0x40 SHL DUP4 LT ISZERO PUSH2 0x6B13 JUMPI DUP2 DUP4 ADD DUP1 DUP3 SSTORE DUP4 LT ISZERO PUSH2 0x6AFF JUMPI SWAP2 PUSH2 0x6AE8 SWAP2 DUP4 PUSH32 0x290DECD9548B62A8D60345A988386FC84BA6BC95484008F6362F93160EF3E564 SWAP6 SWAP5 MSTORE SHL SWAP2 MLOAD DUP3 PUSH32 0x290DECD9548B62A8D60345A988386FC84BA6BC95484008F6362F93160EF3E563 ADD PUSH2 0x5EC5 JUMP JUMPDEST ADD SWAP2 MLOAD AND PUSH1 0x1 PUSH1 0x1 PUSH1 0x60 SHL SUB PUSH1 0xA0 SHL DUP3 SLOAD AND OR SWAP1 SSTORE JUMP JUMPDEST PUSH4 0x4E487B71 PUSH1 0xE0 SHL DUP2 MSTORE PUSH1 0x32 PUSH1 0x4 MSTORE PUSH1 0x24 SWAP1 REVERT JUMPDEST PUSH4 0x4E487B71 PUSH1 0xE0 SHL DUP2 MSTORE PUSH1 0x41 PUSH1 0x4 MSTORE PUSH1 0x24 SWAP1 REVERT JUMPDEST SWAP1 POP DUP5 ADD CALLDATALOAD CODESIZE PUSH2 0x6A38 JUMP JUMPDEST DUP3 DUP9 MSTORE DUP6 DUP9 KECCAK256 SWAP2 POP DUP9 PUSH1 0x1F NOT DUP2 AND DUP10 JUMPDEST DUP9 DUP11 DUP4 DUP4 LT PUSH2 0x6B89 JUMPI POP POP POP SWAP2 PUSH2 0x6A70 SWAP7 SWAP6 SWAP4 SWAP2 PUSH2 0x6A5C SWAP6 SWAP4 LT PUSH2 0x6B6F JUMPI JUMPDEST POP POP DUP7 DUP10 DUP2 SHL ADD SWAP1 SSTORE PUSH2 0x6A4B JUMP JUMPDEST DUP6 ADD CALLDATALOAD PUSH1 0x0 NOT PUSH1 0x3 DUP13 SWAP1 SHL PUSH1 0xF8 AND SHR NOT AND SWAP1 SSTORE CODESIZE DUP1 PUSH2 0x6B61 JUMP JUMPDEST DUP6 DUP11 ADD CALLDATALOAD DUP8 SSTORE SWAP1 SWAP6 ADD SWAP5 SWAP4 DUP5 ADD SWAP4 DUP13 SWAP4 POP ADD PUSH2 0x6B42 JUMP JUMPDEST PUSH4 0x4E487B71 PUSH1 0xE0 SHL DUP7 MSTORE PUSH1 0x41 PUSH1 0x4 MSTORE PUSH1 0x24 DUP7 REVERT JUMPDEST PUSH1 0x40 MLOAD PUSH3 0x461BCD PUSH1 0xE5 SHL DUP2 MSTORE PUSH1 0x20 PUSH1 0x4 DUP3 ADD MSTORE PUSH1 0x18 PUSH1 0x24 DUP3 ADD MSTORE PUSH32 0x557365726E616D652063616E6E6F7420626520656D7074790000000000000000 PUSH1 0x44 DUP3 ADD MSTORE PUSH1 0x64 SWAP1 REVERT JUMPDEST PUSH1 0x40 MLOAD PUSH3 0x461BCD PUSH1 0xE5 SHL DUP2 MSTORE PUSH1 0x20 PUSH1 0x4 DUP3 ADD MSTORE PUSH1 0x13 PUSH1 0x24 DUP3 ADD MSTORE PUSH19 0x5573657220616C726561647920657869737473 PUSH1 0x68 SHL PUSH1 0x44 DUP3 ADD MSTORE PUSH1 0x64 SWAP1 REVERT JUMPDEST ISZERO PUSH2 0x6C3B JUMPI JUMP JUMPDEST PUSH1 0x40 MLOAD PUSH3 0x461BCD PUSH1 0xE5 SHL DUP2 MSTORE PUSH1 0x20 PUSH1 0x4 DUP3 ADD MSTORE PUSH1 0x16 PUSH1 0x24 DUP3 ADD MSTORE PUSH22 0x155CD95C881A5CC81B9BDD081C9959DA5CDD195C9959 PUSH1 0x52 SHL PUSH1 0x44 DUP3 ADD MSTORE PUSH1 0x64 SWAP1 REVERT JUMPDEST SWAP1 DUP2 SLOAD PUSH2 0x6C85 DUP2 PUSH2 0x59D7 JUMP JUMPDEST SWAP3 PUSH1 0x40 SWAP4 PUSH2 0x6C95 DUP6 MLOAD SWAP2 DUP3 PUSH2 0x5707 JUMP JUMPDEST DUP3 DUP2 MSTORE DUP1 SWAP5 PUSH1 0x20 DUP1 SWAP3 ADD SWAP3 PUSH1 0x0 MSTORE DUP2 PUSH1 0x0 KECCAK256 SWAP1 PUSH1 0x0 SWAP4 JUMPDEST DUP6 DUP6 LT PUSH2 0x6CBB JUMPI POP POP POP POP POP POP JUMP JUMPDEST PUSH1 0x2 DUP5 PUSH1 0x1 SWAP3 DUP5 MLOAD PUSH2 0x6CCC DUP2 PUSH2 0x56B6 JUMP JUMPDEST DUP5 DUP1 PUSH1 0xA0 SHL SUB DUP8 SLOAD AND DUP2 MSTORE PUSH2 0x6CE2 DUP6 DUP9 ADD PUSH2 0x5728 JUMP JUMPDEST DUP4 DUP3 ADD MSTORE DUP2 MSTORE ADD SWAP4 ADD SWAP5 ADD SWAP4 SWAP2 PUSH2 0x6CAC JUMP JUMPDEST ISZERO PUSH2 0x6CFB JUMPI JUMP JUMPDEST PUSH1 0x40 MLOAD PUSH3 0x461BCD PUSH1 0xE5 SHL DUP2 MSTORE PUSH1 0x20 PUSH1 0x4 DUP3 ADD MSTORE PUSH1 0x17 PUSH1 0x24 DUP3 ADD MSTORE PUSH32 0x43726561746520616E206163636F756E74206669727374000000000000000000 PUSH1 0x44 DUP3 ADD MSTORE PUSH1 0x64 SWAP1 REVERT JUMPDEST SWAP2 SWAP3 SWAP1 PUSH2 0x6D4F PUSH2 0xA27 DUP4 PUSH2 0x6983 JUMP JUMPDEST PUSH2 0x6D58 DUP4 PUSH2 0x6983 JUMP JUMPDEST ISZERO PUSH2 0x6E1B JUMPI PUSH1 0x1 PUSH1 0x1 PUSH1 0xA0 SHL SUB DUP3 DUP2 AND SWAP2 SWAP1 DUP5 AND DUP3 EQ PUSH2 0x6DC7 JUMPI PUSH2 0x6D7C DUP5 DUP5 PUSH2 0x6E60 JUMP JUMPDEST ISZERO PUSH2 0x6D89 JUMPI JUMPDEST POP POP POP POP POP JUMP JUMPDEST PUSH2 0x6D9B PUSH2 0x6DA2 SWAP2 PUSH2 0x6DBD SWAP7 CALLDATASIZE SWAP2 PUSH2 0x5840 JUMP JUMPDEST DUP5 DUP5 PUSH2 0x6F02 JUMP JUMPDEST PUSH1 0x0 MSTORE PUSH1 0x1 PUSH1 0x20 MSTORE PUSH2 0x6DB7 PUSH1 0x40 PUSH1 0x0 KECCAK256 PUSH2 0x5728 JUMP JUMPDEST SWAP2 PUSH2 0x6F02 JUMP JUMPDEST CODESIZE DUP1 DUP1 DUP1 DUP1 PUSH2 0x6D82 JUMP JUMPDEST PUSH1 0x40 MLOAD PUSH3 0x461BCD PUSH1 0xE5 SHL DUP2 MSTORE PUSH1 0x20 PUSH1 0x4 DUP3 ADD MSTORE PUSH1 0x26 PUSH1 0x24 DUP3 ADD MSTORE PUSH32 0x55736572732063616E6E6F7420616464207468656D73656C7665732061732066 PUSH1 0x44 DUP3 ADD MSTORE PUSH6 0x7269656E6473 PUSH1 0xD0 SHL PUSH1 0x64 DUP3 ADD MSTORE PUSH1 0x84 SWAP1 REVERT JUMPDEST PUSH1 0x40 MLOAD PUSH3 0x461BCD PUSH1 0xE5 SHL DUP2 MSTORE PUSH1 0x20 PUSH1 0x4 DUP3 ADD MSTORE PUSH1 0x17 PUSH1 0x24 DUP3 ADD MSTORE PUSH32 0x55736572206973206E6F74207265676973746572656421000000000000000000 PUSH1 0x44 DUP3 ADD MSTORE PUSH1 0x64 SWAP1 REVERT JUMPDEST PUSH1 0x1 DUP1 PUSH1 0xA0 SHL SUB SWAP1 PUSH1 0x0 SWAP3 DUP3 DUP3 AND DUP5 MSTORE PUSH1 0x1 SWAP3 DUP4 SWAP3 PUSH1 0x20 SWAP1 DUP5 DUP3 MSTORE PUSH1 0x2 SWAP2 PUSH1 0x40 SWAP2 DUP4 DUP4 DUP11 KECCAK256 ADD SLOAD DUP6 DUP8 AND DUP11 MSTORE DUP5 DUP5 DUP12 KECCAK256 ADD SLOAD LT PUSH2 0x6EFC JUMPI JUMPDEST DUP9 SWAP8 JUMPDEST PUSH2 0x6EAC JUMPI JUMPDEST POP POP POP POP POP POP POP SWAP1 POP SWAP1 JUMP JUMPDEST DUP5 DUP2 AND DUP9 MSTORE DUP7 DUP3 MSTORE DUP4 DUP4 DUP10 KECCAK256 ADD DUP1 SLOAD DUP11 LT ISZERO PUSH2 0x6EF6 JUMPI PUSH2 0x6ECD DUP11 DUP8 SWAP3 PUSH2 0x69A9 JUMP JUMPDEST POP SLOAD AND DUP6 DUP8 AND EQ PUSH2 0x6EEA JUMPI PUSH2 0x6EE3 DUP8 SWAP9 SWAP10 PUSH2 0x6070 JUMP JUMPDEST SWAP9 SWAP8 PUSH2 0x6E9B JUMP JUMPDEST POP POP POP POP POP POP SWAP2 POP POP SWAP1 JUMP JUMPDEST POP PUSH2 0x6EA0 JUMP JUMPDEST SWAP5 PUSH2 0x6E98 JUMP JUMPDEST SWAP2 SWAP1 PUSH1 0x40 MLOAD PUSH2 0x6F10 DUP2 PUSH2 0x56B6 JUMP JUMPDEST PUSH1 0x1 PUSH1 0x1 PUSH1 0xA0 SHL SUB SWAP2 DUP3 AND DUP2 MSTORE PUSH1 0x20 DUP1 DUP3 ADD SWAP4 DUP5 MSTORE SWAP4 DUP3 AND PUSH1 0x0 SWAP1 DUP2 MSTORE PUSH1 0x1 SWAP1 SWAP5 MSTORE PUSH1 0x40 DUP5 KECCAK256 PUSH1 0x2 ADD DUP1 SLOAD SWAP1 PUSH1 0x1 PUSH1 0x40 SHL DUP3 LT ISZERO PUSH2 0x6BA0 JUMPI SWAP1 PUSH2 0x6F58 SWAP2 PUSH1 0x1 DUP3 ADD DUP2 SSTORE PUSH2 0x69A9 JUMP JUMPDEST SWAP5 SWAP1 SWAP5 PUSH2 0x6F7F JUMPI POP MLOAD DUP4 SLOAD PUSH1 0x1 PUSH1 0x1 PUSH1 0xA0 SHL SUB NOT AND SWAP2 AND OR DUP3 SSTORE MLOAD PUSH2 0x5766 SWAP2 PUSH1 0x1 ADD PUSH2 0x5EC5 JUMP JUMPDEST PUSH4 0x4E487B71 PUSH1 0xE0 SHL DUP2 MSTORE PUSH1 0x4 DUP2 SWAP1 MSTORE PUSH1 0x24 SWAP1 REVERT JUMPDEST PUSH1 0x40 MLOAD SWAP1 PUSH2 0x6FA0 DUP3 PUSH2 0x56B6 JUMP JUMPDEST PUSH1 0x7 DUP3 MSTORE PUSH7 0x4D657373616765 PUSH1 0xC8 SHL PUSH1 0x20 DUP4 ADD MSTORE JUMP JUMPDEST SWAP1 PUSH1 0x1 PUSH1 0x1 PUSH1 0xA0 SHL SUB DUP1 DUP3 AND SWAP1 DUP4 AND LT ISZERO PUSH2 0x7014 JUMPI PUSH2 0x700E PUSH2 0x7000 SWAP2 PUSH1 0x40 MLOAD SWAP3 DUP4 SWAP2 PUSH1 0x20 DUP4 ADD SWAP6 DUP7 SWAP1 PUSH1 0x28 SWAP3 PUSH1 0x1 PUSH1 0x1 PUSH1 0x60 SHL SUB NOT DUP1 SWAP3 PUSH1 0x60 SHL AND DUP4 MSTORE PUSH1 0x60 SHL AND PUSH1 0x14 DUP3 ADD MSTORE ADD SWAP1 JUMP JUMPDEST SUB PUSH1 0x1F NOT DUP2 ADD DUP4 MSTORE DUP3 PUSH2 0x5707 JUMP JUMPDEST MLOAD SWAP1 KECCAK256 SWAP1 JUMP JUMPDEST PUSH1 0x40 MLOAD PUSH12 0xFFFFFFFFFFFFFFFFFFFFFFFF NOT PUSH1 0x60 SWAP3 DUP4 SHL DUP2 AND PUSH1 0x20 DUP4 ADD SWAP1 DUP2 MSTORE SWAP4 SWAP1 SWAP3 SHL SWAP1 SWAP2 AND PUSH1 0x34 DUP3 ADD MSTORE PUSH2 0x700E DUP2 PUSH1 0x48 DUP2 ADD PUSH2 0x7000 JUMP INVALID LOG2 PUSH5 0x6970667358 0x22 SLT KECCAK256 JUMPI PUSH2 0xDA30 SWAP6 0xF8 BALANCE KECCAK256 CREATE2 SWAP8 EXP LOG1 SWAP14 PUSH27 0x26CE5E3409AD613D7CE8F62B3CFF3765FDB864736F6C6343000813 STOP CALLER "},"methodIdentifiers":{"ADD_DOCTOR(string,address,string,string)":"b884db75","ADD_MEDICINE(string,uint256,uint256,uint256,string)":"dd1bf902","ADD_PATIENTS(string,string[],address,uint256[],string,address,string,string)":"5970cea4","APPROVE_DOCTOR_STATUS(uint256)":"5597958e","BOOK_APPOINTMENT(uint256,uint256,string,string,string,string,string,address,string)":"ebd557d9","BUY_MEDICINE(uint256,uint256,uint256)":"8366304b","CHECK_USER_EXISTS(address)":"1b82207e","COMPLETE_APPOINTMENT(uint256)":"fd9510d5","GET_ALL_APPOINTMENTS()":"ea51cd6c","GET_ALL_APPROVED_DOCTORS()":"d0da2306","GET_ALL_APP_USER()":"828b10da","GET_ALL_PATIENT_ORDERS(uint256)":"56baa64e","GET_ALL_PRESCRIBED_MEDICINES()":"8c9e245d","GET_ALL_PRESCRIBED_MEDICINES_OF_PATIENT(uint256)":"7c0b501a","GET_ALL_REGISTERED_DOCTORS()":"770d954d","GET_ALL_REGISTERED_MEDICINES()":"9fea8c26","GET_ALL_REGISTERED_PATIENTS()":"842f8dd0","GET_BOUGHT_MEDICINE_BY_PAITENT(uint256)":"636d3627","GET_DOCTOR_APPOINTMENTS_HISTORYS(uint256)":"72de4401","GET_DOCTOR_DETAILS(uint256)":"fe60efa1","GET_DOCTOR_ID(address)":"082ed547","GET_DOCTOR_PATIENTS(uint256)":"5e6951e3","GET_MEDICINE_DETAILS(uint256)":"e92f0a68","GET_MOST_POPULAR_DOCTOR()":"b27b24f8","GET_MY_FRIEND_LIST(address)":"b3e0c710","GET_NOTIFICATIONS(address)":"2a42e74c","GET_PATIENT_APPOINTMENT(uint256)":"84e7aa2e","GET_PATIENT_APPOINTMENT_HISTORYS(uint256)":"559160b8","GET_PATIENT_DETAILS(uint256)":"74cdd534","GET_PATIENT_ID(address)":"04c0adb7","GET_PATIENT_MEDICIAL_HISTORY(uint256)":"a72c1623","GET_PRESCRIPTION_DETAILS(uint256)":"f27e44cc","GET_READ_MESSAGE(address,address)":"b039ece9","GET_USERNAME_TYPE(address)":"ff09a64e","PRESCRIBE_MEDICINE(uint256,uint256)":"37a92da7","UPDATE_ADMIN_ADDRESS(address)":"02cce770","UPDATE_APPOINTMENT_FEE(uint256)":"046a07ed","UPDATE_MEDICINE_ACTIVE(uint256)":"c0a5999a","UPDATE_MEDICINE_DISCOUNT(uint256,uint256)":"bbece2bb","UPDATE_MEDICINE_LOCATION(uint256,string)":"fb5333b7","UPDATE_MEDICINE_PRICE(uint256,uint256)":"39d519a9","UPDATE_MEDICINE_QUANTITY(uint256,uint256)":"2c486bd5","UPDATE_PATIENT_MEDICAL_HISTORY(uint256,string)":"354b365f","UPDATE_REGISTRATION_FEE(uint256)":"f28136a9","UPDATE_REGISTRATION_PATIENT_FEE(uint256)":"d174ea41","_SEND_MESSAGE(address,address,string)":"ed74e848","accessRequestCounter()":"9da8e0db","admin()":"f851a440","appointmentCount()":"eebc3fb2","appointmentFee()":"dabf826a","appointments(uint256)":"12dc9013","approveAccessRequest(uint256)":"6be38131","deactivateMedicalRecord(uint256,uint256)":"95027d41","denyAccessRequest(uint256)":"66f697b8","doctorAddressToId(address)":"c469c7e6","doctorCount()":"78522bc4","doctorIdToAddress(uint256)":"763a32f3","doctorRecordAccess(uint256,uint256)":"fe2df1c3","doctors(uint256)":"6efb1b84","getEncryptedRecord(uint256,uint256)":"9f0893c2","getPatientAccessRequests(uint256)":"3c5af33d","getPatientEncryptedRecords(uint256)":"b868f729","hasDoctorAccess(uint256,uint256)":"aca7a606","medicineCount()":"4dafd490","medicines(uint256)":"c85e766d","patientAccessRequests(uint256,uint256)":"833ffe94","patientAddressToId(address)":"0e3e3dd3","patientCount()":"a0303c41","patientIdToAddress(uint256)":"c2c9a9bc","patientMedicalRecords(uint256,uint256)":"178cb158","patientOrders(uint256,uint256)":"a48f87d0","patients(uint256)":"93119a83","prescriptionCount()":"b6558498","prescriptions(uint256)":"31dfc91b","registeredDoctors(address)":"3f308cd2","registeredPatients(address)":"9cdaaad8","registrationDoctorFee()":"e40b850e","registrationPatientFee()":"540a6614","requestRecordAccess(uint256,uint256,string)":"317ee45f","revokeAccess(uint256)":"e1b97d69","updateEncryptedMedicalRecord(uint256,uint256,string,string)":"791cda0f","uploadEncryptedMedicalRecord(uint256,string,string,string)":"5ef2a414"}}}}}