{
  "_format": "hh-sol-artifact-1",
  "contractName": "Healthcare",
  "sourceName": "contracts/Healthcare.sol",
  "abi": [
    {
      "inputs": [],
      "stateMutability": "nonpayable",
      "type": "constructor"
    },
    {
      "anonymous": false,
      "inputs": [
        {
          "indexed": false,
          "internalType": "uint256",
          "name": "id",
          "type": "uint256"
        },
        {
          "indexed": false,
          "internalType": "uint256",
          "name": "patientId",
          "type": "uint256"
        },
        {
          "indexed": false,
          "internalType": "uint256",
          "name": "doctorId",
          "type": "uint256"
        },
        {
          "indexed": false,
          "internalType": "uint256",
          "name": "date",
          "type": "uint256"
        }
      ],
      "name": "APPOINTMENT_BOOKED",
      "type": "event"
    },
    {
      "anonymous": false,
      "inputs": [
        {
          "indexed": false,
          "internalType": "uint256",
          "name": "id",
          "type": "uint256"
        },
        {
          "indexed": false,
          "internalType": "bool",
          "name": "isApproved",
          "type": "bool"
        }
      ],
      "name": "APPROVE_DOCTOR_STATUSD",
      "type": "event"
    },
    {
      "anonymous": false,
      "inputs": [
        {
          "indexed": true,
          "internalType": "uint256",
          "name": "requestId",
          "type": "uint256"
        },
        {
          "indexed": false,
          "internalType": "uint256",
          "name": "doctorId",
          "type": "uint256"
        },
        {
          "indexed": false,
          "internalType": "uint256",
          "name": "patientId",
          "type": "uint256"
        }
      ],
      "name": "AccessDenied",
      "type": "event"
    },
    {
      "anonymous": false,
      "inputs": [
        {
          "indexed": true,
          "internalType": "uint256",
          "name": "requestId",
          "type": "uint256"
        },
        {
          "indexed": false,
          "internalType": "uint256",
          "name": "doctorId",
          "type": "uint256"
        },
        {
          "indexed": false,
          "internalType": "uint256",
          "name": "patientId",
          "type": "uint256"
        }
      ],
      "name": "AccessGranted",
      "type": "event"
    },
    {
      "anonymous": false,
      "inputs": [
        {
          "indexed": true,
          "internalType": "uint256",
          "name": "requestId",
          "type": "uint256"
        },
        {
          "indexed": false,
          "internalType": "uint256",
          "name": "doctorId",
          "type": "uint256"
        },
        {
          "indexed": false,
          "internalType": "uint256",
          "name": "patientId",
          "type": "uint256"
        },
        {
          "indexed": false,
          "internalType": "uint256",
          "name": "recordId",
          "type": "uint256"
        }
      ],
      "name": "AccessRequested",
      "type": "event"
    },
    {
      "anonymous": false,
      "inputs": [
        {
          "indexed": false,
          "internalType": "uint256",
          "name": "id",
          "type": "uint256"
        },
        {
          "indexed": false,
          "internalType": "string",
          "name": "IPFS_URL",
          "type": "string"
        },
        {
          "indexed": false,
          "internalType": "address",
          "name": "accountAddress",
          "type": "address"
        }
      ],
      "name": "DOCTOR_REGISTERED",
      "type": "event"
    },
    {
      "anonymous": false,
      "inputs": [
        {
          "indexed": false,
          "internalType": "uint256",
          "name": "id",
          "type": "uint256"
        },
        {
          "indexed": false,
          "internalType": "bool",
          "name": "active",
          "type": "bool"
        }
      ],
      "name": "MEDICINE_ACTIVE",
      "type": "event"
    },
    {
      "anonymous": false,
      "inputs": [
        {
          "indexed": false,
          "internalType": "uint256",
          "name": "id",
          "type": "uint256"
        },
        {
          "indexed": false,
          "internalType": "string",
          "name": "url",
          "type": "string"
        },
        {
          "indexed": false,
          "internalType": "string",
          "name": "location",
          "type": "string"
        }
      ],
      "name": "MEDICINE_ADDED",
      "type": "event"
    },
    {
      "anonymous": false,
      "inputs": [
        {
          "indexed": false,
          "internalType": "uint256",
          "name": "patientId",
          "type": "uint256"
        },
        {
          "indexed": false,
          "internalType": "uint256",
          "name": "medicineId",
          "type": "uint256"
        }
      ],
      "name": "MEDICINE_BOUGHT",
      "type": "event"
    },
    {
      "anonymous": false,
      "inputs": [
        {
          "indexed": false,
          "internalType": "uint256",
          "name": "id",
          "type": "uint256"
        },
        {
          "indexed": false,
          "internalType": "uint256",
          "name": "discount",
          "type": "uint256"
        }
      ],
      "name": "MEDICINE_DISCOUNT",
      "type": "event"
    },
    {
      "anonymous": false,
      "inputs": [
        {
          "indexed": false,
          "internalType": "uint256",
          "name": "id",
          "type": "uint256"
        },
        {
          "indexed": false,
          "internalType": "string",
          "name": "newLocation",
          "type": "string"
        }
      ],
      "name": "MEDICINE_LOCATION",
      "type": "event"
    },
    {
      "anonymous": false,
      "inputs": [
        {
          "indexed": false,
          "internalType": "uint256",
          "name": "id",
          "type": "uint256"
        },
        {
          "indexed": false,
          "internalType": "uint256",
          "name": "medicineId",
          "type": "uint256"
        },
        {
          "indexed": false,
          "internalType": "uint256",
          "name": "patientId",
          "type": "uint256"
        },
        {
          "indexed": false,
          "internalType": "uint256",
          "name": "doctorId",
          "type": "uint256"
        },
        {
          "indexed": false,
          "internalType": "uint256",
          "name": "date",
          "type": "uint256"
        }
      ],
      "name": "MEDICINE_PRESCRIBED",
      "type": "event"
    },
    {
      "anonymous": false,
      "inputs": [
        {
          "indexed": false,
          "internalType": "uint256",
          "name": "id",
          "type": "uint256"
        },
        {
          "indexed": false,
          "internalType": "uint256",
          "name": "price",
          "type": "uint256"
        }
      ],
      "name": "MEDICINE_PRICE",
      "type": "event"
    },
    {
      "anonymous": false,
      "inputs": [
        {
          "indexed": false,
          "internalType": "uint256",
          "name": "id",
          "type": "uint256"
        },
        {
          "indexed": false,
          "internalType": "uint256",
          "name": "quantity",
          "type": "uint256"
        }
      ],
      "name": "MEDICINE_QUANTITY",
      "type": "event"
    },
    {
      "anonymous": false,
      "inputs": [
        {
          "indexed": true,
          "internalType": "uint256",
          "name": "patientId",
          "type": "uint256"
        },
        {
          "indexed": false,
          "internalType": "uint256",
          "name": "recordId",
          "type": "uint256"
        },
        {
          "indexed": false,
          "internalType": "string",
          "name": "ipfsHash",
          "type": "string"
        }
      ],
      "name": "MedicalRecordUploaded",
      "type": "event"
    },
    {
      "anonymous": false,
      "inputs": [
        {
          "indexed": true,
          "internalType": "address",
          "name": "user",
          "type": "address"
        },
        {
          "indexed": false,
          "internalType": "string",
          "name": "message",
          "type": "string"
        },
        {
          "indexed": false,
          "internalType": "uint256",
          "name": "timestamp",
          "type": "uint256"
        }
      ],
      "name": "NOTIFICATiON_SENT",
      "type": "event"
    },
    {
      "anonymous": false,
      "inputs": [
        {
          "indexed": false,
          "internalType": "uint256",
          "name": "id",
          "type": "uint256"
        },
        {
          "indexed": false,
          "internalType": "string",
          "name": "_IPFS_URL",
          "type": "string"
        },
        {
          "indexed": false,
          "internalType": "string[]",
          "name": "medicalHistory",
          "type": "string[]"
        }
      ],
      "name": "PATIENT_ADDED",
      "type": "event"
    },
    {
      "anonymous": false,
      "inputs": [
        {
          "indexed": true,
          "internalType": "uint256",
          "name": "patientId",
          "type": "uint256"
        },
        {
          "indexed": false,
          "internalType": "uint256",
          "name": "recordId",
          "type": "uint256"
        },
        {
          "indexed": false,
          "internalType": "address",
          "name": "updatedBy",
          "type": "address"
        }
      ],
      "name": "RecordUpdated",
      "type": "event"
    },
    {
      "inputs": [
        {
          "internalType": "string",
          "name": "_IPFS_URL",
          "type": "string"
        },
        {
          "internalType": "address",
          "name": "_address",
          "type": "address"
        },
        {
          "internalType": "string",
          "name": "_name",
          "type": "string"
        },
        {
          "internalType": "string",
          "name": "_type",
          "type": "string"
        }
      ],
      "name": "ADD_DOCTOR",
      "outputs": [],
      "stateMutability": "payable",
      "type": "function"
    },
    {
      "inputs": [
        {
          "internalType": "string",
          "name": "_IPFS_URL",
          "type": "string"
        },
        {
          "internalType": "uint256",
          "name": "_price",
          "type": "uint256"
        },
        {
          "internalType": "uint256",
          "name": "_quantity",
          "type": "uint256"
        },
        {
          "internalType": "uint256",
          "name": "_discount",
          "type": "uint256"
        },
        {
          "internalType": "string",
          "name": "_currentLocation",
          "type": "string"
        }
      ],
      "name": "ADD_MEDICINE",
      "outputs": [],
      "stateMutability": "nonpayable",
      "type": "function"
    },
    {
      "inputs": [
        {
          "internalType": "string",
          "name": "_IPFS_URL",
          "type": "string"
        },
        {
          "internalType": "string[]",
          "name": "_medicalHistory",
          "type": "string[]"
        },
        {
          "internalType": "address",
          "name": "_accountAddress",
          "type": "address"
        },
        {
          "internalType": "uint256[]",
          "name": "_boughtMedicines",
          "type": "uint256[]"
        },
        {
          "internalType": "string",
          "name": "_name",
          "type": "string"
        },
        {
          "internalType": "address",
          "name": "_doctorAddress",
          "type": "address"
        },
        {
          "internalType": "string",
          "name": "_doctorName",
          "type": "string"
        },
        {
          "internalType": "string",
          "name": "_type",
          "type": "string"
        }
      ],
      "name": "ADD_PATIENTS",
      "outputs": [],
      "stateMutability": "payable",
      "type": "function"
    },
    {
      "inputs": [
        {
          "internalType": "uint256",
          "name": "_doctorId",
          "type": "uint256"
        }
      ],
      "name": "APPROVE_DOCTOR_STATUS",
      "outputs": [],
      "stateMutability": "nonpayable",
      "type": "function"
    },
    {
      "inputs": [
        {
          "internalType": "uint256",
          "name": "_patientId",
          "type": "uint256"
        },
        {
          "internalType": "uint256",
          "name": "_doctorId",
          "type": "uint256"
        },
        {
          "internalType": "string",
          "name": "_from",
          "type": "string"
        },
        {
          "internalType": "string",
          "name": "_to",
          "type": "string"
        },
        {
          "internalType": "string",
          "name": "_appointmentDate",
          "type": "string"
        },
        {
          "internalType": "string",
          "name": "_condition",
          "type": "string"
        },
        {
          "internalType": "string",
          "name": "_message",
          "type": "string"
        },
        {
          "internalType": "address",
          "name": "_doctorAddress",
          "type": "address"
        },
        {
          "internalType": "string",
          "name": "_name",
          "type": "string"
        }
      ],
      "name": "BOOK_APPOINTMENT",
      "outputs": [],
      "stateMutability": "payable",
      "type": "function"
    },
    {
      "inputs": [
        {
          "internalType": "uint256",
          "name": "_patientId",
          "type": "uint256"
        },
        {
          "internalType": "uint256",
          "name": "_medicineId",
          "type": "uint256"
        },
        {
          "internalType": "uint256",
          "name": "_quantity",
          "type": "uint256"
        }
      ],
      "name": "BUY_MEDICINE",
      "outputs": [],
      "stateMutability": "payable",
      "type": "function"
    },
    {
      "inputs": [
        {
          "internalType": "address",
          "name": "pubkey",
          "type": "address"
        }
      ],
      "name": "CHECK_USER_EXISTS",
      "outputs": [
        {
          "internalType": "bool",
          "name": "",
          "type": "bool"
        }
      ],
      "stateMutability": "view",
      "type": "function"
    },
    {
      "inputs": [
        {
          "internalType": "uint256",
          "name": "_appointmentId",
          "type": "uint256"
        }
      ],
      "name": "COMPLETE_APPOINTMENT",
      "outputs": [],
      "stateMutability": "nonpayable",
      "type": "function"
    },
    {
      "inputs": [],
      "name": "GET_ALL_APPOINTMENTS",
      "outputs": [
        {
          "components": [
            {
              "internalType": "uint256",
              "name": "id",
              "type": "uint256"
            },
            {
              "internalType": "uint256",
              "name": "patientId",
              "type": "uint256"
            },
            {
              "internalType": "uint256",
              "name": "doctorId",
              "type": "uint256"
            },
            {
              "internalType": "uint256",
              "name": "date",
              "type": "uint256"
            },
            {
              "internalType": "string",
              "name": "from",
              "type": "string"
            },
            {
              "internalType": "string",
              "name": "to",
              "type": "string"
            },
            {
              "internalType": "string",
              "name": "appointmentDate",
              "type": "string"
            },
            {
              "internalType": "string",
              "name": "condition",
              "type": "string"
            },
            {
              "internalType": "string",
              "name": "message",
              "type": "string"
            },
            {
              "internalType": "bool",
              "name": "isOpen",
              "type": "bool"
            }
          ],
          "internalType": "struct Healthcare.Appointment[]",
          "name": "",
          "type": "tuple[]"
        }
      ],
      "stateMutability": "view",
      "type": "function"
    },
    {
      "inputs": [],
      "name": "GET_ALL_APPROVED_DOCTORS",
      "outputs": [
        {
          "components": [
            {
              "internalType": "uint256",
              "name": "id",
              "type": "uint256"
            },
            {
              "internalType": "string",
              "name": "IPFS_URL",
              "type": "string"
            },
            {
              "internalType": "address",
              "name": "accountAddress",
              "type": "address"
            },
            {
              "internalType": "uint256",
              "name": "appointmentCount",
              "type": "uint256"
            },
            {
              "internalType": "uint256",
              "name": "successfulTreatmentCount",
              "type": "uint256"
            },
            {
              "internalType": "bool",
              "name": "isApproved",
              "type": "bool"
            }
          ],
          "internalType": "struct Healthcare.Doctor[]",
          "name": "",
          "type": "tuple[]"
        }
      ],
      "stateMutability": "view",
      "type": "function"
    },
    {
      "inputs": [],
      "name": "GET_ALL_APP_USER",
      "outputs": [
        {
          "components": [
            {
              "internalType": "string",
              "name": "name",
              "type": "string"
            },
            {
              "internalType": "address",
              "name": "accountAddress",
              "type": "address"
            }
          ],
          "internalType": "struct Healthcare.AllUserStruck[]",
          "name": "",
          "type": "tuple[]"
        }
      ],
      "stateMutability": "view",
      "type": "function"
    },
    {
      "inputs": [
        {
          "internalType": "uint256",
          "name": "patientId",
          "type": "uint256"
        }
      ],
      "name": "GET_ALL_PATIENT_ORDERS",
      "outputs": [
        {
          "components": [
            {
              "internalType": "uint256",
              "name": "medicineId",
              "type": "uint256"
            },
            {
              "internalType": "uint256",
              "name": "price",
              "type": "uint256"
            },
            {
              "internalType": "uint256",
              "name": "payAmount",
              "type": "uint256"
            },
            {
              "internalType": "uint256",
              "name": "quantity",
              "type": "uint256"
            },
            {
              "internalType": "uint256",
              "name": "patientId",
              "type": "uint256"
            },
            {
              "internalType": "uint256",
              "name": "date",
              "type": "uint256"
            }
          ],
          "internalType": "struct Healthcare.Order[]",
          "name": "",
          "type": "tuple[]"
        }
      ],
      "stateMutability": "view",
      "type": "function"
    },
    {
      "inputs": [],
      "name": "GET_ALL_PRESCRIBED_MEDICINES",
      "outputs": [
        {
          "components": [
            {
              "internalType": "uint256",
              "name": "id",
              "type": "uint256"
            },
            {
              "internalType": "uint256",
              "name": "medicineId",
              "type": "uint256"
            },
            {
              "internalType": "uint256",
              "name": "patientId",
              "type": "uint256"
            },
            {
              "internalType": "uint256",
              "name": "doctorId",
              "type": "uint256"
            },
            {
              "internalType": "uint256",
              "name": "date",
              "type": "uint256"
            }
          ],
          "internalType": "struct Healthcare.Prescription[]",
          "name": "",
          "type": "tuple[]"
        }
      ],
      "stateMutability": "view",
      "type": "function"
    },
    {
      "inputs": [
        {
          "internalType": "uint256",
          "name": "patientId",
          "type": "uint256"
        }
      ],
      "name": "GET_ALL_PRESCRIBED_MEDICINES_OF_PATIENT",
      "outputs": [
        {
          "components": [
            {
              "internalType": "uint256",
              "name": "id",
              "type": "uint256"
            },
            {
              "internalType": "uint256",
              "name": "medicineId",
              "type": "uint256"
            },
            {
              "internalType": "uint256",
              "name": "patientId",
              "type": "uint256"
            },
            {
              "internalType": "uint256",
              "name": "doctorId",
              "type": "uint256"
            },
            {
              "internalType": "uint256",
              "name": "date",
              "type": "uint256"
            }
          ],
          "internalType": "struct Healthcare.Prescription[]",
          "name": "",
          "type": "tuple[]"
        }
      ],
      "stateMutability": "view",
      "type": "function"
    },
    {
      "inputs": [],
      "name": "GET_ALL_REGISTERED_DOCTORS",
      "outputs": [
        {
          "components": [
            {
              "internalType": "uint256",
              "name": "id",
              "type": "uint256"
            },
            {
              "internalType": "string",
              "name": "IPFS_URL",
              "type": "string"
            },
            {
              "internalType": "address",
              "name": "accountAddress",
              "type": "address"
            },
            {
              "internalType": "uint256",
              "name": "appointmentCount",
              "type": "uint256"
            },
            {
              "internalType": "uint256",
              "name": "successfulTreatmentCount",
              "type": "uint256"
            },
            {
              "internalType": "bool",
              "name": "isApproved",
              "type": "bool"
            }
          ],
          "internalType": "struct Healthcare.Doctor[]",
          "name": "",
          "type": "tuple[]"
        }
      ],
      "stateMutability": "view",
      "type": "function"
    },
    {
      "inputs": [],
      "name": "GET_ALL_REGISTERED_MEDICINES",
      "outputs": [
        {
          "components": [
            {
              "internalType": "uint256",
              "name": "id",
              "type": "uint256"
            },
            {
              "internalType": "string",
              "name": "IPFS_URL",
              "type": "string"
            },
            {
              "internalType": "uint256",
              "name": "price",
              "type": "uint256"
            },
            {
              "internalType": "uint256",
              "name": "quantity",
              "type": "uint256"
            },
            {
              "internalType": "uint256",
              "name": "discount",
              "type": "uint256"
            },
            {
              "internalType": "string",
              "name": "currentLocation",
              "type": "string"
            },
            {
              "internalType": "bool",
              "name": "active",
              "type": "bool"
            }
          ],
          "internalType": "struct Healthcare.Medicine[]",
          "name": "",
          "type": "tuple[]"
        }
      ],
      "stateMutability": "view",
      "type": "function"
    },
    {
      "inputs": [],
      "name": "GET_ALL_REGISTERED_PATIENTS",
      "outputs": [
        {
          "components": [
            {
              "internalType": "uint256",
              "name": "id",
              "type": "uint256"
            },
            {
              "internalType": "string",
              "name": "IPFS_URL",
              "type": "string"
            },
            {
              "internalType": "string[]",
              "name": "medicalHistory",
              "type": "string[]"
            },
            {
              "internalType": "address",
              "name": "accountAddress",
              "type": "address"
            },
            {
              "internalType": "uint256[]",
              "name": "boughtMedicines",
              "type": "uint256[]"
            }
          ],
          "internalType": "struct Healthcare.Patient[]",
          "name": "",
          "type": "tuple[]"
        }
      ],
      "stateMutability": "view",
      "type": "function"
    },
    {
      "inputs": [
        {
          "internalType": "uint256",
          "name": "_patientId",
          "type": "uint256"
        }
      ],
      "name": "GET_BOUGHT_MEDICINE_BY_PAITENT",
      "outputs": [
        {
          "internalType": "uint256[]",
          "name": "",
          "type": "uint256[]"
        }
      ],
      "stateMutability": "view",
      "type": "function"
    },
    {
      "inputs": [
        {
          "internalType": "uint256",
          "name": "_doctorId",
          "type": "uint256"
        }
      ],
      "name": "GET_DOCTOR_APPOINTMENTS_HISTORYS",
      "outputs": [
        {
          "components": [
            {
              "internalType": "uint256",
              "name": "id",
              "type": "uint256"
            },
            {
              "internalType": "uint256",
              "name": "patientId",
              "type": "uint256"
            },
            {
              "internalType": "uint256",
              "name": "doctorId",
              "type": "uint256"
            },
            {
              "internalType": "uint256",
              "name": "date",
              "type": "uint256"
            },
            {
              "internalType": "string",
              "name": "from",
              "type": "string"
            },
            {
              "internalType": "string",
              "name": "to",
              "type": "string"
            },
            {
              "internalType": "string",
              "name": "appointmentDate",
              "type": "string"
            },
            {
              "internalType": "string",
              "name": "condition",
              "type": "string"
            },
            {
              "internalType": "string",
              "name": "message",
              "type": "string"
            },
            {
              "internalType": "bool",
              "name": "isOpen",
              "type": "bool"
            }
          ],
          "internalType": "struct Healthcare.Appointment[]",
          "name": "",
          "type": "tuple[]"
        }
      ],
      "stateMutability": "view",
      "type": "function"
    },
    {
      "inputs": [
        {
          "internalType": "uint256",
          "name": "_doctorId",
          "type": "uint256"
        }
      ],
      "name": "GET_DOCTOR_DETAILS",
      "outputs": [
        {
          "components": [
            {
              "internalType": "uint256",
              "name": "id",
              "type": "uint256"
            },
            {
              "internalType": "string",
              "name": "IPFS_URL",
              "type": "string"
            },
            {
              "internalType": "address",
              "name": "accountAddress",
              "type": "address"
            },
            {
              "internalType": "uint256",
              "name": "appointmentCount",
              "type": "uint256"
            },
            {
              "internalType": "uint256",
              "name": "successfulTreatmentCount",
              "type": "uint256"
            },
            {
              "internalType": "bool",
              "name": "isApproved",
              "type": "bool"
            }
          ],
          "internalType": "struct Healthcare.Doctor",
          "name": "",
          "type": "tuple"
        }
      ],
      "stateMutability": "view",
      "type": "function"
    },
    {
      "inputs": [
        {
          "internalType": "address",
          "name": "_doctorAddress",
          "type": "address"
        }
      ],
      "name": "GET_DOCTOR_ID",
      "outputs": [
        {
          "internalType": "uint256",
          "name": "",
          "type": "uint256"
        }
      ],
      "stateMutability": "view",
      "type": "function"
    },
    {
      "inputs": [
        {
          "internalType": "uint256",
          "name": "_doctorId",
          "type": "uint256"
        }
      ],
      "name": "GET_DOCTOR_PATIENTS",
      "outputs": [
        {
          "components": [
            {
              "internalType": "uint256",
              "name": "id",
              "type": "uint256"
            },
            {
              "internalType": "string",
              "name": "IPFS_URL",
              "type": "string"
            },
            {
              "internalType": "string[]",
              "name": "medicalHistory",
              "type": "string[]"
            },
            {
              "internalType": "address",
              "name": "accountAddress",
              "type": "address"
            },
            {
              "internalType": "uint256[]",
              "name": "boughtMedicines",
              "type": "uint256[]"
            }
          ],
          "internalType": "struct Healthcare.Patient[]",
          "name": "",
          "type": "tuple[]"
        }
      ],
      "stateMutability": "view",
      "type": "function"
    },
    {
      "inputs": [
        {
          "internalType": "uint256",
          "name": "_medicineId",
          "type": "uint256"
        }
      ],
      "name": "GET_MEDICINE_DETAILS",
      "outputs": [
        {
          "components": [
            {
              "internalType": "uint256",
              "name": "id",
              "type": "uint256"
            },
            {
              "internalType": "string",
              "name": "IPFS_URL",
              "type": "string"
            },
            {
              "internalType": "uint256",
              "name": "price",
              "type": "uint256"
            },
            {
              "internalType": "uint256",
              "name": "quantity",
              "type": "uint256"
            },
            {
              "internalType": "uint256",
              "name": "discount",
              "type": "uint256"
            },
            {
              "internalType": "string",
              "name": "currentLocation",
              "type": "string"
            },
            {
              "internalType": "bool",
              "name": "active",
              "type": "bool"
            }
          ],
          "internalType": "struct Healthcare.Medicine",
          "name": "",
          "type": "tuple"
        }
      ],
      "stateMutability": "view",
      "type": "function"
    },
    {
      "inputs": [],
      "name": "GET_MOST_POPULAR_DOCTOR",
      "outputs": [
        {
          "components": [
            {
              "internalType": "uint256",
              "name": "id",
              "type": "uint256"
            },
            {
              "internalType": "string",
              "name": "IPFS_URL",
              "type": "string"
            },
            {
              "internalType": "address",
              "name": "accountAddress",
              "type": "address"
            },
            {
              "internalType": "uint256",
              "name": "appointmentCount",
              "type": "uint256"
            },
            {
              "internalType": "uint256",
              "name": "successfulTreatmentCount",
              "type": "uint256"
            },
            {
              "internalType": "bool",
              "name": "isApproved",
              "type": "bool"
            }
          ],
          "internalType": "struct Healthcare.Doctor",
          "name": "",
          "type": "tuple"
        }
      ],
      "stateMutability": "view",
      "type": "function"
    },
    {
      "inputs": [
        {
          "internalType": "address",
          "name": "_address",
          "type": "address"
        }
      ],
      "name": "GET_MY_FRIEND_LIST",
      "outputs": [
        {
          "components": [
            {
              "internalType": "address",
              "name": "pubkey",
              "type": "address"
            },
            {
              "internalType": "string",
              "name": "name",
              "type": "string"
            }
          ],
          "internalType": "struct Healthcare.friend[]",
          "name": "",
          "type": "tuple[]"
        }
      ],
      "stateMutability": "view",
      "type": "function"
    },
    {
      "inputs": [
        {
          "internalType": "address",
          "name": "_userAddress",
          "type": "address"
        }
      ],
      "name": "GET_NOTIFICATIONS",
      "outputs": [
        {
          "components": [
            {
              "internalType": "uint256",
              "name": "id",
              "type": "uint256"
            },
            {
              "internalType": "address",
              "name": "userAddress",
              "type": "address"
            },
            {
              "internalType": "string",
              "name": "message",
              "type": "string"
            },
            {
              "internalType": "uint256",
              "name": "timestamp",
              "type": "uint256"
            },
            {
              "internalType": "string",
              "name": "categoryType",
              "type": "string"
            }
          ],
          "internalType": "struct Healthcare.Notification[]",
          "name": "",
          "type": "tuple[]"
        }
      ],
      "stateMutability": "view",
      "type": "function"
    },
    {
      "inputs": [
        {
          "internalType": "uint256",
          "name": "_appointmentId",
          "type": "uint256"
        }
      ],
      "name": "GET_PATIENT_APPOINTMENT",
      "outputs": [
        {
          "components": [
            {
              "internalType": "uint256",
              "name": "id",
              "type": "uint256"
            },
            {
              "internalType": "uint256",
              "name": "patientId",
              "type": "uint256"
            },
            {
              "internalType": "uint256",
              "name": "doctorId",
              "type": "uint256"
            },
            {
              "internalType": "uint256",
              "name": "date",
              "type": "uint256"
            },
            {
              "internalType": "string",
              "name": "from",
              "type": "string"
            },
            {
              "internalType": "string",
              "name": "to",
              "type": "string"
            },
            {
              "internalType": "string",
              "name": "appointmentDate",
              "type": "string"
            },
            {
              "internalType": "string",
              "name": "condition",
              "type": "string"
            },
            {
              "internalType": "string",
              "name": "message",
              "type": "string"
            },
            {
              "internalType": "bool",
              "name": "isOpen",
              "type": "bool"
            }
          ],
          "internalType": "struct Healthcare.Appointment",
          "name": "",
          "type": "tuple"
        }
      ],
      "stateMutability": "view",
      "type": "function"
    },
    {
      "inputs": [
        {
          "internalType": "uint256",
          "name": "_patientId",
          "type": "uint256"
        }
      ],
      "name": "GET_PATIENT_APPOINTMENT_HISTORYS",
      "outputs": [
        {
          "components": [
            {
              "internalType": "uint256",
              "name": "id",
              "type": "uint256"
            },
            {
              "internalType": "uint256",
              "name": "patientId",
              "type": "uint256"
            },
            {
              "internalType": "uint256",
              "name": "doctorId",
              "type": "uint256"
            },
            {
              "internalType": "uint256",
              "name": "date",
              "type": "uint256"
            },
            {
              "internalType": "string",
              "name": "from",
              "type": "string"
            },
            {
              "internalType": "string",
              "name": "to",
              "type": "string"
            },
            {
              "internalType": "string",
              "name": "appointmentDate",
              "type": "string"
            },
            {
              "internalType": "string",
              "name": "condition",
              "type": "string"
            },
            {
              "internalType": "string",
              "name": "message",
              "type": "string"
            },
            {
              "internalType": "bool",
              "name": "isOpen",
              "type": "bool"
            }
          ],
          "internalType": "struct Healthcare.Appointment[]",
          "name": "",
          "type": "tuple[]"
        }
      ],
      "stateMutability": "view",
      "type": "function"
    },
    {
      "inputs": [
        {
          "internalType": "uint256",
          "name": "_patientId",
          "type": "uint256"
        }
      ],
      "name": "GET_PATIENT_DETAILS",
      "outputs": [
        {
          "components": [
            {
              "internalType": "uint256",
              "name": "id",
              "type": "uint256"
            },
            {
              "internalType": "string",
              "name": "IPFS_URL",
              "type": "string"
            },
            {
              "internalType": "string[]",
              "name": "medicalHistory",
              "type": "string[]"
            },
            {
              "internalType": "address",
              "name": "accountAddress",
              "type": "address"
            },
            {
              "internalType": "uint256[]",
              "name": "boughtMedicines",
              "type": "uint256[]"
            }
          ],
          "internalType": "struct Healthcare.Patient",
          "name": "",
          "type": "tuple"
        }
      ],
      "stateMutability": "view",
      "type": "function"
    },
    {
      "inputs": [
        {
          "internalType": "address",
          "name": "_patientAddress",
          "type": "address"
        }
      ],
      "name": "GET_PATIENT_ID",
      "outputs": [
        {
          "internalType": "uint256",
          "name": "",
          "type": "uint256"
        }
      ],
      "stateMutability": "view",
      "type": "function"
    },
    {
      "inputs": [
        {
          "internalType": "uint256",
          "name": "_patientId",
          "type": "uint256"
        }
      ],
      "name": "GET_PATIENT_MEDICIAL_HISTORY",
      "outputs": [
        {
          "internalType": "string[]",
          "name": "",
          "type": "string[]"
        }
      ],
      "stateMutability": "view",
      "type": "function"
    },
    {
      "inputs": [
        {
          "internalType": "uint256",
          "name": "_prescriptionId",
          "type": "uint256"
        }
      ],
      "name": "GET_PRESCRIPTION_DETAILS",
      "outputs": [
        {
          "components": [
            {
              "internalType": "uint256",
              "name": "id",
              "type": "uint256"
            },
            {
              "internalType": "uint256",
              "name": "medicineId",
              "type": "uint256"
            },
            {
              "internalType": "uint256",
              "name": "patientId",
              "type": "uint256"
            },
            {
              "internalType": "uint256",
              "name": "doctorId",
              "type": "uint256"
            },
            {
              "internalType": "uint256",
              "name": "date",
              "type": "uint256"
            }
          ],
          "internalType": "struct Healthcare.Prescription",
          "name": "",
          "type": "tuple"
        }
      ],
      "stateMutability": "view",
      "type": "function"
    },
    {
      "inputs": [
        {
          "internalType": "address",
          "name": "friend_key",
          "type": "address"
        },
        {
          "internalType": "address",
          "name": "_myAddress",
          "type": "address"
        }
      ],
      "name": "GET_READ_MESSAGE",
      "outputs": [
        {
          "components": [
            {
              "internalType": "address",
              "name": "sender",
              "type": "address"
            },
            {
              "internalType": "uint256",
              "name": "timestamp",
              "type": "uint256"
            },
            {
              "internalType": "string",
              "name": "msg",
              "type": "string"
            }
          ],
          "internalType": "struct Healthcare.message[]",
          "name": "",
          "type": "tuple[]"
        }
      ],
      "stateMutability": "view",
      "type": "function"
    },
    {
      "inputs": [
        {
          "internalType": "address",
          "name": "pubkey",
          "type": "address"
        }
      ],
      "name": "GET_USERNAME_TYPE",
      "outputs": [
        {
          "components": [
            {
              "internalType": "string",
              "name": "name",
              "type": "string"
            },
            {
              "internalType": "string",
              "name": "userType",
              "type": "string"
            },
            {
              "components": [
                {
                  "internalType": "address",
                  "name": "pubkey",
                  "type": "address"
                },
                {
                  "internalType": "string",
                  "name": "name",
                  "type": "string"
                }
              ],
              "internalType": "struct Healthcare.friend[]",
              "name": "friendList",
              "type": "tuple[]"
            }
          ],
          "internalType": "struct Healthcare.User",
          "name": "",
          "type": "tuple"
        }
      ],
      "stateMutability": "view",
      "type": "function"
    },
    {
      "inputs": [
        {
          "internalType": "uint256",
          "name": "_medicineId",
          "type": "uint256"
        },
        {
          "internalType": "uint256",
          "name": "_patientId",
          "type": "uint256"
        }
      ],
      "name": "PRESCRIBE_MEDICINE",
      "outputs": [],
      "stateMutability": "nonpayable",
      "type": "function"
    },
    {
      "inputs": [
        {
          "internalType": "address payable",
          "name": "_newAddress",
          "type": "address"
        }
      ],
      "name": "UPDATE_ADMIN_ADDRESS",
      "outputs": [],
      "stateMutability": "nonpayable",
      "type": "function"
    },
    {
      "inputs": [
        {
          "internalType": "uint256",
          "name": "_newFee",
          "type": "uint256"
        }
      ],
      "name": "UPDATE_APPOINTMENT_FEE",
      "outputs": [],
      "stateMutability": "nonpayable",
      "type": "function"
    },
    {
      "inputs": [
        {
          "internalType": "uint256",
          "name": "_medicineId",
          "type": "uint256"
        }
      ],
      "name": "UPDATE_MEDICINE_ACTIVE",
      "outputs": [],
      "stateMutability": "nonpayable",
      "type": "function"
    },
    {
      "inputs": [
        {
          "internalType": "uint256",
          "name": "_medicineId",
          "type": "uint256"
        },
        {
          "internalType": "uint256",
          "name": "_discount",
          "type": "uint256"
        }
      ],
      "name": "UPDATE_MEDICINE_DISCOUNT",
      "outputs": [],
      "stateMutability": "nonpayable",
      "type": "function"
    },
    {
      "inputs": [
        {
          "internalType": "uint256",
          "name": "_medicineId",
          "type": "uint256"
        },
        {
          "internalType": "string",
          "name": "_newLocation",
          "type": "string"
        }
      ],
      "name": "UPDATE_MEDICINE_LOCATION",
      "outputs": [],
      "stateMutability": "nonpayable",
      "type": "function"
    },
    {
      "inputs": [
        {
          "internalType": "uint256",
          "name": "_medicineId",
          "type": "uint256"
        },
        {
          "internalType": "uint256",
          "name": "_price",
          "type": "uint256"
        }
      ],
      "name": "UPDATE_MEDICINE_PRICE",
      "outputs": [],
      "stateMutability": "nonpayable",
      "type": "function"
    },
    {
      "inputs": [
        {
          "internalType": "uint256",
          "name": "_medicineId",
          "type": "uint256"
        },
        {
          "internalType": "uint256",
          "name": "_quantity",
          "type": "uint256"
        }
      ],
      "name": "UPDATE_MEDICINE_QUANTITY",
      "outputs": [],
      "stateMutability": "nonpayable",
      "type": "function"
    },
    {
      "inputs": [
        {
          "internalType": "uint256",
          "name": "_patientId",
          "type": "uint256"
        },
        {
          "internalType": "string",
          "name": "_newMedicalHistory",
          "type": "string"
        }
      ],
      "name": "UPDATE_PATIENT_MEDICAL_HISTORY",
      "outputs": [],
      "stateMutability": "nonpayable",
      "type": "function"
    },
    {
      "inputs": [
        {
          "internalType": "uint256",
          "name": "_newFee",
          "type": "uint256"
        }
      ],
      "name": "UPDATE_REGISTRATION_FEE",
      "outputs": [],
      "stateMutability": "nonpayable",
      "type": "function"
    },
    {
      "inputs": [
        {
          "internalType": "uint256",
          "name": "_newFee",
          "type": "uint256"
        }
      ],
      "name": "UPDATE_REGISTRATION_PATIENT_FEE",
      "outputs": [],
      "stateMutability": "nonpayable",
      "type": "function"
    },
    {
      "inputs": [
        {
          "internalType": "address",
          "name": "friend_key",
          "type": "address"
        },
        {
          "internalType": "address",
          "name": "_myAddress",
          "type": "address"
        },
        {
          "internalType": "string",
          "name": "_msg",
          "type": "string"
        }
      ],
      "name": "_SEND_MESSAGE",
      "outputs": [],
      "stateMutability": "nonpayable",
      "type": "function"
    },
    {
      "inputs": [],
      "name": "accessRequestCounter",
      "outputs": [
        {
          "internalType": "uint256",
          "name": "",
          "type": "uint256"
        }
      ],
      "stateMutability": "view",
      "type": "function"
    },
    {
      "inputs": [],
      "name": "admin",
      "outputs": [
        {
          "internalType": "address payable",
          "name": "",
          "type": "address"
        }
      ],
      "stateMutability": "view",
      "type": "function"
    },
    {
      "inputs": [],
      "name": "appointmentCount",
      "outputs": [
        {
          "internalType": "uint256",
          "name": "",
          "type": "uint256"
        }
      ],
      "stateMutability": "view",
      "type": "function"
    },
    {
      "inputs": [],
      "name": "appointmentFee",
      "outputs": [
        {
          "internalType": "uint256",
          "name": "",
          "type": "uint256"
        }
      ],
      "stateMutability": "view",
      "type": "function"
    },
    {
      "inputs": [
        {
          "internalType": "uint256",
          "name": "",
          "type": "uint256"
        }
      ],
      "name": "appointments",
      "outputs": [
        {
          "internalType": "uint256",
          "name": "id",
          "type": "uint256"
        },
        {
          "internalType": "uint256",
          "name": "patientId",
          "type": "uint256"
        },
        {
          "internalType": "uint256",
          "name": "doctorId",
          "type": "uint256"
        },
        {
          "internalType": "uint256",
          "name": "date",
          "type": "uint256"
        },
        {
          "internalType": "string",
          "name": "from",
          "type": "string"
        },
        {
          "internalType": "string",
          "name": "to",
          "type": "string"
        },
        {
          "internalType": "string",
          "name": "appointmentDate",
          "type": "string"
        },
        {
          "internalType": "string",
          "name": "condition",
          "type": "string"
        },
        {
          "internalType": "string",
          "name": "message",
          "type": "string"
        },
        {
          "internalType": "bool",
          "name": "isOpen",
          "type": "bool"
        }
      ],
      "stateMutability": "view",
      "type": "function"
    },
    {
      "inputs": [
        {
          "internalType": "uint256",
          "name": "_requestIndex",
          "type": "uint256"
        }
      ],
      "name": "approveAccessRequest",
      "outputs": [],
      "stateMutability": "nonpayable",
      "type": "function"
    },
    {
      "inputs": [
        {
          "internalType": "uint256",
          "name": "_patientId",
          "type": "uint256"
        },
        {
          "internalType": "uint256",
          "name": "_recordId",
          "type": "uint256"
        }
      ],
      "name": "deactivateMedicalRecord",
      "outputs": [],
      "stateMutability": "nonpayable",
      "type": "function"
    },
    {
      "inputs": [
        {
          "internalType": "uint256",
          "name": "_requestIndex",
          "type": "uint256"
        }
      ],
      "name": "denyAccessRequest",
      "outputs": [],
      "stateMutability": "nonpayable",
      "type": "function"
    },
    {
      "inputs": [
        {
          "internalType": "address",
          "name": "",
          "type": "address"
        }
      ],
      "name": "doctorAddressToId",
      "outputs": [
        {
          "internalType": "uint256",
          "name": "",
          "type": "uint256"
        }
      ],
      "stateMutability": "view",
      "type": "function"
    },
    {
      "inputs": [],
      "name": "doctorCount",
      "outputs": [
        {
          "internalType": "uint256",
          "name": "",
          "type": "uint256"
        }
      ],
      "stateMutability": "view",
      "type": "function"
    },
    {
      "inputs": [
        {
          "internalType": "uint256",
          "name": "",
          "type": "uint256"
        }
      ],
      "name": "doctorIdToAddress",
      "outputs": [
        {
          "internalType": "address",
          "name": "",
          "type": "address"
        }
      ],
      "stateMutability": "view",
      "type": "function"
    },
    {
      "inputs": [
        {
          "internalType": "uint256",
          "name": "",
          "type": "uint256"
        },
        {
          "internalType": "uint256",
          "name": "",
          "type": "uint256"
        }
      ],
      "name": "doctorRecordAccess",
      "outputs": [
        {
          "internalType": "bool",
          "name": "",
          "type": "bool"
        }
      ],
      "stateMutability": "view",
      "type": "function"
    },
    {
      "inputs": [
        {
          "internalType": "uint256",
          "name": "",
          "type": "uint256"
        }
      ],
      "name": "doctors",
      "outputs": [
        {
          "internalType": "uint256",
          "name": "id",
          "type": "uint256"
        },
        {
          "internalType": "string",
          "name": "IPFS_URL",
          "type": "string"
        },
        {
          "internalType": "address",
          "name": "accountAddress",
          "type": "address"
        },
        {
          "internalType": "uint256",
          "name": "appointmentCount",
          "type": "uint256"
        },
        {
          "internalType": "uint256",
          "name": "successfulTreatmentCount",
          "type": "uint256"
        },
        {
          "internalType": "bool",
          "name": "isApproved",
          "type": "bool"
        }
      ],
      "stateMutability": "view",
      "type": "function"
    },
    {
      "inputs": [
        {
          "internalType": "uint256",
          "name": "_patientId",
          "type": "uint256"
        },
        {
          "internalType": "uint256",
          "name": "_recordId",
          "type": "uint256"
        }
      ],
      "name": "getEncryptedRecord",
      "outputs": [
        {
          "components": [
            {
              "internalType": "uint256",
              "name": "id",
              "type": "uint256"
            },
            {
              "internalType": "uint256",
              "name": "patientId",
              "type": "uint256"
            },
            {
              "internalType": "string",
              "name": "ipfsHash",
              "type": "string"
            },
            {
              "internalType": "string",
              "name": "encryptedAESKey",
              "type": "string"
            },
            {
              "internalType": "string",
              "name": "accessPolicy",
              "type": "string"
            },
            {
              "internalType": "uint256",
              "name": "timestamp",
              "type": "uint256"
            },
            {
              "internalType": "address",
              "name": "uploadedBy",
              "type": "address"
            },
            {
              "internalType": "bool",
              "name": "isActive",
              "type": "bool"
            }
          ],
          "internalType": "struct Healthcare.EncryptedMedicalRecord",
          "name": "",
          "type": "tuple"
        }
      ],
      "stateMutability": "view",
      "type": "function"
    },
    {
      "inputs": [
        {
          "internalType": "uint256",
          "name": "_patientId",
          "type": "uint256"
        }
      ],
      "name": "getPatientAccessRequests",
      "outputs": [
        {
          "components": [
            {
              "internalType": "uint256",
              "name": "id",
              "type": "uint256"
            },
            {
              "internalType": "uint256",
              "name": "recordId",
              "type": "uint256"
            },
            {
              "internalType": "uint256",
              "name": "doctorId",
              "type": "uint256"
            },
            {
              "internalType": "uint256",
              "name": "patientId",
              "type": "uint256"
            },
            {
              "internalType": "string",
              "name": "reason",
              "type": "string"
            },
            {
              "internalType": "uint256",
              "name": "timestamp",
              "type": "uint256"
            },
            {
              "internalType": "bool",
              "name": "isPending",
              "type": "bool"
            },
            {
              "internalType": "bool",
              "name": "isApproved",
              "type": "bool"
            }
          ],
          "internalType": "struct Healthcare.AccessRequest[]",
          "name": "",
          "type": "tuple[]"
        }
      ],
      "stateMutability": "view",
      "type": "function"
    },
    {
      "inputs": [
        {
          "internalType": "uint256",
          "name": "_patientId",
          "type": "uint256"
        }
      ],
      "name": "getPatientEncryptedRecords",
      "outputs": [
        {
          "components": [
            {
              "internalType": "uint256",
              "name": "id",
              "type": "uint256"
            },
            {
              "internalType": "uint256",
              "name": "patientId",
              "type": "uint256"
            },
            {
              "internalType": "string",
              "name": "ipfsHash",
              "type": "string"
            },
            {
              "internalType": "string",
              "name": "encryptedAESKey",
              "type": "string"
            },
            {
              "internalType": "string",
              "name": "accessPolicy",
              "type": "string"
            },
            {
              "internalType": "uint256",
              "name": "timestamp",
              "type": "uint256"
            },
            {
              "internalType": "address",
              "name": "uploadedBy",
              "type": "address"
            },
            {
              "internalType": "bool",
              "name": "isActive",
              "type": "bool"
            }
          ],
          "internalType": "struct Healthcare.EncryptedMedicalRecord[]",
          "name": "",
          "type": "tuple[]"
        }
      ],
      "stateMutability": "view",
      "type": "function"
    },
    {
      "inputs": [
        {
          "internalType": "uint256",
          "name": "_patientId",
          "type": "uint256"
        },
        {
          "internalType": "uint256",
          "name": "_doctorId",
          "type": "uint256"
        }
      ],
      "name": "hasDoctorAccess",
      "outputs": [
        {
          "internalType": "bool",
          "name": "",
          "type": "bool"
        }
      ],
      "stateMutability": "view",
      "type": "function"
    },
    {
      "inputs": [],
      "name": "medicineCount",
      "outputs": [
        {
          "internalType": "uint256",
          "name": "",
          "type": "uint256"
        }
      ],
      "stateMutability": "view",
      "type": "function"
    },
    {
      "inputs": [
        {
          "internalType": "uint256",
          "name": "",
          "type": "uint256"
        }
      ],
      "name": "medicines",
      "outputs": [
        {
          "internalType": "uint256",
          "name": "id",
          "type": "uint256"
        },
        {
          "internalType": "string",
          "name": "IPFS_URL",
          "type": "string"
        },
        {
          "internalType": "uint256",
          "name": "price",
          "type": "uint256"
        },
        {
          "internalType": "uint256",
          "name": "quantity",
          "type": "uint256"
        },
        {
          "internalType": "uint256",
          "name": "discount",
          "type": "uint256"
        },
        {
          "internalType": "string",
          "name": "currentLocation",
          "type": "string"
        },
        {
          "internalType": "bool",
          "name": "active",
          "type": "bool"
        }
      ],
      "stateMutability": "view",
      "type": "function"
    },
    {
      "inputs": [
        {
          "internalType": "uint256",
          "name": "",
          "type": "uint256"
        },
        {
          "internalType": "uint256",
          "name": "",
          "type": "uint256"
        }
      ],
      "name": "patientAccessRequests",
      "outputs": [
        {
          "internalType": "uint256",
          "name": "id",
          "type": "uint256"
        },
        {
          "internalType": "uint256",
          "name": "recordId",
          "type": "uint256"
        },
        {
          "internalType": "uint256",
          "name": "doctorId",
          "type": "uint256"
        },
        {
          "internalType": "uint256",
          "name": "patientId",
          "type": "uint256"
        },
        {
          "internalType": "string",
          "name": "reason",
          "type": "string"
        },
        {
          "internalType": "uint256",
          "name": "timestamp",
          "type": "uint256"
        },
        {
          "internalType": "bool",
          "name": "isPending",
          "type": "bool"
        },
        {
          "internalType": "bool",
          "name": "isApproved",
          "type": "bool"
        }
      ],
      "stateMutability": "view",
      "type": "function"
    },
    {
      "inputs": [
        {
          "internalType": "address",
          "name": "",
          "type": "address"
        }
      ],
      "name": "patientAddressToId",
      "outputs": [
        {
          "internalType": "uint256",
          "name": "",
          "type": "uint256"
        }
      ],
      "stateMutability": "view",
      "type": "function"
    },
    {
      "inputs": [],
      "name": "patientCount",
      "outputs": [
        {
          "internalType": "uint256",
          "name": "",
          "type": "uint256"
        }
      ],
      "stateMutability": "view",
      "type": "function"
    },
    {
      "inputs": [
        {
          "internalType": "uint256",
          "name": "",
          "type": "uint256"
        }
      ],
      "name": "patientIdToAddress",
      "outputs": [
        {
          "internalType": "address",
          "name": "",
          "type": "address"
        }
      ],
      "stateMutability": "view",
      "type": "function"
    },
    {
      "inputs": [
        {
          "internalType": "uint256",
          "name": "",
          "type": "uint256"
        },
        {
          "internalType": "uint256",
          "name": "",
          "type": "uint256"
        }
      ],
      "name": "patientMedicalRecords",
      "outputs": [
        {
          "internalType": "uint256",
          "name": "id",
          "type": "uint256"
        },
        {
          "internalType": "uint256",
          "name": "patientId",
          "type": "uint256"
        },
        {
          "internalType": "string",
          "name": "ipfsHash",
          "type": "string"
        },
        {
          "internalType": "string",
          "name": "encryptedAESKey",
          "type": "string"
        },
        {
          "internalType": "string",
          "name": "accessPolicy",
          "type": "string"
        },
        {
          "internalType": "uint256",
          "name": "timestamp",
          "type": "uint256"
        },
        {
          "internalType": "address",
          "name": "uploadedBy",
          "type": "address"
        },
        {
          "internalType": "bool",
          "name": "isActive",
          "type": "bool"
        }
      ],
      "stateMutability": "view",
      "type": "function"
    },
    {
      "inputs": [
        {
          "internalType": "uint256",
          "name": "",
          "type": "uint256"
        },
        {
          "internalType": "uint256",
          "name": "",
          "type": "uint256"
        }
      ],
      "name": "patientOrders",
      "outputs": [
        {
          "internalType": "uint256",
          "name": "medicineId",
          "type": "uint256"
        },
        {
          "internalType": "uint256",
          "name": "price",
          "type": "uint256"
        },
        {
          "internalType": "uint256",
          "name": "payAmount",
          "type": "uint256"
        },
        {
          "internalType": "uint256",
          "name": "quantity",
          "type": "uint256"
        },
        {
          "internalType": "uint256",
          "name": "patientId",
          "type": "uint256"
        },
        {
          "internalType": "uint256",
          "name": "date",
          "type": "uint256"
        }
      ],
      "stateMutability": "view",
      "type": "function"
    },
    {
      "inputs": [
        {
          "internalType": "uint256",
          "name": "",
          "type": "uint256"
        }
      ],
      "name": "patients",
      "outputs": [
        {
          "internalType": "uint256",
          "name": "id",
          "type": "uint256"
        },
        {
          "internalType": "string",
          "name": "IPFS_URL",
          "type": "string"
        },
        {
          "internalType": "address",
          "name": "accountAddress",
          "type": "address"
        }
      ],
      "stateMutability": "view",
      "type": "function"
    },
    {
      "inputs": [],
      "name": "prescriptionCount",
      "outputs": [
        {
          "internalType": "uint256",
          "name": "",
          "type": "uint256"
        }
      ],
      "stateMutability": "view",
      "type": "function"
    },
    {
      "inputs": [
        {
          "internalType": "uint256",
          "name": "",
          "type": "uint256"
        }
      ],
      "name": "prescriptions",
      "outputs": [
        {
          "internalType": "uint256",
          "name": "id",
          "type": "uint256"
        },
        {
          "internalType": "uint256",
          "name": "medicineId",
          "type": "uint256"
        },
        {
          "internalType": "uint256",
          "name": "patientId",
          "type": "uint256"
        },
        {
          "internalType": "uint256",
          "name": "doctorId",
          "type": "uint256"
        },
        {
          "internalType": "uint256",
          "name": "date",
          "type": "uint256"
        }
      ],
      "stateMutability": "view",
      "type": "function"
    },
    {
      "inputs": [
        {
          "internalType": "address",
          "name": "",
          "type": "address"
        }
      ],
      "name": "registeredDoctors",
      "outputs": [
        {
          "internalType": "bool",
          "name": "",
          "type": "bool"
        }
      ],
      "stateMutability": "view",
      "type": "function"
    },
    {
      "inputs": [
        {
          "internalType": "address",
          "name": "",
          "type": "address"
        }
      ],
      "name": "registeredPatients",
      "outputs": [
        {
          "internalType": "bool",
          "name": "",
          "type": "bool"
        }
      ],
      "stateMutability": "view",
      "type": "function"
    },
    {
      "inputs": [],
      "name": "registrationDoctorFee",
      "outputs": [
        {
          "internalType": "uint256",
          "name": "",
          "type": "uint256"
        }
      ],
      "stateMutability": "view",
      "type": "function"
    },
    {
      "inputs": [],
      "name": "registrationPatientFee",
      "outputs": [
        {
          "internalType": "uint256",
          "name": "",
          "type": "uint256"
        }
      ],
      "stateMutability": "view",
      "type": "function"
    },
    {
      "inputs": [
        {
          "internalType": "uint256",
          "name": "_patientId",
          "type": "uint256"
        },
        {
          "internalType": "uint256",
          "name": "_recordId",
          "type": "uint256"
        },
        {
          "internalType": "string",
          "name": "_reason",
          "type": "string"
        }
      ],
      "name": "requestRecordAccess",
      "outputs": [],
      "stateMutability": "nonpayable",
      "type": "function"
    },
    {
      "inputs": [
        {
          "internalType": "uint256",
          "name": "_doctorId",
          "type": "uint256"
        }
      ],
      "name": "revokeAccess",
      "outputs": [],
      "stateMutability": "nonpayable",
      "type": "function"
    },
    {
      "inputs": [
        {
          "internalType": "uint256",
          "name": "_patientId",
          "type": "uint256"
        },
        {
          "internalType": "uint256",
          "name": "_recordId",
          "type": "uint256"
        },
        {
          "internalType": "string",
          "name": "_newIpfsHash",
          "type": "string"
        },
        {
          "internalType": "string",
          "name": "_newEncryptedAESKey",
          "type": "string"
        }
      ],
      "name": "updateEncryptedMedicalRecord",
      "outputs": [],
      "stateMutability": "nonpayable",
      "type": "function"
    },
    {
      "inputs": [
        {
          "internalType": "uint256",
          "name": "_patientId",
          "type": "uint256"
        },
        {
          "internalType": "string",
          "name": "_ipfsHash",
          "type": "string"
        },
        {
          "internalType": "string",
          "name": "_encryptedAESKey",
          "type": "string"
        },
        {
          "internalType": "string",
          "name": "_accessPolicy",
          "type": "string"
        }
      ],
      "name": "uploadEncryptedMedicalRecord",
      "outputs": [
        {
          "internalType": "uint256",
          "name": "",
          "type": "uint256"
        }
      ],
      "stateMutability": "nonpayable",
      "type": "function"
    }
  ],
  "bytecode": "0x60808060405234610043576608e1bc9bf04000601a81905565e35fa931a000601b55601c55601980546001600160a01b031916331790556170829081620000498239f35b600080fdfe6080604052600436101561001257600080fd5b60003560e01c806302cce77014615546578063046a07ed146154c057806304c0adb71461549d578063082ed547146154725780630e3e3dd31461543857806312dc90131461533f578063178cb1581461526c5780631b82207e1461523f5780632a42e74c146150d95780632c486bd514615025578063317ee45f14614d4a57806331dfc91b14614ce2578063354b365f14614b5857806337a92da71461493b57806339d519a91461488a5780633c5af33d146147025780633f308cd2146146c35780634dafd490146146a5578063540a661414614687578063559160b81461450e5780635597958e1461436257806356baa64e1461423e5780635970cea414613c8c5780635e6951e314613aff5780635ef2a41414613786578063636d36271461373557806366f697b8146136195780636be381311461349e5780636efb1b841461341557806372de4401146132a757806374cdd5341461322e578063763a32f3146131fa578063770d954d1461314557806378522bc414613127578063791cda0f14612f085780637c0b501a14612dfd578063828b10da14612cdd578063833ffe9414612c375780638366304b1461288e578063842f8dd0146127da57806384e7aa2e1461265f5780638c9e245d146125c957806393119a831461257d57806395027d41146124595780639cdaaad81461241a5780639da8e0db146123fc5780639f0893c2146123645780639fea8c26146121ff578063a0303c41146121e1578063a48f87d01461216f578063a72c162314612082578063aca7a60614610523578063b039ece914611f50578063b27b24f814611e3a578063b3e0c71014611de9578063b655849814611dcb578063b868f72914611cf2578063b884db75146119e3578063bbece2bb14611922578063c0a5999a1461182c578063c2c9a9bc146117f8578063c469c7e6146117be578063c85e766d14611721578063d0da230614611602578063d174ea4114611573578063dabf826a14611555578063dd1bf902146113a1578063e1b97d6914611294578063e40b850e14611276578063e92f0a68146111d6578063ea51cd6c146110cd578063ebd557d914610c30578063ed74e848146109d7578063eebc3fb2146109b9578063f27e44cc1461091e578063f28136a914610897578063f851a4401461086e578063fb5333b714610790578063fd9510d51461055b578063fe2df1c314610523578063fe60efa11461048c5763ff09a64e146103a257600080fd5b3461048757602080600319360112610487576060906103bf6155e2565b82604080516103cd816156ec565b828152828582015201526103e86103e382616983565b616c34565b60018060a01b0316600052600181526104836040600020916040519261040d846156ec565b61041681615728565b845261047261045c61043c600261042f60018601615728565b9486890195865201616c79565b9360408701948552604051978897828952519188015260808701906157ce565b915191601f1992838783030160408801526157ce565b915190848303016060850152615dfb565b0390f35b600080fd5b34610487576020366003190112610487576104a561686f565b506004356000526006602052610483604060002060ff6005604051926104ca8461569b565b805484526104da60018201615728565b602085015260018060a01b0360028201541660408501526003810154606085015260048101546080850152015416151560a0820152604051918291602083526020830190615b5d565b34610487576105313661580e565b906000526012602052604060002090600052602052602060ff604060002054166040519015158152f35b3461048757602080600319360112610487576004359033600052600a815261058a60ff60406000205416616181565b6105986017548311156164e9565b81600052600981526002604060002001546105b2336168f1565b0361072e578161072c9260005260098252600960406000200160ff1981541690556105dc336168f1565b6000526006825260046040600020016105f58154616070565b9055610656604051610606816156ec565b602f81527f596f752068617665207375636365737366756c6c7920636f6d706c6574656420848201526e1d1a1948185c1c1bda5b9d1b595b9d608a1b604082015261064f616426565b90336161e5565b600052600981526001604060002001546000526007815260018060a01b036106d8816003604060002001541660405161068e816156ec565b602a81527f596f7572204170706f696e746d656e74206973207375636365737366756c6c7985820152690818dbdb5c1b195d195960b21b60408201526106d2616426565b916161e5565b60195416907f446f63746f7220636f6d706c65746564206170706f696e746d656e74207375636040519161070b836156ec565b60298352820152686365737366756c6c7960b81b60408201526106d2616426565b005b6084906040519062461bcd60e51b82526004820152603560248201527f4f6e6c79207468652061737369676e656420646f63746f722063616e20636f6d6044820152741c1b195d19481d1a1948185c1c1bda5b9d1b595b9d605a1b6064820152fd5b34610487577f573cca7a8cd583da809cdb83b4ea8dec06c87da579a25478cc69566672e2b5896107bf366158a4565b906107d560018060a01b03601954163314616313565b6107e360135482111561638e565b8060005260056020526107fd826005604060002001615ec5565b61084d60405161080c816156ec565b602681527f4d65646963696e65206c6f636174696f6e2075706461746564207375636365736020820152657366756c6c7960d01b604082015261064f61636a565b61086960405192839283526040602084015260408301906157ce565b0390a1005b34610487576000366003190112610487576019546040516001600160a01b039091168152602090f35b346104875760203660031901126104875760195461072c906001600160a01b03166108c3338214616313565b600435601a556040516108d5816156ec565b602e81527f596f752068617665207375636365737366756c6c79207570646174656420526560208201526d67697374726174696f6e2066656560901b60408201526106d26165aa565b34610487576020366003190112610487576109376165cb565b50600435600052600860205260a0604060002060046040519161095983615648565b80548352600181015460208401526002810154604084015260038101546060840152015460808201526109b7604051809260808091805184526020810151602085015260408101516040850152606081015160608501520151910152565bf35b34610487576000366003190112610487576020601754604051908152f35b34610487576060366003190112610487576109f06155e2565b6109f86155f8565b906044356001600160401b03811161048757610a189036906004016159ee565b929091610a2c610a2783616983565b616cf4565b610a386103e382616983565b610a428183616e60565b15610bdc57610a518183616fb6565b9060405194610a5f866156ec565b60018060a01b03938481168752610a80602096878901934285523691615840565b9360408801948552600052600286526040600020805497600160401b891015610bc65760018901808355891015610bb0576002610b6e96610b3a958961072c9c610af29660005260038d6000209102019451166001600160601b0360a01b855416178455516001840155519101615ec5565b604051610afe816156ec565b602281527f596f752068617665207375636365737366756c6c792073656e74206d657373618782015261676560f01b60408201526106d2616f93565b604051610b46816156b6565b6014815273596f752068617665206e6577206d65737361676560601b858201526106d2616f93565b60195416907f4d6573736167652073656e74207375636365737366756c6c790000000000000060405191610ba1836156b6565b601983528201526106d2616f93565b634e487b7160e01b600052603260045260246000fd5b634e487b7160e01b600052604160045260246000fd5b60405162461bcd60e51b815260206004820152602660248201527f596f7520617265206e6f7420667269656e64207769746820746865206769766560448201526537103ab9b2b960d11b6064820152608490fd5b610120366003190112610487576001600160401b0360443581811161048757610c5d903690600401615886565b60643582811161048757610c75903690600401615886565b9060843583811161048757610c8e903690600401615886565b9060a43584811161048757610ca7903690600401615886565b9260c43585811161048757610cc0903690600401615886565b9460e4356001600160a01b0381169003610487576101043590811161048757610ced9036906004016159ee565b959094610d00601554600435111561648c565b610d106014546024351115616448565b6024356000526006602052610d2f60ff60056040600020015416616535565b6004356000908152600760205260409020600301546001600160a01b0316330361107457601c54340361102f57610d6b600a349081049061659d565b94601754610d7890616070565b938460175560405195610d8a8761567f565b858752602087016004358152604088016024358152606089019142835260808a0193845260a08a0194855260c08a0195865260e08a019687526101008a019788526101208a019860018a526000526009602052604060002099518a555160018a0155516002890155516003880155516004870190610e0791615ec5565b51610e159060058701615ec5565b51610e239060068601615ec5565b51610e319060078501615ec5565b51610e3f9060088401615ec5565b5115159060090190610e5c919060ff801983541691151516179055565b602435600052600660205260406000206003018054610e7a90616070565b905560195460009081908190819081906001600160a01b0316600a340415611025575b600a340491f115611010576000808080936024358252600660205260018060a01b0360026040842001541682821561101c575bf11561101057610ee491339160e435616d40565b610f2e604051610ef3816156b6565b601a81527f596f7520686176652061206e6577206170706f696e746d656e740000000000006020820152610f2561657a565b9060e4356161e5565b610f83604051610f3d816156ec565b602b81527f596f752068617665207375636365737366756c6c7920626f6f6b656420616e2060208201526a185c1c1bda5b9d1b595b9d60aa1b604082015261064f61657a565b601954604051610fcb916001600160a01b031690610fa0816156b6565b601681527513995dc8185c1c1bda5b9d1b595b9d08189bdbdad95960521b60208201526106d261657a565b7f3ac6f9df28ef09d1b346be1f7d771f61872f07de8da7b88f490fe4f61b2b3e2c608060175460405190815260043560208201526024356040820152426060820152a1005b6040513d6000823e3d90fd5b506108fc610ed0565b6108fc9150610e9d565b60405162461bcd60e51b815260206004820152601960248201527f496e636f7272656374206170706f696e746d656e7420666565000000000000006044820152606490fd5b60405162461bcd60e51b815260206004820152602b60248201527f4f6e6c79207468652070617469656e742063616e20626f6f6b2074686569722060448201526a185c1c1bda5b9d1b595b9d60aa1b6064820152608490fd5b34610487576000366003190112610487576017546110ea8161681f565b9060018060005b8383111561110757604051806104838782615975565b6111ca6111d09184600052600960ff60209180835260406000206040519361112e8561567f565b815485528882015490850152600281015460408501526003810154606085015261115a60048201615728565b608085015261116b60058201615728565b60a085015261117c60068201615728565b60c085015261118d60078201615728565b60e085015261119e60088201615728565b61010085015201541615156101208201526111b98289616646565b526111c48188616646565b50616070565b92616070565b916110f1565b34610487576020366003190112610487576111ef61694a565b506004356000526005602052610483604060002060ff600660405192611214846156d1565b8054845261122460018201615728565b602085015260028101546040850152600381015460608501526004810154608085015261125360058201615728565b60a0850152015416151560c0820152604051918291602083526020830190615d2b565b34610487576000366003190112610487576020601a54604051908152f35b34610487576020806003193601126104875761072c9060043533600052600d82526040600020546112c68115156160a9565b600052601282526040600020816000528252604060002060ff1981541690556113396040516112f4816156ec565b602b81527f596f75207265766f6b656420646f63746f7227732061636365737320746f2079848201526a6f7572207265636f72647360a81b604082015261064f61607f565b600052600f815260018060a01b0360406000205416907f50617469656e74207265766f6b656420796f75722061636365737320746f20746040519161137d836156ec565b602c83528201526b68656972207265636f72647360a01b60408201526106d261607f565b346104875760a0366003190112610487576001600160401b03600435818111610487576113d2903690600401615886565b6084359182116104875761140b7f4bd6730197eeaa6a5861ee6770b4a7ea4945e177c1b8f8e196812da34b52b620923690600401615886565b61142060018060a01b03601954163314616313565b6114cb61142e601354616070565b80601355600660405191611441836156d1565b8083526114b5602084018781526040850160243581526060860160443581526080870191606435835261149960a08901948b865260c08a0197600189526000526005602052604060002099518a555160018a01615ec5565b5160028801555160038701555160048601555160058501615ec5565b51151591019060ff801983541691151516179055565b6115246040516114da816156ec565b602f81527f4e6577204d65646963696e6520616464656420746f206d61726b6574706c616360208201526e65207375636365737366756c6c792160881b604082015261064f61636a565b6108696013549161154760405194859485526060602086015260608501906157ce565b9083820360408501526157ce565b34610487576000366003190112610487576020601c54604051908152f35b346104875760203660031901126104875760195461072c906001600160a01b031661159f338214616313565b600435601b556040516115b1816156ec565b603681527f596f752068617665207375636365737366756c6c7920757064617465642050616020820152757469656e7420526567697374726174696f6e2066656560501b60408201526106d26165aa565b34610487576000366003190112610487576014546001906000825b828111156116e4575061162f906168a1565b916000815b8381111561164a57604051806104838782615bae565b80600052602060068152604060002060ff6005820154169081611679575b50505061167490616070565b611634565b9161167493949160046116db94604051936116938561569b565b815485526116a28a8301615728565b9085015260028101546001600160a01b031660408501526003810154606085015201546080830152151560a08201526111b98289616646565b91908680611668565b80600052600660205260ff6005604060002001541661170c575b61170790616070565b61161d565b9061171961170791616070565b9190506116fe565b346104875760203660031901126104875760043560005260056020526040600020805461175060018301615728565b916117b26002820154600383015492600481015460ff600661177460058501615728565b9301541694611795604051988998895260e060208a015260e08901906157ce565b9360408801526060870152608086015284820360a08601526157ce565b90151560c08301520390f35b34610487576020366003190112610487576001600160a01b036117df6155e2565b16600052600c6020526020604060002054604051908152f35b3461048757602036600319011261048757600435600052600e602052602060018060a01b0360406000205416604051908152f35b34610487576020366003190112610487577f954090adef24b59354b88966afb6b169cf1790275cc1c22d9d599cfa745041a560043561187660018060a01b03601954163314616313565b61188460135482111561638e565b6000818152600560205260409020600601805460ff818116151660ff199091161790556118f56040516118b6816156ec565b602481527f4d65646963696e65207374617475732075706461746564207375636365737366602082015263756c6c7960e01b604082015261064f61636a565b60008181526005602090815260409182902060060154825193845260ff1615159083015281908101610869565b34610487577f611a96f8a84b78b34d3917accd31d6e94ffc712cdd95a8ce7b8e2f9c5e093ae960406119533661580e565b61196860018060a01b03601954163314616313565b61197660135483111561638e565b8160005260056020528060048460002001556119d68351611996816156ec565b602681527f4d65646963696e6520646973636f756e742075706461746564207375636365736020820152657366756c6c7960d01b8582015261064f61636a565b82519182526020820152a1005b6080366003190112610487576001600160401b0360043581811161048757611a0f903690600401615886565b611a176155f8565b60443583811161048757611a2f9036906004016159ee565b9060643585811161048757611a48903690600401615886565b91611a56601a5434146163da565b60018060a01b03928385169283600052602093600a855260ff60406000205416611cad57611a85601454616070565b9081601455611b23604051611a998161569b565b8381526005888201948c8652896040840196868852611ae5606086019160008352600660808801946000865260a089019660008852600052526040600020965187555160018701615ec5565b8c60028601985116976001600160601b0360a01b988982541617905551600385015551600484015551151591019060ff801983541691151516179055565b80600052600a86526040600020600160ff19825416179055601454600c875280604060002055600052600f86526040600020918254161790556000808080886019541681903415611ca3575b3491f11561101057611b829286916169c5565b60405191608083019583871090871117610bc657611c33611c90937f8c4e93915e8e9956f3984eef613c813c83672180f22083646e395379663dd76997604052604a81527f596f752068617665207375636365737366756c6c7920636f6d706c6574656420848201527f74686520726567697374726174696f6e2c206e6f772077616974696e6720666f6040820152691c88185c1c1c9bdd985b60b21b6060820152611c2c616426565b90866161e5565b60195416907f4e657720646f63746f7220697320726567697374657265642c206e6f7720776160405191611c66836156ec565b60328352820152711a5d1a5b99c8199bdc88185c1c1c9bdd985b60721b60408201526106d2616426565b6108696014549160405193849384615c80565b6108fc9150611b6f565b60405162461bcd60e51b815260048101869052601c60248201527f446f63746f7220697320616c72656164792072656769737465726564000000006044820152606490fd5b34610487576020806003193601126104875760043560005260108152604060002090815491611d20836159d7565b92611d2e6040519485615707565b8084528284018092600052836000206000915b838310611da85750505050604051918083019381845251809452604083019360408160051b85010192916000955b828710611d7c5785850386f35b909192938280611d98600193603f198a82030186528851615cae565b9601920196019592919092611d6f565b600786600192611dba859a999a615fb6565b815201920192019190959495611d41565b34610487576000366003190112610487576020601654604051908152f35b34610487576020366003190112610487576001600160a01b03611e0a6155e2565b166000526001602052610483611e266002604060002001616c79565b604051918291602083526020830190615dfb565b3461048757600036600319011261048757611e5361686f565b50611e5c61686f565b600090600180601454915b82811115611e85576040516020808252819061048390820187615b5d565b806000526006602081815260406000206003906004828201549101548101809111611f3a57888111611ec4575b50505050611ebf90616070565b611e67565b60ff92939850611ebf949750906005919888600052845260406000209060405194611eee8661569b565b82548652611efd888401615728565b9086015260028201546001600160a01b03166040860152810154606085015260048101546080850152015416151560a08201529390868080611eb2565b634e487b7160e01b600052601160045260246000fd5b3461048757604036600319011261048757611f79611f6c6155e2565b611f746155f8565b616fb6565b6000526002602081815260406000208054611f93816159d7565b93611fa16040519586615707565b81855260009283528383208486019391845b84841061203957604080518881528951818a01819052600092600582901b83018101918a918c9085015b828710611fea5785850386f35b909192938280612029600193603f198a820301865260408951868060a01b038151168352848101518584015201519060609081604082015201906157ce565b9601920196019592919092611fdd565b60038760019260409a999a5161204e816156ec565b848060a01b038754168152848701548382015261206c868801615728565b6040820152815201930193019291969596611fb3565b3461048757602080600319360112610487576004356120a560155482111561648c565b6000818152600783526040902060030154336001600160a01b0391821614908115612161575b50156120fd57600052600781526120e860026040600020016166d6565b90610483604051928284938452830190615da6565b60405162461bcd60e51b815260048101839052603660248201527f4f6e6c79207468652070617469656e74206f722061646d696e2063616e207669604482015275657720746865206d65646963616c20686973746f727960501b6064820152608490fd5b9050601954163314836120cb565b346104875761217d3661580e565b906000526004602052604060002080548210156104875760c0916121a091615d8a565b5080549060018101549060028101546003820154906005600484015493015493604051958652602086015260408501526060840152608083015260a0820152f35b34610487576000366003190112610487576020601554604051908152f35b346104875760003660031901126104875760135461221c816159d7565b6122296040519182615707565b818152601f19612238836159d7565b0160005b81811061234d575060019290508260005b828211156122b8578385604051906020808301818452845180915260408401918060408360051b8701019601926000905b83821061228b5786880387f35b909192939483806122a7839a603f198b82030186528951615d2b565b99970195949391909101910161227e565b61234161234791836000528660ff6006600561231d6020918083526040600020926122f4604051976122e9896156d1565b855489528501615728565b908701526002830154604087015260038301546060870152600483015460808701528201615728565b60a0850152015416151560c08201526123368288616646565b526111c48187616646565b91616070565b9061224d565b60209061235861694a565b8282860101520161223c565b34610487576104836123e86123e261237b3661580e565b90600060e060405161238c81615663565b82815282602082015260606040820152606080820152606060808201528260a08201528260c082015201528060005260106020526123d06040600020548310616031565b60005260106020526040600020615824565b50615fb6565b604051918291602083526020830190615cae565b34610487576000366003190112610487576020601854604051908152f35b34610487576020366003190112610487576001600160a01b0361243b6155e2565b16600052600b602052602060ff604060002054166040519015158152f35b34610487576124673661580e565b9080600052602090601082526124836040600020548410616031565b6000818152600e835260409020546001600160a01b039190821633148015612570575b1561251f5760066124c661072c9583600052601086526040600020615824565b500160ff60a01b198154169055600052600e825260406000205416907f4d65646963616c207265636f726420646561637469766174656400000000000060405191612510836156b6565b601a83528201526106d2615f8c565b60405162461bcd60e51b8152600481018490526024808201527f4f6e6c792070617469656e74206f722061646d696e2063616e206465616374696044820152637661746560e01b6064820152608490fd5b50816019541633146124a6565b34610487576020366003190112610487576004356000526007602052604060002080546104836125af60018401615728565b92600360018060a01b039101541660405193849384615c80565b34610487576000366003190112610487576016546125e6816165f6565b9060018060005b8383111561260357604051806104838782615c10565b6111ca6126599184600052602060088152600460406000206040519261262884615648565b8154845287820154908401526002810154604084015260038101546060840152015460808201526111b98289616646565b916125ed565b34610487576020806003193601126104875760043561267c6167d4565b5061268b6017548211156164e9565b80600052600982526001604060002001546126a53361677a565b1480156127c6575b15612766576000526009815260406000209060ff6009604051936126d08561567f565b8054855260018101548486015260028101546040860152600381015460608601526126fd60048201615728565b608086015261270e60058201615728565b60a086015261271f60068201615728565b60c086015261273060078201615728565b60e086015261274160088201615728565b61010086015201541615156101208301526104836040519282849384528301906158d3565b60405162461bcd60e51b815260048101839052603260248201527f4f6e6c79207468652070617469656e74206f722061646d696e2063616e207669604482015271195dc81d1a1948185c1c1bda5b9d1b595b9d60721b6064820152608490fd5b506019546001600160a01b031633146126ad565b34610487576000366003190112610487576015546127f781616686565b9060018060005b8383111561281457604051806104838782615afb565b6111ca6128889184600052602060078152612879600460406000206040519361283c85615648565b8154855261284b898301615728565b9085015261285b600282016166d6565b604085015260038101546001600160a01b031660608501520161672b565b60808201526111b98289616646565b916127fe565b60603660031901126104875760043560248035906044356128b360155485111561648c565b6128c160135484111561638e565b836000526020916007835260018060a01b039182600360406000200154163303612be3578460005260059081855260ff6006604060002001541615612ba657856000528185528060036040600020015410612b6257856000528185526002604060002001549080820291808304821490151715612b4d5786600052828652600360406000200161295282825461659d565b905587600052600786526004604060002001908154600160401b9283821015612b385790612985916001820181556164d1565b81549060031b908a821b91600019901b19161790558860005260048752604060002092886000528488526002604060002001546040516129c48161569b565b8a8152898101918252604081019283526060810193845260808101948c865260a0820196428852805491821015612b235790612a0591600182018155615d8a565b989098612b0f577f1d62f96054391d98915909b52fc6b2182af4ce3748f5ddd6c0047dd725a969df60408e8e8e612b048f8f8f8f8f8f8f8f8f51875551600187015551600286015551600385015551600484015551910155612aa98651612a6b816156ec565b602581527f596f752068617665207375636365737366756c6c7920626f75676874206d656485820152646963696e6560d81b8882015261064f61657a565b601954168551612ab8816156ec565b603381527f5472616e73616374696f6e20636f6d706c657465642c206d65646963696e65208482015272626f75676874207375636365737366756c6c7960681b878201526106d261657a565b8351928352820152a1005b634e487b7160e01b60005260006004526000fd5b89634e487b7160e01b60005260416004526000fd5b86634e487b7160e01b60005260416004526000fd5b83634e487b7160e01b60005260116004526000fd5b60405162461bcd60e51b815260048101869052601c818501527f4e6f7420656e6f756768206d65646963696e6520696e2073746f636b000000006044820152606490fd5b60405162461bcd60e51b815260048101869052601681850152754d65646963696e65206973206e6f742061637469766560501b6044820152606490fd5b60405162461bcd60e51b8152600481018590526027818401527f4f6e6c79207468652070617469656e742063616e20627579207468656972206d60448201526665646963696e6560c81b6064820152608490fd5b3461048757612c453661580e565b906000526011602052604060002090815481101561048757612c6691615824565b50805460018201549160ff6002820154612cbe6003840154612c8a60048601615728565b90600660058701549601549360405198899889526020890152604088015260608701526101008060808801528601906157ce565b9260a0850152818116151560c085015260081c16151560e08301520390f35b3461048757600036600319011261048757600054612cfa816159d7565b90612d086040519283615707565b8082526000808052602091828401917f290decd9548b62a8d60345a988386fc84ba6bc95484008f6362f93160ef3e563835b838310612dbd5750505050604051918083019381845251809452604083019360408160051b85010192916000955b828710612d755785850386f35b909192938280600192603f1989820301855287519082612d9e83516040845260408401906157ce565b9281878060a01b03910151169101529601920196019592919092612d68565b600286600192604099989951612dd2816156b6565b612ddb86615728565b8152848060a01b03858701541683820152815201920192019190959495612d3a565b3461048757602080600319360112610487576016546001916004356000845b84811115612ecd5750612e2e906165f6565b93600091815b85811115612e4a57604051806104838982615c10565b80600052600885526040600020600281015490838214612e75575b5050612e7090616070565b612e34565b94612ec5916004612e70949760405192612e8e84615648565b81548452888201548b85015260408401526003810154606084015201546080820152612eba828b616646565b526111c4818a616646565b939088612e65565b80600052600884528260026040600020015414612ef3575b612eee90616070565b612e1c565b90612f00612eee91616070565b919050612ee5565b34610487576080366003190112610487576004356024356001600160401b0360443581811161048757612f3f903690600401615886565b9060643590811161048757612f58903690600401615886565b9033600052602091600a8352612f7560ff60406000205416616181565b8460005260108352612f8d6040600020548510616031565b8460005260128352604060002033600052600c8452604060002054600052835260ff60406000205416156130e2579160067fdea2a8c46cb3bffd887bf63059546fb77aa279b81123acfbedbc55a519440e1a9492613013604095886000526010855261300a612fff8789600020615824565b509360028501615ec5565b60038301615ec5565b4260058201550180546001600160a01b031916331790556000858152600e825283902054835161308b916001600160a01b031690613050816156ec565b602281527f446f63746f72207570646174656420796f7572206d65646963616c207265636f84820152611c9960f21b868201526106d2615f8c565b6130d58351613099816156ec565b602381527f4d65646963616c207265636f726420757064617465642073756363657373667583820152626c6c7960e81b8582015261064f615f8c565b82519182523390820152a2005b60405162461bcd60e51b815260048101849052601c60248201527f4e6f2061636365737320746f2070617469656e74207265636f726473000000006044820152606490fd5b34610487576000366003190112610487576020601454604051908152f35b3461048757600036600319011261048757601454613162816168a1565b9060018060005b8383111561317f57604051806104838782615bae565b6111ca6131f4918460005260206006815260ff60056040600020604051936131a68561569b565b815485526131b5898301615728565b9085015260028101546001600160a01b031660408501526003810154606085015260048101546080850152015416151560a08201526111b98289616646565b91613169565b3461048757602036600319011261048757600435600052600f602052602060018060a01b0360406000205416604051908152f35b346104875760203660031901126104875761324761665a565b506004356000526007602052610483604060002061328e60046040519261326d84615648565b8054845261327d60018201615728565b602085015261285b600282016166d6565b6080820152604051918291602083526020830190615a4f565b3461048757602080600319360112610487576004356132ca601454821115616448565b601754906001906000825b848111156133da57506132e79061681f565b93600091835b8581111561330357604051806104838982615975565b806000526009808452604060002090600282015491848314613331575b50505061332c90616070565b6132ed565b9160ff61332c9497926133d1946040519361334b8561567f565b815485528b8201548a86015260408501526003810154606085015261337260048201615728565b608085015261338360058201615728565b60a085015261339460068201615728565b60c08501526133a560078201615728565b60e08501526133b660088201615728565b6101008501520154161515610120820152612eba828b616646565b93908880613320565b80600052600986528260026040600020015414613400575b6133fb90616070565b6132d5565b9061340d6133fb91616070565b9190506133f2565b346104875760203660031901126104875760043560005260066020526040600020805461344460018301615728565b9160018060a01b036002820154169060038101549060ff600560048301549201541691613483604051968796875260c0602088015260c08701906157ce565b93604086015260608501526080840152151560a08301520390f35b3461048757602080600319360112610487577f2faac90f5434aef32f5b0ff5b333f37051f5b671f12a52ebae64f2ef8ac1393960406004359233600052600d815261351b8260002054946134f38615156160a9565b856000526011835261350a846000205482106160f5565b856000526011835283600020615824565b509360068501610100815461353260ff8216616135565b61ffff19161790558060005260128252826000209460028101958654600052835283600020600160ff1982541617905561360a8451613570816156ec565b602481527f596f7520617070726f76656420646f63746f7227732061636365737320726571858201526135b2631d595cdd60e21b91828882015261064f61607f565b8754600052600f855260018060a01b03866000205416908651906135d5826156ec565b602482527f50617469656e7420617070726f76656420796f7572206163636573732072657187830152878201526106d261607f565b549454918351928352820152a2005b3461048757602080600319360112610487577fab68bac660dc4dc217aaf31b805cc6d0805eb6ead55c290a05a5a0adfe707f8e60406004359233600052600d815261366e8260002054946134f38615156160a9565b509360068501805461368260ff8216616135565b61ffff19169055825194613695866156ec565b602286527f596f752064656e69656420646f63746f72277320616363657373207265717565838701526136d5611cdd60f21b96878682015261064f61607f565b61360a60028201968754600052600f855260018060a01b0386600020541690865190613700826156ec565b602282527f50617469656e742064656e69656420796f75722061636365737320726571756587830152878201526106d261607f565b346104875760203660031901126104875760043561375760155482111561648c565b6000526007602052610483613772600460406000200161672b565b604051918291602083526020830190615a1b565b34610487576080366003190112610487576001600160401b03600435602435828111610487576137ba903690600401615886565b90604435838111610487576137d3903690600401615886565b92606435908111610487576137ec903690600401615886565b92825115613ac557805115613a805781600052602093600e855260018060a01b0393846040600020541633148015613a29575b156139be578360005260108652604060002080549560405161384081615663565b878152888101928784526040820196858852606083019081526080830196875260a083019242845260c081019333855260e082019360018552600160401b8d1015610bc6578c61389591600182018155615824565b9190916139a8576138fb61399d9a6138f189966138e77ff7a49fdc3237b4f9f9164500d541961973468edf75064ada7ca5a0a0e46b7adb9f6139849d6006995189555160018901555160028801615ec5565b5160038601615ec5565b5160048401615ec5565b5160058201550192511682549160ff60a01b9051151560a01b16916affffffffffffffffffffff60a81b161717905585600052600e885260406000205416604051613945816156ec565b602581527f4e657720656e63727970746564206d65646963616c207265636f72642075706c89820152641bd859195960da1b60408201526106d2615f8c565b60405191829186835260408884015260408301906157ce565b0390a2604051908152f35b634e487b7160e01b600052600060045260246000fd5b60405162461bcd60e51b815260048101879052603860248201527f556e617574686f72697a65643a204f6e6c792070617469656e74206f7220617060448201527f70726f76656420646f63746f722063616e2075706c6f616400000000000000006064820152608490fd5b5033600052600c86526040600020546000526006865260ff60056040600020015416801561381f57508360005260128652604060002033600052600c8752604060002054600052865260ff6040600020541661381f565b60405162461bcd60e51b815260206004820152601a60248201527f456e6372797074656420414553206b65792072657175697265640000000000006044820152606490fd5b60405162461bcd60e51b815260206004820152601260248201527112541194c81a185cda081c995c5d5a5c995960721b6044820152606490fd5b346104875760208060031936011261048757600435613b22601454821115616448565b60155491613b2f836159d7565b92613b3d6040519485615707565b808452613b4c601f19916159d7565b0136828501376000916001601754905b81811115613bea57505050613b7082616686565b9260005b838110613b8957604051806104838782615afb565b80613b97613be59284616646565b51600052600784526040600020613bd6600460405192613bb684615648565b80548452613bc660018201615728565b8885015261285b600282016166d6565b60808201526123368288616646565b613b74565b8060005260098085528360026040600020015414613c12575b50613c0d90616070565b613b5c565b600160005b878110613c54575b5015613c03578195613c4d91613c0d936000528652600160406000200154613c47828a616646565b52616070565b9490613c03565b613c5e818a616646565b518460005283885260016040600020015414613c8257613c7d90616070565b613c17565b5050600088613c1f565b610100366003190112610487576004356001600160401b03811161048757613cb8903690600401615886565b602435906001600160401b0382116104875736602383011215610487578160040135613ce3816159d7565b92613cf16040519485615707565b8184526024602085019260051b820101903682116104875760248101925b82841061420f5785856044356001600160a01b038116900361048757606435916001600160401b038311610487573660238401121561048757826004013592613d57846159d7565b93613d656040519586615707565b8085526024602086019160051b8301019136831161048757602401905b8282106141ff575050506084356001600160401b03811161048757613dab9036906004016159ee565b60a4356001600160a01b03811690036104875760c4356001600160401b03811161048757613ddd9036906004016159ee565b909160e4356001600160401b03811161048757613dfe903690600401615886565b96613e0c601b5434146163da565b6044356001600160a01b03166000908152600b602052604090205460ff166141ba57613e39601554616070565b908160155560405190613e4b82615648565b8282526020820192898452604083019189835260018060a01b0360443516606085015260808401526000526007602052613e92604060002093835185555160018501615ec5565b51805190600160401b8211610bc6576002840154826002860155808310614141575b506020016002840160005260206000206000915b8383106141245750505060608201516003840180546001600160a01b0319166001600160a01b03929092169190911790555060800151805191906001600160401b038311610bc657600160401b8311610bc6576020600491828401548584860155808610614105575b50019101600052602060002060005b8381106140f157505050506044356001600160a01b039081166000818152600b60209081526040808320805460ff19166001179055601554600d83528184208190558352600e909152812080546001600160a01b031916909217909155601954909182918291829182911634156140e7575b3491f115611010577fc66c47c46a9613cb876ef0205ca8c4597eb05703969f8458f4a762107e865dc296613ff994613fed92604435916169c5565b6044359160a435616d40565b614058604051614008816156ec565b602c81527f596f752068617665207375636365737366756c6c7920636f6d706c657465642060208201526b3932b3b4b9ba3930ba34b7b760a11b604082015261404f61657a565b906044356161e5565b6019546040516140b6916001600160a01b031690614075816156ec565b602681527f4e65772050617469656e742069732072656769737465726564207375636365736020820152657366756c6c7960d01b60408201526106d261657a565b610869601554916140d960405194859485526060602086015260608501906157ce565b908382036040850152615da6565b6108fc9150613fb2565b600190602084519401938184015501613f40565b61411e9084860160005286846000209182019101615e69565b8c613f31565b600160208261413583945186615ec5565b01920192019190613ec8565b600285016000526020600020908382015b8183018110614162575050613eb4565b8061416f6001925461560e565b8061417c575b5001614152565b601f908181118414614195575050600081555b8f614175565b6141b160009284845260208420920160051c8201858301615e69565b8183555561418f565b60405162461bcd60e51b815260206004820152601d60248201527f50617469656e7420697320616c726561647920726567697374657265640000006044820152606490fd5b8135815260209182019101613d82565b83356001600160401b03811161048757602091614233839260243691870101615886565b815201930192613d0f565b34610487576020806003193601126104875760043561426160155482111561648c565b600052600481526040600020908154614279816159d7565b906142876040519283615707565b8082528282018094600052836000206000915b83831061430e5760408051878152865181890181905289928201908960005b8281106142c65784840385f35b855180518552808301518584015260408082015190860152606080820151908601526080808201519086015260a090810151908501529481019460c0909301926001016142b9565b6006866001926040516143208161569b565b855481528486015483820152600286015460408201526003860154606082015260048601546080820152600586015460a082015281520192019201919061429a565b34610487576020806003193601126104875760043560018060a01b0361438d81601954163314616313565b61439b601454831115616448565b816000526006835260ff600560406000200154166144c9577ffb071d6299bd71490cb62d5ce7358d7d43ab700c9b4a8bff1f869d2d52c0f1179261449f60069284600052838352614403600560406000200160ff8154161560ff801983541691151516179055565b614451604051614412816156ec565b602581527f596f75206861766520617070726f76656420446f63746f722072656769737472858201526430ba34b7b760d91b604082015261064f616426565b846000528383526002604060002001541660405161446e816156b6565b601d81527f596f757220726567697374726174696f6e20697320617070726f766564000000848201526106d2616426565b600083815291905260409081902060050154815192835260ff161515602083015281908101610869565b60405162461bcd60e51b815260048101849052601a60248201527f446f63746f7220697320616c726561647920617070726f7665640000000000006044820152606490fd5b34610487576020806003193601126104875760043561453160155482111561648c565b60175490600060015b8381111561464c575061454c9061681f565b9260009060015b8481111561456957604051806104838882615975565b806000526009808352604060002090600182015491868314614597575b50505061459290616070565b614553565b9160ff61459294969261464394604051936145b18561567f565b815485528885015260028101546040850152600381015460608501526145d960048201615728565b60808501526145ea60058201615728565b60a08501526145fb60068201615728565b60c085015261460c60078201615728565b60e085015261461d60088201615728565b6101008501520154161515610120820152614638828a616646565b526111c48189616646565b92908780614586565b80600052600985528260016040600020015414614672575b61466d90616070565b61453a565b9061467f61466d91616070565b919050614664565b34610487576000366003190112610487576020601b54604051908152f35b34610487576000366003190112610487576020601354604051908152f35b34610487576020366003190112610487576001600160a01b036146e46155e2565b16600052600a602052602060ff604060002054166040519015158152f35b34610487576020806003193601126104875760043560005260118152604060002090815491614730836159d7565b9261473e6040519485615707565b8084528284018092600052836000206000915b83831061480c5750505050604051918083019381845251809452604083019360408160051b85010192916000955b82871061478c5785850386f35b909192938280600192603f19898203018552875190815181528282015183820152604082015160408201526060808301519082015260e0806147de6080808601519061010080918701528501906157ce565b9360a0808201519085015260c08082015115159085015201511515910152960192019601959291909261477f565b60078660019260409998995161482181615663565b855481528486015483820152600286015460408201526003860154606082015261484d60048701615728565b6080820152600586015460a0820152600686015460ff90818116151560c084015260081c16151560e0820152815201920192019190959495614751565b34610487577f72c1daf6e13ce6ca90b14e03629096ad6d0db94b6cffdce97e62cf5008ab1fd460406148bb3661580e565b6148d060018060a01b03601954163314616313565b6148de60135483111561638e565b8160005260056020528060028460002001556119d683516148fe816156ec565b602381527f4d65646963696e652070726963652075706461746564207375636365737366756020820152626c6c7960e81b8582015261064f61636a565b346104875761072c61494c3661580e565b336000527f90d667bfa211b72f96ed398bbcfae5988d97e3a4c929a0f5d46888f6899d77a081602093600a855261498a60ff60406000205416616181565b614993336168f1565b600052600685526149ae60ff60056040600020015416616535565b6149b9601654616070565b8060165560046149c8336168f1565b91604051926149d684615648565b818452888401858152604085019087825260608601928352608086019342855260005260088b5260406000209551865551600186015551600285015551600384015551910155614a58601654614a2b336168f1565b6040519485944293869192608093969594919660a084019784526020840152604083015260608201520152565b0390a1614aad604051614a6a816156ec565b602981527f596f752068617665207375636365737366756c6c7920707265736372696265648482015268206d65646963696e6560b81b604082015261064f616426565b6000526007815260018060a01b03614b068160036040600020015416604051614ad5816156b6565b601e81527f446f63746f72207072657363726962656420796f75206d65646963696e650000858201526106d2616426565b60195416907f446f63746f722070726573637269626564206d65646963696e6520737563636560405191614b39836156ec565b6027835282015266737366756c6c7960c81b60408201526106d2616426565b3461048757614b66366158a4565b9033600052602090600a8252614b8360ff60406000205416616181565b614b9160155482111561648c565b806000526007825260026040600020018054600160401b811015610bc657614bbe916001820181556164d1565b6139a85761072c93614bcf91615ec5565b614c2d604051614bde816156ec565b603581527f596f752068617665207375636365737366756c6c79207570646174656420706184820152747469656e74206d65646963616c20686973746f727960581b604082015261064f616426565b6000526007815260018060a01b03614c958160036040600020015416604051614c55816156ec565b602681527f596f7572206d65646963616c20686973746f727920757064617465642062792085820152653237b1ba37b960d11b60408201526106d2616426565b60195416907f50617469656e74206d65646963616c20686973746f727920697320757064617460405191614cc8836156ec565b6022835282015261195960f21b60408201526106d2616426565b34610487576020366003190112610487576004356000526008602052604060002080546104836001830154926002810154906004600382015491015491604051958695869192608093969594919660a084019784526020840152604083015260608201520152565b34610487576060366003190112610487576024356004356044356001600160401b03811161048757614d80903690600401615886565b9033600052602092600c8452604060002054908115614fe057816000526006855260ff6005604060002001541615614fa5578260005260108552614dca6040600020548210616031565b614dd5601854616070565b9283601855806000526011865260406000209360405190614df582615663565b8152868101948386526040820185815260608301968488526080840198895260a084019342855260c08101946001865260e0820194600086528054600160401b811015610bc657614e4b91600182018155615824565b9290926139a8577f36804f996462e89c725c18449c461caf9582cb047122af6c0fb99606597165a69b60609b614ebe96600696614ea1945187555160018701555160028601555160038501555160048401615ec5565b5160058201550192511515839060ff801983541691151516179055565b51815461ff00191690151560081b61ff00161790556000818152600e8752604090819020549051614f44916001600160a01b031690614efc816156ec565b602e81527f446f63746f72207265717565737465642061636365737320746f20796f757220898201526d1b59591a58d85b081c9958dbdc9960921b60408201526106d261607f565b614f90604051614f53816156ec565b602381527f4163636573732072657175657374207375626d697474656420746f20706174698882015262195b9d60ea1b604082015261064f61607f565b601854956040519384528301526040820152a2005b60405162461bcd60e51b8152600481018690526013602482015272111bd8dd1bdc881b9bdd08185c1c1c9bdd9959606a1b6044820152606490fd5b60405162461bcd60e51b815260048101869052601760248201527f4e6f742061207265676973746572656420646f63746f720000000000000000006044820152606490fd5b34610487577f1e689cd9ac52751e42953a5acd30b7eac0cc9804ec5c814b2cb6bff6e8ab852b60406150563661580e565b61506b60018060a01b03601954163314616313565b61507960135483111561638e565b8160005260056020528060038460002001556119d68351615099816156ec565b602681527f4d65646963696e65207175616e746974792075706461746564207375636365736020820152657366756c6c7960d01b8582015261064f61636a565b3461048757602080600319360112610487576001600160a01b0390816150fd6155e2565b166000526003908181526040600020908154615118816159d7565b936151266040519586615707565b81855260009384528284208386019491855b8484106151e0575050505050604051928184019082855251809152604084019160408260051b86010193926000965b8388106151745786860387f35b909192939483806151cf600193603f198b8203018752895180518252868482015116848301526151b2604082015160a08060408601528401906157ce565b9160608083015190820152608080920151918184039101526157ce565b970193019701969093929193615167565b60058660019260409a989a516151f581615648565b865481528c85880154168382015261520f60028801615728565b604082015285870154606082015261522960048801615728565b6080820152815201930193019291969496615138565b3461048757602036600319011261048757602061526261525d6155e2565b616983565b6040519015158152f35b346104875761527a3661580e565b90600052601060205260406000209081548110156104875761529b91615824565b50805460018201549160ff6152b260028301615728565b6153196152c160038501615728565b61530b6152d060048701615728565b916152fd60066005890154980154956040519a8b9a8b5260208b01526101008060408c01528a01906157ce565b9088820360608a01526157ce565b9086820360808801526157ce565b60a0858101949094526001600160a01b03821660c0860152921c16151560e08301520390f35b346104875760203660031901126104875760043560005260096020526040600020805460018201549160028101549060038101546004820161538090615728565b61538c60058401615728565b61539860068501615728565b916153a560078601615728565b936153b260088701615728565b956009015460ff1696604051998a998a5260208a01526040890152606088015261014080608089015287016153e6916157ce565b86810360a08801526153f7916157ce565b85810360c0870152615408916157ce565b84810360e0860152615419916157ce565b83810361010085015261542b916157ce565b9015156101208301520390f35b34610487576020366003190112610487576001600160a01b036154596155e2565b16600052600d6020526020604060002054604051908152f35b346104875760203660031901126104875760206154956154906155e2565b6168f1565b604051908152f35b346104875760203660031901126104875760206154956154bb6155e2565b61677a565b346104875760203660031901126104875760195461072c906001600160a01b03166154ec338214616313565b600435601c556040516154fe816156ec565b602d81527f596f752068617665207375636365737366756c6c79207570646174656420417060208201526c706f696e746d656e742066656560981b60408201526106d26165aa565b34610487576020366003190112610487576001600160a01b0360043581811690819003610487578061072c926155826019549182163314616313565b6001600160a01b0319161760195560405161559c816156ec565b602b81527f596f752068617665207375636365737366756c6c79207570646174656420616460208201526a6d696e206164647265737360a81b60408201526106d26165aa565b600435906001600160a01b038216820361048757565b602435906001600160a01b038216820361048757565b90600182811c9216801561563e575b602083101461562857565b634e487b7160e01b600052602260045260246000fd5b91607f169161561d565b60a081019081106001600160401b03821117610bc657604052565b61010081019081106001600160401b03821117610bc657604052565b61014081019081106001600160401b03821117610bc657604052565b60c081019081106001600160401b03821117610bc657604052565b604081019081106001600160401b03821117610bc657604052565b60e081019081106001600160401b03821117610bc657604052565b606081019081106001600160401b03821117610bc657604052565b90601f801991011681019081106001600160401b03821117610bc657604052565b906040519182600082549261573c8461560e565b9081845260019485811690816000146157ab5750600114615768575b505061576692500383615707565b565b9093915060005260209081600020936000915b81831061579357505061576693508201013880615758565b8554888401850152948501948794509183019161577b565b91505061576694506020925060ff191682840152151560051b8201013880615758565b919082519283825260005b8481106157fa575050826000602080949584010152601f8019910116010190565b6020818301810151848301820152016157d9565b6040906003190112610487576004359060243590565b8054821015610bb0576000526007602060002091020190600090565b9291926001600160401b038211610bc65760405191615869601f8201601f191660200184615707565b829481845281830111610487578281602093846000960137010152565b9080601f83011215610487578160206158a193359101615840565b90565b9060406003198301126104875760043591602435906001600160401b038211610487576158a191600401615886565b908151815260208201516020820152604082015160408201526060820151606082015261596561595161593f61592d61591b60808701516101408060808901528701906157ce565b60a087015186820360a08801526157ce565b60c086015185820360c08701526157ce565b60e085015184820360e08601526157ce565b6101008085015190848303908501526157ce565b9161012080910151151591015290565b602080820190808352835180925260408301928160408460051b8301019501936000915b8483106159a95750505050505090565b90919293949584806159c7600193603f198682030187528a516158d3565b9801930193019194939290615999565b6001600160401b038111610bc65760051b60200190565b9181601f84011215610487578235916001600160401b038311610487576020838186019501011161048757565b90815180825260208080930193019160005b828110615a3b575050505090565b835185529381019392810192600101615a2d565b919082518152602090615a6f8285015160a08484015260a08301906157ce565b60408501519282820360408401528351908183528083019281808460051b8301019601936000915b848310615acd5750505050505060806158a1939460018060a01b0360608201511660608401520151906080818403910152615a1b565b9091929394968480615aeb600193601f198682030187528b516157ce565b9901930193019194939290615a97565b602080820190808352835180925260408301928160408460051b8301019501936000915b848310615b2f5750505050505090565b9091929394958480615b4d600193603f198682030187528a51615a4f565b9801930193019194939290615b1f565b908151815260a080615b7e602085015160c0602086015260c08501906157ce565b93600180831b03604082015116604085015260608101516060850152608081015160808501520151151591015290565b602080820190808352835180925260408301928160408460051b8301019501936000915b848310615be25750505050505090565b9091929394958480615c00600193603f198682030187528a51615b5d565b9801930193019194939290615bd2565b6020908160408183019282815285518094520193019160005b828110615c37575050505090565b909192938260a082615c74600194895160808091805184526020810151602085015260408101516040850152606081015160608501520151910152565b01950193929101615c29565b91615c9e9060409295949584526060602085015260608401906157ce565b6001600160a01b03909416910152565b90815181526020820151602082015260e080615d03615cf1615cdf60408701516101008060408901528701906157ce565b606087015186820360608801526157ce565b608086015185820360808701526157ce565b60a0808601519085015260c0808601516001600160a01b031690850152930151151591015290565b908151815260c080615d7f615d4f602086015160e0602087015260e08601906157ce565b60408601516040860152606086015160608601526080860151608086015260a086015185820360a08701526157ce565b930151151591015290565b8054821015610bb0576000526006602060002091020190600090565b90815180825260208092019182818360051b85019501936000915b848310615dd15750505050505090565b9091929394958480615deb83856001950387528a516157ce565b9801930193019194939290615dc1565b90815180825260208092019182818360051b82019501936000915b848310615e265750505050505090565b9091929394958480615e598385600195038752828b51868060a01b038151168352015190604090818582015201906157ce565b9801930193019194939290615e16565b818110615e74575050565b60008155600101615e69565b9190601f8111615e8f57505050565b615766926000526020600020906020601f840160051c83019310615ebb575b601f0160051c0190615e69565b9091508190615eae565b91909182516001600160401b038111610bc657615eec81615ee6845461560e565b84615e80565b602080601f8311600114615f28575081929394600092615f1d575b50508160011b916000199060031b1c1916179055565b015190503880615f07565b90601f198316958460005282600020926000905b888210615f7457505083600195969710615f5b575b505050811b019055565b015160001960f88460031b161c19169055388080615f51565b80600185968294968601518155019501930190615f3c565b60405190615f99826156b6565b600e82526d1359591a58d85b08149958dbdc9960921b6020830152565b90604051615fc381615663565b60e060ff600683958054855260018101546020860152615fe560028201615728565b6040860152615ff660038201615728565b606086015261600760048201615728565b6080860152600581015460a0860152015460018060a01b03811660c085015260a01c161515910152565b1561603857565b60405162461bcd60e51b815260206004820152601060248201526f149958dbdc99081b9bdd08199bdd5b9960821b6044820152606490fd5b6000198114611f3a5760010190565b6040519061608c826156b6565b600e82526d1058d8d95cdcc814995c5d595cdd60921b6020830152565b156160b057565b60405162461bcd60e51b815260206004820152601860248201527f4e6f74206120726567697374657265642070617469656e7400000000000000006044820152606490fd5b156160fc57565b60405162461bcd60e51b815260206004820152601160248201527014995c5d595cdd081b9bdd08199bdd5b99607a1b6044820152606490fd5b1561613c57565b60405162461bcd60e51b815260206004820152601960248201527f5265717565737420616c72656164792070726f636573736564000000000000006044820152606490fd5b1561618857565b60405162461bcd60e51b815260206004820152602f60248201527f4f6e6c79207265676973746572656420646f63746f72732063616e207065726660448201526e37b936903a3434b99030b1ba34b7b760891b6064820152608490fd5b6001600160a01b03908116600081815260036020526040808220548151939691949192919061621385615648565b84526020840187815285850191878352606086019342855260808701958652898152600360205287812090815491600160401b8310156162ff57600183018082558310156162eb57937f9c26059514ab57d9b1c23a991546f58e9339e76427bf2909f3eb15feb61cd5719a999896936162bf9360056020856162cd9c9960049b97522091020197518855600188019151166001600160601b0360a01b8254161790555160028601615ec5565b516003840155519101615ec5565b6162e081519282849384528301906157ce565b4260208301520390a2565b634e487b7160e01b82526032600452602482fd5b634e487b7160e01b82526041600452602482fd5b1561631a57565b60405162461bcd60e51b815260206004820152602260248201527f4f6e6c792061646d696e2063616e20706572666f726d2074686973206163746960448201526137b760f11b6064820152608490fd5b60405190616377826156b6565b60088252674d65646963696e6560c01b6020830152565b1561639557565b60405162461bcd60e51b815260206004820152601760248201527f4d65646963696e6520646f6573206e6f742065786973740000000000000000006044820152606490fd5b156163e157565b60405162461bcd60e51b815260206004820152601a60248201527f496e636f727265637420726567697374726174696f6e206665650000000000006044820152606490fd5b60405190616433826156b6565b60068252652237b1ba37b960d11b6020830152565b1561644f57565b60405162461bcd60e51b8152602060048201526015602482015274111bd8dd1bdc88191bd95cc81b9bdd08195e1a5cdd605a1b6044820152606490fd5b1561649357565b60405162461bcd60e51b815260206004820152601660248201527514185d1a595b9d08191bd95cc81b9bdd08195e1a5cdd60521b6044820152606490fd5b8054821015610bb05760005260206000200190600090565b156164f057565b60405162461bcd60e51b815260206004820152601a60248201527f4170706f696e746d656e7420646f6573206e6f742065786973740000000000006044820152606490fd5b1561653c57565b60405162461bcd60e51b8152602060048201526016602482015275111bd8dd1bdc881a5cc81b9bdd08185c1c1c9bdd995960521b6044820152606490fd5b60405190616587826156b6565b600782526614185d1a595b9d60ca1b6020830152565b91908203918211611f3a57565b604051906165b7826156b6565b600582526420b236b4b760d91b6020830152565b604051906165d882615648565b60006080838281528260208201528260408201528260608201520152565b90616600826159d7565b61660d6040519182615707565b828152809261661e601f19916159d7565b019060005b82811061662f57505050565b60209061663a6165cb565b82828501015201616623565b8051821015610bb05760209160051b010190565b6040519061666782615648565b6060608083600081528260208201528260408201526000838201520152565b90616690826159d7565b61669d6040519182615707565b82815280926166ae601f19916159d7565b019060005b8281106166bf57505050565b6020906166ca61665a565b828285010152016166b3565b9081546166e2816159d7565b926166f06040519485615707565b818452600090815260208082208186015b84841061670f575050505050565b600183819261671d85615728565b815201920193019290616701565b9060405191828154918282526020928383019160005283600020936000905b8282106167605750505061576692500383615707565b85548452600195860195889550938101939091019061674a565b6001600160a01b03166000908152600d6020526040902054801561679b5790565b60405162461bcd60e51b815260206004820152601160248201527014185d1a595b9d081b9bdd08199bdd5b99607a1b6044820152606490fd5b604051906167e18261567f565b600061012083828152826020820152826040820152606083818301528060808301528060a08301528060c08301528060e08301526101008201520152565b90616829826159d7565b6168366040519182615707565b8281528092616847601f19916159d7565b019060005b82811061685857505050565b6020906168636167d4565b8282850101520161684c565b6040519061687c8261569b565b600060a083828152606060208201528260408201528260608201528260808201520152565b906168ab826159d7565b6168b86040519182615707565b82815280926168c9601f19916159d7565b019060005b8281106168da57505050565b6020906168e561686f565b828285010152016168ce565b6001600160a01b03166000908152600c602052604090205480156169125790565b60405162461bcd60e51b815260206004820152601060248201526f111bd8dd1bdc881b9bdd08199bdd5b9960821b6044820152606490fd5b60405190616957826156d1565b600060c08382815260606020820152826040820152826060820152826080820152606060a08201520152565b6001600160a01b03166000908152600160205260409020546169a49061560e565b151590565b8054821015610bb05760005260206000209060011b0190600090565b926169cf83616983565b616bf9578115616bb45760018060a01b0380931693600091858352600191602091838352604085206001600160401b038711616ba057616a1987616a13835461560e565b83615e80565b8686601f8211600114616b325791616a70949391616a5c938991616b27575b5060001960038b901b1c191689881b1790555b898752858552856040882001615ec5565b60405195616a69876156b6565b3691615840565b84528301948552815491600160401b831015616b1357818301808255831015616aff5791616ae891837f290decd9548b62a8d60345a988386fc84ba6bc95484008f6362f93160ef3e5649594521b9151827f290decd9548b62a8d60345a988386fc84ba6bc95484008f6362f93160ef3e56301615ec5565b019151166001600160601b0360a01b825416179055565b634e487b7160e01b81526032600452602490fd5b634e487b7160e01b81526041600452602490fd5b905084013538616a38565b828852858820915088601f198116895b888a838310616b895750505091616a7096959391616a5c959310616b6f575b50508689811b019055616a4b565b85013560001960038c901b60f8161c191690553880616b61565b858a0135875590950194938401938c935001616b42565b634e487b7160e01b86526041600452602486fd5b60405162461bcd60e51b815260206004820152601860248201527f557365726e616d652063616e6e6f7420626520656d70747900000000000000006044820152606490fd5b60405162461bcd60e51b81526020600482015260136024820152725573657220616c72656164792065786973747360681b6044820152606490fd5b15616c3b57565b60405162461bcd60e51b8152602060048201526016602482015275155cd95c881a5cc81b9bdd081c9959da5cdd195c995960521b6044820152606490fd5b908154616c85816159d7565b92604093616c9585519182615707565b828152809460208092019260005281600020906000935b858510616cbb57505050505050565b6002846001928451616ccc816156b6565b848060a01b038754168152616ce2858801615728565b83820152815201930194019391616cac565b15616cfb57565b60405162461bcd60e51b815260206004820152601760248201527f43726561746520616e206163636f756e742066697273740000000000000000006044820152606490fd5b919290616d4f610a2783616983565b616d5883616983565b15616e1b576001600160a01b03828116919084168214616dc757616d7c8484616e60565b15616d89575b5050505050565b616d9b616da291616dbd963691615840565b8484616f02565b6000526001602052616db76040600020615728565b91616f02565b3880808080616d82565b60405162461bcd60e51b815260206004820152602660248201527f55736572732063616e6e6f7420616464207468656d73656c76657320617320666044820152657269656e647360d01b6064820152608490fd5b60405162461bcd60e51b815260206004820152601760248201527f55736572206973206e6f742072656769737465726564210000000000000000006044820152606490fd5b60018060a01b03906000928282168452600192839260209084825260029160409183838a2001548587168a5284848b20015410616efc575b88975b616eac575b50505050505050905090565b8481168852868252838389200180548a1015616ef657616ecd8a87926169a9565b50541685871614616eea57616ee3879899616070565b9897616e9b565b50505050505091505090565b50616ea0565b94616e98565b9190604051616f10816156b6565b6001600160a01b03918216815260208082019384529382166000908152600190945260408420600201805490600160401b821015616ba05790616f58916001820181556169a9565b949094616f7f57505183546001600160a01b03191691161782555161576691600101615ec5565b634e487b7160e01b81526004819052602490fd5b60405190616fa0826156b6565b60078252664d65737361676560c81b6020830152565b906001600160a01b0380821690831610156170145761700e61700091604051928391602083019586906028926001600160601b0319809260601b16835260601b1660148201520190565b03601f198101835282615707565b51902090565b6040516bffffffffffffffffffffffff19606092831b8116602083019081529390921b909116603482015261700e816048810161700056fea26469706673582212205761da3095f83120f5970aa19d7a26ce5e3409ad613d7ce8f62b3cff3765fdb864736f6c63430008130033",
  "linkReferences": {},
  "deployedLinkReferences": {}
}